{
  "contractName": "ConnectionFile",
  "abi": [
    {
      "inputs": [
        {
          "internalType": "address payable",
          "name": "_user",
          "type": "address"
        },
        {
          "internalType": "enum ConnectionFile.Role",
          "name": "_role",
          "type": "uint8"
        },
        {
          "internalType": "address",
          "name": "_CMS",
          "type": "address"
        }
      ],
      "payable": false,
      "stateMutability": "nonpayable",
      "type": "constructor"
    },
    {
      "anonymous": false,
      "inputs": [
        {
          "indexed": true,
          "internalType": "address",
          "name": "file",
          "type": "address"
        },
        {
          "indexed": true,
          "internalType": "address",
          "name": "user",
          "type": "address"
        },
        {
          "indexed": false,
          "internalType": "enum ConnectionFile.Role",
          "name": "role",
          "type": "uint8"
        },
        {
          "indexed": true,
          "internalType": "address",
          "name": "connection",
          "type": "address"
        }
      ],
      "name": "ConnectionAdded",
      "type": "event"
    },
    {
      "constant": true,
      "inputs": [
        {
          "internalType": "enum Connection.Status",
          "name": "state",
          "type": "uint8"
        }
      ],
      "name": "GetTypeConnections",
      "outputs": [
        {
          "internalType": "address[]",
          "name": "",
          "type": "address[]"
        }
      ],
      "payable": false,
      "stateMutability": "view",
      "type": "function"
    },
    {
      "constant": false,
      "inputs": [
        {
          "internalType": "address",
          "name": "_otherUser",
          "type": "address"
        }
      ],
      "name": "getAssociatedConnection",
      "outputs": [
        {
          "internalType": "bool",
          "name": "",
          "type": "bool"
        },
        {
          "internalType": "contract Connection",
          "name": "",
          "type": "address"
        }
      ],
      "payable": false,
      "stateMutability": "nonpayable",
      "type": "function"
    },
    {
      "constant": false,
      "inputs": [
        {
          "internalType": "contract Connection",
          "name": "_connect",
          "type": "address"
        }
      ],
      "name": "AddConnection",
      "outputs": [],
      "payable": false,
      "stateMutability": "nonpayable",
      "type": "function"
    },
    {
      "constant": true,
      "inputs": [],
      "name": "getListOfConnections",
      "outputs": [
        {
          "internalType": "contract Connection[]",
          "name": "",
          "type": "address[]"
        }
      ],
      "payable": false,
      "stateMutability": "view",
      "type": "function"
    },
    {
      "constant": true,
      "inputs": [],
      "name": "getOwner",
      "outputs": [
        {
          "internalType": "address",
          "name": "",
          "type": "address"
        }
      ],
      "payable": false,
      "stateMutability": "view",
      "type": "function"
    }
  ],
  "bytecode": "0x6080604052614e2060025534801561001657600080fd5b50604051610fef380380610fef833981016040819052610035916100aa565b600080546001600160a01b038084166001600160a01b03199283161790925560038054928616929091169190911780825583919060ff60a01b1916600160a01b83600281111561008157fe5b021790555050505061012c565b805161009981610108565b92915050565b80516100998161011f565b6000806000606084860312156100bf57600080fd5b60006100cb868661008e565b93505060206100dc8682870161009f565b92505060406100ed8682870161008e565b9150509250925092565b60006001600160a01b038216610099565b610111816100f7565b811461011c57600080fd5b50565b6003811061011c57600080fd5b610eb48061013b6000396000f3fe608060405234801561001057600080fd5b50600436106100575760003560e01c8063122b2b5a1461005c57806346bc6c881461007a5780634ab2edf91461009a5780635cd3d8da146100bb578063893d20e8146100d0575b600080fd5b6100646100e5565b60405161007191906109f0565b60405180910390f35b61008d61008836600461085e565b61015f565b60405161007191906109df565b6100ad6100a83660046107fc565b61044d565b604051610071929190610a01565b6100ce6100c9366004610840565b6106da565b005b6100d86107a3565b6040516100719190610994565b6003546060906001600160a01b031632146100ff57600080fd5b600480548060200260200160405190810160405280929190818152602001828054801561015557602002820191906000526020600020905b81546001600160a01b03168152600190910190602001808311610137575b5050505050905090565b6003546060906001600160a01b031632148061018557506000546001600160a01b031633145b61018e57600080fd5b60606002546040519080825280602002602001820160405280156101bc578160200160208202803883390190505b5090506000805b600454811015610442578460038111156101d957fe5b600482815481106101e657fe5b60009182526020918290200154604080516302734eab60e51b815290516001600160a01b0390921692634e69d56092600480840193829003018186803b15801561022f57600080fd5b505afa158015610243573d6000803e3d6000fd5b505050506040513d601f19601f82011682018060405250610267919081019061087c565b600381111561027257fe5b141561043a576000600354600160a01b900460ff16600281111561029257fe5b141561035957600481815481106102a557fe5b6000918252602091829020015460408051633d87cd1b60e11b815290516001600160a01b0390921692637b0f9a3692600480840193829003018186803b1580156102ee57600080fd5b505afa158015610302573d6000803e3d6000fd5b505050506040513d601f19601f820116820180604052506103269190810190610822565b83838151811061033257fe5b60200260200101906001600160a01b031690816001600160a01b0316815250506001820191505b6001600354600160a01b900460ff16600281111561037357fe5b141561043a576004818154811061038657fe5b60009182526020918290200154604080516301d552c960e51b815290516001600160a01b0390921692633aaa592092600480840193829003018186803b1580156103cf57600080fd5b505afa1580156103e3573d6000803e3d6000fd5b505050506040513d601f19601f820116820180604052506104079190810190610822565b83838151811061041357fe5b60200260200101906001600160a01b031690816001600160a01b0316815250506001820191505b6001016101c3565b50909150505b919050565b60035460009081906001600160a01b031632148061047557506000546001600160a01b031633145b61047e57600080fd5b6000600354600160a01b900460ff16600281111561049857fe5b14156105de5760005b60045481101561058a57836001600160a01b0316600482815481106104c257fe5b6000918252602091829020015460408051633d87cd1b60e11b815290516001600160a01b0390921692637b0f9a3692600480840193829003018186803b15801561050b57600080fd5b505afa15801561051f573d6000803e3d6000fd5b505050506040513d601f19601f820116820180604052506105439190810190610822565b6001600160a01b031614156105825760016004828154811061056157fe5b6000918252602090912001549093506001600160a01b031691506106d59050565b6001016104a1565b506003546040516000916001600160a01b03169085906105a9906107b2565b6105b49291906109a2565b604051809103906000f0801580156105d0573d6000803e3d6000fd5b506000935091506106d59050565b60005b6004548110156106a957836001600160a01b03166004828154811061060257fe5b60009182526020918290200154604080516301d552c960e51b815290516001600160a01b0390921692633aaa592092600480840193829003018186803b15801561064b57600080fd5b505afa15801561065f573d6000803e3d6000fd5b505050506040513d601f19601f820116820180604052506106839190810190610822565b6001600160a01b031614156106a15760016004828154811061056157fe5b6001016105e1565b5060035460405160009185916001600160a01b03909116906106ca906107b2565b6105b49291906109c4565b915091565b6003546001600160a01b03163214806106fd57506000546001600160a01b031633145b61070657600080fd5b600480546001810182556000919091527f8a35acfbc15ff81a39ae7d344fd709f28e8600b4aa8c65c6b64bfe7fe36bd19b0180546001600160a01b0319166001600160a01b03838116918217909255600354604051919281169130917f8a9208f2779a24d352064589ab804c990968f6b7568525cadfe439d89b47d1d79161079891600160a01b900460ff1690610a1c565b60405180910390a450565b6003546001600160a01b031690565b6103b680610abc83390190565b80356107ca81610a91565b92915050565b80516107ca81610a91565b80356107ca81610aa5565b80356107ca81610aae565b80516107ca81610aae565b60006020828403121561080e57600080fd5b600061081a84846107bf565b949350505050565b60006020828403121561083457600080fd5b600061081a84846107d0565b60006020828403121561085257600080fd5b600061081a84846107db565b60006020828403121561087057600080fd5b600061081a84846107e6565b60006020828403121561088e57600080fd5b600061081a84846107f1565b60006108a683836108c9565b505060200190565b60006108a68383610982565b6108c381610a6e565b82525050565b6108c381610a3d565b60006108dd82610a30565b6108e78185610a34565b93506108f283610a2a565b8060005b8381101561092057815161090a888261089a565b975061091583610a2a565b9250506001016108f6565b509495945050505050565b600061093682610a30565b6109408185610a34565b935061094b83610a2a565b8060005b8381101561092057815161096388826108ae565b975061096e83610a2a565b92505060010161094f565b6108c381610a48565b6108c381610a4d565b6108c381610a79565b602081016107ca82846108c9565b604081016109b082856108ba565b6109bd60208301846108c9565b9392505050565b604081016109d282856108c9565b6109bd60208301846108ba565b602080825281016109bd81846108d2565b602080825281016109bd818461092b565b60408101610a0f8285610979565b6109bd6020830184610982565b602081016107ca828461098b565b60200190565b5190565b90815260200190565b60006107ca82610a62565b151590565b60006107ca82610a3d565b8061044881610a84565b6001600160a01b031690565b60006107ca82610a4d565b60006107ca82610a58565b60038110610a8e57fe5b50565b610a9a81610a3d565b8114610a8e57600080fd5b610a9a81610a4d565b60048110610a8e57600080fdfe608060405234801561001057600080fd5b506040516103b63803806103b683398101604081905261002f91610078565b600080546001600160a01b039384166001600160a01b031991821617909155600180549290931691161760ff60a01b191690556100da565b8051610072816100c3565b92915050565b6000806040838503121561008b57600080fd5b60006100978585610067565b92505060206100a885828601610067565b9150509250929050565b60006001600160a01b038216610072565b6100cc816100b2565b81146100d757600080fd5b50565b6102cd806100e96000396000f3fe608060405234801561001057600080fd5b50600436106100575760003560e01c80632e49d78b1461005c5780633aaa5920146100715780634e69d5601461008f5780637b0f9a36146100a4578063ea8a1af0146100ac575b600080fd5b61006f61006a3660046101e5565b6100b4565b005b610079610107565b6040516100869190610223565b60405180910390f35b610097610144565b6040516100869190610231565b610079610182565b61006f6101bf565b6000546001600160a01b03163214806100d757506001546001600160a01b031632145b6100e057600080fd5b6001805482919060ff60a01b1916600160a01b8360038111156100ff57fe5b021790555050565b600080546001600160a01b031632148061012b57506001546001600160a01b031632145b61013457600080fd5b506000546001600160a01b031690565b600080546001600160a01b031632148061016857506001546001600160a01b031632145b61017157600080fd5b50600154600160a01b900460ff1690565b600080546001600160a01b03163214806101a657506001546001600160a01b031632145b6101af57600080fd5b506001546001600160a01b031690565b6001805460ff60a01b1916600360a01b179055565b80356101df8161027d565b92915050565b6000602082840312156101f757600080fd5b600061020384846101d4565b949350505050565b6102148161023f565b82525050565b61021481610265565b602081016101df828461020b565b602081016101df828461021a565b60006101df82610259565b8061025481610270565b919050565b6001600160a01b031690565b60006101df8261024a565b6004811061027a57fe5b50565b6004811061027a57600080fdfea365627a7a723158207dddea192f36f400f10f2483b3492222c7b8c6e24579c3af0ba4e591792331e76c6578706572696d656e74616cf564736f6c63430005100040a365627a7a72315820de35f0f3e37c7ca74f6eda6d639f1da530067fe08c3d4b5eefa520972ef4c9996c6578706572696d656e74616cf564736f6c63430005100040",
  "source": "pragma solidity ^0.5.2;\r\npragma experimental ABIEncoderV2;\r\nimport \"./Connection.sol\";\r\n\r\n\r\ncontract ConnectionFile {\r\n\r\n  address CMS;\r\n  address validator;\r\n  uint256 max_conn = 20000;\r\n\r\n\r\n  /* The owner of the file */\r\n  address payable user;\r\n  \r\n  enum Role {\r\n    doctor,\r\n    patient,\r\n    nominee\r\n  }\r\n  \r\n\r\n  Role private role;\r\n\r\n  /* The list of all consents */\r\n  Connection[] listOfConnections;\r\n  \r\n  /* Events that are sent when things happen */\r\n  event ConnectionAdded(address indexed file,address indexed user, Role role, address indexed connection);\r\n  \r\n  /* A modifier */\r\n  modifier onlyByUser()\r\n  {\r\n    require(tx.origin == user);\r\n    _;\r\n  }\r\n  \r\n  modifier CMSorUser()\r\n  {\r\n    require ((tx.origin == user) || (msg.sender == CMS));\r\n    _;\r\n  }\r\n\r\n  /* The constructor of the file. Also attaches it to an owner */\r\n  constructor (address payable _user,Role _role,address _CMS) public\r\n  {\r\n    CMS = _CMS;\r\n    user = _user;\r\n    role = _role;\r\n  }\r\n\r\n  function GetTypeConnections(Connection.Status state) CMSorUser() public view returns(address[] memory) {\r\n    address[] memory ReqConnections = new address[](max_conn);\r\n    \r\n    uint256 cnt = 0;\r\n    for(uint i=0;i<listOfConnections.length;i++) {\r\n        if(listOfConnections[i].getStatus() == state) {\r\n            if(role == Role.doctor) {\r\n                ReqConnections[cnt] = listOfConnections[i].getPatient();\r\n                cnt += 1;\r\n            }\r\n            if(role == Role.patient) {\r\n                ReqConnections[cnt] = listOfConnections[i].getDoctor();\r\n                cnt += 1;\r\n            }\r\n        }\r\n    }\r\n    return ReqConnections;\r\n  }\r\n    \r\n    function getAssociatedConnection(address _otherUser) CMSorUser() public returns(bool,Connection) {\r\n    if(role == Role.doctor) {\r\n      for(uint i=0;i < listOfConnections.length;i++) {\r\n        if(listOfConnections[i].getPatient() == _otherUser) {\r\n          return (true,listOfConnections[i]);\r\n        }\r\n      }\r\n      Connection nc = new Connection(user,_otherUser);\r\n      return (false,nc);\r\n    }\r\n    else {\r\n      for(uint i=0;i < listOfConnections.length;i++) {\r\n        if(listOfConnections[i].getDoctor() == _otherUser) {\r\n          return (true,listOfConnections[i]);\r\n        }\r\n      }\r\n      Connection nc = new Connection(_otherUser,user);\r\n      return (false,nc);\r\n    }\r\n  }\r\n\r\n  /* Adds a new consent to the file */\r\n  function AddConnection(Connection _connect) CMSorUser() public \r\n  {\r\n    listOfConnections.push(_connect);\r\n    emit ConnectionAdded(address(this), user, role, address(_connect));\r\n  }\r\n\r\n  /* Retrieve a list of all consents in the file */\r\n  function getListOfConnections () onlyByUser() public view returns (Connection[] memory)\r\n  {\r\n    return listOfConnections;\r\n  }\r\n\r\n  /* Retrieves the owner */\r\n  function getOwner () public view returns (address)\r\n  {\r\n    return user;\r\n  }\r\n  \r\n}\r\n",
  "sourcePath": "C:\\dev\\Healthcare-CMS\\ScratchFrontend\\ConsentManagementFrontEnd\\contract-testing\\contracts\\ConnectionFile.sol",
  "compiler": {
    "name": "solc",
    "version": "0.5.16+commit.9c3226ce.Emscripten.clang"
  },
  "schemaVersion": "3.4.2",
  "updatedAt": "2022-04-29T16:01:47.210Z",
  "devdoc": {
    "methods": {}
  },
  "userdoc": {
    "methods": {}
  }
}