{
  "contractName": "ConnectionFile",
  "abi": [
    {
      "inputs": [
        {
          "internalType": "address payable",
          "name": "_user",
          "type": "address"
        },
        {
          "internalType": "enum ConnectionFile.Role",
          "name": "_role",
          "type": "uint8"
        },
        {
          "internalType": "address",
          "name": "_CMS",
          "type": "address"
        }
      ],
      "stateMutability": "nonpayable",
      "type": "constructor"
    },
    {
      "anonymous": false,
      "inputs": [
        {
          "indexed": true,
          "internalType": "address",
          "name": "file",
          "type": "address"
        },
        {
          "indexed": true,
          "internalType": "address",
          "name": "user",
          "type": "address"
        },
        {
          "indexed": false,
          "internalType": "enum ConnectionFile.Role",
          "name": "role",
          "type": "uint8"
        },
        {
          "indexed": true,
          "internalType": "address",
          "name": "connection",
          "type": "address"
        }
      ],
      "name": "ConnectionAdded",
      "type": "event"
    },
    {
      "anonymous": false,
      "inputs": [
        {
          "indexed": true,
          "internalType": "address",
          "name": "file",
          "type": "address"
        },
        {
          "indexed": true,
          "internalType": "address",
          "name": "user",
          "type": "address"
        },
        {
          "indexed": false,
          "internalType": "enum ConnectionFile.Role",
          "name": "role",
          "type": "uint8"
        },
        {
          "indexed": true,
          "internalType": "string",
          "name": "hospital",
          "type": "string"
        }
      ],
      "name": "HospitalConnectionAdded",
      "type": "event"
    },
    {
      "inputs": [
        {
          "internalType": "enum Connection.Status",
          "name": "state",
          "type": "uint8"
        }
      ],
      "name": "GetTypeConnections",
      "outputs": [
        {
          "internalType": "address[]",
          "name": "",
          "type": "address[]"
        }
      ],
      "stateMutability": "view",
      "type": "function"
    },
    {
      "inputs": [
        {
          "internalType": "address",
          "name": "_otherUser",
          "type": "address"
        },
        {
          "internalType": "contract ConnectionFile",
          "name": "_otherUserConnFile",
          "type": "address"
        }
      ],
      "name": "getAssociatedConnection",
      "outputs": [
        {
          "internalType": "bool",
          "name": "",
          "type": "bool"
        },
        {
          "internalType": "contract Connection",
          "name": "",
          "type": "address"
        }
      ],
      "stateMutability": "nonpayable",
      "type": "function"
    },
    {
      "inputs": [
        {
          "internalType": "contract Connection",
          "name": "_connect",
          "type": "address"
        }
      ],
      "name": "AddConnection",
      "outputs": [],
      "stateMutability": "nonpayable",
      "type": "function"
    },
    {
      "inputs": [
        {
          "internalType": "string",
          "name": "_hospital",
          "type": "string"
        }
      ],
      "name": "AddHospitalConnection",
      "outputs": [],
      "stateMutability": "nonpayable",
      "type": "function"
    },
    {
      "inputs": [],
      "name": "getHopitalConnections",
      "outputs": [
        {
          "internalType": "string[]",
          "name": "",
          "type": "string[]"
        }
      ],
      "stateMutability": "view",
      "type": "function"
    },
    {
      "inputs": [
        {
          "internalType": "string",
          "name": "_hospital",
          "type": "string"
        }
      ],
      "name": "disconnectHospital",
      "outputs": [],
      "stateMutability": "nonpayable",
      "type": "function"
    },
    {
      "inputs": [],
      "name": "getListOfConnections",
      "outputs": [
        {
          "internalType": "contract Connection[]",
          "name": "",
          "type": "address[]"
        }
      ],
      "stateMutability": "view",
      "type": "function"
    },
    {
      "inputs": [],
      "name": "getOwner",
      "outputs": [
        {
          "internalType": "address",
          "name": "",
          "type": "address"
        }
      ],
      "stateMutability": "view",
      "type": "function"
    }
  ],
  "bytecode": "0x608060405260c860025534801561001557600080fd5b506040516115363803806115368339810160408190526100349161008d565b600080546001600160a01b038084166001600160a01b03199283161790925560038054928616929091169190911780825583919060ff60a01b1916600160a01b83600281111561008057fe5b02179055505050506100f4565b6000806000606084860312156100a1578283fd5b83516100ac816100dc565b6020850151909350600381106100c0578283fd5b60408501519092506100d1816100dc565b809150509250925092565b6001600160a01b03811681146100f157600080fd5b50565b611433806101036000396000f3fe608060405234801561001057600080fd5b50600436106100785760003560e01c8063117334a41461007d578063122b2b5a146100a7578063157f4a58146100bc57806346bc6c88146100d15780635385eadf146100e45780635cd3d8da146100f7578063893d20e81461010a578063ef0052fd1461011f575b600080fd5b61009061008b366004610cee565b610134565b60405161009e929190610f9e565b60405180910390f35b6100af6103c5565b60405161009e9190610ed9565b6100cf6100ca366004610d7a565b61043f565b005b6100af6100df366004610d42565b61048b565b6100cf6100f2366004610d7a565b610799565b6100cf610105366004610d26565b6108cc565b61011261098a565b60405161009e9190610e9a565b610127610999565b60405161009e9190610f26565b60035460009081906001600160a01b031632148061015c57506000546001600160a01b031633145b61016557600080fd5b6000600354600160a01b900460ff16600281111561017f57fe5b14156102cb5760005b60045481101561027157846001600160a01b0316600482815481106101a957fe5b6000918252602091829020015460408051633d87cd1b60e11b815290516001600160a01b0390921692637b0f9a3692600480840193829003018186803b1580156101f257600080fd5b505afa158015610206573d6000803e3d6000fd5b505050506040513d601f19601f8201168201806040525081019061022a9190610ccb565b6001600160a01b031614156102695760016004828154811061024857fe5b6000918252602090912001549093506001600160a01b031691506103be9050565b600101610188565b506003546040516000916001600160a01b03169086903090879061029490610c1d565b6102a19493929190610eae565b604051809103906000f0801580156102bd573d6000803e3d6000fd5b506000935091506103be9050565b60005b60045481101561039657846001600160a01b0316600482815481106102ef57fe5b60009182526020918290200154604080516301d552c960e51b815290516001600160a01b0390921692633aaa592092600480840193829003018186803b15801561033857600080fd5b505afa15801561034c573d6000803e3d6000fd5b505050506040513d601f19601f820116820180604052508101906103709190610ccb565b6001600160a01b0316141561038e5760016004828154811061024857fe5b6001016102ce565b50600084600360009054906101000a90046001600160a01b0316853060405161029490610c1d565b9250929050565b6003546060906001600160a01b031632146103df57600080fd5b600480548060200260200160405190810160405280929190818152602001828054801561043557602002820191906000526020600020905b81546001600160a01b03168152600190910190602001808311610417575b5050505050905090565b6003546001600160a01b0316321461045657600080fd5b60006006826040516104689190610e0e565b908152604051908190036020019020805491151560ff1990921691909117905550565b6003546060906001600160a01b03163214806104b157506000546001600160a01b031633145b6104ba57600080fd5b60006104c583610b1f565b90506060816001600160401b03811180156104df57600080fd5b50604051908082528060200260200182016040528015610509578160200160208202803683370190505b5090506000805b60045481101561078f5785600381111561052657fe5b6004828154811061053357fe5b60009182526020918290200154604080516302734eab60e51b815290516001600160a01b0390921692634e69d56092600480840193829003018186803b15801561057c57600080fd5b505afa158015610590573d6000803e3d6000fd5b505050506040513d601f19601f820116820180604052508101906105b49190610d5e565b60038111156105bf57fe5b1415610787576000600354600160a01b900460ff1660028111156105df57fe5b14156106a657600481815481106105f257fe5b6000918252602091829020015460408051633d87cd1b60e11b815290516001600160a01b0390921692637b0f9a3692600480840193829003018186803b15801561063b57600080fd5b505afa15801561064f573d6000803e3d6000fd5b505050506040513d601f19601f820116820180604052508101906106739190610ccb565b83838151811061067f57fe5b60200260200101906001600160a01b031690816001600160a01b0316815250506001820191505b6001600354600160a01b900460ff1660028111156106c057fe5b141561078757600481815481106106d357fe5b60009182526020918290200154604080516301d552c960e51b815290516001600160a01b0390921692633aaa592092600480840193829003018186803b15801561071c57600080fd5b505afa158015610730573d6000803e3d6000fd5b505050506040513d601f19601f820116820180604052508101906107549190610ccb565b83838151811061076057fe5b60200260200101906001600160a01b031690816001600160a01b0316815250506001820191505b600101610510565b5090949350505050565b6003546001600160a01b03163214806107bc57506000546001600160a01b031633145b6107c557600080fd5b6006816040516107d59190610e0e565b9081526040519081900360200190205460ff166108c95760058054600181018255600091909152815161082f917f036b6384b5eca791c62761152d0c79bb0604c104a5fb6f4eb0703f3154bb3db001906020840190610c2a565b5060016006826040516108429190610e0e565b908152604051908190036020018120805492151560ff199093169290921790915561086e908290610e0e565b60405190819003812060035490916001600160a01b0382169130917f3609af973f59129c43785d1daadeb45a8b22326d40d21c9445d0f9d03e489fb8916108c091600160a01b90910460ff1690610fb7565b60405180910390a45b50565b6003546001600160a01b03163214806108ef57506000546001600160a01b031633145b6108f857600080fd5b600480546001810182556000919091527f8a35acfbc15ff81a39ae7d344fd709f28e8600b4aa8c65c6b64bfe7fe36bd19b0180546001600160a01b0319166001600160a01b03838116918217909255600354604051919281169130917f8a9208f2779a24d352064589ab804c990968f6b7568525cadfe439d89b47d1d7916108c091600160a01b900460ff1690610fb7565b6003546001600160a01b031690565b6003546060906001600160a01b031632146109b357600080fd5b6005546060906001600160401b03811180156109ce57600080fd5b50604051908082528060200260200182016040528015610a0257816020015b60608152602001906001900390816109ed5790505b5090506000805b600554811015610b1757600660058281548110610a2257fe5b90600052602060002001604051610a399190610e2a565b9081526040519081900360200190205460ff1615610b0f5760058181548110610a5e57fe5b600091825260209182902001805460408051601f6002600019610100600187161502019094169390930492830185900485028101850190915281815292830182828015610aec5780601f10610ac157610100808354040283529160200191610aec565b820191906000526020600020905b815481529060010190602001808311610acf57829003601f168201915b5050505050838381518110610afd57fe5b60209081029190910101526001909101905b600101610a09565b509091505090565b6003546000906001600160a01b0316321480610b4557506000546001600160a01b031633145b610b4e57600080fd5b6000805b600454811015610c1657836003811115610b6857fe5b60048281548110610b7557fe5b60009182526020918290200154604080516302734eab60e51b815290516001600160a01b0390921692634e69d56092600480840193829003018186803b158015610bbe57600080fd5b505afa158015610bd2573d6000803e3d6000fd5b505050506040513d601f19601f82011682018060405250810190610bf69190610d5e565b6003811115610c0157fe5b1415610c0e576001820191505b600101610b52565b5092915050565b6103e08061101e83390190565b828054600181600116156101000203166002900490600052602060002090601f016020900481019282610c605760008555610ca6565b82601f10610c7957805160ff1916838001178555610ca6565b82800160010185558215610ca6579182015b82811115610ca6578251825591602001919060010190610c8b565b50610cb2929150610cb6565b5090565b5b80821115610cb25760008155600101610cb7565b600060208284031215610cdc578081fd5b8151610ce781610ffb565b9392505050565b60008060408385031215610d00578081fd5b8235610d0b81610ffb565b91506020830135610d1b81610ffb565b809150509250929050565b600060208284031215610d37578081fd5b8135610ce781610ffb565b600060208284031215610d53578081fd5b8135610ce781611010565b600060208284031215610d6f578081fd5b8151610ce781611010565b60006020808385031215610d8c578182fd5b82356001600160401b0380821115610da2578384fd5b818501915085601f830112610db5578384fd5b813581811115610dc157fe5b604051601f8201601f1916810185018381118282101715610dde57fe5b6040528181528382018501881015610df4578586fd5b818585018683013790810190930193909352509392505050565b60008251610e20818460208701610fcb565b9190910192915050565b6000808354600180821660008114610e495760018114610e6057610e8f565b60ff198316865260028304607f1686019350610e8f565b600283048786526020808720875b83811015610e875781548a820152908501908201610e6e565b505050860193505b509195945050505050565b6001600160a01b0391909116815260200190565b6001600160a01b03948516815292841660208401529083166040830152909116606082015260800190565b6020808252825182820181905260009190848201906040850190845b81811015610f1a5783516001600160a01b031683529284019291840191600101610ef5565b50909695505050505050565b6000602080830181845280855180835260408601915060408482028701019250838701855b82811015610f9157878503603f1901845281518051808752610f72818989018a8501610fcb565b601f01601f191695909501860194509285019290850190600101610f4b565b5092979650505050505050565b91151582526001600160a01b0316602082015260400190565b6020810160038310610fc557fe5b91905290565b60005b83811015610fe6578181015183820152602001610fce565b83811115610ff5576000848401525b50505050565b6001600160a01b03811681146108c957600080fd5b600481106108c957600080fdfe608060405234801561001057600080fd5b506040516103e03803806103e083398101604081905261002f916100a3565b600080546001600160a01b03199081166001600160a01b039687161790915560018054821694861694909417909355600280548416928516929092179091556003805460ff60a01b19931691909316171690556100f6565b80516001600160a01b038116811461009e57600080fd5b919050565b600080600080608085870312156100b8578384fd5b6100c185610087565b93506100cf60208601610087565b92506100dd60408601610087565b91506100eb60608601610087565b905092959194509250565b6102db806101056000396000f3fe608060405234801561001057600080fd5b50600436106100575760003560e01c80632e49d78b1461005c5780633aaa5920146100715780634e69d5601461008f5780637b0f9a36146100a4578063ea8a1af0146100ac575b600080fd5b61006f61006a366004610257565b6100b4565b005b610079610106565b604051610086919061027d565b60405180910390f35b61009761016f565b6040516100869190610291565b6100796101d9565b61006f610242565b6000546001600160a01b03163214806100d757506001546001600160a01b031632145b6100e057600080fd5b6003805482919060ff60a01b1916600160a01b83838111156100fe57fe5b021790555050565b6002546000906001600160a01b031633148061012c57506003546001600160a01b031633145b8061014157506000546001600160a01b031632145b8061015657506001546001600160a01b031632145b61015f57600080fd5b506000546001600160a01b031690565b6002546000906001600160a01b031633148061019557506003546001600160a01b031633145b806101aa57506000546001600160a01b031632145b806101bf57506001546001600160a01b031632145b6101c857600080fd5b50600354600160a01b900460ff1690565b6002546000906001600160a01b03163314806101ff57506003546001600160a01b031633145b8061021457506000546001600160a01b031632145b8061022957506001546001600160a01b031632145b61023257600080fd5b506001546001600160a01b031690565b6003805460ff60a01b1916600360a01b179055565b600060208284031215610268578081fd5b813560048110610276578182fd5b9392505050565b6001600160a01b0391909116815260200190565b602081016004831061029f57fe5b9190529056fea2646970667358221220eeb61d2446bed2d769c6fbc0b41f14fa54500ca711b2a88cd08f41c46dc5ff3064736f6c63430007050033a264697066735822122094c49ef97e593670e532217a931dab610e9eaeef7fe86e85cbb22a008b6aaf8e64736f6c63430007050033",
  "immutableReferences": {},
  "source": "pragma solidity ^0.7.5;\r\npragma experimental ABIEncoderV2;\r\nimport \"./Connection.sol\";\r\n\r\n\r\ncontract ConnectionFile {\r\n\r\n  address CMS;\r\n  address validator;\r\n  uint256 max_conn = 200;\r\n\r\n\r\n  /* The owner of the file */\r\n  address payable user;\r\n  \r\n  enum Role {\r\n    doctor,\r\n    patient,\r\n    nominee\r\n  }\r\n  \r\n\r\n  Role private role;\r\n\r\n  /* The list of all consents */\r\n  Connection[] listOfConnections;\r\n\r\n  string[] private HospitalConnections;\r\n\r\n  mapping(string=>bool) private AcceptedHospitalConnections;\r\n\r\n  /* Events that are sent when things happen */\r\n  event ConnectionAdded(address indexed file,address indexed user, Role role, address indexed connection);\r\n  event HospitalConnectionAdded(address indexed file,address indexed user,Role role, string indexed hospital);\r\n\r\n  /* A modifier */\r\n  modifier onlyByUser()\r\n  {\r\n    require(tx.origin == user);\r\n    _;\r\n  }\r\n  \r\n  modifier CMSorUser()\r\n  {\r\n    require ((tx.origin == user) || (msg.sender == CMS));\r\n    _;\r\n  }\r\n\r\n  /* The constructor of the file. Also attaches it to an owner */\r\n  constructor (address payable _user,Role _role,address _CMS) public\r\n  {\r\n    CMS = _CMS;\r\n    user = _user;\r\n    role = _role;\r\n  }\r\n\r\n  function GetNumTypeConnections(Connection.Status state) CMSorUser() private view returns(uint256) {\r\n    uint256 cnt = 0;\r\n    for(uint i=0;i<listOfConnections.length;i++) {\r\n      if(listOfConnections[i].getStatus() == state) {\r\n        cnt += 1;\r\n      }\r\n    }\r\n    return cnt;\r\n  }\r\n\r\n  function GetTypeConnections(Connection.Status state) CMSorUser() public view returns(address[] memory) {\r\n    uint256 TypeCnt = GetNumTypeConnections(state);\r\n    address[] memory ReqConnections = new address[](TypeCnt);\r\n    \r\n    uint256 cnt = 0;\r\n    for(uint i=0;i<listOfConnections.length;i++) {\r\n        // listOfConnections[i].getStatus();\r\n        if(listOfConnections[i].getStatus() == state) {\r\n            if(role == Role.doctor) {\r\n                ReqConnections[cnt] = listOfConnections[i].getPatient();\r\n                cnt += 1;\r\n            }\r\n            if(role == Role.patient) {\r\n                ReqConnections[cnt] = listOfConnections[i].getDoctor();\r\n                cnt += 1;\r\n            }\r\n        }\r\n    }\r\n    return ReqConnections;\r\n  }\r\n    \r\n    function getAssociatedConnection(address _otherUser,ConnectionFile _otherUserConnFile) CMSorUser() public returns(bool,Connection) {\r\n    if(role == Role.doctor) {\r\n      for(uint i=0;i < listOfConnections.length;i++) {\r\n        if(listOfConnections[i].getPatient() == _otherUser) {\r\n          return (true,listOfConnections[i]);\r\n        }\r\n      }\r\n      Connection nc = new Connection(user,_otherUser,address(this),address(_otherUserConnFile));\r\n      return (false,nc);\r\n    }\r\n    else {\r\n      for(uint i=0;i < listOfConnections.length;i++) {\r\n        if(listOfConnections[i].getDoctor() == _otherUser) {\r\n          return (true,listOfConnections[i]);\r\n        }\r\n      }\r\n      Connection nc = new Connection(_otherUser,user,address(_otherUserConnFile),address(this));\r\n      return (false,nc);\r\n    }\r\n  }\r\n\r\n  /* Adds a new consent to the file */\r\n  function AddConnection(Connection _connect) CMSorUser() public \r\n  {\r\n    listOfConnections.push(_connect);\r\n    emit ConnectionAdded(address(this), user, role, address(_connect));\r\n  }\r\n\r\n  function AddHospitalConnection(string memory _hospital) CMSorUser() public \r\n  { \r\n    \r\n    if(!AcceptedHospitalConnections[_hospital]) {\r\n      HospitalConnections.push(_hospital);\r\n      AcceptedHospitalConnections[_hospital] = true;\r\n      emit HospitalConnectionAdded(address(this), user, role, _hospital);\r\n    }\r\n  }\r\n  \r\n  \r\n  function getHopitalConnections() onlyByUser() public view returns (string[] memory)\r\n  {\r\n    string[] memory HospitalsToRet = new string[](HospitalConnections.length);\r\n    \r\n    uint256 cnt = 0;\r\n    for(uint256 i=0;i<HospitalConnections.length;i++) {\r\n      if(AcceptedHospitalConnections[HospitalConnections[i]]) {\r\n        HospitalsToRet[cnt] = HospitalConnections[i];\r\n        cnt++;\r\n      }\r\n    }\r\n    return HospitalsToRet;\r\n  }\r\n  \r\n  function disconnectHospital(string memory _hospital) onlyByUser() public {\r\n    AcceptedHospitalConnections[_hospital] = false;\r\n  }\r\n  \r\n  /* Retrieve a list of all consents in the file */\r\n  function getListOfConnections () onlyByUser() public view returns (Connection[] memory)\r\n  {\r\n    return listOfConnections;\r\n  }\r\n\r\n  /* Retrieves the owner */\r\n  function getOwner () public view returns (address)\r\n  {\r\n    return user;\r\n  }\r\n  \r\n}\r\n",
  "sourcePath": "C:\\dev\\Healthcare-CMS\\Healthcare-ConsentManagementSystem\\Frontend\\contract-testing\\contracts\\ConnectionFile.sol",
  "compiler": {
    "name": "solc",
    "version": "0.7.5+commit.eb77ed08.Emscripten.clang"
  },
  "schemaVersion": "3.4.7",
  "updatedAt": "2023-05-04T11:32:10.223Z",
  "devdoc": {
    "kind": "dev",
    "methods": {},
    "version": 1
  },
  "userdoc": {
    "kind": "user",
    "methods": {},
    "version": 1
  }
}