{
  "contractName": "Connection",
  "abi": [
    {
      "inputs": [
        {
          "internalType": "address",
          "name": "_doctor",
          "type": "address"
        },
        {
          "internalType": "address",
          "name": "_patient",
          "type": "address"
        },
        {
          "internalType": "address",
          "name": "_DocConnectionFile",
          "type": "address"
        },
        {
          "internalType": "address",
          "name": "_PatConnectionFile",
          "type": "address"
        }
      ],
      "payable": false,
      "stateMutability": "nonpayable",
      "type": "constructor"
    },
    {
      "constant": false,
      "inputs": [],
      "name": "cancel",
      "outputs": [],
      "payable": false,
      "stateMutability": "nonpayable",
      "type": "function"
    },
    {
      "constant": false,
      "inputs": [
        {
          "internalType": "enum Connection.Status",
          "name": "state",
          "type": "uint8"
        }
      ],
      "name": "setStatus",
      "outputs": [],
      "payable": false,
      "stateMutability": "nonpayable",
      "type": "function"
    },
    {
      "constant": true,
      "inputs": [],
      "name": "getDoctor",
      "outputs": [
        {
          "internalType": "address",
          "name": "",
          "type": "address"
        }
      ],
      "payable": false,
      "stateMutability": "view",
      "type": "function"
    },
    {
      "constant": true,
      "inputs": [],
      "name": "getPatient",
      "outputs": [
        {
          "internalType": "address",
          "name": "",
          "type": "address"
        }
      ],
      "payable": false,
      "stateMutability": "view",
      "type": "function"
    },
    {
      "constant": true,
      "inputs": [],
      "name": "getStatus",
      "outputs": [
        {
          "internalType": "enum Connection.Status",
          "name": "",
          "type": "uint8"
        }
      ],
      "payable": false,
      "stateMutability": "view",
      "type": "function"
    }
  ],
  "bytecode": "0x608060405234801561001057600080fd5b5060405161048038038061048083398101604081905261002f91610098565b600080546001600160a01b03199081166001600160a01b039687161790915560018054821694861694909417909355600280548416928516929092179091556003805460ff60a01b1993169190931617169055610121565b80516100928161010a565b92915050565b600080600080608085870312156100ae57600080fd5b60006100ba8787610087565b94505060206100cb87828801610087565b93505060406100dc87828801610087565b92505060606100ed87828801610087565b91505092959194509250565b60006001600160a01b038216610092565b610113816100f9565b811461011e57600080fd5b50565b610350806101306000396000f3fe608060405234801561001057600080fd5b50600436106100575760003560e01c80632e49d78b1461005c5780633aaa5920146100715780634e69d5601461008f5780637b0f9a36146100a4578063ea8a1af0146100ac575b600080fd5b61006f61006a366004610268565b6100b4565b005b610079610106565b60405161008691906102a6565b60405180910390f35b61009761016f565b60405161008691906102b4565b6100796101d9565b61006f610242565b6000546001600160a01b03163214806100d757506001546001600160a01b031632145b6100e057600080fd5b6003805482919060ff60a01b1916600160a01b83838111156100fe57fe5b021790555050565b6002546000906001600160a01b031633148061012c57506003546001600160a01b031633145b8061014157506000546001600160a01b031632145b8061015657506001546001600160a01b031632145b61015f57600080fd5b506000546001600160a01b031690565b6002546000906001600160a01b031633148061019557506003546001600160a01b031633145b806101aa57506000546001600160a01b031632145b806101bf57506001546001600160a01b031632145b6101c857600080fd5b50600354600160a01b900460ff1690565b6002546000906001600160a01b03163314806101ff57506003546001600160a01b031633145b8061021457506000546001600160a01b031632145b8061022957506001546001600160a01b031632145b61023257600080fd5b506001546001600160a01b031690565b6003805460ff60a01b1916600360a01b179055565b803561026281610300565b92915050565b60006020828403121561027a57600080fd5b60006102868484610257565b949350505050565b610297816102c2565b82525050565b610297816102e8565b60208101610262828461028e565b60208101610262828461029d565b6000610262826102dc565b806102d7816102f3565b919050565b6001600160a01b031690565b6000610262826102cd565b600481106102fd57fe5b50565b600481106102fd57600080fdfea365627a7a7231582037cb36c0ff0206e598d3bb174a2f8bba9023b6432aad19b2861b9df35e3f6cad6c6578706572696d656e74616cf564736f6c63430005110040",
  "source": "pragma solidity ^0.5.2;\r\npragma experimental ABIEncoderV2;\r\n\r\ncontract Connection {\r\n    \r\n    address doctor;\r\n    address patient;\r\n\r\n    address DocConnectionFile;\r\n    address PatConnectionFile;\r\n\r\n    enum Status {  /* The giver has denied the consent */\r\n        created,\r\n        accepted,  /* The giver has accepted the consent */ \r\n        requested, /* The company has requested a consent, user has not yet responded */\r\n        cancelled  /* The company has cancelled the consent because he no longer needs it */\r\n    }\r\n\r\n    modifier onlyByBoth() {\r\n        require((tx.origin == doctor) || (tx.origin == patient));\r\n        _;\r\n    }\r\n\r\n    modifier onlyByBothOrConsentFile() {\r\n        require((msg.sender == DocConnectionFile) || (msg.sender == PatConnectionFile) || (tx.origin == doctor) || (tx.origin == patient));\r\n        _;\r\n    }\r\n\r\n    \r\n    Status status;\r\n\r\n    constructor(address _doctor,address _patient,address _DocConnectionFile, address _PatConnectionFile) public {\r\n        doctor = _doctor;\r\n        patient = _patient;\r\n        DocConnectionFile = _DocConnectionFile;\r\n        PatConnectionFile = _PatConnectionFile;\r\n\r\n        status = Status.created;\r\n    }\r\n\r\n    function cancel() public\r\n    {\r\n        status = Status.cancelled;\r\n    }\r\n\r\n    function setStatus(Status state) onlyByBoth() public {\r\n        status = state;\r\n    }\r\n\r\n    function getDoctor() onlyByBothOrConsentFile() public view returns(address) {\r\n        return doctor;\r\n    }\r\n    \r\n    function getPatient() onlyByBothOrConsentFile() public view returns(address) {\r\n        return patient;\r\n    }\r\n\r\n    function getStatus() onlyByBothOrConsentFile() public view returns(Status) {\r\n        return status;\r\n    }\r\n\r\n}\r\n",
  "sourcePath": "C:\\dev\\Healthcare-CMS\\ScratchFrontend\\ConsentManagementFrontEnd\\contract-testing\\contracts\\Connection.sol",
  "compiler": {
    "name": "solc",
    "version": "0.5.17+commit.d19bba13.Emscripten.clang"
  },
  "schemaVersion": "3.4.7",
  "updatedAt": "2022-05-01T20:04:58.002Z",
  "devdoc": {
    "methods": {}
  },
  "userdoc": {
    "methods": {}
  }
}