{
  "contractName": "Connection",
  "abi": [
    {
      "inputs": [
        {
          "internalType": "address",
          "name": "_doctor",
          "type": "address"
        },
        {
          "internalType": "address",
          "name": "_patient",
          "type": "address"
        },
        {
          "internalType": "address",
          "name": "_DocConnectionFile",
          "type": "address"
        },
        {
          "internalType": "address",
          "name": "_PatConnectionFile",
          "type": "address"
        }
      ],
      "stateMutability": "nonpayable",
      "type": "constructor"
    },
    {
      "inputs": [],
      "name": "cancel",
      "outputs": [],
      "stateMutability": "nonpayable",
      "type": "function"
    },
    {
      "inputs": [
        {
          "internalType": "enum Connection.Status",
          "name": "state",
          "type": "uint8"
        }
      ],
      "name": "setStatus",
      "outputs": [],
      "stateMutability": "nonpayable",
      "type": "function"
    },
    {
      "inputs": [],
      "name": "getDoctor",
      "outputs": [
        {
          "internalType": "address",
          "name": "",
          "type": "address"
        }
      ],
      "stateMutability": "view",
      "type": "function"
    },
    {
      "inputs": [],
      "name": "getPatient",
      "outputs": [
        {
          "internalType": "address",
          "name": "",
          "type": "address"
        }
      ],
      "stateMutability": "view",
      "type": "function"
    },
    {
      "inputs": [],
      "name": "getStatus",
      "outputs": [
        {
          "internalType": "enum Connection.Status",
          "name": "",
          "type": "uint8"
        }
      ],
      "stateMutability": "view",
      "type": "function"
    }
  ],
  "bytecode": "0x608060405234801561001057600080fd5b506040516103e03803806103e083398101604081905261002f916100a3565b600080546001600160a01b03199081166001600160a01b039687161790915560018054821694861694909417909355600280548416928516929092179091556003805460ff60a01b19931691909316171690556100f6565b80516001600160a01b038116811461009e57600080fd5b919050565b600080600080608085870312156100b8578384fd5b6100c185610087565b93506100cf60208601610087565b92506100dd60408601610087565b91506100eb60608601610087565b905092959194509250565b6102db806101056000396000f3fe608060405234801561001057600080fd5b50600436106100575760003560e01c80632e49d78b1461005c5780633aaa5920146100715780634e69d5601461008f5780637b0f9a36146100a4578063ea8a1af0146100ac575b600080fd5b61006f61006a366004610257565b6100b4565b005b610079610106565b604051610086919061027d565b60405180910390f35b61009761016f565b6040516100869190610291565b6100796101d9565b61006f610242565b6000546001600160a01b03163214806100d757506001546001600160a01b031632145b6100e057600080fd5b6003805482919060ff60a01b1916600160a01b83838111156100fe57fe5b021790555050565b6002546000906001600160a01b031633148061012c57506003546001600160a01b031633145b8061014157506000546001600160a01b031632145b8061015657506001546001600160a01b031632145b61015f57600080fd5b506000546001600160a01b031690565b6002546000906001600160a01b031633148061019557506003546001600160a01b031633145b806101aa57506000546001600160a01b031632145b806101bf57506001546001600160a01b031632145b6101c857600080fd5b50600354600160a01b900460ff1690565b6002546000906001600160a01b03163314806101ff57506003546001600160a01b031633145b8061021457506000546001600160a01b031632145b8061022957506001546001600160a01b031632145b61023257600080fd5b506001546001600160a01b031690565b6003805460ff60a01b1916600360a01b179055565b600060208284031215610268578081fd5b813560048110610276578182fd5b9392505050565b6001600160a01b0391909116815260200190565b602081016004831061029f57fe5b9190529056fea2646970667358221220f90200424606006af4a7abad84128de2521e2ba2e307280c2b0e12d5732bee5e64736f6c63430007050033",
  "immutableReferences": {},
  "source": "pragma solidity ^0.7.5;\npragma experimental ABIEncoderV2;\n\ncontract Connection {\n    \n    address doctor;\n    address patient;\n\n    address DocConnectionFile;\n    address PatConnectionFile;\n\n    enum Status {  /* The giver has denied the consent */\n        created,\n        accepted,  /* The giver has accepted the consent */ \n        requested, /* The company has requested a consent, user has not yet responded */\n        cancelled  /* The company has cancelled the consent because he no longer needs it */\n    }\n\n    modifier onlyByBoth() {\n        require((tx.origin == doctor) || (tx.origin == patient));\n        _;\n    }\n\n    modifier onlyByBothOrConsentFile() {\n        require((msg.sender == DocConnectionFile) || (msg.sender == PatConnectionFile) || (tx.origin == doctor) || (tx.origin == patient));\n        _;\n    }\n\n    \n    Status status;\n\n    constructor(address _doctor,address _patient,address _DocConnectionFile, address _PatConnectionFile) public {\n        doctor = _doctor;\n        patient = _patient;\n        DocConnectionFile = _DocConnectionFile;\n        PatConnectionFile = _PatConnectionFile;\n\n        status = Status.created;\n    }\n\n    function cancel() public\n    {\n        status = Status.cancelled;\n    }\n\n    function setStatus(Status state) onlyByBoth() public {\n        status = state;\n    }\n\n    function getDoctor() onlyByBothOrConsentFile() public view returns(address) {\n        return doctor;\n    }\n    \n    function getPatient() onlyByBothOrConsentFile() public view returns(address) {\n        return patient;\n    }\n\n    function getStatus() onlyByBothOrConsentFile() public view returns(Status) {\n        return status;\n    }\n\n}\n",
  "sourcePath": "D:\\ConsentManagementFrontEnd\\contract-testing\\contracts\\Connection.sol",
  "compiler": {
    "name": "solc",
    "version": "0.7.5+commit.eb77ed08.Emscripten.clang"
  },
  "schemaVersion": "3.4.13",
  "updatedAt": "2023-05-07T17:11:12.110Z",
  "devdoc": {
    "kind": "dev",
    "methods": {},
    "version": 1
  },
  "userdoc": {
    "kind": "user",
    "methods": {},
    "version": 1
  }
}