{
  "contractName": "ConnectionFile",
  "abi": [
    {
      "inputs": [
        {
          "internalType": "address payable",
          "name": "_user",
          "type": "address"
        },
        {
          "internalType": "enum ConnectionFile.Role",
          "name": "_role",
          "type": "uint8"
        },
        {
          "internalType": "address",
          "name": "_CMS",
          "type": "address"
        }
      ],
      "payable": false,
      "stateMutability": "nonpayable",
      "type": "constructor"
    },
    {
      "anonymous": false,
      "inputs": [
        {
          "indexed": true,
          "internalType": "address",
          "name": "file",
          "type": "address"
        },
        {
          "indexed": true,
          "internalType": "address",
          "name": "user",
          "type": "address"
        },
        {
          "indexed": false,
          "internalType": "enum ConnectionFile.Role",
          "name": "role",
          "type": "uint8"
        },
        {
          "indexed": true,
          "internalType": "address",
          "name": "connection",
          "type": "address"
        }
      ],
      "name": "ConnectionAdded",
      "type": "event"
    },
    {
      "constant": true,
      "inputs": [
        {
          "internalType": "enum Connection.Status",
          "name": "state",
          "type": "uint8"
        }
      ],
      "name": "GetTypeConnections",
      "outputs": [
        {
          "internalType": "address[]",
          "name": "",
          "type": "address[]"
        }
      ],
      "payable": false,
      "stateMutability": "view",
      "type": "function"
    },
    {
      "constant": false,
      "inputs": [
        {
          "internalType": "address",
          "name": "_otherUser",
          "type": "address"
        },
        {
          "internalType": "contract ConnectionFile",
          "name": "_otherUserConnFile",
          "type": "address"
        }
      ],
      "name": "getAssociatedConnection",
      "outputs": [
        {
          "internalType": "bool",
          "name": "",
          "type": "bool"
        },
        {
          "internalType": "contract Connection",
          "name": "",
          "type": "address"
        }
      ],
      "payable": false,
      "stateMutability": "nonpayable",
      "type": "function"
    },
    {
      "constant": false,
      "inputs": [
        {
          "internalType": "contract Connection",
          "name": "_connect",
          "type": "address"
        }
      ],
      "name": "AddConnection",
      "outputs": [],
      "payable": false,
      "stateMutability": "nonpayable",
      "type": "function"
    },
    {
      "constant": true,
      "inputs": [],
      "name": "getListOfConnections",
      "outputs": [
        {
          "internalType": "contract Connection[]",
          "name": "",
          "type": "address[]"
        }
      ],
      "payable": false,
      "stateMutability": "view",
      "type": "function"
    },
    {
      "constant": true,
      "inputs": [],
      "name": "getOwner",
      "outputs": [
        {
          "internalType": "address",
          "name": "",
          "type": "address"
        }
      ],
      "payable": false,
      "stateMutability": "view",
      "type": "function"
    }
  ],
  "bytecode": "0x608060405260c86002553480156200001657600080fd5b5060405162001307380380620013078339810160408190526200003991620000b4565b600080546001600160a01b038084166001600160a01b03199283161790925560038054928616929091169190911780825583919060ff60a01b1916600160a01b8360028111156200008657fe5b021790555050505062000142565b8051620000a1816200011a565b92915050565b8051620000a18162000134565b600080600060608486031215620000ca57600080fd5b6000620000d8868662000094565b9350506020620000eb86828701620000a7565b9250506040620000fe8682870162000094565b9150509250925092565b60006001600160a01b038216620000a1565b620001258162000108565b81146200013157600080fd5b50565b600381106200013157600080fd5b6111b580620001526000396000f3fe60806040523480156200001157600080fd5b50600436106200005e5760003560e01c8063117334a41462000063578063122b2b5a146200009357806346bc6c8814620000ac5780635cd3d8da14620000d2578063893d20e814620000eb575b600080fd5b6200007a62000074366004620009bd565b62000104565b6040516200008a92919062000c21565b60405180910390f35b6200009d620003c3565b6040516200008a919062000c0e565b620000c3620000bd36600462000a1d565b62000440565b6040516200008a919062000bf4565b620000e9620000e3366004620009fc565b62000759565b005b620000f562000826565b6040516200008a919062000b7f565b60035460009081906001600160a01b03163214806200012d57506000546001600160a01b031633145b6200013757600080fd5b6000600354600160a01b900460ff1660028111156200015257fe5b1415620002af5760005b6004548110156200024f57846001600160a01b0316600482815481106200017f57fe5b6000918252602091829020015460408051633d87cd1b60e11b815290516001600160a01b0390921692637b0f9a3692600480840193829003018186803b158015620001c957600080fd5b505afa158015620001de573d6000803e3d6000fd5b505050506040513d601f19601f8201168201806040525062000204919081019062000994565b6001600160a01b0316141562000246576001600482815481106200022457fe5b6000918252602090912001549093506001600160a01b03169150620003bc9050565b6001016200015c565b506003546040516000916001600160a01b03169086903090879062000274906200093f565b62000283949392919062000b8f565b604051809103906000f080158015620002a0573d6000803e3d6000fd5b50600093509150620003bc9050565b60005b6004548110156200038357846001600160a01b031660048281548110620002d557fe5b60009182526020918290200154604080516301d552c960e51b815290516001600160a01b0390921692633aaa592092600480840193829003018186803b1580156200031f57600080fd5b505afa15801562000334573d6000803e3d6000fd5b505050506040513d601f19601f820116820180604052506200035a919081019062000994565b6001600160a01b031614156200037a576001600482815481106200022457fe5b600101620002b2565b50600084600360009054906101000a90046001600160a01b03168530604051620003ad906200093f565b62000283949392919062000bd5565b9250929050565b6003546060906001600160a01b03163214620003de57600080fd5b60048054806020026020016040519081016040528092919081815260200182805480156200043657602002820191906000526020600020905b81546001600160a01b0316815260019091019060200180831162000417575b5050505050905090565b6003546060906001600160a01b03163214806200046757506000546001600160a01b031633145b6200047157600080fd5b60006200047e8362000835565b9050606081604051908082528060200260200182016040528015620004ad578160200160208202803883390190505b5090506000805b6004548110156200074d57856003811115620004cc57fe5b60048281548110620004da57fe5b60009182526020918290200154604080516302734eab60e51b815290516001600160a01b0390921692634e69d56092600480840193829003018186803b1580156200052457600080fd5b505afa15801562000539573d6000803e3d6000fd5b505050506040513d601f19601f820116820180604052506200055f919081019062000a3e565b60038111156200056b57fe5b141562000744576000600354600160a01b900460ff1660028111156200058d57fe5b14156200065b5760048181548110620005a257fe5b6000918252602091829020015460408051633d87cd1b60e11b815290516001600160a01b0390921692637b0f9a3692600480840193829003018186803b158015620005ec57600080fd5b505afa15801562000601573d6000803e3d6000fd5b505050506040513d601f19601f8201168201806040525062000627919081019062000994565b8383815181106200063457fe5b60200260200101906001600160a01b031690816001600160a01b0316815250506001820191505b6001600354600160a01b900460ff1660028111156200067657fe5b14156200074457600481815481106200068b57fe5b60009182526020918290200154604080516301d552c960e51b815290516001600160a01b0390921692633aaa592092600480840193829003018186803b158015620006d557600080fd5b505afa158015620006ea573d6000803e3d6000fd5b505050506040513d601f19601f8201168201806040525062000710919081019062000994565b8383815181106200071d57fe5b60200260200101906001600160a01b031690816001600160a01b0316815250506001820191505b600101620004b4565b5090925050505b919050565b6003546001600160a01b03163214806200077d57506000546001600160a01b031633145b6200078757600080fd5b600480546001810182556000919091527f8a35acfbc15ff81a39ae7d344fd709f28e8600b4aa8c65c6b64bfe7fe36bd19b0180546001600160a01b0319166001600160a01b03838116918217909255600354604051919281169130917f8a9208f2779a24d352064589ab804c990968f6b7568525cadfe439d89b47d1d7916200081b91600160a01b900460ff169062000c40565b60405180910390a450565b6003546001600160a01b031690565b6003546000906001600160a01b03163214806200085c57506000546001600160a01b031633145b6200086657600080fd5b6000805b60045481101562000938578360038111156200088257fe5b600482815481106200089057fe5b60009182526020918290200154604080516302734eab60e51b815290516001600160a01b0390921692634e69d56092600480840193829003018186803b158015620008da57600080fd5b505afa158015620008ef573d6000803e3d6000fd5b505050506040513d601f19601f8201168201806040525062000915919081019062000a3e565b60038111156200092157fe5b14156200092f576001820191505b6001016200086a565b5092915050565b6104808062000cf383390190565b80356200095a8162000cc2565b92915050565b80516200095a8162000cc2565b80356200095a8162000cd9565b80356200095a8162000ce4565b80516200095a8162000ce4565b600060208284031215620009a757600080fd5b6000620009b5848462000960565b949350505050565b60008060408385031215620009d157600080fd5b6000620009df85856200094d565b9250506020620009f2858286016200096d565b9150509250929050565b60006020828403121562000a0f57600080fd5b6000620009b584846200096d565b60006020828403121562000a3057600080fd5b6000620009b584846200097a565b60006020828403121562000a5157600080fd5b6000620009b5848462000987565b600062000a6d838362000a94565b505060200190565b600062000a6d838362000b69565b62000a8e8162000c9a565b82525050565b62000a8e8162000c63565b600062000aac8262000c56565b62000ab8818562000c5a565b935062000ac58362000c50565b8060005b8381101562000af957815162000ae0888262000a5f565b975062000aed8362000c50565b92505060010162000ac9565b509495945050505050565b600062000b118262000c56565b62000b1d818562000c5a565b935062000b2a8362000c50565b8060005b8381101562000af957815162000b45888262000a75565b975062000b528362000c50565b92505060010162000b2e565b62000a8e8162000c70565b62000a8e8162000c75565b62000a8e8162000ca7565b602081016200095a828462000a94565b6080810162000b9f828762000a83565b62000bae602083018662000a94565b62000bbd604083018562000a94565b62000bcc606083018462000a94565b95945050505050565b6080810162000be5828762000a94565b62000bae602083018662000a83565b6020808252810162000c07818462000a9f565b9392505050565b6020808252810162000c07818462000b04565b6040810162000c31828562000b5e565b62000c07602083018462000b69565b602081016200095a828462000b74565b60200190565b5190565b90815260200190565b60006200095a8262000c8e565b151590565b60006200095a8262000c63565b80620007548162000cb4565b6001600160a01b031690565b60006200095a8262000c75565b60006200095a8262000c82565b6003811062000cbf57fe5b50565b62000ccd8162000c63565b811462000cbf57600080fd5b62000ccd8162000c75565b6004811062000cbf57600080fdfe608060405234801561001057600080fd5b5060405161048038038061048083398101604081905261002f91610098565b600080546001600160a01b03199081166001600160a01b039687161790915560018054821694861694909417909355600280548416928516929092179091556003805460ff60a01b1993169190931617169055610121565b80516100928161010a565b92915050565b600080600080608085870312156100ae57600080fd5b60006100ba8787610087565b94505060206100cb87828801610087565b93505060406100dc87828801610087565b92505060606100ed87828801610087565b91505092959194509250565b60006001600160a01b038216610092565b610113816100f9565b811461011e57600080fd5b50565b610350806101306000396000f3fe608060405234801561001057600080fd5b50600436106100575760003560e01c80632e49d78b1461005c5780633aaa5920146100715780634e69d5601461008f5780637b0f9a36146100a4578063ea8a1af0146100ac575b600080fd5b61006f61006a366004610268565b6100b4565b005b610079610106565b60405161008691906102a6565b60405180910390f35b61009761016f565b60405161008691906102b4565b6100796101d9565b61006f610242565b6000546001600160a01b03163214806100d757506001546001600160a01b031632145b6100e057600080fd5b6003805482919060ff60a01b1916600160a01b83838111156100fe57fe5b021790555050565b6002546000906001600160a01b031633148061012c57506003546001600160a01b031633145b8061014157506000546001600160a01b031632145b8061015657506001546001600160a01b031632145b61015f57600080fd5b506000546001600160a01b031690565b6002546000906001600160a01b031633148061019557506003546001600160a01b031633145b806101aa57506000546001600160a01b031632145b806101bf57506001546001600160a01b031632145b6101c857600080fd5b50600354600160a01b900460ff1690565b6002546000906001600160a01b03163314806101ff57506003546001600160a01b031633145b8061021457506000546001600160a01b031632145b8061022957506001546001600160a01b031632145b61023257600080fd5b506001546001600160a01b031690565b6003805460ff60a01b1916600360a01b179055565b803561026281610300565b92915050565b60006020828403121561027a57600080fd5b60006102868484610257565b949350505050565b610297816102c2565b82525050565b610297816102e8565b60208101610262828461028e565b60208101610262828461029d565b6000610262826102dc565b806102d7816102f3565b919050565b6001600160a01b031690565b6000610262826102cd565b600481106102fd57fe5b50565b600481106102fd57600080fdfea365627a7a7231582037cb36c0ff0206e598d3bb174a2f8bba9023b6432aad19b2861b9df35e3f6cad6c6578706572696d656e74616cf564736f6c63430005110040a365627a7a72315820944b6ebba003251b6d79204fdd8f0244ab2b7d09ae2928c212758485af2ba50f6c6578706572696d656e74616cf564736f6c63430005110040",
  "source": "pragma solidity ^0.5.2;\r\npragma experimental ABIEncoderV2;\r\nimport \"./Connection.sol\";\r\n\r\n\r\ncontract ConnectionFile {\r\n\r\n  address CMS;\r\n  address validator;\r\n  uint256 max_conn = 200;\r\n\r\n\r\n  /* The owner of the file */\r\n  address payable user;\r\n  \r\n  enum Role {\r\n    doctor,\r\n    patient,\r\n    nominee\r\n  }\r\n  \r\n\r\n  Role private role;\r\n\r\n  /* The list of all consents */\r\n  Connection[] listOfConnections;\r\n  \r\n  /* Events that are sent when things happen */\r\n  event ConnectionAdded(address indexed file,address indexed user, Role role, address indexed connection);\r\n  \r\n  /* A modifier */\r\n  modifier onlyByUser()\r\n  {\r\n    require(tx.origin == user);\r\n    _;\r\n  }\r\n  \r\n  modifier CMSorUser()\r\n  {\r\n    require ((tx.origin == user) || (msg.sender == CMS));\r\n    _;\r\n  }\r\n\r\n  /* The constructor of the file. Also attaches it to an owner */\r\n  constructor (address payable _user,Role _role,address _CMS) public\r\n  {\r\n    CMS = _CMS;\r\n    user = _user;\r\n    role = _role;\r\n  }\r\n\r\n  function GetNumTypeConnections(Connection.Status state) CMSorUser() private view returns(uint256) {\r\n    uint256 cnt = 0;\r\n    for(uint i=0;i<listOfConnections.length;i++) {\r\n      if(listOfConnections[i].getStatus() == state) {\r\n        cnt += 1;\r\n      }\r\n    }\r\n    return cnt;\r\n  }\r\n\r\n  function GetTypeConnections(Connection.Status state) CMSorUser() public view returns(address[] memory) {\r\n    uint256 TypeCnt = GetNumTypeConnections(state);\r\n    address[] memory ReqConnections = new address[](TypeCnt);\r\n    \r\n    uint256 cnt = 0;\r\n    for(uint i=0;i<listOfConnections.length;i++) {\r\n        // listOfConnections[i].getStatus();\r\n        if(listOfConnections[i].getStatus() == state) {\r\n            if(role == Role.doctor) {\r\n                ReqConnections[cnt] = listOfConnections[i].getPatient();\r\n                cnt += 1;\r\n            }\r\n            if(role == Role.patient) {\r\n                ReqConnections[cnt] = listOfConnections[i].getDoctor();\r\n                cnt += 1;\r\n            }\r\n        }\r\n    }\r\n    return ReqConnections;\r\n  }\r\n    \r\n    function getAssociatedConnection(address _otherUser,ConnectionFile _otherUserConnFile) CMSorUser() public returns(bool,Connection) {\r\n    if(role == Role.doctor) {\r\n      for(uint i=0;i < listOfConnections.length;i++) {\r\n        if(listOfConnections[i].getPatient() == _otherUser) {\r\n          return (true,listOfConnections[i]);\r\n        }\r\n      }\r\n      Connection nc = new Connection(user,_otherUser,address(this),address(_otherUserConnFile));\r\n      return (false,nc);\r\n    }\r\n    else {\r\n      for(uint i=0;i < listOfConnections.length;i++) {\r\n        if(listOfConnections[i].getDoctor() == _otherUser) {\r\n          return (true,listOfConnections[i]);\r\n        }\r\n      }\r\n      Connection nc = new Connection(_otherUser,user,address(_otherUserConnFile),address(this));\r\n      return (false,nc);\r\n    }\r\n  }\r\n\r\n  /* Adds a new consent to the file */\r\n  function AddConnection(Connection _connect) CMSorUser() public \r\n  {\r\n    listOfConnections.push(_connect);\r\n    emit ConnectionAdded(address(this), user, role, address(_connect));\r\n  }\r\n\r\n  /* Retrieve a list of all consents in the file */\r\n  function getListOfConnections () onlyByUser() public view returns (Connection[] memory)\r\n  {\r\n    return listOfConnections;\r\n  }\r\n\r\n  /* Retrieves the owner */\r\n  function getOwner () public view returns (address)\r\n  {\r\n    return user;\r\n  }\r\n  \r\n}\r\n",
  "sourcePath": "C:\\dev\\Healthcare-CMS\\ScratchFrontend\\ConsentManagementFrontEnd\\contract-testing\\contracts\\ConnectionFile.sol",
  "compiler": {
    "name": "solc",
    "version": "0.5.17+commit.d19bba13.Emscripten.clang"
  },
  "schemaVersion": "3.4.7",
  "updatedAt": "2022-04-30T15:53:05.827Z",
  "devdoc": {
    "methods": {}
  },
  "userdoc": {
    "methods": {}
  }
}