{
  "contractName": "ConsentFile",
  "abi": [
    {
      "inputs": [
        {
          "internalType": "address payable",
          "name": "_user",
          "type": "address"
        },
        {
          "internalType": "enum ConsentFile.Role",
          "name": "_role",
          "type": "uint8"
        },
        {
          "internalType": "address",
          "name": "_CMS",
          "type": "address"
        }
      ],
      "payable": false,
      "stateMutability": "nonpayable",
      "type": "constructor"
    },
    {
      "anonymous": false,
      "inputs": [
        {
          "indexed": true,
          "internalType": "address",
          "name": "file",
          "type": "address"
        },
        {
          "indexed": true,
          "internalType": "address",
          "name": "user",
          "type": "address"
        },
        {
          "indexed": true,
          "internalType": "enum ConsentFile.Role",
          "name": "role",
          "type": "uint8"
        },
        {
          "indexed": false,
          "internalType": "address",
          "name": "consent",
          "type": "address"
        }
      ],
      "name": "ConsentFileConsentAdded",
      "type": "event"
    },
    {
      "constant": false,
      "inputs": [
        {
          "internalType": "address",
          "name": "_otherUser",
          "type": "address"
        }
      ],
      "name": "getAssociatedConsent",
      "outputs": [
        {
          "internalType": "bool",
          "name": "",
          "type": "bool"
        },
        {
          "internalType": "contract Consent",
          "name": "",
          "type": "address"
        }
      ],
      "payable": false,
      "stateMutability": "nonpayable",
      "type": "function"
    },
    {
      "constant": false,
      "inputs": [
        {
          "internalType": "contract Consent",
          "name": "_consent",
          "type": "address"
        }
      ],
      "name": "addConsent",
      "outputs": [],
      "payable": false,
      "stateMutability": "nonpayable",
      "type": "function"
    },
    {
      "constant": true,
      "inputs": [],
      "name": "getListOfConsents",
      "outputs": [
        {
          "internalType": "contract Consent[]",
          "name": "",
          "type": "address[]"
        }
      ],
      "payable": false,
      "stateMutability": "view",
      "type": "function"
    },
    {
      "constant": true,
      "inputs": [],
      "name": "getOwner",
      "outputs": [
        {
          "internalType": "address",
          "name": "",
          "type": "address"
        }
      ],
      "payable": false,
      "stateMutability": "view",
      "type": "function"
    }
  ],
  "bytecode": "0x608060405234801561001057600080fd5b50604051611bf0380380611bf083398101604081905261002f916100a4565b600080546001600160a01b038084166001600160a01b03199283161790925560018054928616929091169190911780825583919060ff60a01b1916600160a01b83600281111561007b57fe5b0217905550505050610126565b805161009381610102565b92915050565b805161009381610119565b6000806000606084860312156100b957600080fd5b60006100c58686610088565b93505060206100d686828701610099565b92505060406100e786828701610088565b9150509250925092565b60006001600160a01b038216610093565b61010b816100f1565b811461011657600080fd5b50565b6003811061011657600080fd5b611abb806101356000396000f3fe608060405234801561001057600080fd5b506004361061004c5760003560e01c80631d814aae14610051578063856bb9cc1461007b578063893d20e814610090578063da5269a6146100a5575b600080fd5b61006461005f3660046104af565b6100ba565b604051610072929190610604565b60405180910390f35b61008e6100893660046104f3565b610318565b005b6100986103f2565b60405161007291906105a8565b6100ad610401565b60405161007291906105f3565b60008080600154600160a01b900460ff1660028111156100d657fe5b141561021e5760005b6002548110156101c857836001600160a01b03166002828154811061010057fe5b6000918252602091829020015460408051633d87cd1b60e11b815290516001600160a01b0390921692637b0f9a3692600480840193829003018186803b15801561014957600080fd5b505afa15801561015d573d6000803e3d6000fd5b505050506040513d601f19601f8201168201806040525061018191908101906104d5565b6001600160a01b031614156101c05760016002828154811061019f57fe5b6000918252602090912001549093506001600160a01b031691506103139050565b6001016100df565b5060015460405160009185916001600160a01b03909116906101e99061047b565b6101f49291906105d8565b604051809103906000f080158015610210573d6000803e3d6000fd5b506000935091506103139050565b60005b6002548110156102e957836001600160a01b03166002828154811061024257fe5b60009182526020918290200154604080516301d552c960e51b815290516001600160a01b0390921692633aaa592092600480840193829003018186803b15801561028b57600080fd5b505afa15801561029f573d6000803e3d6000fd5b505050506040513d601f19601f820116820180604052506102c391908101906104d5565b6001600160a01b031614156102e15760016002828154811061019f57fe5b600101610221565b506001546040516000916001600160a01b03169085906103089061047b565b6101f49291906105b6565b915091565b6001546001600160a01b031632148061033b57506000546001600160a01b031633145b61034457600080fd5b600280546001808201835560008390527f405787fa12a823e0f2b7631cc41b3ba8828b3321ca811111fa75cd3aa3bb5ace90910180546001600160a01b0319166001600160a01b03851617905554600160a01b900460ff16908111156103a657fe5b6001546040516001600160a01b039091169030907f0294aab5f2dfa94bfca8af7741616afbb94a905dba65a66717ddb351e7209e2e906103e79086906105a8565b60405180910390a450565b6001546001600160a01b031690565b6001546060906001600160a01b0316321461041b57600080fd5b600280548060200260200160405190810160405280929190818152602001828054801561047157602002820191906000526020600020905b81546001600160a01b03168152600190910190602001808311610453575b5050505050905090565b6113f48061068583390190565b803561049381610664565b92915050565b805161049381610664565b80356104938161067b565b6000602082840312156104c157600080fd5b60006104cd8484610488565b949350505050565b6000602082840312156104e757600080fd5b60006104cd8484610499565b60006020828403121561050557600080fd5b60006104cd84846104a4565b600061051d838361059f565b505060200190565b61052e81610659565b82525050565b61052e81610632565b600061054882610625565b6105528185610629565b935061055d8361061f565b8060005b8381101561058b5781516105758882610511565b97506105808361061f565b925050600101610561565b509495945050505050565b61052e8161063d565b61052e81610642565b602081016104938284610534565b604081016105c48285610525565b6105d16020830184610534565b9392505050565b604081016105e68285610534565b6105d16020830184610525565b602080825281016105d1818461053d565b604081016106128285610596565b6105d1602083018461059f565b60200190565b5190565b90815260200190565b60006104938261064d565b151590565b600061049382610632565b6001600160a01b031690565b600061049382610642565b61066d81610632565b811461067857600080fd5b50565b61066d8161064256fe60806040523480156200001157600080fd5b50604051620013f4380380620013f48339810160408190526200003491620000f7565b600080546001600160a01b038085166001600160a01b0319928316179092556001805492841692909116919091179055604051829082906200007690620000d6565b6200008392919062000147565b604051809103906000f080158015620000a0573d6000803e3d6000fd5b50600280546001600160a01b0319166001600160a01b039290921691909117905550506001805460ff60a01b1916905562000199565b6108de8062000b1683390190565b8051620000f1816200017f565b92915050565b600080604083850312156200010b57600080fd5b6000620001198585620000e4565b92505060206200012c85828601620000e4565b9150509250929050565b62000141816200016d565b82525050565b6040810162000157828562000136565b62000166602083018462000136565b9392505050565b60006001600160a01b038216620000f1565b6200018a816200016d565b81146200019657600080fd5b50565b61096d80620001a96000396000f3fe608060405234801561001057600080fd5b50600436106100885760003560e01c80637b0f9a361161005b5780637b0f9a36146100ea578063aa43c936146100f2578063ea8a1af014610105578063f998292a1461010d57610088565b8063321c48f21461008d5780633aaa5920146100ab5780634ca334e2146100c05780634e69d560146100d5575b600080fd5b610095610120565b6040516100a291906107e1565b60405180910390f35b6100b361015d565b6040516100a291906107b1565b6100d36100ce3660046105e6565b61019a565b005b6100dd610282565b6040516100a291906107ef565b6100b36102c0565b6100d3610100366004610623565b6102fd565b6100d36103b6565b6100d361011b366004610641565b6104c0565b600080546001600160a01b031632148061014457506001546001600160a01b031632145b61014d57600080fd5b506002546001600160a01b031690565b600080546001600160a01b031632148061018157506001546001600160a01b031632145b61018a57600080fd5b506001546001600160a01b031690565b6000546001600160a01b031632146101b157600080fd5b6001805460ff60a01b1916600160a11b1790556002546040516326519a7160e11b81526001600160a01b0390911690634ca334e2906101f49084906004016107d0565b600060405180830381600087803b15801561020e57600080fd5b505af1158015610222573d6000803e3d6000fd5b50506001546000546040516001600160a01b038084169550909116925030917fa5feef4ed63437e1e1e8021dca355750ed6da3e7f81a31e679ae236fd63bc4449161027791600160a01b900460ff16906107ef565b60405180910390a450565b600080546001600160a01b03163214806102a657506001546001600160a01b031632145b6102af57600080fd5b50600154600160a01b900460ff1690565b600080546001600160a01b03163214806102e457506001546001600160a01b031632145b6102ed57600080fd5b506000546001600160a01b031690565b6000546001600160a01b0316321461031457600080fd5b600181600481111561032257fe5b14806103395750600281600481111561033757fe5b145b156103b3576001805482919060ff60a01b1916600160a01b83600481111561035d57fe5b02179055506001546000546040516001600160a01b038084169392169130917fa5feef4ed63437e1e1e8021dca355750ed6da3e7f81a31e679ae236fd63bc4449161027791600160a01b90910460ff16906107ef565b50565b6000546001600160a01b031632146103cd57600080fd5b6001805460ff60a01b1916600160a21b179055600254604080516000808252602082019092526001600160a01b0390921691634ca334e29161041f565b606081526020019060019003908161040a5790505b506040518263ffffffff1660e01b815260040161043c91906107bf565b600060405180830381600087803b15801561045657600080fd5b505af115801561046a573d6000803e3d6000fd5b50506001546000546040516001600160a01b0392831694509116915030907fa5feef4ed63437e1e1e8021dca355750ed6da3e7f81a31e679ae236fd63bc444906104b6906004906107ef565b60405180910390a4565b6001546001600160a01b031632146104d757600080fd5b6001805460ff60a01b1916600360a01b1790556002546040516303f0622760e41b81526001600160a01b0390911690633f062270906101f49084906004016107fd565b600082601f83011261052b57600080fd5b813561053e61053982610835565b61080e565b81815260209384019390925082018360005b8381101561057c57813586016105668882610597565b8452506020928301929190910190600101610550565b5050505092915050565b80356105918161091d565b92915050565b600082601f8301126105a857600080fd5b81356105b661053982610856565b915080825260208301602083018583830111156105d257600080fd5b6105dd8382846108cd565b50505092915050565b6000602082840312156105f857600080fd5b813567ffffffffffffffff81111561060f57600080fd5b61061b8482850161051a565b949350505050565b60006020828403121561063557600080fd5b600061061b8484610586565b60006020828403121561065357600080fd5b813567ffffffffffffffff81111561066a57600080fd5b61061b84828501610597565b60006106828383610779565b9392505050565b61069281610891565b82525050565b60006106a382610884565b6106ad8185610888565b9350836020820285016106bf8561087e565b8060005b858110156106f957848403895281516106dc8582610676565b94506106e78361087e565b60209a909a01999250506001016106c3565b5091979650505050505050565b600061071182610884565b61071b8185610888565b93508360208202850161072d8561087e565b8060005b858110156106f9578484038952815161074a8582610676565b94506107558361087e565b60209a909a0199925050600101610731565b610692816108b7565b610692816108c2565b600061078482610884565b61078e8185610888565b935061079e8185602086016108d9565b6107a781610909565b9093019392505050565b602081016105918284610689565b602080825281016106828184610706565b602080825281016106828184610698565b602081016105918284610767565b602081016105918284610770565b602080825281016106828184610779565b60405181810167ffffffffffffffff8111828210171561082d57600080fd5b604052919050565b600067ffffffffffffffff82111561084c57600080fd5b5060209081020190565b600067ffffffffffffffff82111561086d57600080fd5b506020601f91909101601f19160190565b60200190565b5190565b90815260200190565b6000610591826108ab565b806108a681610913565b919050565b6001600160a01b031690565b600061059182610891565b60006105918261089c565b82818337506000910152565b60005b838110156108f45781810151838201526020016108dc565b83811115610903576000848401525b50505050565b601f01601f191690565b600581106103b357fe5b600581106103b357600080fdfea365627a7a723158205d1947acf9f6e7e94240c6fec57077a8013442b6adead87d66c58bfe9c58eaa06c6578706572696d656e74616cf564736f6c63430005100040608060405234801561001057600080fd5b506040516108de3803806108de83398101604081905261002f91610135565b600080546001600160a01b038085166001600160a01b031992831617835560018054918516919092161790556040805160208101918290528290526100779160039190610089565b50506004805460ff1916905550610197565b828054600181600116156101000203166002900490600052602060002090601f016020900481019282601f106100ca57805160ff19168380011785556100f7565b828001600101855582156100f7579182015b828111156100f75782518255916020019190600101906100dc565b50610103929150610107565b5090565b61012191905b80821115610103576000815560010161010d565b90565b805161012f81610180565b92915050565b6000806040838503121561014857600080fd5b60006101548585610124565b925050602061016585828601610124565b9150509250929050565b60006001600160a01b03821661012f565b6101898161016f565b811461019457600080fd5b50565b610738806101a66000396000f3fe608060405234801561001057600080fd5b506004361061004c5760003560e01c80633f0622701461005157806340a4895c146100665780634ca334e2146100845780636e81a8a314610097575b600080fd5b61006461005f36600461051c565b6100ac565b005b61006e6100da565b60405161007b919061061b565b60405180910390f35b6100646100923660046104df565b61019a565b61009f6101c4565b60405161007b919061060a565b6001546001600160a01b031632146100c357600080fd5b80516100d69060039060208401906102c9565b5050565b6001546060906001600160a01b031632148061010057506000546001600160a01b031632145b61010957600080fd5b6003805460408051602060026001851615610100026000190190941693909304601f8101849004840282018401909252818152929183018282801561018f5780601f106101645761010080835404028352916020019161018f565b820191906000526020600020905b81548152906001019060200180831161017257829003601f168201915b505050505090505b90565b6000546001600160a01b031632146101b157600080fd5b80516100d6906002906020840190610347565b6001546060906001600160a01b03163214806101ea57506000546001600160a01b031632145b6101f357600080fd5b6002805480602002602001604051908101604052809291908181526020016000905b828210156102c05760008481526020908190208301805460408051601f60026000196101006001871615020190941693909304928301859004850281018501909152818152928301828280156102ac5780601f10610281576101008083540402835291602001916102ac565b820191906000526020600020905b81548152906001019060200180831161028f57829003601f168201915b505050505081526020019060010190610215565b50505050905090565b828054600181600116156101000203166002900490600052602060002090601f016020900481019282601f1061030a57805160ff1916838001178555610337565b82800160010185558215610337579182015b8281111561033757825182559160200191906001019061031c565b506103439291506103a0565b5090565b828054828255906000526020600020908101928215610394579160200282015b8281111561039457825180516103849184916020909101906102c9565b5091602001919060010190610367565b506103439291506103ba565b61019791905b8082111561034357600081556001016103a6565b61019791905b808211156103435760006103d482826103dd565b506001016103c0565b50805460018160011615610100020316600290046000825580601f106104035750610421565b601f01602090049060005260206000209081019061042191906103a0565b50565b600082601f83011261043557600080fd5b813561044861044382610653565b61062c565b81815260209384019390925082018360005b8381101561048657813586016104708882610490565b845250602092830192919091019060010161045a565b5050505092915050565b600082601f8301126104a157600080fd5b81356104af61044382610674565b915080825260208301602083018583830111156104cb57600080fd5b6104d68382846106af565b50505092915050565b6000602082840312156104f157600080fd5b813567ffffffffffffffff81111561050857600080fd5b61051484828501610424565b949350505050565b60006020828403121561052e57600080fd5b813567ffffffffffffffff81111561054557600080fd5b61051484828501610490565b600061055d83836105d2565b9392505050565b600061056f826106a2565b61057981856106a6565b93508360208202850161058b8561069c565b8060005b858110156105c557848403895281516105a88582610551565b94506105b38361069c565b60209a909a019992505060010161058f565b5091979650505050505050565b60006105dd826106a2565b6105e781856106a6565b93506105f78185602086016106bb565b610600816106eb565b9093019392505050565b6020808252810161055d8184610564565b6020808252810161055d81846105d2565b60405181810167ffffffffffffffff8111828210171561064b57600080fd5b604052919050565b600067ffffffffffffffff82111561066a57600080fd5b5060209081020190565b600067ffffffffffffffff82111561068b57600080fd5b506020601f91909101601f19160190565b60200190565b5190565b90815260200190565b82818337506000910152565b60005b838110156106d65781810151838201526020016106be565b838111156106e5576000848401525b50505050565b601f01601f19169056fea365627a7a723158201a5c92a04f1213a0cddb008a95904116ac1b9494ba4dc6ce9f82a678ec548a3d6c6578706572696d656e74616cf564736f6c63430005100040a365627a7a7231582063a0f2545343ceee776dd46d404856d6c4c85006e820ef27f1e7a41ca4ad158b6c6578706572696d656e74616cf564736f6c63430005100040",
  "source": "pragma solidity ^0.5.2;\npragma experimental ABIEncoderV2;\nimport \"./Consent.sol\";\n\ncontract ConsentFile {\n\n  address CMS;\n\n  /* The owner of the file */\n  address payable user;\n  \n  enum Role {\n    doctor,\n    patient,\n    nominee\n  }\n  \n\n  Role private role;\n\n  /* The list of all consents */\n  Consent[] private listOfConsents;\n\n  /* Events that are sent when things happen */\n  event ConsentFileConsentAdded(address indexed file, address indexed user, Role indexed role, address consent);\n\n  /* A modifier */\n  modifier onlyByUser()\n  {\n    require(tx.origin == user);\n    _;\n  }\n  \n  modifier CMSorUser()\n  {\n    require ((tx.origin == user) || (msg.sender == CMS));\n    _;\n  }\n\n  /* The constructor of the file. Also attaches it to an owner */\n  constructor (address payable _user,Role _role,address _CMS) public\n  {\n    CMS = _CMS;\n    user = _user;\n    role = _role;\n  }\n\n  function getAssociatedConsent(address _otherUser) public returns(bool,Consent ) {\n    if(role == Role.doctor) {\n      for(uint i=0;i < listOfConsents.length;i++) {\n        if(listOfConsents[i].getPatient() == _otherUser) {\n          return (true,listOfConsents[i]);\n        }\n      }\n      Consent nc = new Consent(_otherUser,user);\n      return (false,nc);\n    }\n    else {\n      for(uint i=0;i < listOfConsents.length;i++) {\n        if(listOfConsents[i].getDoctor() == _otherUser) {\n          return (true,listOfConsents[i]);\n        }\n      }\n      Consent nc = new Consent(user,_otherUser);\n      return (false,nc);\n    }\n  }\n    \n\n  /* Adds a new consent to the file */\n  function addConsent(Consent _consent) CMSorUser() public \n  {\n    listOfConsents.push(_consent);\n    emit ConsentFileConsentAdded(address(this), user, role, address(_consent));\n  }\n\n  /* Retrieve a list of all consents in the file */\n  function getListOfConsents () onlyByUser() public view returns (Consent[] memory)\n  {\n    return listOfConsents;\n  }\n\n  /* Retrieves the owner */\n  function getOwner () public view returns (address)\n  {\n    return user;\n  }\n  \n}\n",
  "sourcePath": "/home/mudit/Study/Healthcare/ConsentManagementFrontEnd/contract-testing/contracts/ConsentFile.sol",
  "compiler": {
    "name": "solc",
    "version": "0.5.16+commit.9c3226ce.Emscripten.clang"
  },
  "schemaVersion": "3.4.6",
  "updatedAt": "2022-04-10T23:00:05.417Z",
  "devdoc": {
    "methods": {}
  },
  "userdoc": {
    "methods": {}
  }
}