{
  "contractName": "ConsentTemplate",
  "abi": [
    {
      "inputs": [
        {
          "internalType": "address",
          "name": "_patient",
          "type": "address"
        },
        {
          "internalType": "address payable",
          "name": "_doctor",
          "type": "address"
        },
        {
          "internalType": "address",
          "name": "_consent",
          "type": "address"
        }
      ],
      "payable": false,
      "stateMutability": "nonpayable",
      "type": "constructor"
    },
    {
      "constant": false,
      "inputs": [
        {
          "internalType": "string",
          "name": "desc",
          "type": "string"
        }
      ],
      "name": "SettingRequestedDesc",
      "outputs": [],
      "payable": false,
      "stateMutability": "nonpayable",
      "type": "function"
    },
    {
      "constant": false,
      "inputs": [
        {
          "internalType": "string[]",
          "name": "_recordIds",
          "type": "string[]"
        }
      ],
      "name": "setConsentedRecords",
      "outputs": [],
      "payable": false,
      "stateMutability": "nonpayable",
      "type": "function"
    },
    {
      "constant": true,
      "inputs": [],
      "name": "GetConsentedRecords",
      "outputs": [
        {
          "internalType": "string[]",
          "name": "",
          "type": "string[]"
        }
      ],
      "payable": false,
      "stateMutability": "view",
      "type": "function"
    },
    {
      "constant": true,
      "inputs": [],
      "name": "GetRequestedDesc",
      "outputs": [
        {
          "internalType": "string",
          "name": "",
          "type": "string"
        }
      ],
      "payable": false,
      "stateMutability": "view",
      "type": "function"
    },
    {
      "constant": true,
      "inputs": [],
      "name": "GetAssociatedConsent",
      "outputs": [
        {
          "internalType": "address",
          "name": "",
          "type": "address"
        }
      ],
      "payable": false,
      "stateMutability": "view",
      "type": "function"
    }
  ],
  "bytecode": "0x608060405234801561001057600080fd5b5060405161098c38038061098c83398101604081905261002f91610148565b600180546001600160a01b038086166001600160a01b031992831617909255600280548584169083161790556000805492841692909116919091178155604080516020810191829052829052610088916005919061009c565b50506006805460ff19169055506101bd9050565b828054600181600116156101000203166002900490600052602060002090601f016020900481019282601f106100dd57805160ff191683800117855561010a565b8280016001018555821561010a579182015b8281111561010a5782518255916020019190600101906100ef565b5061011692915061011a565b5090565b61013491905b808211156101165760008155600101610120565b90565b8051610142816101a6565b92915050565b60008060006060848603121561015d57600080fd5b60006101698686610137565b935050602061017a86828701610137565b925050604061018b86828701610137565b9150509250925092565b60006001600160a01b038216610142565b6101af81610195565b81146101ba57600080fd5b50565b6107c0806101cc6000396000f3fe608060405234801561001057600080fd5b50600436106100575760003560e01c80630f399a411461005c5780633f0622701461007a57806340a4895c1461008f5780634ca334e2146100a45780636e81a8a3146100b7575b600080fd5b6100646100cc565b6040516100719190610670565b60405180910390f35b61008d610088366004610574565b6100dc565b005b61009761010a565b6040516100719190610695565b61008d6100b2366004610538565b6101de565b6100bf610208565b6040516100719190610684565b6000546001600160a01b03165b90565b6002546001600160a01b031632146100f357600080fd5b8051610106906005906020840190610322565b5050565b6000546060906001600160a01b031633148061013057506002546001600160a01b031632145b8061014557506001546001600160a01b031632145b61014e57600080fd5b6005805460408051602060026001851615610100026000190190941693909304601f810184900484028201840190925281815292918301828280156101d45780601f106101a9576101008083540402835291602001916101d4565b820191906000526020600020905b8154815290600101906020018083116101b757829003601f168201915b5050505050905090565b6001546001600160a01b031632146101f557600080fd5b80516101069060049060208401906103a0565b6000546060906001600160a01b031633148061022e57506002546001600160a01b031632145b8061024357506001546001600160a01b031632145b61024c57600080fd5b6004805480602002602001604051908101604052809291908181526020016000905b828210156103195760008481526020908190208301805460408051601f60026000196101006001871615020190941693909304928301859004850281018501909152818152928301828280156103055780601f106102da57610100808354040283529160200191610305565b820191906000526020600020905b8154815290600101906020018083116102e857829003601f168201915b50505050508152602001906001019061026e565b50505050905090565b828054600181600116156101000203166002900490600052602060002090601f016020900481019282601f1061036357805160ff1916838001178555610390565b82800160010185558215610390579182015b82811115610390578251825591602001919060010190610375565b5061039c9291506103f9565b5090565b8280548282559060005260206000209081019282156103ed579160200282015b828111156103ed57825180516103dd918491602090910190610322565b50916020019190600101906103c0565b5061039c929150610413565b6100d991905b8082111561039c57600081556001016103ff565b6100d991905b8082111561039c57600061042d8282610436565b50600101610419565b50805460018160011615610100020316600290046000825580601f1061045c575061047a565b601f01602090049060005260206000209081019061047a91906103f9565b50565b600082601f83011261048e57600080fd5b81356104a161049c826106cc565b6106a6565b81815260209384019390925082018360005b838110156104df57813586016104c988826104e9565b84525060209283019291909101906001016104b3565b5050505092915050565b600082601f8301126104fa57600080fd5b813561050861049c826106ec565b9150808252602083016020830185838301111561052457600080fd5b61052f838284610737565b50505092915050565b60006020828403121561054a57600080fd5b81356001600160401b0381111561056057600080fd5b61056c8482850161047d565b949350505050565b60006020828403121561058657600080fd5b81356001600160401b0381111561059c57600080fd5b61056c848285016104e9565b60006105b48383610638565b9392505050565b6105c481610726565b82525050565b60006105d582610719565b6105df818561071d565b9350836020820285016105f185610713565b8060005b8581101561062b578484038952815161060e85826105a8565b945061061983610713565b60209a909a01999250506001016105f5565b5091979650505050505050565b600061064382610719565b61064d818561071d565b935061065d818560208601610743565b61066681610773565b9093019392505050565b6020810161067e82846105bb565b92915050565b602080825281016105b481846105ca565b602080825281016105b48184610638565b6040518181016001600160401b03811182821017156106c457600080fd5b604052919050565b60006001600160401b038211156106e257600080fd5b5060209081020190565b60006001600160401b0382111561070257600080fd5b506020601f91909101601f19160190565b60200190565b5190565b90815260200190565b60006001600160a01b03821661067e565b82818337506000910152565b60005b8381101561075e578181015183820152602001610746565b8381111561076d576000848401525b50505050565b601f01601f19169056fea365627a7a72315820c94371dfeb79c83199e4ed734211d281f3f80ab7af0a5224cabd9d17b9bb431e6c6578706572696d656e74616cf564736f6c63430005110040",
  "source": "pragma solidity ^0.5.2;\r\npragma experimental ABIEncoderV2;\r\n\r\ncontract ConsentTemplate {\r\n\r\n  address private consent;\r\n\r\n  address private patient;      /* Creator of this template */\r\n  address private doctor;      /* Creator of this template */  \r\n  address private validator;\r\n  string[]  private recordIds;     /* What purpouse the template is for */\r\n  string  private requestedRecordDesc;        /* The title of the consent */\r\n  uint8 version;\r\n\r\n  /* Creates the contract and set the values of the contract. */\r\n  constructor (address _patient, address payable _doctor, address _consent) public \r\n  {\r\n    patient = _patient;\r\n    doctor = _doctor;\r\n    consent = _consent;\r\n\r\n    // recordIds = [];\r\n    requestedRecordDesc = \"\";\r\n    version = 0;\r\n  }\r\n\r\n  /* A modifier */\r\n  modifier onlyByDoctor()\r\n  {\r\n    require(tx.origin == doctor);\r\n    _;\r\n  }\r\n\r\n   modifier onlyByBoth()\r\n    {\r\n      require((doctor == tx.origin) || (patient == tx.origin));\r\n      _;\r\n    }\r\n    \r\n    modifier ConsentOrBoth()\r\n    {\r\n      require((msg.sender == consent) || (doctor == tx.origin) || (patient == tx.origin));\r\n      _;\r\n    }\r\n\r\n  modifier onlyByPatient()\r\n  {\r\n    require(tx.origin == patient);\r\n    _;\r\n  }\r\n\r\n  function SettingRequestedDesc(string memory desc) onlyByDoctor() public{\r\n    requestedRecordDesc = desc;\r\n  }\r\n\r\n  function setConsentedRecords(string[] memory _recordIds) onlyByPatient() public {\r\n    recordIds = _recordIds;\r\n  }\r\n\r\n  /* Set of getters for the contract */\r\n  function GetConsentedRecords()  ConsentOrBoth()  public view returns(string[] memory)\r\n  {\r\n    return recordIds;\r\n  }\r\n\r\n  function GetRequestedDesc() ConsentOrBoth() public view returns  (string memory)\r\n  {\r\n    return requestedRecordDesc;\r\n  }\r\n  \r\n  function GetAssociatedConsent() public view returns(address) {\r\n    return consent;\r\n  }\r\n}\r\n",
  "sourcePath": "C:\\dev\\Healthcare-CMS\\ScratchFrontend\\ConsentManagementFrontEnd\\contract-testing\\contracts\\ConsentTemplate.sol",
  "compiler": {
    "name": "solc",
    "version": "0.5.17+commit.d19bba13.Emscripten.clang"
  },
  "schemaVersion": "3.4.7",
  "updatedAt": "2022-05-01T20:04:58.029Z",
  "devdoc": {
    "methods": {}
  },
  "userdoc": {
    "methods": {}
  }
}