{
  "contractName": "ConsentTemplate",
  "abi": [
    {
      "inputs": [
        {
          "internalType": "address",
          "name": "_patient",
          "type": "address"
        },
        {
          "internalType": "address",
          "name": "_doctor",
          "type": "address"
        }
      ],
      "payable": false,
      "stateMutability": "nonpayable",
      "type": "constructor"
    },
    {
      "constant": false,
      "inputs": [
        {
          "internalType": "string",
          "name": "desc",
          "type": "string"
        }
      ],
      "name": "SettingRequestedDesc",
      "outputs": [],
      "payable": false,
      "stateMutability": "nonpayable",
      "type": "function"
    },
    {
      "constant": false,
      "inputs": [
        {
          "internalType": "string[]",
          "name": "_recordIds",
          "type": "string[]"
        }
      ],
      "name": "setConsentedRecords",
      "outputs": [],
      "payable": false,
      "stateMutability": "nonpayable",
      "type": "function"
    },
    {
      "constant": true,
      "inputs": [],
      "name": "GetConsentedRecords",
      "outputs": [
        {
          "internalType": "string[]",
          "name": "",
          "type": "string[]"
        }
      ],
      "payable": false,
      "stateMutability": "view",
      "type": "function"
    },
    {
      "constant": true,
      "inputs": [],
      "name": "GetRequestedDesc",
      "outputs": [
        {
          "internalType": "string",
          "name": "",
          "type": "string"
        }
      ],
      "payable": false,
      "stateMutability": "view",
      "type": "function"
    }
  ],
  "bytecode": "0x608060405234801561001057600080fd5b506040516108de3803806108de83398101604081905261002f91610135565b600080546001600160a01b038085166001600160a01b031992831617835560018054918516919092161790556040805160208101918290528290526100779160039190610089565b50506004805460ff1916905550610197565b828054600181600116156101000203166002900490600052602060002090601f016020900481019282601f106100ca57805160ff19168380011785556100f7565b828001600101855582156100f7579182015b828111156100f75782518255916020019190600101906100dc565b50610103929150610107565b5090565b61012191905b80821115610103576000815560010161010d565b90565b805161012f81610180565b92915050565b6000806040838503121561014857600080fd5b60006101548585610124565b925050602061016585828601610124565b9150509250929050565b60006001600160a01b03821661012f565b6101898161016f565b811461019457600080fd5b50565b610738806101a66000396000f3fe608060405234801561001057600080fd5b506004361061004c5760003560e01c80633f0622701461005157806340a4895c146100665780634ca334e2146100845780636e81a8a314610097575b600080fd5b61006461005f36600461051c565b6100ac565b005b61006e6100da565b60405161007b919061061b565b60405180910390f35b6100646100923660046104df565b61019a565b61009f6101c4565b60405161007b919061060a565b6001546001600160a01b031632146100c357600080fd5b80516100d69060039060208401906102c9565b5050565b6001546060906001600160a01b031632148061010057506000546001600160a01b031632145b61010957600080fd5b6003805460408051602060026001851615610100026000190190941693909304601f8101849004840282018401909252818152929183018282801561018f5780601f106101645761010080835404028352916020019161018f565b820191906000526020600020905b81548152906001019060200180831161017257829003601f168201915b505050505090505b90565b6000546001600160a01b031632146101b157600080fd5b80516100d6906002906020840190610347565b6001546060906001600160a01b03163214806101ea57506000546001600160a01b031632145b6101f357600080fd5b6002805480602002602001604051908101604052809291908181526020016000905b828210156102c05760008481526020908190208301805460408051601f60026000196101006001871615020190941693909304928301859004850281018501909152818152928301828280156102ac5780601f10610281576101008083540402835291602001916102ac565b820191906000526020600020905b81548152906001019060200180831161028f57829003601f168201915b505050505081526020019060010190610215565b50505050905090565b828054600181600116156101000203166002900490600052602060002090601f016020900481019282601f1061030a57805160ff1916838001178555610337565b82800160010185558215610337579182015b8281111561033757825182559160200191906001019061031c565b506103439291506103a0565b5090565b828054828255906000526020600020908101928215610394579160200282015b8281111561039457825180516103849184916020909101906102c9565b5091602001919060010190610367565b506103439291506103ba565b61019791905b8082111561034357600081556001016103a6565b61019791905b808211156103435760006103d482826103dd565b506001016103c0565b50805460018160011615610100020316600290046000825580601f106104035750610421565b601f01602090049060005260206000209081019061042191906103a0565b50565b600082601f83011261043557600080fd5b813561044861044382610653565b61062c565b81815260209384019390925082018360005b8381101561048657813586016104708882610490565b845250602092830192919091019060010161045a565b5050505092915050565b600082601f8301126104a157600080fd5b81356104af61044382610674565b915080825260208301602083018583830111156104cb57600080fd5b6104d68382846106af565b50505092915050565b6000602082840312156104f157600080fd5b813567ffffffffffffffff81111561050857600080fd5b61051484828501610424565b949350505050565b60006020828403121561052e57600080fd5b813567ffffffffffffffff81111561054557600080fd5b61051484828501610490565b600061055d83836105d2565b9392505050565b600061056f826106a2565b61057981856106a6565b93508360208202850161058b8561069c565b8060005b858110156105c557848403895281516105a88582610551565b94506105b38361069c565b60209a909a019992505060010161058f565b5091979650505050505050565b60006105dd826106a2565b6105e781856106a6565b93506105f78185602086016106bb565b610600816106eb565b9093019392505050565b6020808252810161055d8184610564565b6020808252810161055d81846105d2565b60405181810167ffffffffffffffff8111828210171561064b57600080fd5b604052919050565b600067ffffffffffffffff82111561066a57600080fd5b5060209081020190565b600067ffffffffffffffff82111561068b57600080fd5b506020601f91909101601f19160190565b60200190565b5190565b90815260200190565b82818337506000910152565b60005b838110156106d65781810151838201526020016106be565b838111156106e5576000848401525b50505050565b601f01601f19169056fea365627a7a723158201a5c92a04f1213a0cddb008a95904116ac1b9494ba4dc6ce9f82a678ec548a3d6c6578706572696d656e74616cf564736f6c63430005100040",
  "source": "pragma solidity ^0.5.2;\npragma experimental ABIEncoderV2;\n\ncontract ConsentTemplate {\n\n  address private patient;      /* Creator of this template */\n  address private doctor;      /* Creator of this template */  \n  string[]  private recordIds;     /* What purpouse the template is for */\n  string  private requestedRecordDesc;        /* The title of the consent */\n  uint8 version;\n\n  /* Creates the contract and set the values of the contract. */\n  constructor (address _patient, address _doctor) public \n  {\n    patient = _patient;\n    doctor = _doctor;\n    // recordIds = [];\n    requestedRecordDesc = \"\";\n    version = 0;\n  }\n\n  /* A modifier */\n  modifier onlyByDoctor()\n  {\n    require(tx.origin == doctor);\n    _;\n  }\n\n   modifier onlyByBoth()\n    {\n      require((doctor == tx.origin) || (patient == tx.origin));\n      _;\n    }\n\n  modifier onlyByPatient()\n  {\n    require(tx.origin == patient);\n    _;\n  }\n\n  function SettingRequestedDesc(string memory desc) onlyByDoctor() public{\n    requestedRecordDesc = desc;\n  }\n\n  function setConsentedRecords(string[] memory _recordIds) onlyByPatient() public {\n    recordIds = _recordIds;\n  }\n\n  /* Set of getters for the contract */\n  function GetConsentedRecords()  onlyByBoth()  public view returns(string[] memory)\n  {\n    return recordIds;\n  }\n\n  function GetRequestedDesc() onlyByBoth() public view returns  (string memory)\n  {\n    return requestedRecordDesc;\n  }\n  \n}\n",
  "sourcePath": "/home/mudit/Study/Healthcare/ConsentManagementFrontEnd/contract-testing/contracts/ConsentTemplate.sol",
  "compiler": {
    "name": "solc",
    "version": "0.5.16+commit.9c3226ce.Emscripten.clang"
  },
  "schemaVersion": "3.4.6",
  "updatedAt": "2022-04-10T23:00:05.421Z",
  "devdoc": {
    "methods": {}
  },
  "userdoc": {
    "methods": {}
  }
}