{
  "contractName": "ConsentFile",
  "abi": [
    {
      "inputs": [
        {
          "internalType": "address payable",
          "name": "_user",
          "type": "address"
        },
        {
          "internalType": "enum ConsentFile.Role",
          "name": "_role",
          "type": "uint8"
        },
        {
          "internalType": "address",
          "name": "_CMS",
          "type": "address"
        }
      ],
      "payable": false,
      "stateMutability": "nonpayable",
      "type": "constructor"
    },
    {
      "anonymous": false,
      "inputs": [
        {
          "indexed": true,
          "internalType": "address",
          "name": "file",
          "type": "address"
        },
        {
          "indexed": false,
          "internalType": "address",
          "name": "consent",
          "type": "address"
        }
      ],
      "name": "ConsentFileConsentAdded",
      "type": "event"
    },
    {
      "constant": true,
      "inputs": [
        {
          "internalType": "string[]",
          "name": "records",
          "type": "string[]"
        }
      ],
      "name": "RecordsExists",
      "outputs": [
        {
          "internalType": "bool",
          "name": "",
          "type": "bool"
        }
      ],
      "payable": false,
      "stateMutability": "view",
      "type": "function"
    },
    {
      "constant": false,
      "inputs": [
        {
          "internalType": "address payable",
          "name": "_otherUser",
          "type": "address"
        },
        {
          "internalType": "contract ConsentFile",
          "name": "_otherUserFile",
          "type": "address"
        }
      ],
      "name": "getAssociatedConsent",
      "outputs": [
        {
          "internalType": "bool",
          "name": "",
          "type": "bool"
        },
        {
          "internalType": "contract Consent",
          "name": "",
          "type": "address"
        }
      ],
      "payable": false,
      "stateMutability": "nonpayable",
      "type": "function"
    },
    {
      "constant": false,
      "inputs": [
        {
          "internalType": "contract Consent",
          "name": "_consent",
          "type": "address"
        }
      ],
      "name": "addConsent",
      "outputs": [],
      "payable": false,
      "stateMutability": "nonpayable",
      "type": "function"
    },
    {
      "constant": true,
      "inputs": [],
      "name": "getListOfConsents",
      "outputs": [
        {
          "internalType": "address[]",
          "name": "",
          "type": "address[]"
        }
      ],
      "payable": false,
      "stateMutability": "view",
      "type": "function"
    },
    {
      "constant": true,
      "inputs": [],
      "name": "getOwner",
      "outputs": [
        {
          "internalType": "address",
          "name": "",
          "type": "address"
        }
      ],
      "payable": false,
      "stateMutability": "view",
      "type": "function"
    }
  ],
  "bytecode": "0x60806040523480156200001157600080fd5b50604051620024c8380380620024c88339810160408190526200003491620000af565b600080546001600160a01b038084166001600160a01b03199283161790925560018054928616929091169190911780825583919060ff60a01b1916600160a01b8360028111156200008157fe5b02179055505050506200013d565b80516200009c8162000115565b92915050565b80516200009c816200012f565b600080600060608486031215620000c557600080fd5b6000620000d386866200008f565b9350506020620000e686828701620000a2565b9250506040620000f9868287016200008f565b9150509250925092565b60006001600160a01b0382166200009c565b620001208162000103565b81146200012c57600080fd5b50565b600381106200012c57600080fd5b61237b806200014d6000396000f3fe60806040523480156200001157600080fd5b50600436106200005e5760003560e01c806312ab90781462000063578063856bb9cc1462000092578063893d20e814620000ab578063a4914c4e14620000c4578063da5269a614620000eb575b600080fd5b6200007a620000743660046200090f565b62000104565b60405162000089919062000ab6565b60405180910390f35b620000a9620000a33660046200097f565b6200023b565b005b620000b5620002f3565b60405162000089919062000a4d565b620000db620000d5366004620008d0565b62000302565b6040516200008992919062000ac6565b620000f56200059c565b60405162000089919062000aa3565b6001546000906001600160a01b03163214806200012b57506000546001600160a01b031633145b6200013557600080fd5b6000600154600160a01b900460ff1660028111156200015057fe5b1415620002365760006060815b6002548110156200022e57600281815481106200017657fe5b600091825260208220015460408051632055980f60e11b815290516001600160a01b03909216926340ab301e92600480840193829003018186803b158015620001be57600080fd5b505afa158015620001d3573d6000803e3d6000fd5b505050506040513d6000823e601f3d908101601f19168201604052620001fd919081019062000947565b91506200020b828662000619565b855193019283141562000225576001935050505062000236565b6001016200015d565b506000925050505b919050565b6001546001600160a01b03163214806200025f57506000546001600160a01b031633145b6200026957600080fd5b600280546001810182556000919091527f405787fa12a823e0f2b7631cc41b3ba8828b3321ca811111fa75cd3aa3bb5ace0180546001600160a01b0319166001600160a01b03831617905560405130907f1398fb997798573a4f33a35360688747a7eb90249ab5cec65da9e5b1945ecdae90620002e890849062000a4d565b60405180910390a250565b6001546001600160a01b031690565b60015460009081906001600160a01b031632146200031f57600080fd5b6000600154600160a01b900460ff1660028111156200033a57fe5b14156200049c5760005b6002548110156200043757846001600160a01b0316600282815481106200036757fe5b6000918252602091829020015460408051633d87cd1b60e11b815290516001600160a01b0390921692637b0f9a3692600480840193829003018186803b158015620003b157600080fd5b505afa158015620003c6573d6000803e3d6000fd5b505050506040513d601f19601f82011682018060405250620003ec9190810190620008a7565b6001600160a01b031614156200042e576001600282815481106200040c57fe5b6000918252602090912001549093506001600160a01b03169150620005959050565b60010162000344565b50600084600160009054906101000a90046001600160a01b031685306040516200046190620006f5565b62000470949392919062000a5d565b604051809103906000f0801580156200048d573d6000803e3d6000fd5b50600093509150620005959050565b60005b6002548110156200057057846001600160a01b031660028281548110620004c257fe5b60009182526020918290200154604080516301d552c960e51b815290516001600160a01b0390921692633aaa592092600480840193829003018186803b1580156200050c57600080fd5b505afa15801562000521573d6000803e3d6000fd5b505050506040513d601f19601f82011682018060405250620005479190810190620008a7565b6001600160a01b0316141562000567576001600282815481106200040c57fe5b6001016200049f565b506001546040516000916001600160a01b0316908690309087906200046190620006f5565b9250929050565b6001546060906001600160a01b03163214620005b757600080fd5b60028054806020026020016040519081016040528092919081815260200182805480156200060f57602002820191906000526020600020905b81546001600160a01b03168152600190910190602001808311620005f0575b5050505050905090565b600080805b83518110156200065e5762000648858583815181106200063a57fe5b602002602001015162000668565b1562000655576001820191505b6001016200061e565b5090505b92915050565b6000805b8351811015620006b057620006968482815181106200068757fe5b602002602001015184620006ba565b15620006a757600191505062000662565b6001016200066c565b5060009392505050565b6000620006c88383620006cf565b9392505050565b600081518351148015620006c85750508051602091820120825192909101919091201490565b6117348062000c0583390190565b8051620006628162000bdf565b8035620006628162000bdf565b600082601f8301126200072f57600080fd5b813562000746620007408262000b0c565b62000ae5565b81815260209384019390925082018360005b8381101562000788578135860162000771888262000804565b845250602092830192919091019060010162000758565b5050505092915050565b600082601f830112620007a457600080fd5b8151620007b5620007408262000b0c565b81815260209384019390925082018360005b83811015620007885781518601620007e088826200085a565b8452506020928301929190910190600101620007c7565b8035620006628162000bf9565b600082601f8301126200081657600080fd5b813562000827620007408262000b2d565b915080825260208301602083018583830111156200084457600080fd5b6200085183828462000ba0565b50505092915050565b600082601f8301126200086c57600080fd5b81516200087d620007408262000b2d565b915080825260208301602083018583830111156200089a57600080fd5b6200085183828462000bac565b600060208284031215620008ba57600080fd5b6000620008c8848462000703565b949350505050565b60008060408385031215620008e457600080fd5b6000620008f2858562000710565b92505060206200090585828601620007f7565b9150509250929050565b6000602082840312156200092257600080fd5b81356001600160401b038111156200093957600080fd5b620008c8848285016200071d565b6000602082840312156200095a57600080fd5b81516001600160401b038111156200097157600080fd5b620008c88482850162000792565b6000602082840312156200099257600080fd5b6000620008c88484620007f7565b6000620009ae8383620009c7565b505060200190565b620009c18162000b93565b82525050565b620009c18162000b68565b6000620009df8262000b5b565b620009eb818562000b5f565b9350620009f88362000b55565b8060005b8381101562000a2c57815162000a138882620009a0565b975062000a208362000b55565b925050600101620009fc565b509495945050505050565b620009c18162000b75565b620009c18162000b7a565b60208101620006628284620009c7565b6080810162000a6d8287620009b6565b62000a7c6020830186620009c7565b62000a8b6040830185620009c7565b62000a9a6060830184620009c7565b95945050505050565b60208082528101620006c88184620009d2565b6020810162000662828462000a37565b6040810162000ad6828562000a37565b620006c8602083018462000a42565b6040518181016001600160401b038111828210171562000b0457600080fd5b604052919050565b60006001600160401b0382111562000b2357600080fd5b5060209081020190565b60006001600160401b0382111562000b4457600080fd5b506020601f91909101601f19160190565b60200190565b5190565b90815260200190565b6000620006628262000b87565b151590565b6000620006628262000b68565b6001600160a01b031690565b6000620006628262000b7a565b82818337506000910152565b60005b8381101562000bc957818101518382015260200162000baf565b8381111562000bd9576000848401525b50505050565b62000bea8162000b68565b811462000bf657600080fd5b50565b62000bea8162000b7a56fe60806040523480156200001157600080fd5b506040516200173438038062001734833981016040819052620000349162000117565b600280546001600160a01b038087166001600160a01b031992831617909255600380548684169083161790556000805484841690831617905560018054928516929091169190911790556040518490849030906200009290620000f6565b620000a09392919062000192565b604051809103906000f080158015620000bd573d6000803e3d6000fd5b50600480546001600160a01b0319166001600160a01b039290921691909117905550506003805460ff60a01b1916905550620001f49050565b61098c8062000da883390190565b80516200011181620001da565b92915050565b600080600080608085870312156200012e57600080fd5b60006200013c878762000104565b94505060206200014f8782880162000104565b9350506040620001628782880162000104565b9250506060620001758782880162000104565b91505092959194509250565b6200018c81620001c8565b82525050565b60608101620001a2828662000181565b620001b1602083018562000181565b620001c0604083018462000181565b949350505050565b60006001600160a01b03821662000111565b620001e581620001c8565b8114620001f157600080fd5b50565b610ba480620002046000396000f3fe608060405234801561001057600080fd5b50600436106100995760003560e01c8063321c48f21461009e578063370fcc20146100bc5780633aaa5920146100c457806340ab301e146100cc5780634ca334e2146100e15780634e69d560146100f65780637b0f9a361461010b578063aa43c93614610113578063bc307bb914610126578063ea8a1af01461012e578063f998292a14610136575b600080fd5b6100a6610149565b6040516100b391906109e4565b60405180910390f35b6100a66101b2565b6100a66101c1565b6100d461022a565b6040516100b39190610a03565b6100f46100ef3660046107f0565b610306565b005b6100fe6103c8565b6040516100b39190610a14565b6100a6610432565b6100f4610121366004610860565b61049b565b6100a661052f565b6100f461053e565b6100f461014436600461087e565b610628565b6001546000906001600160a01b031633148061016f57506000546001600160a01b031633145b8061018457506002546001600160a01b031632145b8061019957506003546001600160a01b031632145b6101a257600080fd5b506004546001600160a01b031690565b6000546001600160a01b031690565b6001546000906001600160a01b03163314806101e757506000546001600160a01b031633145b806101fc57506002546001600160a01b031632145b8061021157506003546001600160a01b031632145b61021a57600080fd5b506003546001600160a01b031690565b6001546060906001600160a01b031633148061025057506000546001600160a01b031633145b8061026557506002546001600160a01b031632145b8061027a57506003546001600160a01b031632145b61028357600080fd5b6004805460408051636e81a8a360e01b815290516001600160a01b0390921692636e81a8a3928282019260009290829003018186803b1580156102c557600080fd5b505afa1580156102d9573d6000803e3d6000fd5b505050506040513d6000823e601f3d908101601f19168201604052610301919081019061082c565b905090565b6002546001600160a01b0316321461031d57600080fd5b6003805460ff60a01b1916600160a11b179055600480546040516326519a7160e11b81526001600160a01b0390911691634ca334e29161035f91859101610a03565b600060405180830381600087803b15801561037957600080fd5b505af115801561038d573d6000803e3d6000fd5b5050600354604051309350600080516020610b4283398151915292506103bd91600160a01b900460ff1690610a14565b60405180910390a250565b6001546000906001600160a01b03163314806103ee57506000546001600160a01b031633145b8061040357506002546001600160a01b031632145b8061041857506003546001600160a01b031632145b61042157600080fd5b50600354600160a01b900460ff1690565b6001546000906001600160a01b031633148061045857506000546001600160a01b031633145b8061046d57506002546001600160a01b031632145b8061048257506003546001600160a01b031632145b61048b57600080fd5b506002546001600160a01b031690565b6002546001600160a01b031632146104b257600080fd5b60018160048111156104c057fe5b14806104d7575060028160048111156104d557fe5b145b1561052c576003805482919060ff60a01b1916600160a01b8360048111156104fb57fe5b02179055506003546040513091600080516020610b42833981519152916103bd91600160a01b900460ff1690610a14565b50565b6001546001600160a01b031690565b6002546001600160a01b0316321461055557600080fd5b6003805460ff60a01b1916600160a21b179055600454604080516000808252602082019092526001600160a01b0390921691634ca334e2916105a7565b60608152602001906001900390816105925790505b506040518263ffffffff1660e01b81526004016105c491906109f2565b600060405180830381600087803b1580156105de57600080fd5b505af11580156105f2573d6000803e3d6000fd5b50505050306001600160a01b0316600080516020610b42833981519152600460405161061e9190610a14565b60405180910390a2565b6003546001600160a01b0316321461063f57600080fd5b6003805460ff60a01b1916600360a01b179055600480546040516303f0622760e41b81526001600160a01b0390911691633f0622709161035f91859101610a22565b600082601f83011261069257600080fd5b81356106a56106a082610a59565b610a33565b81815260209384019390925082018360005b838110156106e357813586016106cd888261075b565b84525060209283019291909101906001016106b7565b5050505092915050565b600082601f8301126106fe57600080fd5b815161070c6106a082610a59565b81815260209384019390925082018360005b838110156106e3578151860161073488826107aa565b845250602092830192919091019060010161071e565b803561075581610b34565b92915050565b600082601f83011261076c57600080fd5b813561077a6106a082610a79565b9150808252602083016020830185838301111561079657600080fd5b6107a1838284610ae4565b50505092915050565b600082601f8301126107bb57600080fd5b81516107c96106a082610a79565b915080825260208301602083018583830111156107e557600080fd5b6107a1838284610af0565b60006020828403121561080257600080fd5b81356001600160401b0381111561081857600080fd5b61082484828501610681565b949350505050565b60006020828403121561083e57600080fd5b81516001600160401b0381111561085457600080fd5b610824848285016106ed565b60006020828403121561087257600080fd5b6000610824848461074a565b60006020828403121561089057600080fd5b81356001600160401b038111156108a657600080fd5b6108248482850161075b565b60006108be83836109ac565b9392505050565b6108ce81610ab3565b82525050565b60006108df82610aa6565b6108e98185610aaa565b9350836020820285016108fb85610aa0565b8060005b85811015610935578484038952815161091885826108b2565b945061092383610aa0565b60209a909a01999250506001016108ff565b5091979650505050505050565b600061094d82610aa6565b6109578185610aaa565b93508360208202850161096985610aa0565b8060005b85811015610935578484038952815161098685826108b2565b945061099183610aa0565b60209a909a019992505060010161096d565b6108ce81610ad9565b60006109b782610aa6565b6109c18185610aaa565b93506109d1818560208601610af0565b6109da81610b20565b9093019392505050565b6020810161075582846108c5565b602080825281016108be8184610942565b602080825281016108be81846108d4565b6020810161075582846109a3565b602080825281016108be81846109ac565b6040518181016001600160401b0381118282101715610a5157600080fd5b604052919050565b60006001600160401b03821115610a6f57600080fd5b5060209081020190565b60006001600160401b03821115610a8f57600080fd5b506020601f91909101601f19160190565b60200190565b5190565b90815260200190565b600061075582610acd565b80610ac881610b2a565b919050565b6001600160a01b031690565b600061075582610abe565b82818337506000910152565b60005b83811015610b0b578181015183820152602001610af3565b83811115610b1a576000848401525b50505050565b601f01601f191690565b6005811061052c57fe5b6005811061052c57600080fdfe7004293283c83e944feedfe102d317947bdd62fdffaa93c44ab95e20b426befda365627a7a72315820c238284974267a5a599b1f60eb639dcf76104b56778418b0512c4461f2f0da846c6578706572696d656e74616cf564736f6c63430005110040608060405234801561001057600080fd5b5060405161098c38038061098c83398101604081905261002f91610148565b600180546001600160a01b038086166001600160a01b031992831617909255600280548584169083161790556000805492841692909116919091178155604080516020810191829052829052610088916005919061009c565b50506006805460ff19169055506101bd9050565b828054600181600116156101000203166002900490600052602060002090601f016020900481019282601f106100dd57805160ff191683800117855561010a565b8280016001018555821561010a579182015b8281111561010a5782518255916020019190600101906100ef565b5061011692915061011a565b5090565b61013491905b808211156101165760008155600101610120565b90565b8051610142816101a6565b92915050565b60008060006060848603121561015d57600080fd5b60006101698686610137565b935050602061017a86828701610137565b925050604061018b86828701610137565b9150509250925092565b60006001600160a01b038216610142565b6101af81610195565b81146101ba57600080fd5b50565b6107c0806101cc6000396000f3fe608060405234801561001057600080fd5b50600436106100575760003560e01c80630f399a411461005c5780633f0622701461007a57806340a4895c1461008f5780634ca334e2146100a45780636e81a8a3146100b7575b600080fd5b6100646100cc565b6040516100719190610670565b60405180910390f35b61008d610088366004610574565b6100dc565b005b61009761010a565b6040516100719190610695565b61008d6100b2366004610538565b6101de565b6100bf610208565b6040516100719190610684565b6000546001600160a01b03165b90565b6002546001600160a01b031632146100f357600080fd5b8051610106906005906020840190610322565b5050565b6000546060906001600160a01b031633148061013057506002546001600160a01b031632145b8061014557506001546001600160a01b031632145b61014e57600080fd5b6005805460408051602060026001851615610100026000190190941693909304601f810184900484028201840190925281815292918301828280156101d45780601f106101a9576101008083540402835291602001916101d4565b820191906000526020600020905b8154815290600101906020018083116101b757829003601f168201915b5050505050905090565b6001546001600160a01b031632146101f557600080fd5b80516101069060049060208401906103a0565b6000546060906001600160a01b031633148061022e57506002546001600160a01b031632145b8061024357506001546001600160a01b031632145b61024c57600080fd5b6004805480602002602001604051908101604052809291908181526020016000905b828210156103195760008481526020908190208301805460408051601f60026000196101006001871615020190941693909304928301859004850281018501909152818152928301828280156103055780601f106102da57610100808354040283529160200191610305565b820191906000526020600020905b8154815290600101906020018083116102e857829003601f168201915b50505050508152602001906001019061026e565b50505050905090565b828054600181600116156101000203166002900490600052602060002090601f016020900481019282601f1061036357805160ff1916838001178555610390565b82800160010185558215610390579182015b82811115610390578251825591602001919060010190610375565b5061039c9291506103f9565b5090565b8280548282559060005260206000209081019282156103ed579160200282015b828111156103ed57825180516103dd918491602090910190610322565b50916020019190600101906103c0565b5061039c929150610413565b6100d991905b8082111561039c57600081556001016103ff565b6100d991905b8082111561039c57600061042d8282610436565b50600101610419565b50805460018160011615610100020316600290046000825580601f1061045c575061047a565b601f01602090049060005260206000209081019061047a91906103f9565b50565b600082601f83011261048e57600080fd5b81356104a161049c826106cc565b6106a6565b81815260209384019390925082018360005b838110156104df57813586016104c988826104e9565b84525060209283019291909101906001016104b3565b5050505092915050565b600082601f8301126104fa57600080fd5b813561050861049c826106ec565b9150808252602083016020830185838301111561052457600080fd5b61052f838284610737565b50505092915050565b60006020828403121561054a57600080fd5b81356001600160401b0381111561056057600080fd5b61056c8482850161047d565b949350505050565b60006020828403121561058657600080fd5b81356001600160401b0381111561059c57600080fd5b61056c848285016104e9565b60006105b48383610638565b9392505050565b6105c481610726565b82525050565b60006105d582610719565b6105df818561071d565b9350836020820285016105f185610713565b8060005b8581101561062b578484038952815161060e85826105a8565b945061061983610713565b60209a909a01999250506001016105f5565b5091979650505050505050565b600061064382610719565b61064d818561071d565b935061065d818560208601610743565b61066681610773565b9093019392505050565b6020810161067e82846105bb565b92915050565b602080825281016105b481846105ca565b602080825281016105b48184610638565b6040518181016001600160401b03811182821017156106c457600080fd5b604052919050565b60006001600160401b038211156106e257600080fd5b5060209081020190565b60006001600160401b0382111561070257600080fd5b506020601f91909101601f19160190565b60200190565b5190565b90815260200190565b60006001600160a01b03821661067e565b82818337506000910152565b60005b8381101561075e578181015183820152602001610746565b8381111561076d576000848401525b50505050565b601f01601f19169056fea365627a7a723158205d80890caa0dc10f3c6b6af6f059290672d20eaddab9e782073bcdffd3a7450e6c6578706572696d656e74616cf564736f6c63430005110040a365627a7a72315820e16f5a028aed43862a102ac77dbb010c2b7ed47d9628e8d8f9c53be46c8e2b566c6578706572696d656e74616cf564736f6c63430005110040",
  "source": "pragma solidity ^0.5.2;\npragma experimental ABIEncoderV2;\nimport \"./Consent.sol\";\n\ncontract ConsentFile {\n\n  address CMS;\n  \n  /* The owner of the file */\n  address payable user;\n  \n  enum Role {\n    doctor,\n    patient,\n    nominee\n  }\n  \n\n  Role private role;\n\n  /* The list of all consents */\n  address[] private listOfConsents;\n\n  /* Events that are sent when things happen */\n  event ConsentFileConsentAdded(address indexed file, address consent);\n\n  /* A modifier */\n  modifier onlyByUser()\n  {\n    require(tx.origin == user);\n    _;\n  }\n  \n  modifier CMSorUser()\n  {\n    require ((tx.origin == user) || (msg.sender == CMS));\n    _;\n  }\n\n\n  /* The constructor of the file. Also attaches it to an owner */\n  constructor (address payable _user,Role _role,address _CMS) public\n  {\n    CMS = _CMS;\n    user = _user;\n    role = _role;\n  }\n\n  function memcmp(bytes memory a, bytes memory b) internal pure returns(bool){\n    return (a.length == b.length) && (keccak256(a) == keccak256(b));\n  }\n  function strcmp(string memory a, string memory b) internal pure returns(bool){\n    return memcmp(bytes(a), bytes(b));\n  }\n\n  function CheckElementExist(string [] memory root, string memory elem) private view returns(bool) {\n    for(uint i=0;i<root.length;i++) {\n      if(strcmp(root[i],elem)) {\n        return true;\n      }\n    }\n    return false;\n  }\n\n  modifier EqualLengthArrays(string[] memory first,string[] memory second) {\n    require(first.length == second.length);\n    _;\n  }\n  function CompareStringArrays(string[] memory first,string[] memory second) EqualLengthArrays(first,second) private view returns(bool) {\n    for(uint i=0;i<first.length;i++) {\n      if(CheckElementExist(second,first[i])) {\n        continue;\n      }\n      else {\n        return false;\n      }\n    }\n    return true;\n  }\n\n\n  function CheckSubset(string[] memory root,string[] memory check) private view returns(uint256) {\n    uint256 cnt=0;\n    for(uint i=0;i<check.length;i++) {\n      if(CheckElementExist(root,check[i])) {\n        cnt += 1;\n        continue;\n      }\n    }\n    return cnt;\n  }\n  \n\n  function RecordsExists(string[] memory records) CMSorUser() public view returns(bool) {\n    if(role == Role.doctor) {\n      uint256 matchedRecords = 0;\n      string[] memory records_corr;\n      for(uint i=0;i < listOfConsents.length;i++) {\n        records_corr = Consent(listOfConsents[i]).GetConsents();\n        matchedRecords = matchedRecords + CheckSubset(records_corr,records);\n        if(matchedRecords == records.length) {\n          return true;\n        }\n      }\n      return false;\n    }\n  }\n\n\n  function getAssociatedConsent(address payable _otherUser,ConsentFile _otherUserFile) onlyByUser() public returns(bool,Consent ) {\n    if(role == Role.doctor) {\n      for(uint i=0;i < listOfConsents.length;i++) {\n        if(Consent(listOfConsents[i]).getPatient() == _otherUser) {\n          return (true,Consent(listOfConsents[i]));\n        }\n      }\n      Consent nc = new Consent(_otherUser,user,address(_otherUserFile),address(this));\n      return (false,nc);\n    }\n    else {\n      for(uint i=0;i < listOfConsents.length;i++) {\n        if(Consent(listOfConsents[i]).getDoctor() == _otherUser) {\n          return (true,Consent(listOfConsents[i]));\n        }\n      }\n      Consent nc = new Consent(user,_otherUser,address(this),address(_otherUserFile));\n      return (false,nc);\n    }\n  }\n    \n\n  /* Adds a new consent to the file */\n  function addConsent(Consent _consent) CMSorUser() public \n  {\n    listOfConsents.push(address(_consent));\n    emit ConsentFileConsentAdded(address(this), address(_consent));\n  }\n\n  /* Retrieve a list of all consents in the file */\n  function getListOfConsents () onlyByUser() public view returns (address[] memory)\n  {\n    return listOfConsents;\n  }\n\n  /* Retrieves the owner */\n  function getOwner () public view returns (address)\n  {\n    return user;\n  }\n  \n}\n",
  "sourcePath": "/home/mudit/Study/Healthcare/ConsentManagementFrontEnd/contract-testing/contracts/ConsentFile.sol",
  "compiler": {
    "name": "solc",
    "version": "0.5.17+commit.d19bba13.Emscripten.clang"
  },
  "schemaVersion": "3.4.6",
  "updatedAt": "2022-04-30T16:27:59.251Z",
  "devdoc": {
    "methods": {}
  },
  "userdoc": {
    "methods": {}
  }
}