{
  "contractName": "Consent",
  "abi": [
    {
      "inputs": [
        {
          "internalType": "address",
          "name": "_patient",
          "type": "address"
        },
        {
          "internalType": "address payable",
          "name": "_doctor",
          "type": "address"
        },
        {
          "internalType": "address",
          "name": "_PatConsentFile",
          "type": "address"
        },
        {
          "internalType": "address",
          "name": "_DocConsentFile",
          "type": "address"
        }
      ],
      "stateMutability": "nonpayable",
      "type": "constructor"
    },
    {
      "anonymous": false,
      "inputs": [
        {
          "indexed": true,
          "internalType": "address",
          "name": "consent",
          "type": "address"
        },
        {
          "indexed": false,
          "internalType": "enum Consent.Status",
          "name": "status",
          "type": "uint8"
        }
      ],
      "name": "ConsentStatusChanged",
      "type": "event"
    },
    {
      "inputs": [
        {
          "internalType": "string",
          "name": "requestdesc",
          "type": "string"
        }
      ],
      "name": "setRequestStatus",
      "outputs": [],
      "stateMutability": "nonpayable",
      "type": "function"
    },
    {
      "inputs": [
        {
          "internalType": "enum Consent.Status",
          "name": "_status",
          "type": "uint8"
        }
      ],
      "name": "setPatientSideStatus",
      "outputs": [],
      "stateMutability": "nonpayable",
      "type": "function"
    },
    {
      "inputs": [
        {
          "internalType": "string[]",
          "name": "consentedRecords",
          "type": "string[]"
        }
      ],
      "name": "setConsentedRecords",
      "outputs": [],
      "stateMutability": "nonpayable",
      "type": "function"
    },
    {
      "inputs": [],
      "name": "cancel",
      "outputs": [],
      "stateMutability": "nonpayable",
      "type": "function"
    },
    {
      "inputs": [],
      "name": "getStatus",
      "outputs": [
        {
          "internalType": "enum Consent.Status",
          "name": "",
          "type": "uint8"
        }
      ],
      "stateMutability": "view",
      "type": "function"
    },
    {
      "inputs": [],
      "name": "GetConsents",
      "outputs": [
        {
          "internalType": "string[]",
          "name": "",
          "type": "string[]"
        }
      ],
      "stateMutability": "view",
      "type": "function"
    },
    {
      "inputs": [],
      "name": "getTemplate",
      "outputs": [
        {
          "internalType": "address",
          "name": "",
          "type": "address"
        }
      ],
      "stateMutability": "view",
      "type": "function"
    },
    {
      "inputs": [],
      "name": "getPatient",
      "outputs": [
        {
          "internalType": "address",
          "name": "",
          "type": "address"
        }
      ],
      "stateMutability": "view",
      "type": "function"
    },
    {
      "inputs": [],
      "name": "GetAssociatedDocConsentFile",
      "outputs": [
        {
          "internalType": "address",
          "name": "",
          "type": "address"
        }
      ],
      "stateMutability": "view",
      "type": "function"
    },
    {
      "inputs": [],
      "name": "GetAssociatedPatConsentFile",
      "outputs": [
        {
          "internalType": "address",
          "name": "",
          "type": "address"
        }
      ],
      "stateMutability": "view",
      "type": "function"
    },
    {
      "inputs": [],
      "name": "getDoctor",
      "outputs": [
        {
          "internalType": "address",
          "name": "",
          "type": "address"
        }
      ],
      "stateMutability": "view",
      "type": "function"
    }
  ],
  "bytecode": "0x608060405234801561001057600080fd5b5060405161145738038061145783398101604081905261002f916100f8565b600280546001600160a01b038087166001600160a01b0319928316179092556003805486841690831617905560008054848416908316179055600180549285169290911691909117905560405184908490309061008b906100eb565b61009793929190610156565b604051809103906000f0801580156100b3573d6000803e3d6000fd5b50600480546001600160a01b0319166001600160a01b039290921691909117905550506003805460ff60a01b19169055506101919050565b61089980610bbe83390190565b6000806000806080858703121561010d578384fd5b845161011881610179565b602086015190945061012981610179565b604086015190935061013a81610179565b606086015190925061014b81610179565b939692955090935050565b6001600160a01b0393841681529183166020830152909116604082015260600190565b6001600160a01b038116811461018e57600080fd5b50565b610a1e806101a06000396000f3fe608060405234801561001057600080fd5b50600436106100995760003560e01c8063321c48f21461009e578063370fcc20146100bc5780633aaa5920146100c457806340ab301e146100cc5780634ca334e2146100e15780634e69d560146100f65780637b0f9a361461010b578063aa43c93614610113578063bc307bb914610126578063ea8a1af01461012e578063f998292a14610136575b600080fd5b6100a6610149565b6040516100b3919061089c565b60405180910390f35b6100a66101b2565b6100a66101c1565b6100d461022a565b6040516100b391906108b0565b6100f46100ef3660046106d4565b610306565b005b6100fe6103c8565b6040516100b39190610910565b6100a6610432565b6100f4610121366004610810565b61049b565b6100a661052f565b6100f461053e565b6100f4610144366004610836565b610628565b6001546000906001600160a01b031633148061016f57506000546001600160a01b031633145b8061018457506002546001600160a01b031632145b8061019957506003546001600160a01b031632145b6101a257600080fd5b506004546001600160a01b031690565b6000546001600160a01b031690565b6001546000906001600160a01b03163314806101e757506000546001600160a01b031633145b806101fc57506002546001600160a01b031632145b8061021157506003546001600160a01b031632145b61021a57600080fd5b506003546001600160a01b031690565b6001546060906001600160a01b031633148061025057506000546001600160a01b031633145b8061026557506002546001600160a01b031632145b8061027a57506003546001600160a01b031632145b61028357600080fd5b6004805460408051636e81a8a360e01b815290516001600160a01b0390921692636e81a8a3928282019260009290829003018186803b1580156102c557600080fd5b505afa1580156102d9573d6000803e3d6000fd5b505050506040513d6000823e601f3d908101601f19168201604052610301919081019061075c565b905090565b6002546001600160a01b0316321461031d57600080fd5b6003805460ff60a01b1916600160a11b179055600480546040516326519a7160e11b81526001600160a01b0390911691634ca334e29161035f918591016108b0565b600060405180830381600087803b15801561037957600080fd5b505af115801561038d573d6000803e3d6000fd5b50506003546040513093506000805160206109c983398151915292506103bd91600160a01b900460ff1690610910565b60405180910390a250565b6001546000906001600160a01b03163314806103ee57506000546001600160a01b031633145b8061040357506002546001600160a01b031632145b8061041857506003546001600160a01b031632145b61042157600080fd5b50600354600160a01b900460ff1690565b6001546000906001600160a01b031633148061045857506000546001600160a01b031633145b8061046d57506002546001600160a01b031632145b8061048257506003546001600160a01b031632145b61048b57600080fd5b506002546001600160a01b031690565b6002546001600160a01b031632146104b257600080fd5b60018160048111156104c057fe5b14806104d7575060028160048111156104d557fe5b145b1561052c576003805482919060ff60a01b1916600160a01b8360048111156104fb57fe5b021790555060035460405130916000805160206109c9833981519152916103bd91600160a01b900460ff1690610910565b50565b6001546001600160a01b031690565b6002546001600160a01b0316321461055557600080fd5b6003805460ff60a01b1916600160a21b179055600454604080516000808252602082019092526001600160a01b0390921691634ca334e2916105a7565b60608152602001906001900390816105925790505b506040518263ffffffff1660e01b81526004016105c491906108b0565b600060405180830381600087803b1580156105de57600080fd5b505af11580156105f2573d6000803e3d6000fd5b50505050306001600160a01b03166000805160206109c9833981519152600460405161061e9190610910565b60405180910390a2565b6003546001600160a01b0316321461063f57600080fd5b6003805460ff60a01b1916600360a01b179055600480546040516303f0622760e41b81526001600160a01b0390911691633f0622709161035f91859101610924565b600082601f830112610691578081fd5b81356106a461069f82610977565b610937565b91508082528360208285010111156106bb57600080fd5b8060208401602084013760009082016020015292915050565b600060208083850312156106e6578182fd5b82356001600160401b038111156106fb578283fd5b8301601f8101851361070b578283fd5b803561071961069f8261095a565b81815283810190838501865b8481101561074e5761073c8a888435890101610681565b84529286019290860190600101610725565b509098975050505050505050565b6000602080838503121561076e578182fd5b82516001600160401b03811115610783578283fd5b8301601f81018513610793578283fd5b80516107a161069f8261095a565b81815283810190838501865b8481101561074e57815186018a603f8201126107c7578889fd5b878101516107d761069f82610977565b81815260408d818486010111156107ec578b8cfd5b6107fb838c8401838701610998565b508652505092860192908601906001016107ad565b600060208284031215610821578081fd5b81356005811061082f578182fd5b9392505050565b600060208284031215610847578081fd5b81356001600160401b0381111561085c578182fd5b61086884828501610681565b949350505050565b60008151808452610888816020860160208601610998565b601f01601f19169290920160200192915050565b6001600160a01b0391909116815260200190565b6000602080830181845280855180835260408601915060408482028701019250838701855b8281101561090357603f198886030184526108f1858351610870565b945092850192908501906001016108d5565b5092979650505050505050565b602081016005831061091e57fe5b91905290565b60006020825261082f6020830184610870565b6040518181016001600160401b038111828210171561095257fe5b604052919050565b60006001600160401b0382111561096d57fe5b5060209081020190565b60006001600160401b0382111561098a57fe5b50601f01601f191660200190565b60005b838110156109b357818101518382015260200161099b565b838111156109c2576000848401525b5050505056fe7004293283c83e944feedfe102d317947bdd62fdffaa93c44ab95e20b426befda2646970667358221220210c6c5a6acd3c975bdefe4a3aad0725031ba4f11b2be5ae8b9c0eda95f0b4aa64736f6c63430007050033608060405234801561001057600080fd5b5060405161089938038061089983398101604081905261002f9161013d565b600180546001600160a01b038086166001600160a01b031992831617909255600280548584169083161790556000805492841692909116919091178155604080516020810191829052829052610088916005919061009c565b50506006805460ff19169055506101a19050565b828054600181600116156101000203166002900490600052602060002090601f0160209004810192826100d25760008555610118565b82601f106100eb57805160ff1916838001178555610118565b82800160010185558215610118579182015b828111156101185782518255916020019190600101906100fd565b50610124929150610128565b5090565b5b808211156101245760008155600101610129565b600080600060608486031215610151578283fd5b835161015c81610189565b602085015190935061016d81610189565b604085015190925061017e81610189565b809150509250925092565b6001600160a01b038116811461019e57600080fd5b50565b6106e9806101b06000396000f3fe608060405234801561001057600080fd5b50600436106100575760003560e01c80630f399a411461005c5780633f0622701461007a57806340a4895c1461008f5780634ca334e2146100a45780636e81a8a3146100b7575b600080fd5b6100646100cc565b6040516100719190610602565b60405180910390f35b61008d61008836600461057d565b6100db565b005b610097610109565b6040516100719190610676565b61008d6100b23660046104e5565b6101dd565b6100bf610207565b6040516100719190610616565b6000546001600160a01b031690565b6002546001600160a01b031632146100f257600080fd5b8051610105906005906020840190610321565b5050565b6000546060906001600160a01b031633148061012f57506002546001600160a01b031632145b8061014457506001546001600160a01b031632145b61014d57600080fd5b6005805460408051602060026001851615610100026000190190941693909304601f810184900484028201840190925281815292918301828280156101d35780601f106101a8576101008083540402835291602001916101d3565b820191906000526020600020905b8154815290600101906020018083116101b657829003601f168201915b5050505050905090565b6001546001600160a01b031632146101f457600080fd5b80516101059060049060208401906103ad565b6000546060906001600160a01b031633148061022d57506002546001600160a01b031632145b8061024257506001546001600160a01b031632145b61024b57600080fd5b6004805480602002602001604051908101604052809291908181526020016000905b828210156103185760008481526020908190208301805460408051601f60026000196101006001871615020190941693909304928301859004850281018501909152818152928301828280156103045780601f106102d957610100808354040283529160200191610304565b820191906000526020600020905b8154815290600101906020018083116102e757829003601f168201915b50505050508152602001906001019061026d565b50505050905090565b828054600181600116156101000203166002900490600052602060002090601f016020900481019282610357576000855561039d565b82601f1061037057805160ff191683800117855561039d565b8280016001018555821561039d579182015b8281111561039d578251825591602001919060010190610382565b506103a9929150610406565b5090565b8280548282559060005260206000209081019282156103fa579160200282015b828111156103fa57825180516103ea918491602090910190610321565b50916020019190600101906103cd565b506103a992915061041b565b5b808211156103a95760008155600101610407565b808211156103a957600061042f8282610438565b5060010161041b565b50805460018160011615610100020316600290046000825580601f1061045e575061047c565b601f01602090049060005260206000209081019061047c9190610406565b50565b600082601f83011261048f578081fd5b81356001600160401b038111156104a257fe5b6104b5601f8201601f1916602001610690565b91508082528360208285010111156104cc57600080fd5b8060208401602084013760009082016020015292915050565b600060208083850312156104f7578182fd5b82356001600160401b038082111561050d578384fd5b818501915085601f830112610520578384fd5b81358181111561052c57fe5b6105398485830201610690565b8181528481019250838501865b8381101561056f5761055d8a88843589010161047f565b85529386019390860190600101610546565b509098975050505050505050565b60006020828403121561058e578081fd5b81356001600160401b038111156105a3578182fd5b6105af8482850161047f565b949350505050565b60008151808452815b818110156105dc576020818501810151868301820152016105c0565b818111156105ed5782602083870101525b50601f01601f19169290920160200192915050565b6001600160a01b0391909116815260200190565b6000602080830181845280855180835260408601915060408482028701019250838701855b8281101561066957603f198886030184526106578583516105b7565b9450928501929085019060010161063b565b5092979650505050505050565b60006020825261068960208301846105b7565b9392505050565b6040518181016001600160401b03811182821017156106ab57fe5b60405291905056fea2646970667358221220facd16c7d49500d48af6b9090044794e27a51455a6b4a577958d0a45da0b279a64736f6c63430007050033",
  "immutableReferences": {},
  "source": "pragma solidity ^0.7.5;\r\npragma experimental ABIEncoderV2;\r\nimport \"./ConsentTemplate.sol\";\r\n/*\r\n * This is the contract that handles consents for a specific purpouse given by a\r\n * user (giver) to another user (owner).\r\n *\r\n * It basically provides a textual description  that is either accepted or denied by a user.\r\n *\r\n */\r\ncontract Consent {\r\n\r\n    /* Enumeration for the state of the consent */\r\n  enum Status {created,\r\n          denied,    /* The giver has denied the consent */\r\n\t       accepted,  /* The giver has accepted the consent */ \r\n\t       requested, /* The company has requested a consent, user has not yet responded */\r\n\t       cancelled  /* The company has cancelled the consent because he no longer needs it */\r\n  }\r\n\r\n   address DocConsentFile; \r\n  address PatConsentFile; \r\n\r\n  /* State variables for the contract */\r\n  // address payable private owner;  /* Who issues to consent form */\r\n  address private patient; /* Who created this object */\r\n  address private doctor;  /* Who gives the consent, address to the account. */\r\n\r\n  Status  private status; /* The status of the consent */\r\n  ConsentTemplate consentTemplate; /* The template this consent is based on */\r\n  \r\n  /* Event to signal that the status has changed */\r\n  event ConsentStatusChanged(address indexed consent, Status status);\r\n\r\n  /* A modifier */\r\n  modifier onlyByPatient()\r\n  {\r\n    require(tx.origin == patient);\r\n    _;\r\n  }\r\n\r\n  modifier onlyByDoctor()\r\n  {\r\n    require(tx.origin == doctor);\r\n    _;\r\n  }\r\n  \r\n  modifier onlyByBoth()\r\n  {\r\n    require ((tx.origin == patient) || (tx.origin == doctor));\r\n    _;\r\n  }\r\n\r\n  modifier onlyByBothAndConsentFile()\r\n  {\r\n    require ((msg.sender == PatConsentFile) || (msg.sender == DocConsentFile) || (tx.origin == patient) || (tx.origin == doctor));\r\n    _;\r\n  }\r\n  \r\n\r\n  /* This function is executed at initialization and sets the owner and the giver of the consent */\r\n  /* as well as what it contains */\r\n  constructor (address _patient,address payable _doctor, address _PatConsentFile,address _DocConsentFile) public\r\n  {\r\n    patient = _patient;\r\n    doctor = _doctor;\r\n    DocConsentFile = _DocConsentFile;\r\n    PatConsentFile = _PatConsentFile;\r\n\r\n    consentTemplate = new ConsentTemplate(_patient,_doctor,address(this));\r\n    status = Status.created;\r\n  }\r\n\r\n  function setRequestStatus(string memory requestdesc) onlyByDoctor() public {\r\n    status = Status.requested;\r\n    consentTemplate.SettingRequestedDesc(requestdesc);\r\n    emit ConsentStatusChanged(address(this),status);\r\n  }\r\n  /* Sets the status of the consent, this can only be done by the giver. */\r\n  function setPatientSideStatus(Status _status) onlyByPatient () public\r\n  {\r\n    if (_status == Status.denied || _status == Status.accepted) {\r\n      status = _status;\r\n      emit ConsentStatusChanged (address(this), status);\r\n    }\r\n  }\r\n\r\n  function setConsentedRecords(string[] memory consentedRecords) onlyByPatient () public {\r\n    status = Status.accepted;\r\n    consentTemplate.setConsentedRecords(consentedRecords);\r\n    emit ConsentStatusChanged(address(this),status);\r\n  }\r\n\r\n  /* Cancels a consent, this can only be done by the company who created the consent. */\r\n  function cancel () onlyByPatient() public\r\n  {\r\n    status = Status.cancelled;\r\n    consentTemplate.setConsentedRecords(new string[](0));\r\n    emit ConsentStatusChanged (address(this), Status.cancelled);\r\n  }\r\n  \r\n  /* Returns the status of the consent */    \r\n  function getStatus() onlyByBothAndConsentFile() public view returns (Status)\r\n  {\r\n    return status;\r\n  }\r\n\r\n  function GetConsents() onlyByBothAndConsentFile() public view returns(string[] memory) {\r\n    return consentTemplate.GetConsentedRecords();\r\n  }\r\n  \r\n  /* Returns the consent template that this consent is based on */\r\n  function getTemplate() onlyByBothAndConsentFile()  public view returns (address)\r\n  {\r\n    return address(consentTemplate);\r\n  }\r\n\r\n  /* Returns with the giver */\r\n  function getPatient() onlyByBothAndConsentFile() public view returns (address)\r\n  {\r\n    return patient;\r\n  }\r\n  \r\n  function GetAssociatedDocConsentFile() public view returns (address) {\r\n    return DocConsentFile;\r\n  }\r\n\r\n  function GetAssociatedPatConsentFile() public view returns (address) {\r\n    return PatConsentFile;\r\n  }\r\n\r\n  /* Returns with teh giver */\r\n  function getDoctor() onlyByBothAndConsentFile() public view returns (address)\r\n  {\r\n    return doctor;\r\n  }\r\n  \r\n  /* Function to recover the funds on the contract */\r\n  // function kill() public { if (tx.origin == owner) selfdestruct(owner); }\r\n}\r\n",
  "sourcePath": "C:\\dev\\Healthcare-CMS\\Healthcare-ConsentManagementSystem\\Frontend\\contract-testing\\contracts\\Consent.sol",
  "compiler": {
    "name": "solc",
    "version": "0.7.5+commit.eb77ed08.Emscripten.clang"
  },
  "schemaVersion": "3.4.7",
  "updatedAt": "2023-05-04T11:32:10.233Z",
  "devdoc": {
    "kind": "dev",
    "methods": {},
    "version": 1
  },
  "userdoc": {
    "kind": "user",
    "methods": {},
    "version": 1
  }
}