{
  "contractName": "ConsentManagementSystem",
  "abi": [
    {
      "inputs": [
        {
          "internalType": "string",
          "name": "_company",
          "type": "string"
        }
      ],
      "payable": false,
      "stateMutability": "nonpayable",
      "type": "constructor"
    },
    {
      "anonymous": false,
      "inputs": [
        {
          "indexed": false,
          "internalType": "address",
          "name": "consent",
          "type": "address"
        },
        {
          "indexed": false,
          "internalType": "string[]",
          "name": "Records",
          "type": "string[]"
        }
      ],
      "name": "CMSConsentCreatedEvent",
      "type": "event"
    },
    {
      "anonymous": false,
      "inputs": [
        {
          "indexed": false,
          "internalType": "address",
          "name": "consent",
          "type": "address"
        },
        {
          "indexed": false,
          "internalType": "string",
          "name": "desc",
          "type": "string"
        }
      ],
      "name": "CMSConsentRequestedEvent",
      "type": "event"
    },
    {
      "anonymous": false,
      "inputs": [
        {
          "indexed": true,
          "internalType": "address",
          "name": "factory",
          "type": "address"
        },
        {
          "indexed": true,
          "internalType": "address",
          "name": "owner",
          "type": "address"
        },
        {
          "indexed": true,
          "internalType": "address",
          "name": "user",
          "type": "address"
        },
        {
          "indexed": false,
          "internalType": "contract Consent",
          "name": "consent",
          "type": "address"
        },
        {
          "indexed": false,
          "internalType": "enum Consent.Status",
          "name": "status",
          "type": "uint8"
        }
      ],
      "name": "CMSConsentStatusChangedEvent",
      "type": "event"
    },
    {
      "anonymous": false,
      "inputs": [
        {
          "indexed": true,
          "internalType": "address",
          "name": "factory",
          "type": "address"
        },
        {
          "indexed": true,
          "internalType": "address",
          "name": "owner",
          "type": "address"
        },
        {
          "indexed": true,
          "internalType": "address",
          "name": "user",
          "type": "address"
        },
        {
          "indexed": false,
          "internalType": "address",
          "name": "file",
          "type": "address"
        }
      ],
      "name": "CMSFileCreatedEvent",
      "type": "event"
    },
    {
      "constant": false,
      "inputs": [
        {
          "internalType": "address payable",
          "name": "_user",
          "type": "address"
        },
        {
          "internalType": "string",
          "name": "role",
          "type": "string"
        }
      ],
      "name": "AddNewUser",
      "outputs": [],
      "payable": false,
      "stateMutability": "nonpayable",
      "type": "function"
    },
    {
      "constant": true,
      "inputs": [],
      "name": "DoctorExists",
      "outputs": [
        {
          "internalType": "bool",
          "name": "",
          "type": "bool"
        }
      ],
      "payable": false,
      "stateMutability": "view",
      "type": "function"
    },
    {
      "constant": true,
      "inputs": [],
      "name": "GetConsentFile",
      "outputs": [
        {
          "internalType": "contract ConsentFile",
          "name": "",
          "type": "address"
        }
      ],
      "payable": false,
      "stateMutability": "view",
      "type": "function"
    },
    {
      "constant": false,
      "inputs": [
        {
          "internalType": "address payable",
          "name": "_user",
          "type": "address"
        },
        {
          "internalType": "enum ConsentFile.Role",
          "name": "role",
          "type": "uint8"
        }
      ],
      "name": "createConsentFile",
      "outputs": [],
      "payable": false,
      "stateMutability": "nonpayable",
      "type": "function"
    },
    {
      "constant": false,
      "inputs": [
        {
          "internalType": "string",
          "name": "requestedDesc",
          "type": "string"
        },
        {
          "internalType": "address",
          "name": "fromPatient",
          "type": "address"
        }
      ],
      "name": "requestConsent",
      "outputs": [],
      "payable": false,
      "stateMutability": "nonpayable",
      "type": "function"
    },
    {
      "constant": true,
      "inputs": [],
      "name": "GetConsents",
      "outputs": [
        {
          "internalType": "contract Consent[]",
          "name": "",
          "type": "address[]"
        }
      ],
      "payable": false,
      "stateMutability": "view",
      "type": "function"
    },
    {
      "constant": false,
      "inputs": [
        {
          "internalType": "address",
          "name": "_doctor",
          "type": "address"
        },
        {
          "internalType": "string[]",
          "name": "records",
          "type": "string[]"
        }
      ],
      "name": "createConsent",
      "outputs": [],
      "payable": false,
      "stateMutability": "nonpayable",
      "type": "function"
    }
  ],
  "bytecode": "0x60806040523480156200001157600080fd5b5060405162002d7f38038062002d7f833981016040819052620000349162000172565b600080546001600160a01b03199081163217909155600180549091163317905580516200006990600290602084019062000071565b505062000234565b828054600181600116156101000203166002900490600052602060002090601f016020900481019282601f10620000b457805160ff1916838001178555620000e4565b82800160010185558215620000e4579182015b82811115620000e4578251825591602001919060010190620000c7565b50620000f2929150620000f6565b5090565b6200011391905b80821115620000f25760008155600101620000fd565b90565b600082601f8301126200012857600080fd5b81516200013f6200013982620001d9565b620001b2565b915080825260208301602083018583830111156200015c57600080fd5b6200016983828462000201565b50505092915050565b6000602082840312156200018557600080fd5b81516001600160401b038111156200019c57600080fd5b620001aa8482850162000116565b949350505050565b6040518181016001600160401b0381118282101715620001d157600080fd5b604052919050565b60006001600160401b03821115620001f057600080fd5b506020601f91909101601f19160190565b60005b838110156200021e57818101518382015260200162000204565b838111156200022e576000848401525b50505050565b612b3b80620002446000396000f3fe60806040523480156200001157600080fd5b5060043610620000885760003560e01c80638fc046d211620000635780638fc046d214620000df578063a3639ac514620000f6578063a8f2efd8146200010f578063f153298314620001265762000088565b80630f354dd6146200008d57806329ddda2414620000a657806340ab301e14620000bd575b600080fd5b620000a46200009e366004620009b5565b6200013f565b005b620000a4620000b736600462000a42565b620001c9565b620000c762000431565b604051620000d6919062000d4e565b60405180910390f35b620000a4620000f036600462000b06565b620004cc565b62000100620006e5565b604051620000d6919062000d84565b620000a462000120366004620009f4565b62000701565b62000130620007c2565b604051620000d6919062000d74565b6000546001600160a01b03163281146200015857600080fd5b60008383306040516200016b906200082f565b620001799392919062000cd8565b604051809103906000f08015801562000196573d6000803e3d6000fd5b506001600160a01b03948516600090815260076020526040902080546001600160a01b0319169190951617909355505050565b326000818152600360205260409020546001600160a01b03168114620001ee57600080fd5b6001600160a01b03808416600081815260046020526040902054859216146200021657600080fd5b32600090815260076020526040808220546001600160a01b038781168452828420549251630ec0a55760e11b8152918116939216919081908490631d814aae9062000266908b9060040162000cc8565b6040805180830381600087803b1580156200028057600080fd5b505af115801562000295573d6000803e3d6000fd5b505050506040513d601f19601f82011682018060405250620002bb919081019062000ad1565b92509050806200038a5760405163215aee7360e21b81526001600160a01b0385169063856bb9cc90620002f390859060040162000d84565b600060405180830381600087803b1580156200030e57600080fd5b505af115801562000323573d6000803e3d6000fd5b505060405163215aee7360e21b81526001600160a01b038616925063856bb9cc91506200035590859060040162000d84565b600060405180830381600087803b1580156200037057600080fd5b505af115801562000385573d6000803e3d6000fd5b505050505b6040516326519a7160e11b81526001600160a01b03831690634ca334e290620003b8908a9060040162000d61565b600060405180830381600087803b158015620003d357600080fd5b505af1158015620003e8573d6000803e3d6000fd5b505050507fd4051b956164a3a4af1ab93acb039acf029149f97597ef38cce8974d7898a3e582886040516200041f92919062000d06565b60405180910390a15050505050505050565b32600090815260076020526040808220548151636d2934d360e11b815291516060936001600160a01b03909216928492849263da5269a6926004808201939291829003018186803b1580156200048657600080fd5b505afa1580156200049b573d6000803e3d6000fd5b505050506040513d6000823e601f3d908101601f19168201604052620004c5919081019062000a90565b9250505090565b32600090815260076020526040808220546001600160a01b038481168452828420549251630ec0a55760e11b8152918116939216919081908490631d814aae906200051c90889060040162000cc8565b6040805180830381600087803b1580156200053657600080fd5b505af11580156200054b573d6000803e3d6000fd5b505050506040513d601f19601f8201168201806040525062000571919081019062000ad1565b9250905080620006405760405163215aee7360e21b81526001600160a01b0385169063856bb9cc90620005a990859060040162000d84565b600060405180830381600087803b158015620005c457600080fd5b505af1158015620005d9573d6000803e3d6000fd5b505060405163215aee7360e21b81526001600160a01b038616925063856bb9cc91506200060b90859060040162000d84565b600060405180830381600087803b1580156200062657600080fd5b505af11580156200063b573d6000803e3d6000fd5b505050505b604051637ccc149560e11b81526001600160a01b0383169063f998292a906200066e90899060040162000d94565b600060405180830381600087803b1580156200068957600080fd5b505af11580156200069e573d6000803e3d6000fd5b505050507fee282a0323baa12981fd5ba7a2392b736e8bf63a42d85e260f4708d8b8880c358287604051620006d592919062000d2a565b60405180910390a1505050505050565b326000908152600760205260409020546001600160a01b031690565b6000546001600160a01b03163281146200071a57600080fd5b6200074482604051806040016040528060068152602001653237b1ba37b960d11b815250620007f2565b1562000787576001600160a01b038316600081815260046020526040812080546001600160a01b031916909217909155620007819084906200013f565b620007bd565b6001600160a01b038316600081815260036020526040902080546001600160a01b0319169091179055620007bd8360016200013f565b505050565b326000818152600460205260408120549091906001600160a01b03168114620007ea57600080fd5b600191505090565b600062000800838362000809565b90505b92915050565b600081518351148015620008005750508051602091820120825192909101919091201490565b611bf08062000f0983390190565b8035620008038162000ecd565b600082601f8301126200085c57600080fd5b8151620008736200086d8262000dcf565b62000da7565b915081818352602084019350602081019050838560208402820111156200089957600080fd5b60005b83811015620008c95781620008b2888262000945565b84525060209283019291909101906001016200089c565b5050505092915050565b600082601f830112620008e557600080fd5b8135620008f66200086d8262000dcf565b81815260209384019390925082018360005b83811015620008c957813586016200092188826200095f565b845250602092830192919091019060010162000908565b8051620008038162000ee4565b8051620008038162000eef565b8035620008038162000efa565b600082601f8301126200097157600080fd5b8135620009826200086d8262000df1565b915080825260208301602083018583830111156200099f57600080fd5b620009ac83828462000e76565b50505092915050565b60008060408385031215620009c957600080fd5b6000620009d785856200083d565b9250506020620009ea8582860162000952565b9150509250929050565b6000806040838503121562000a0857600080fd5b600062000a1685856200083d565b925050602083013567ffffffffffffffff81111562000a3457600080fd5b620009ea858286016200095f565b6000806040838503121562000a5657600080fd5b600062000a6485856200083d565b925050602083013567ffffffffffffffff81111562000a8257600080fd5b620009ea85828601620008d3565b60006020828403121562000aa357600080fd5b815167ffffffffffffffff81111562000abb57600080fd5b62000ac9848285016200084a565b949350505050565b6000806040838503121562000ae557600080fd5b600062000af3858562000938565b9250506020620009ea8582860162000945565b6000806040838503121562000b1a57600080fd5b823567ffffffffffffffff81111562000b3257600080fd5b62000b40858286016200095f565b9250506020620009ea858286016200083d565b600062000b61838362000c72565b505060200190565b600062000800838362000c88565b62000b828162000e2d565b82525050565b600062000b958262000e20565b62000ba1818562000e24565b935062000bae8362000e1a565b8060005b8381101562000be257815162000bc9888262000b53565b975062000bd68362000e1a565b92505060010162000bb2565b509495945050505050565b600062000bfa8262000e20565b62000c06818562000e24565b93508360208202850162000c1a8562000e1a565b8060005b8581101562000c5a578484038952815162000c3a858262000b69565b945062000c478362000e1a565b60209a909a019992505060010162000c1e565b5091979650505050505050565b62000b828162000e3a565b62000b828162000e3f565b62000b828162000e69565b600062000c958262000e20565b62000ca1818562000e24565b935062000cb381856020860162000e82565b62000cbe8162000eb5565b9093019392505050565b6020810162000803828462000b77565b6060810162000ce8828662000b77565b62000cf7602083018562000c7d565b62000ac9604083018462000b77565b6040810162000d16828562000b77565b818103602083015262000ac9818462000bed565b6040810162000d3a828562000b77565b818103602083015262000ac9818462000c88565b6020808252810162000800818462000b88565b6020808252810162000800818462000bed565b6020810162000803828462000c67565b6020810162000803828462000c72565b6020808252810162000800818462000c88565b60405181810167ffffffffffffffff8111828210171562000dc757600080fd5b604052919050565b600067ffffffffffffffff82111562000de757600080fd5b5060209081020190565b600067ffffffffffffffff82111562000e0957600080fd5b506020601f91909101601f19160190565b60200190565b5190565b90815260200190565b6000620008038262000e5d565b151590565b6000620008038262000e2d565b8062000e588162000ebf565b919050565b6001600160a01b031690565b6000620008038262000e4c565b82818337506000910152565b60005b8381101562000e9f57818101518382015260200162000e85565b8381111562000eaf576000848401525b50505050565b601f01601f191690565b6003811062000eca57fe5b50565b62000ed88162000e2d565b811462000eca57600080fd5b62000ed88162000e3a565b62000ed88162000e3f565b6003811062000eca57600080fdfe608060405234801561001057600080fd5b50604051611bf0380380611bf083398101604081905261002f916100a4565b600080546001600160a01b038084166001600160a01b03199283161790925560018054928616929091169190911780825583919060ff60a01b1916600160a01b83600281111561007b57fe5b0217905550505050610126565b805161009381610102565b92915050565b805161009381610119565b6000806000606084860312156100b957600080fd5b60006100c58686610088565b93505060206100d686828701610099565b92505060406100e786828701610088565b9150509250925092565b60006001600160a01b038216610093565b61010b816100f1565b811461011657600080fd5b50565b6003811061011657600080fd5b611abb806101356000396000f3fe608060405234801561001057600080fd5b506004361061004c5760003560e01c80631d814aae14610051578063856bb9cc1461007b578063893d20e814610090578063da5269a6146100a5575b600080fd5b61006461005f3660046104af565b6100ba565b604051610072929190610604565b60405180910390f35b61008e6100893660046104f3565b610318565b005b6100986103f2565b60405161007291906105a8565b6100ad610401565b60405161007291906105f3565b60008080600154600160a01b900460ff1660028111156100d657fe5b141561021e5760005b6002548110156101c857836001600160a01b03166002828154811061010057fe5b6000918252602091829020015460408051633d87cd1b60e11b815290516001600160a01b0390921692637b0f9a3692600480840193829003018186803b15801561014957600080fd5b505afa15801561015d573d6000803e3d6000fd5b505050506040513d601f19601f8201168201806040525061018191908101906104d5565b6001600160a01b031614156101c05760016002828154811061019f57fe5b6000918252602090912001549093506001600160a01b031691506103139050565b6001016100df565b5060015460405160009185916001600160a01b03909116906101e99061047b565b6101f49291906105d8565b604051809103906000f080158015610210573d6000803e3d6000fd5b506000935091506103139050565b60005b6002548110156102e957836001600160a01b03166002828154811061024257fe5b60009182526020918290200154604080516301d552c960e51b815290516001600160a01b0390921692633aaa592092600480840193829003018186803b15801561028b57600080fd5b505afa15801561029f573d6000803e3d6000fd5b505050506040513d601f19601f820116820180604052506102c391908101906104d5565b6001600160a01b031614156102e15760016002828154811061019f57fe5b600101610221565b506001546040516000916001600160a01b03169085906103089061047b565b6101f49291906105b6565b915091565b6001546001600160a01b031632148061033b57506000546001600160a01b031633145b61034457600080fd5b600280546001808201835560008390527f405787fa12a823e0f2b7631cc41b3ba8828b3321ca811111fa75cd3aa3bb5ace90910180546001600160a01b0319166001600160a01b03851617905554600160a01b900460ff16908111156103a657fe5b6001546040516001600160a01b039091169030907f0294aab5f2dfa94bfca8af7741616afbb94a905dba65a66717ddb351e7209e2e906103e79086906105a8565b60405180910390a450565b6001546001600160a01b031690565b6001546060906001600160a01b0316321461041b57600080fd5b600280548060200260200160405190810160405280929190818152602001828054801561047157602002820191906000526020600020905b81546001600160a01b03168152600190910190602001808311610453575b5050505050905090565b6113f48061068583390190565b803561049381610664565b92915050565b805161049381610664565b80356104938161067b565b6000602082840312156104c157600080fd5b60006104cd8484610488565b949350505050565b6000602082840312156104e757600080fd5b60006104cd8484610499565b60006020828403121561050557600080fd5b60006104cd84846104a4565b600061051d838361059f565b505060200190565b61052e81610659565b82525050565b61052e81610632565b600061054882610625565b6105528185610629565b935061055d8361061f565b8060005b8381101561058b5781516105758882610511565b97506105808361061f565b925050600101610561565b509495945050505050565b61052e8161063d565b61052e81610642565b602081016104938284610534565b604081016105c48285610525565b6105d16020830184610534565b9392505050565b604081016105e68285610534565b6105d16020830184610525565b602080825281016105d1818461053d565b604081016106128285610596565b6105d1602083018461059f565b60200190565b5190565b90815260200190565b60006104938261064d565b151590565b600061049382610632565b6001600160a01b031690565b600061049382610642565b61066d81610632565b811461067857600080fd5b50565b61066d8161064256fe60806040523480156200001157600080fd5b50604051620013f4380380620013f48339810160408190526200003491620000f7565b600080546001600160a01b038085166001600160a01b0319928316179092556001805492841692909116919091179055604051829082906200007690620000d6565b6200008392919062000147565b604051809103906000f080158015620000a0573d6000803e3d6000fd5b50600280546001600160a01b0319166001600160a01b039290921691909117905550506001805460ff60a01b1916905562000199565b6108de8062000b1683390190565b8051620000f1816200017f565b92915050565b600080604083850312156200010b57600080fd5b6000620001198585620000e4565b92505060206200012c85828601620000e4565b9150509250929050565b62000141816200016d565b82525050565b6040810162000157828562000136565b62000166602083018462000136565b9392505050565b60006001600160a01b038216620000f1565b6200018a816200016d565b81146200019657600080fd5b50565b61096d80620001a96000396000f3fe608060405234801561001057600080fd5b50600436106100885760003560e01c80637b0f9a361161005b5780637b0f9a36146100ea578063aa43c936146100f2578063ea8a1af014610105578063f998292a1461010d57610088565b8063321c48f21461008d5780633aaa5920146100ab5780634ca334e2146100c05780634e69d560146100d5575b600080fd5b610095610120565b6040516100a291906107e1565b60405180910390f35b6100b361015d565b6040516100a291906107b1565b6100d36100ce3660046105e6565b61019a565b005b6100dd610282565b6040516100a291906107ef565b6100b36102c0565b6100d3610100366004610623565b6102fd565b6100d36103b6565b6100d361011b366004610641565b6104c0565b600080546001600160a01b031632148061014457506001546001600160a01b031632145b61014d57600080fd5b506002546001600160a01b031690565b600080546001600160a01b031632148061018157506001546001600160a01b031632145b61018a57600080fd5b506001546001600160a01b031690565b6000546001600160a01b031632146101b157600080fd5b6001805460ff60a01b1916600160a11b1790556002546040516326519a7160e11b81526001600160a01b0390911690634ca334e2906101f49084906004016107d0565b600060405180830381600087803b15801561020e57600080fd5b505af1158015610222573d6000803e3d6000fd5b50506001546000546040516001600160a01b038084169550909116925030917fa5feef4ed63437e1e1e8021dca355750ed6da3e7f81a31e679ae236fd63bc4449161027791600160a01b900460ff16906107ef565b60405180910390a450565b600080546001600160a01b03163214806102a657506001546001600160a01b031632145b6102af57600080fd5b50600154600160a01b900460ff1690565b600080546001600160a01b03163214806102e457506001546001600160a01b031632145b6102ed57600080fd5b506000546001600160a01b031690565b6000546001600160a01b0316321461031457600080fd5b600181600481111561032257fe5b14806103395750600281600481111561033757fe5b145b156103b3576001805482919060ff60a01b1916600160a01b83600481111561035d57fe5b02179055506001546000546040516001600160a01b038084169392169130917fa5feef4ed63437e1e1e8021dca355750ed6da3e7f81a31e679ae236fd63bc4449161027791600160a01b90910460ff16906107ef565b50565b6000546001600160a01b031632146103cd57600080fd5b6001805460ff60a01b1916600160a21b179055600254604080516000808252602082019092526001600160a01b0390921691634ca334e29161041f565b606081526020019060019003908161040a5790505b506040518263ffffffff1660e01b815260040161043c91906107bf565b600060405180830381600087803b15801561045657600080fd5b505af115801561046a573d6000803e3d6000fd5b50506001546000546040516001600160a01b0392831694509116915030907fa5feef4ed63437e1e1e8021dca355750ed6da3e7f81a31e679ae236fd63bc444906104b6906004906107ef565b60405180910390a4565b6001546001600160a01b031632146104d757600080fd5b6001805460ff60a01b1916600360a01b1790556002546040516303f0622760e41b81526001600160a01b0390911690633f062270906101f49084906004016107fd565b600082601f83011261052b57600080fd5b813561053e61053982610835565b61080e565b81815260209384019390925082018360005b8381101561057c57813586016105668882610597565b8452506020928301929190910190600101610550565b5050505092915050565b80356105918161091d565b92915050565b600082601f8301126105a857600080fd5b81356105b661053982610856565b915080825260208301602083018583830111156105d257600080fd5b6105dd8382846108cd565b50505092915050565b6000602082840312156105f857600080fd5b813567ffffffffffffffff81111561060f57600080fd5b61061b8482850161051a565b949350505050565b60006020828403121561063557600080fd5b600061061b8484610586565b60006020828403121561065357600080fd5b813567ffffffffffffffff81111561066a57600080fd5b61061b84828501610597565b60006106828383610779565b9392505050565b61069281610891565b82525050565b60006106a382610884565b6106ad8185610888565b9350836020820285016106bf8561087e565b8060005b858110156106f957848403895281516106dc8582610676565b94506106e78361087e565b60209a909a01999250506001016106c3565b5091979650505050505050565b600061071182610884565b61071b8185610888565b93508360208202850161072d8561087e565b8060005b858110156106f9578484038952815161074a8582610676565b94506107558361087e565b60209a909a0199925050600101610731565b610692816108b7565b610692816108c2565b600061078482610884565b61078e8185610888565b935061079e8185602086016108d9565b6107a781610909565b9093019392505050565b602081016105918284610689565b602080825281016106828184610706565b602080825281016106828184610698565b602081016105918284610767565b602081016105918284610770565b602080825281016106828184610779565b60405181810167ffffffffffffffff8111828210171561082d57600080fd5b604052919050565b600067ffffffffffffffff82111561084c57600080fd5b5060209081020190565b600067ffffffffffffffff82111561086d57600080fd5b506020601f91909101601f19160190565b60200190565b5190565b90815260200190565b6000610591826108ab565b806108a681610913565b919050565b6001600160a01b031690565b600061059182610891565b60006105918261089c565b82818337506000910152565b60005b838110156108f45781810151838201526020016108dc565b83811115610903576000848401525b50505050565b601f01601f191690565b600581106103b357fe5b600581106103b357600080fdfea365627a7a72315820fda750ebe8acda00f9763ffe4a4f82757e19cc29c7dbe448cbb159437e2f88fe6c6578706572696d656e74616cf564736f6c63430005100040608060405234801561001057600080fd5b506040516108de3803806108de83398101604081905261002f91610135565b600080546001600160a01b038085166001600160a01b031992831617835560018054918516919092161790556040805160208101918290528290526100779160039190610089565b50506004805460ff1916905550610197565b828054600181600116156101000203166002900490600052602060002090601f016020900481019282601f106100ca57805160ff19168380011785556100f7565b828001600101855582156100f7579182015b828111156100f75782518255916020019190600101906100dc565b50610103929150610107565b5090565b61012191905b80821115610103576000815560010161010d565b90565b805161012f81610180565b92915050565b6000806040838503121561014857600080fd5b60006101548585610124565b925050602061016585828601610124565b9150509250929050565b60006001600160a01b03821661012f565b6101898161016f565b811461019457600080fd5b50565b610738806101a66000396000f3fe608060405234801561001057600080fd5b506004361061004c5760003560e01c80633f0622701461005157806340a4895c146100665780634ca334e2146100845780636e81a8a314610097575b600080fd5b61006461005f36600461051c565b6100ac565b005b61006e6100da565b60405161007b919061061b565b60405180910390f35b6100646100923660046104df565b61019a565b61009f6101c4565b60405161007b919061060a565b6001546001600160a01b031632146100c357600080fd5b80516100d69060039060208401906102c9565b5050565b6001546060906001600160a01b031632148061010057506000546001600160a01b031632145b61010957600080fd5b6003805460408051602060026001851615610100026000190190941693909304601f8101849004840282018401909252818152929183018282801561018f5780601f106101645761010080835404028352916020019161018f565b820191906000526020600020905b81548152906001019060200180831161017257829003601f168201915b505050505090505b90565b6000546001600160a01b031632146101b157600080fd5b80516100d6906002906020840190610347565b6001546060906001600160a01b03163214806101ea57506000546001600160a01b031632145b6101f357600080fd5b6002805480602002602001604051908101604052809291908181526020016000905b828210156102c05760008481526020908190208301805460408051601f60026000196101006001871615020190941693909304928301859004850281018501909152818152928301828280156102ac5780601f10610281576101008083540402835291602001916102ac565b820191906000526020600020905b81548152906001019060200180831161028f57829003601f168201915b505050505081526020019060010190610215565b50505050905090565b828054600181600116156101000203166002900490600052602060002090601f016020900481019282601f1061030a57805160ff1916838001178555610337565b82800160010185558215610337579182015b8281111561033757825182559160200191906001019061031c565b506103439291506103a0565b5090565b828054828255906000526020600020908101928215610394579160200282015b8281111561039457825180516103849184916020909101906102c9565b5091602001919060010190610367565b506103439291506103ba565b61019791905b8082111561034357600081556001016103a6565b61019791905b808211156103435760006103d482826103dd565b506001016103c0565b50805460018160011615610100020316600290046000825580601f106104035750610421565b601f01602090049060005260206000209081019061042191906103a0565b50565b600082601f83011261043557600080fd5b813561044861044382610653565b61062c565b81815260209384019390925082018360005b8381101561048657813586016104708882610490565b845250602092830192919091019060010161045a565b5050505092915050565b600082601f8301126104a157600080fd5b81356104af61044382610674565b915080825260208301602083018583830111156104cb57600080fd5b6104d68382846106af565b50505092915050565b6000602082840312156104f157600080fd5b813567ffffffffffffffff81111561050857600080fd5b61051484828501610424565b949350505050565b60006020828403121561052e57600080fd5b813567ffffffffffffffff81111561054557600080fd5b61051484828501610490565b600061055d83836105d2565b9392505050565b600061056f826106a2565b61057981856106a6565b93508360208202850161058b8561069c565b8060005b858110156105c557848403895281516105a88582610551565b94506105b38361069c565b60209a909a019992505060010161058f565b5091979650505050505050565b60006105dd826106a2565b6105e781856106a6565b93506105f78185602086016106bb565b610600816106eb565b9093019392505050565b6020808252810161055d8184610564565b6020808252810161055d81846105d2565b60405181810167ffffffffffffffff8111828210171561064b57600080fd5b604052919050565b600067ffffffffffffffff82111561066a57600080fd5b5060209081020190565b600067ffffffffffffffff82111561068b57600080fd5b506020601f91909101601f19160190565b60200190565b5190565b90815260200190565b82818337506000910152565b60005b838110156106d65781810151838201526020016106be565b838111156106e5576000848401525b50505050565b601f01601f19169056fea365627a7a723158207bd452b6a2043386c1d26517bf80cfa3abf6388b5907bc7ec951f8a3245f350a6c6578706572696d656e74616cf564736f6c63430005100040a365627a7a72315820e1826b87f06110d33ce3c941cbf0b0988ddba496cb38c1633447117c25f5f9456c6578706572696d656e74616cf564736f6c63430005100040a365627a7a723158200163239757e99b72d04c2e3c1334d98748bc725ed19cc2e89e684ffc5d8f0f336c6578706572696d656e74616cf564736f6c63430005100040",
  "source": "pragma solidity ^0.5.2;\r\npragma experimental ABIEncoderV2;\r\nimport \"./ConsentFile.sol\";\r\n\r\n// /* \r\n//  * This is the consent factory contract that handles consents and version of\r\n//  * consents.\r\n//  *\r\n//  * It basically provides an interface to be able to create consents based on\r\n//  * a specific purpouse for a specific user. And always using the latest version\r\n//  * and always puts newly generated consents into a persons consent file.\r\n//  *\r\n//  */\r\n\r\ncontract ConsentManagementSystem {\r\n\r\n  \r\n  /* The owner of this contract */\r\n  address payable private owner;  /* Who owns this CMS*/\r\n  address private creator; /* Who created this CMS */\r\n  string  private company;  /* Company that created this CMS */\r\n  \r\n  enum Role {\r\n    doctor,\r\n    patient,\r\n    nominee\r\n  }\r\n\r\n  mapping(address => address) Patients;\r\n  mapping(address => address) Doctors;\r\n  \r\n  mapping(address => mapping(address => uint)) private ConnectionDoctorPatient;\r\n  mapping(address => mapping(address => uint)) private ConnectionDoctorPatientInv;\r\n  // mapping(address => mapping(address => Consent)) private ConsentDoctorPatient;\r\n  // mapping(address => mapping(address => Consent)) private ConsentDoctorPatientInv;\r\n\r\n  mapping(address => ConsentFile) UserToConsentFile;\r\n  // mapping(address =>mapping(address => address)) PatientDoctorToConsentFile;\r\n  \r\n  \r\n  /* Events generated when the consent has been created */\r\n  event CMSConsentCreatedEvent(address consent,string[] Records);\r\n  event CMSConsentRequestedEvent(address consent,string desc);\r\n  \r\n  event CMSFileCreatedEvent(address indexed factory, address indexed owner, address indexed user, address file);\r\n  // event CMSFailedEvent(address indexed factory, address indexed owner, address indexed user, Error error);\r\n  event CMSConsentStatusChangedEvent (address indexed factory, address indexed owner, address indexed user, Consent consent, Consent.Status status);\r\n  \r\n  /* A modifier */\r\n  modifier onlyBy(address _account) \r\n  { \r\n    require(tx.origin == _account);\r\n    _;\r\n  }\r\n  \r\n  modifier PatientAccountExists(address _account)\r\n  {\r\n    require(Patients[_account] == _account);\r\n    _;\r\n  }\r\n\r\n  modifier DoctorAccountExists(address _account)\r\n  {\r\n    require(Doctors[_account] == _account);\r\n    _;\r\n  }\r\n\r\n  /* Constructor for the consent factory */\r\n  constructor (string memory _company) public\r\n  {\r\n    owner = tx.origin;\r\n    creator = msg.sender;\r\n    company = _company;\r\n  }\r\n  function memcmp(bytes memory a, bytes memory b) internal pure returns(bool){\r\n    return (a.length == b.length) && (keccak256(a) == keccak256(b));\r\n  }\r\n  function strcmp(string memory a, string memory b) internal pure returns(bool){\r\n    return memcmp(bytes(a), bytes(b));\r\n  }\r\n\r\n  function AddNewUser(address payable _user,string memory role) onlyBy(owner) public {\r\n    if(strcmp(role,\"doctor\")) {\r\n      Doctors[_user] = _user;\r\n      createConsentFile(_user,ConsentFile.Role.doctor);\r\n    }\r\n    else {\r\n      Patients[_user] = _user;\r\n      createConsentFile(_user,ConsentFile.Role.patient);\r\n    }\r\n  }\r\n\r\n  function DoctorExists() DoctorAccountExists(tx.origin) public view returns(bool){\r\n    return true;\r\n  }\r\n\r\n\r\n  function GetConsentFile() public view returns(ConsentFile) {\r\n    return UserToConsentFile[tx.origin];\r\n  }\r\n  /* Create a file that holds a users all consents.\r\n   * \r\n   * This is the file that holds all consents regardless of their state. Should have a modifier for the company.\r\n   */\r\n  function createConsentFile(address payable _user,ConsentFile.Role role) onlyBy(owner) public\r\n  {\r\n    ConsentFile file = new ConsentFile(_user,role,address(this));\r\n    UserToConsentFile[_user] = file;\r\n    // emit CMSFileCreatedEvent(address(this), owner, _user, file);\r\n  }\r\n\r\n  modifier ConnectionExists(address patient,address doctor) {\r\n    require ((ConnectionDoctorPatient[patient][doctor] == 1) || (ConnectionDoctorPatientInv[patient][doctor] == 1));\r\n    _;\r\n  }\r\n  \r\n  /* Create a consent for a specific purpouse of the latest version, language and country.\r\n   *\r\n   * Country and Purpouse must exist otherwise it will fail, if language is not there it will\r\n   * default to countrys default language if it exists otherwise it will fail. It adds\r\n   * the consent to the users file as well. Should have a modifier for the company only.\r\n   */\r\n\r\n  function requestConsent(string memory requestedDesc,address fromPatient)  public{\r\n    ConsentFile DoctorConsentFile = UserToConsentFile[tx.origin];\r\n    ConsentFile PatientConsentFile = UserToConsentFile[fromPatient];\r\n\r\n    Consent _consent;\r\n    bool status;\r\n    (status,_consent) = DoctorConsentFile.getAssociatedConsent(fromPatient);\r\n    \r\n    if(!status) {\r\n      DoctorConsentFile.addConsent(_consent);\r\n      PatientConsentFile.addConsent(_consent);\r\n    }\r\n    \r\n    _consent.setRequestStatus(requestedDesc);\r\n    \r\n    emit CMSConsentRequestedEvent(address(_consent),requestedDesc);\r\n  }\r\n\r\n  function GetConsents() public view returns(Consent[] memory) {\r\n    ConsentFile UserConsents = UserToConsentFile[tx.origin];\r\n    Consent[] memory _consents = UserConsents.getListOfConsents();\r\n    return _consents;\r\n  }\r\n\r\n  function createConsent(address _doctor, string[] memory records) PatientAccountExists(tx.origin) DoctorAccountExists(_doctor) public\r\n  {\r\n\r\n    ConsentFile PatientConsentFile = UserToConsentFile[tx.origin];\r\n    ConsentFile DoctorConsentFile = UserToConsentFile[_doctor];\r\n\r\n    Consent _consent;\r\n    bool state;\r\n    (state,_consent) = PatientConsentFile.getAssociatedConsent(_doctor);\r\n\r\n    if(!state) {\r\n      PatientConsentFile.addConsent(_consent);\r\n      DoctorConsentFile.addConsent(_consent);\r\n    }\r\n\r\n    _consent.setConsentedRecords(records);\r\n\r\n    \r\n    emit CMSConsentCreatedEvent(address(_consent),records);\r\n\r\n  }\r\n  \r\n  /* This function tests wether a consent for a specific purpouse exists or not */\r\n  // function getTemplate (string memory _purpouse, string memory _languageCountry) view internal returns (ConsentTemplate)\r\n  // {\r\n  //   /* Get the consents for a specific purpouse and language, country*/\r\n  //   uint ix = consentTemplates[_purpouse][_languageCountry];\r\n  //   if (ix == 0) {\r\n      \r\n  //     /* Fallback here is to only go for the default language of the country */\r\n  //     /* So we need to strip the language from the country */\r\n  //     bytes memory b = bytes (_languageCountry);\r\n  //     if (b.length==5) {\r\n\t// if (uint8(b[2]) == 45) {\r\n  //   \t  bytes memory c = new bytes(2);\r\n\t  \r\n\t//   /* Get the country */\r\n  //   \t  c[0] = b[3];\r\n  //   \t  c[1] = b[4];\r\n  //   \t  ix = consentTemplates[_purpouse][string(c)];\r\n  //   \t}\r\n  //     }\r\n  //   }\r\n\r\n  //   /* Return the consent template if we found any */\r\n  //   if (ix>0)\r\n  //     return ConsentTemplate(listOfActiveConsentTemplates[ix-1]);\r\n  //   else\r\n  //     return ConsentTemplate(address(0));\r\n  // }\r\n\r\n  // /* Change the status of the consent */\r\n  // function setConsentStatus(Consent _consent, Consent.Status _status) onlyBy (_consent.getGiver()) public\r\n  // {\r\n  //   if(_status == Consent.Status.accepted || _status == Consent.Status.denied) {\r\n  //     _consent.setStatus (_status);\r\n  //     emit ConsentFactoryConsentStatusChangedEvent (address(this), _consent.getOwner(), _consent.getGiver(), _consent, _status);\r\n  //   } else {\r\n  //     emit ConsentFactoryFailedEvent (address(this), _consent.getOwner(), _consent.getGiver(), Error.only_accepted_or_denied);\r\n  //   }\r\n  // }\r\n  \r\n  // /* Cancel the consent */\r\n  // function cancelConsent(Consent _consent) onlyBy (_consent.getOwner()) public\r\n  // {\r\n  //   _consent.cancel();\r\n  //   emit ConsentFactoryConsentStatusChangedEvent (address(this), _consent.getOwner(), _consent.getGiver(), _consent, Consent.Status.cancelled);\r\n  // }\r\n\r\n  // /* The company who has this factory */\r\n  // function getCompany() public view returns (string memory)\r\n  // {\r\n  //   return company;\r\n  // }\r\n\r\n  // /* Returns the owner for the factory */\r\n  // function getOwner() public view returns (address)\r\n  // {\r\n  //   return owner;\r\n  // }\r\n  \r\n  // /* Function to recover the funds on the contract */\r\n  // function kill() public { if (msg.sender == owner) selfdestruct(owner); }\r\n}\r\n\r\n/*\r\n * END\r\n */",
  "sourcePath": "C:\\dev\\Healthcare-CMS\\ScratchFrontend\\ConsentManagementFrontEnd\\contract-testing\\contracts\\CMS.sol",
  "compiler": {
    "name": "solc",
    "version": "0.5.16+commit.9c3226ce.Emscripten.clang"
  },
  "schemaVersion": "3.4.2",
  "updatedAt": "2022-04-13T17:59:48.559Z",
  "networkType": "ethereum",
  "devdoc": {
    "methods": {}
  },
  "userdoc": {
    "methods": {}
  }
}