{
  "contractName": "Consent",
  "abi": [
    {
      "inputs": [
        {
          "internalType": "address",
          "name": "_patient",
          "type": "address"
        },
        {
          "internalType": "address payable",
          "name": "_doctor",
          "type": "address"
        },
        {
          "internalType": "address",
          "name": "_PatConsentFile",
          "type": "address"
        },
        {
          "internalType": "address",
          "name": "_DocConsentFile",
          "type": "address"
        }
      ],
      "payable": false,
      "stateMutability": "nonpayable",
      "type": "constructor"
    },
    {
      "anonymous": false,
      "inputs": [
        {
          "indexed": true,
          "internalType": "address",
          "name": "consent",
          "type": "address"
        },
        {
          "indexed": false,
          "internalType": "enum Consent.Status",
          "name": "status",
          "type": "uint8"
        }
      ],
      "name": "ConsentStatusChanged",
      "type": "event"
    },
    {
      "constant": false,
      "inputs": [
        {
          "internalType": "string",
          "name": "requestdesc",
          "type": "string"
        }
      ],
      "name": "setRequestStatus",
      "outputs": [],
      "payable": false,
      "stateMutability": "nonpayable",
      "type": "function"
    },
    {
      "constant": false,
      "inputs": [
        {
          "internalType": "enum Consent.Status",
          "name": "_status",
          "type": "uint8"
        }
      ],
      "name": "setPatientSideStatus",
      "outputs": [],
      "payable": false,
      "stateMutability": "nonpayable",
      "type": "function"
    },
    {
      "constant": false,
      "inputs": [
        {
          "internalType": "string[]",
          "name": "consentedRecords",
          "type": "string[]"
        }
      ],
      "name": "setConsentedRecords",
      "outputs": [],
      "payable": false,
      "stateMutability": "nonpayable",
      "type": "function"
    },
    {
      "constant": false,
      "inputs": [],
      "name": "cancel",
      "outputs": [],
      "payable": false,
      "stateMutability": "nonpayable",
      "type": "function"
    },
    {
      "constant": true,
      "inputs": [],
      "name": "getStatus",
      "outputs": [
        {
          "internalType": "enum Consent.Status",
          "name": "",
          "type": "uint8"
        }
      ],
      "payable": false,
      "stateMutability": "view",
      "type": "function"
    },
    {
      "constant": true,
      "inputs": [],
      "name": "GetConsents",
      "outputs": [
        {
          "internalType": "string[]",
          "name": "",
          "type": "string[]"
        }
      ],
      "payable": false,
      "stateMutability": "view",
      "type": "function"
    },
    {
      "constant": true,
      "inputs": [],
      "name": "getTemplate",
      "outputs": [
        {
          "internalType": "address",
          "name": "",
          "type": "address"
        }
      ],
      "payable": false,
      "stateMutability": "view",
      "type": "function"
    },
    {
      "constant": true,
      "inputs": [],
      "name": "getPatient",
      "outputs": [
        {
          "internalType": "address",
          "name": "",
          "type": "address"
        }
      ],
      "payable": false,
      "stateMutability": "view",
      "type": "function"
    },
    {
      "constant": true,
      "inputs": [],
      "name": "GetAssociatedDocConsentFile",
      "outputs": [
        {
          "internalType": "address",
          "name": "",
          "type": "address"
        }
      ],
      "payable": false,
      "stateMutability": "view",
      "type": "function"
    },
    {
      "constant": true,
      "inputs": [],
      "name": "GetAssociatedPatConsentFile",
      "outputs": [
        {
          "internalType": "address",
          "name": "",
          "type": "address"
        }
      ],
      "payable": false,
      "stateMutability": "view",
      "type": "function"
    },
    {
      "constant": true,
      "inputs": [],
      "name": "getDoctor",
      "outputs": [
        {
          "internalType": "address",
          "name": "",
          "type": "address"
        }
      ],
      "payable": false,
      "stateMutability": "view",
      "type": "function"
    }
  ],
  "bytecode": "0x60806040523480156200001157600080fd5b506040516200173438038062001734833981016040819052620000349162000117565b600280546001600160a01b038087166001600160a01b031992831617909255600380548684169083161790556000805484841690831617905560018054928516929091169190911790556040518490849030906200009290620000f6565b620000a09392919062000192565b604051809103906000f080158015620000bd573d6000803e3d6000fd5b50600480546001600160a01b0319166001600160a01b039290921691909117905550506003805460ff60a01b1916905550620001f49050565b61098c8062000da883390190565b80516200011181620001da565b92915050565b600080600080608085870312156200012e57600080fd5b60006200013c878762000104565b94505060206200014f8782880162000104565b9350506040620001628782880162000104565b9250506060620001758782880162000104565b91505092959194509250565b6200018c81620001c8565b82525050565b60608101620001a2828662000181565b620001b1602083018562000181565b620001c0604083018462000181565b949350505050565b60006001600160a01b03821662000111565b620001e581620001c8565b8114620001f157600080fd5b50565b610ba480620002046000396000f3fe608060405234801561001057600080fd5b50600436106100995760003560e01c8063321c48f21461009e578063370fcc20146100bc5780633aaa5920146100c457806340ab301e146100cc5780634ca334e2146100e15780634e69d560146100f65780637b0f9a361461010b578063aa43c93614610113578063bc307bb914610126578063ea8a1af01461012e578063f998292a14610136575b600080fd5b6100a6610149565b6040516100b391906109e4565b60405180910390f35b6100a66101b2565b6100a66101c1565b6100d461022a565b6040516100b39190610a03565b6100f46100ef3660046107f0565b610306565b005b6100fe6103c8565b6040516100b39190610a14565b6100a6610432565b6100f4610121366004610860565b61049b565b6100a661052f565b6100f461053e565b6100f461014436600461087e565b610628565b6001546000906001600160a01b031633148061016f57506000546001600160a01b031633145b8061018457506002546001600160a01b031632145b8061019957506003546001600160a01b031632145b6101a257600080fd5b506004546001600160a01b031690565b6000546001600160a01b031690565b6001546000906001600160a01b03163314806101e757506000546001600160a01b031633145b806101fc57506002546001600160a01b031632145b8061021157506003546001600160a01b031632145b61021a57600080fd5b506003546001600160a01b031690565b6001546060906001600160a01b031633148061025057506000546001600160a01b031633145b8061026557506002546001600160a01b031632145b8061027a57506003546001600160a01b031632145b61028357600080fd5b6004805460408051636e81a8a360e01b815290516001600160a01b0390921692636e81a8a3928282019260009290829003018186803b1580156102c557600080fd5b505afa1580156102d9573d6000803e3d6000fd5b505050506040513d6000823e601f3d908101601f19168201604052610301919081019061082c565b905090565b6002546001600160a01b0316321461031d57600080fd5b6003805460ff60a01b1916600160a11b179055600480546040516326519a7160e11b81526001600160a01b0390911691634ca334e29161035f91859101610a03565b600060405180830381600087803b15801561037957600080fd5b505af115801561038d573d6000803e3d6000fd5b5050600354604051309350600080516020610b4283398151915292506103bd91600160a01b900460ff1690610a14565b60405180910390a250565b6001546000906001600160a01b03163314806103ee57506000546001600160a01b031633145b8061040357506002546001600160a01b031632145b8061041857506003546001600160a01b031632145b61042157600080fd5b50600354600160a01b900460ff1690565b6001546000906001600160a01b031633148061045857506000546001600160a01b031633145b8061046d57506002546001600160a01b031632145b8061048257506003546001600160a01b031632145b61048b57600080fd5b506002546001600160a01b031690565b6002546001600160a01b031632146104b257600080fd5b60018160048111156104c057fe5b14806104d7575060028160048111156104d557fe5b145b1561052c576003805482919060ff60a01b1916600160a01b8360048111156104fb57fe5b02179055506003546040513091600080516020610b42833981519152916103bd91600160a01b900460ff1690610a14565b50565b6001546001600160a01b031690565b6002546001600160a01b0316321461055557600080fd5b6003805460ff60a01b1916600160a21b179055600454604080516000808252602082019092526001600160a01b0390921691634ca334e2916105a7565b60608152602001906001900390816105925790505b506040518263ffffffff1660e01b81526004016105c491906109f2565b600060405180830381600087803b1580156105de57600080fd5b505af11580156105f2573d6000803e3d6000fd5b50505050306001600160a01b0316600080516020610b42833981519152600460405161061e9190610a14565b60405180910390a2565b6003546001600160a01b0316321461063f57600080fd5b6003805460ff60a01b1916600360a01b179055600480546040516303f0622760e41b81526001600160a01b0390911691633f0622709161035f91859101610a22565b600082601f83011261069257600080fd5b81356106a56106a082610a59565b610a33565b81815260209384019390925082018360005b838110156106e357813586016106cd888261075b565b84525060209283019291909101906001016106b7565b5050505092915050565b600082601f8301126106fe57600080fd5b815161070c6106a082610a59565b81815260209384019390925082018360005b838110156106e3578151860161073488826107aa565b845250602092830192919091019060010161071e565b803561075581610b34565b92915050565b600082601f83011261076c57600080fd5b813561077a6106a082610a79565b9150808252602083016020830185838301111561079657600080fd5b6107a1838284610ae4565b50505092915050565b600082601f8301126107bb57600080fd5b81516107c96106a082610a79565b915080825260208301602083018583830111156107e557600080fd5b6107a1838284610af0565b60006020828403121561080257600080fd5b81356001600160401b0381111561081857600080fd5b61082484828501610681565b949350505050565b60006020828403121561083e57600080fd5b81516001600160401b0381111561085457600080fd5b610824848285016106ed565b60006020828403121561087257600080fd5b6000610824848461074a565b60006020828403121561089057600080fd5b81356001600160401b038111156108a657600080fd5b6108248482850161075b565b60006108be83836109ac565b9392505050565b6108ce81610ab3565b82525050565b60006108df82610aa6565b6108e98185610aaa565b9350836020820285016108fb85610aa0565b8060005b85811015610935578484038952815161091885826108b2565b945061092383610aa0565b60209a909a01999250506001016108ff565b5091979650505050505050565b600061094d82610aa6565b6109578185610aaa565b93508360208202850161096985610aa0565b8060005b85811015610935578484038952815161098685826108b2565b945061099183610aa0565b60209a909a019992505060010161096d565b6108ce81610ad9565b60006109b782610aa6565b6109c18185610aaa565b93506109d1818560208601610af0565b6109da81610b20565b9093019392505050565b6020810161075582846108c5565b602080825281016108be8184610942565b602080825281016108be81846108d4565b6020810161075582846109a3565b602080825281016108be81846109ac565b6040518181016001600160401b0381118282101715610a5157600080fd5b604052919050565b60006001600160401b03821115610a6f57600080fd5b5060209081020190565b60006001600160401b03821115610a8f57600080fd5b506020601f91909101601f19160190565b60200190565b5190565b90815260200190565b600061075582610acd565b80610ac881610b2a565b919050565b6001600160a01b031690565b600061075582610abe565b82818337506000910152565b60005b83811015610b0b578181015183820152602001610af3565b83811115610b1a576000848401525b50505050565b601f01601f191690565b6005811061052c57fe5b6005811061052c57600080fdfe7004293283c83e944feedfe102d317947bdd62fdffaa93c44ab95e20b426befda365627a7a72315820f6ba455c707ee49ee73d2006fc8224a4a6e2f0e504c2f5d123e7e2e774428bb96c6578706572696d656e74616cf564736f6c63430005110040608060405234801561001057600080fd5b5060405161098c38038061098c83398101604081905261002f91610148565b600180546001600160a01b038086166001600160a01b031992831617909255600280548584169083161790556000805492841692909116919091178155604080516020810191829052829052610088916005919061009c565b50506006805460ff19169055506101bd9050565b828054600181600116156101000203166002900490600052602060002090601f016020900481019282601f106100dd57805160ff191683800117855561010a565b8280016001018555821561010a579182015b8281111561010a5782518255916020019190600101906100ef565b5061011692915061011a565b5090565b61013491905b808211156101165760008155600101610120565b90565b8051610142816101a6565b92915050565b60008060006060848603121561015d57600080fd5b60006101698686610137565b935050602061017a86828701610137565b925050604061018b86828701610137565b9150509250925092565b60006001600160a01b038216610142565b6101af81610195565b81146101ba57600080fd5b50565b6107c0806101cc6000396000f3fe608060405234801561001057600080fd5b50600436106100575760003560e01c80630f399a411461005c5780633f0622701461007a57806340a4895c1461008f5780634ca334e2146100a45780636e81a8a3146100b7575b600080fd5b6100646100cc565b6040516100719190610670565b60405180910390f35b61008d610088366004610574565b6100dc565b005b61009761010a565b6040516100719190610695565b61008d6100b2366004610538565b6101de565b6100bf610208565b6040516100719190610684565b6000546001600160a01b03165b90565b6002546001600160a01b031632146100f357600080fd5b8051610106906005906020840190610322565b5050565b6000546060906001600160a01b031633148061013057506002546001600160a01b031632145b8061014557506001546001600160a01b031632145b61014e57600080fd5b6005805460408051602060026001851615610100026000190190941693909304601f810184900484028201840190925281815292918301828280156101d45780601f106101a9576101008083540402835291602001916101d4565b820191906000526020600020905b8154815290600101906020018083116101b757829003601f168201915b5050505050905090565b6001546001600160a01b031632146101f557600080fd5b80516101069060049060208401906103a0565b6000546060906001600160a01b031633148061022e57506002546001600160a01b031632145b8061024357506001546001600160a01b031632145b61024c57600080fd5b6004805480602002602001604051908101604052809291908181526020016000905b828210156103195760008481526020908190208301805460408051601f60026000196101006001871615020190941693909304928301859004850281018501909152818152928301828280156103055780601f106102da57610100808354040283529160200191610305565b820191906000526020600020905b8154815290600101906020018083116102e857829003601f168201915b50505050508152602001906001019061026e565b50505050905090565b828054600181600116156101000203166002900490600052602060002090601f016020900481019282601f1061036357805160ff1916838001178555610390565b82800160010185558215610390579182015b82811115610390578251825591602001919060010190610375565b5061039c9291506103f9565b5090565b8280548282559060005260206000209081019282156103ed579160200282015b828111156103ed57825180516103dd918491602090910190610322565b50916020019190600101906103c0565b5061039c929150610413565b6100d991905b8082111561039c57600081556001016103ff565b6100d991905b8082111561039c57600061042d8282610436565b50600101610419565b50805460018160011615610100020316600290046000825580601f1061045c575061047a565b601f01602090049060005260206000209081019061047a91906103f9565b50565b600082601f83011261048e57600080fd5b81356104a161049c826106cc565b6106a6565b81815260209384019390925082018360005b838110156104df57813586016104c988826104e9565b84525060209283019291909101906001016104b3565b5050505092915050565b600082601f8301126104fa57600080fd5b813561050861049c826106ec565b9150808252602083016020830185838301111561052457600080fd5b61052f838284610737565b50505092915050565b60006020828403121561054a57600080fd5b81356001600160401b0381111561056057600080fd5b61056c8482850161047d565b949350505050565b60006020828403121561058657600080fd5b81356001600160401b0381111561059c57600080fd5b61056c848285016104e9565b60006105b48383610638565b9392505050565b6105c481610726565b82525050565b60006105d582610719565b6105df818561071d565b9350836020820285016105f185610713565b8060005b8581101561062b578484038952815161060e85826105a8565b945061061983610713565b60209a909a01999250506001016105f5565b5091979650505050505050565b600061064382610719565b61064d818561071d565b935061065d818560208601610743565b61066681610773565b9093019392505050565b6020810161067e82846105bb565b92915050565b602080825281016105b481846105ca565b602080825281016105b48184610638565b6040518181016001600160401b03811182821017156106c457600080fd5b604052919050565b60006001600160401b038211156106e257600080fd5b5060209081020190565b60006001600160401b0382111561070257600080fd5b506020601f91909101601f19160190565b60200190565b5190565b90815260200190565b60006001600160a01b03821661067e565b82818337506000910152565b60005b8381101561075e578181015183820152602001610746565b8381111561076d576000848401525b50505050565b601f01601f19169056fea365627a7a72315820c94371dfeb79c83199e4ed734211d281f3f80ab7af0a5224cabd9d17b9bb431e6c6578706572696d656e74616cf564736f6c63430005110040",
  "source": "pragma solidity ^0.5.2;\r\npragma experimental ABIEncoderV2;\r\nimport \"./ConsentTemplate.sol\";\r\n/*\r\n * This is the contract that handles consents for a specific purpouse given by a\r\n * user (giver) to another user (owner).\r\n *\r\n * It basically provides a textual description  that is either accepted or denied by a user.\r\n *\r\n */\r\ncontract Consent {\r\n\r\n    /* Enumeration for the state of the consent */\r\n  enum Status {created,\r\n          denied,    /* The giver has denied the consent */\r\n\t       accepted,  /* The giver has accepted the consent */ \r\n\t       requested, /* The company has requested a consent, user has not yet responded */\r\n\t       cancelled  /* The company has cancelled the consent because he no longer needs it */\r\n  }\r\n\r\n   address DocConsentFile; \r\n  address PatConsentFile; \r\n\r\n  /* State variables for the contract */\r\n  // address payable private owner;  /* Who issues to consent form */\r\n  address private patient; /* Who created this object */\r\n  address private doctor;  /* Who gives the consent, address to the account. */\r\n\r\n  Status  private status; /* The status of the consent */\r\n  ConsentTemplate consentTemplate; /* The template this consent is based on */\r\n  \r\n  /* Event to signal that the status has changed */\r\n  event ConsentStatusChanged(address indexed consent, Status status);\r\n\r\n  /* A modifier */\r\n  modifier onlyByPatient()\r\n  {\r\n    require(tx.origin == patient);\r\n    _;\r\n  }\r\n\r\n  modifier onlyByDoctor()\r\n  {\r\n    require(tx.origin == doctor);\r\n    _;\r\n  }\r\n  \r\n  modifier onlyByBoth()\r\n  {\r\n    require ((tx.origin == patient) || (tx.origin == doctor));\r\n    _;\r\n  }\r\n\r\n  modifier onlyByBothAndConsentFile()\r\n  {\r\n    require ((msg.sender == PatConsentFile) || (msg.sender == DocConsentFile) || (tx.origin == patient) || (tx.origin == doctor));\r\n    _;\r\n  }\r\n  \r\n\r\n  /* This function is executed at initialization and sets the owner and the giver of the consent */\r\n  /* as well as what it contains */\r\n  constructor (address _patient,address payable _doctor, address _PatConsentFile,address _DocConsentFile) public\r\n  {\r\n    patient = _patient;\r\n    doctor = _doctor;\r\n    DocConsentFile = _DocConsentFile;\r\n    PatConsentFile = _PatConsentFile;\r\n\r\n    consentTemplate = new ConsentTemplate(_patient,_doctor,address(this));\r\n    status = Status.created;\r\n  }\r\n\r\n  function setRequestStatus(string memory requestdesc) onlyByDoctor() public {\r\n    status = Status.requested;\r\n    consentTemplate.SettingRequestedDesc(requestdesc);\r\n    emit ConsentStatusChanged(address(this),status);\r\n  }\r\n  /* Sets the status of the consent, this can only be done by the giver. */\r\n  function setPatientSideStatus(Status _status) onlyByPatient () public\r\n  {\r\n    if (_status == Status.denied || _status == Status.accepted) {\r\n      status = _status;\r\n      emit ConsentStatusChanged (address(this), status);\r\n    }\r\n  }\r\n\r\n  function setConsentedRecords(string[] memory consentedRecords) onlyByPatient () public {\r\n    status = Status.accepted;\r\n    consentTemplate.setConsentedRecords(consentedRecords);\r\n    emit ConsentStatusChanged(address(this),status);\r\n  }\r\n\r\n  /* Cancels a consent, this can only be done by the company who created the consent. */\r\n  function cancel () onlyByPatient() public\r\n  {\r\n    status = Status.cancelled;\r\n    consentTemplate.setConsentedRecords(new string[](0));\r\n    emit ConsentStatusChanged (address(this), Status.cancelled);\r\n  }\r\n  \r\n  /* Returns the status of the consent */    \r\n  function getStatus() onlyByBothAndConsentFile() public view returns (Status)\r\n  {\r\n    return status;\r\n  }\r\n\r\n  function GetConsents() onlyByBothAndConsentFile() public view returns(string[] memory) {\r\n    return consentTemplate.GetConsentedRecords();\r\n  }\r\n  \r\n  /* Returns the consent template that this consent is based on */\r\n  function getTemplate() onlyByBothAndConsentFile()  public view returns (address)\r\n  {\r\n    return address(consentTemplate);\r\n  }\r\n\r\n  /* Returns with the giver */\r\n  function getPatient() onlyByBothAndConsentFile() public view returns (address)\r\n  {\r\n    return patient;\r\n  }\r\n  \r\n  function GetAssociatedDocConsentFile() public view returns (address) {\r\n    return DocConsentFile;\r\n  }\r\n\r\n  function GetAssociatedPatConsentFile() public view returns (address) {\r\n    return PatConsentFile;\r\n  }\r\n\r\n  /* Returns with teh giver */\r\n  function getDoctor() onlyByBothAndConsentFile() public view returns (address)\r\n  {\r\n    return doctor;\r\n  }\r\n  \r\n  /* Function to recover the funds on the contract */\r\n  // function kill() public { if (tx.origin == owner) selfdestruct(owner); }\r\n}\r\n",
  "sourcePath": "C:\\dev\\Healthcare-CMS\\ScratchFrontend\\ConsentManagementFrontEnd\\contract-testing\\contracts\\Consent.sol",
  "compiler": {
    "name": "solc",
    "version": "0.5.17+commit.d19bba13.Emscripten.clang"
  },
  "schemaVersion": "3.4.7",
  "updatedAt": "2022-04-30T15:53:05.841Z",
  "devdoc": {
    "methods": {}
  },
  "userdoc": {
    "methods": {}
  }
}