{
  "contractName": "ConsentManagementSystem",
  "abi": [
    {
      "inputs": [
        {
          "internalType": "string",
          "name": "_company",
          "type": "string"
        }
      ],
      "payable": false,
      "stateMutability": "nonpayable",
      "type": "constructor"
    },
    {
      "anonymous": false,
      "inputs": [
        {
          "indexed": false,
          "internalType": "address",
          "name": "conn",
          "type": "address"
        },
        {
          "indexed": false,
          "internalType": "enum Connection.Status",
          "name": "status",
          "type": "uint8"
        }
      ],
      "name": "CMSConnectionStatusEvent",
      "type": "event"
    },
    {
      "anonymous": false,
      "inputs": [
        {
          "indexed": false,
          "internalType": "address",
          "name": "consent",
          "type": "address"
        },
        {
          "indexed": false,
          "internalType": "string[]",
          "name": "Records",
          "type": "string[]"
        }
      ],
      "name": "CMSConsentCreatedEvent",
      "type": "event"
    },
    {
      "anonymous": false,
      "inputs": [
        {
          "indexed": false,
          "internalType": "address",
          "name": "consent",
          "type": "address"
        },
        {
          "indexed": false,
          "internalType": "string",
          "name": "desc",
          "type": "string"
        }
      ],
      "name": "CMSConsentRequestedEvent",
      "type": "event"
    },
    {
      "anonymous": false,
      "inputs": [
        {
          "indexed": true,
          "internalType": "address",
          "name": "factory",
          "type": "address"
        },
        {
          "indexed": true,
          "internalType": "address",
          "name": "owner",
          "type": "address"
        },
        {
          "indexed": true,
          "internalType": "address",
          "name": "user",
          "type": "address"
        },
        {
          "indexed": false,
          "internalType": "address",
          "name": "file",
          "type": "address"
        }
      ],
      "name": "CMSFileCreatedEvent",
      "type": "event"
    },
    {
      "constant": false,
      "inputs": [
        {
          "internalType": "address payable",
          "name": "_user",
          "type": "address"
        },
        {
          "internalType": "string",
          "name": "role",
          "type": "string"
        }
      ],
      "name": "AddNewUser",
      "outputs": [],
      "payable": false,
      "stateMutability": "nonpayable",
      "type": "function"
    },
    {
      "constant": true,
      "inputs": [],
      "name": "NumOfUsers",
      "outputs": [
        {
          "internalType": "uint256",
          "name": "",
          "type": "uint256"
        }
      ],
      "payable": false,
      "stateMutability": "view",
      "type": "function"
    },
    {
      "constant": true,
      "inputs": [],
      "name": "DoctorExists",
      "outputs": [
        {
          "internalType": "bool",
          "name": "",
          "type": "bool"
        }
      ],
      "payable": false,
      "stateMutability": "view",
      "type": "function"
    },
    {
      "constant": true,
      "inputs": [],
      "name": "GetConsentFile",
      "outputs": [
        {
          "internalType": "contract ConsentFile",
          "name": "",
          "type": "address"
        }
      ],
      "payable": false,
      "stateMutability": "view",
      "type": "function"
    },
    {
      "constant": true,
      "inputs": [],
      "name": "GetConnectionFile",
      "outputs": [
        {
          "internalType": "contract ConnectionFile",
          "name": "",
          "type": "address"
        }
      ],
      "payable": false,
      "stateMutability": "view",
      "type": "function"
    },
    {
      "constant": false,
      "inputs": [
        {
          "internalType": "address payable",
          "name": "_user",
          "type": "address"
        },
        {
          "internalType": "enum ConsentFile.Role",
          "name": "role",
          "type": "uint8"
        }
      ],
      "name": "createConsentFile",
      "outputs": [],
      "payable": false,
      "stateMutability": "nonpayable",
      "type": "function"
    },
    {
      "constant": false,
      "inputs": [
        {
          "internalType": "address payable",
          "name": "_user",
          "type": "address"
        },
        {
          "internalType": "enum ConnectionFile.Role",
          "name": "role",
          "type": "uint8"
        }
      ],
      "name": "createConnectionFile",
      "outputs": [],
      "payable": false,
      "stateMutability": "nonpayable",
      "type": "function"
    },
    {
      "constant": false,
      "inputs": [
        {
          "internalType": "string",
          "name": "requestedDesc",
          "type": "string"
        },
        {
          "internalType": "address",
          "name": "fromPatient",
          "type": "address"
        }
      ],
      "name": "requestConsent",
      "outputs": [],
      "payable": false,
      "stateMutability": "nonpayable",
      "type": "function"
    },
    {
      "constant": true,
      "inputs": [],
      "name": "GetConsents",
      "outputs": [
        {
          "internalType": "contract Consent[]",
          "name": "",
          "type": "address[]"
        }
      ],
      "payable": false,
      "stateMutability": "view",
      "type": "function"
    },
    {
      "constant": false,
      "inputs": [
        {
          "internalType": "address",
          "name": "_doctor",
          "type": "address"
        },
        {
          "internalType": "string[]",
          "name": "records",
          "type": "string[]"
        }
      ],
      "name": "createConsent",
      "outputs": [],
      "payable": false,
      "stateMutability": "nonpayable",
      "type": "function"
    },
    {
      "constant": true,
      "inputs": [
        {
          "internalType": "address",
          "name": "doctor",
          "type": "address"
        },
        {
          "internalType": "string[]",
          "name": "records",
          "type": "string[]"
        }
      ],
      "name": "ValidateRecordRequest",
      "outputs": [
        {
          "internalType": "bool",
          "name": "",
          "type": "bool"
        }
      ],
      "payable": false,
      "stateMutability": "view",
      "type": "function"
    },
    {
      "constant": false,
      "inputs": [
        {
          "internalType": "address",
          "name": "doctor",
          "type": "address"
        }
      ],
      "name": "PatientCreateConnection",
      "outputs": [],
      "payable": false,
      "stateMutability": "nonpayable",
      "type": "function"
    },
    {
      "constant": false,
      "inputs": [
        {
          "internalType": "address",
          "name": "patient",
          "type": "address"
        }
      ],
      "name": "DoctorAcceptConnection",
      "outputs": [],
      "payable": false,
      "stateMutability": "nonpayable",
      "type": "function"
    },
    {
      "constant": true,
      "inputs": [],
      "name": "GetReqestedConnections",
      "outputs": [
        {
          "internalType": "address[]",
          "name": "",
          "type": "address[]"
        }
      ],
      "payable": false,
      "stateMutability": "view",
      "type": "function"
    },
    {
      "constant": true,
      "inputs": [],
      "name": "GetAcceptedConnections",
      "outputs": [
        {
          "internalType": "address[]",
          "name": "",
          "type": "address[]"
        }
      ],
      "payable": false,
      "stateMutability": "view",
      "type": "function"
    },
    {
      "constant": false,
      "inputs": [
        {
          "internalType": "contract Connection",
          "name": "_conn",
          "type": "address"
        }
      ],
      "name": "RevokeConnection",
      "outputs": [],
      "payable": false,
      "stateMutability": "nonpayable",
      "type": "function"
    },
    {
      "constant": false,
      "inputs": [
        {
          "internalType": "contract Consent",
          "name": "_consent",
          "type": "address"
        }
      ],
      "name": "cancelConsent",
      "outputs": [],
      "payable": false,
      "stateMutability": "nonpayable",
      "type": "function"
    },
    {
      "constant": true,
      "inputs": [],
      "name": "getCompany",
      "outputs": [
        {
          "internalType": "string",
          "name": "",
          "type": "string"
        }
      ],
      "payable": false,
      "stateMutability": "view",
      "type": "function"
    },
    {
      "constant": true,
      "inputs": [],
      "name": "getOwner",
      "outputs": [
        {
          "internalType": "address",
          "name": "",
          "type": "address"
        }
      ],
      "payable": false,
      "stateMutability": "view",
      "type": "function"
    }
  ],
  "bytecode": "0x608060405260006005553480156200001657600080fd5b5060405162005cca38038062005cca833981016040819052620000399162000177565b600080546001600160a01b03199081163217909155600180549091163317905580516200006e90600290602084019062000076565b505062000239565b828054600181600116156101000203166002900490600052602060002090601f016020900481019282601f10620000b957805160ff1916838001178555620000e9565b82800160010185558215620000e9579182015b82811115620000e9578251825591602001919060010190620000cc565b50620000f7929150620000fb565b5090565b6200011891905b80821115620000f7576000815560010162000102565b90565b600082601f8301126200012d57600080fd5b8151620001446200013e82620001de565b620001b7565b915080825260208301602083018583830111156200016157600080fd5b6200016e83828462000206565b50505092915050565b6000602082840312156200018a57600080fd5b81516001600160401b03811115620001a157600080fd5b620001af848285016200011b565b949350505050565b6040518181016001600160401b0381118282101715620001d657600080fd5b604052919050565b60006001600160401b03821115620001f557600080fd5b506020601f91909101601f19160190565b60005b838110156200022357818101518382015260200162000209565b8381111562000233576000848401525b50505050565b615a8180620002496000396000f3fe60806040523480156200001157600080fd5b50600436106200013c5760003560e01c8063893d20e811620000bd578063a3639ac5116200007b578063a3639ac5146200029a578063a8f2efd814620002a4578063cd3f35e014620002bb578063f153298314620002e1578063f6eeeabd14620002eb576200013c565b8063893d20e814620002235780638aa2fdea146200023c5780638e219fe614620002535780638fc046d2146200026c578063983f5d7a1462000283576200013c565b806329ddda24116200010b57806329ddda2414620001aa5780633ba34aac14620001c157806340ab301e14620001d8578063654955c714620001f157806384d2a43a146200020a576200013c565b8063063d6d4114620001415780630f354dd6146200015a578063127810bc14620001715780632197bdfa1462000193575b600080fd5b620001586200015236600462002165565b620002f5565b005b620001586200016b366004620021af565b62000568565b6200017b620005f2565b6040516200018a9190620026e2565b60405180910390f35b62000158620001a436600462002352565b62000689565b62000158620001bb3660046200223c565b62000850565b62000158620001d236600462002165565b62000d57565b620001e262001300565b6040516200018a91906200268c565b620001fb620013ea565b6040516200018a9190620026c2565b6200021462001456565b6040516200018a919062002679565b6200022d62001547565b6040516200018a9190620025d4565b620001586200024d36600462002352565b62001556565b6200025d6200163a565b6040516200018a9190620026f5565b620001586200027d36600462002394565b62001640565b6200015862000294366004620021af565b62001b2f565b620001fb62001bb9565b62000158620002b5366004620021ee565b62001c25565b620002d2620002cc3660046200223c565b62001d09565b6040516200018a9190620026b2565b620002d262001dc3565b6200021462001df3565b326000818152600360205260409020546001600160a01b031681146200031a57600080fd5b6001600160a01b038083166000908152600760205260408082205432835291205490821691166200034a62001f1a565b604051634ab2edf960e01b81526001600160a01b03831690634ab2edf99062000378908890600401620025d4565b6040805180830381600087803b1580156200039257600080fd5b505af1158015620003a7573d6000803e3d6000fd5b505050506040513d601f19601f82011682018060405250620003cd91908101906200231d565b6001600160a01b031660208301521580158252620003ee5750505062000564565b6020810151604051632e69ec6d60e11b81526001600160a01b03851691635cd3d8da91620004209190600401620026c2565b600060405180830381600087803b1580156200043b57600080fd5b505af115801562000450573d6000803e3d6000fd5b5050506020820151604051632e69ec6d60e11b81526001600160a01b0385169250635cd3d8da916200048591600401620026c2565b600060405180830381600087803b158015620004a057600080fd5b505af1158015620004b5573d6000803e3d6000fd5b5050505080602001516001600160a01b0316632e49d78b60026040518263ffffffff1660e01b8152600401620004ec9190620026d2565b600060405180830381600087803b1580156200050757600080fd5b505af11580156200051c573d6000803e3d6000fd5b505050507f4c0f9a5e735f2b8219dc1fb00b8a79f722c42ba1d7085827fdd8318c90769271816020015160026040516200055892919062002636565b60405180910390a15050505b5050565b6000546001600160a01b03163281146200058157600080fd5b6000838330604051620005949062001f31565b620005a293929190620025e4565b604051809103906000f080158015620005bf573d6000803e3d6000fd5b506001600160a01b03948516600090815260066020526040902080546001600160a01b0319169190951617909355505050565b60028054604080516020601f60001961010060018716150201909416859004938401819004810282018101909252828152606093909290918301828280156200067f5780601f1062000653576101008083540402835291602001916200067f565b820191906000526020600020905b8154815290600101906020018083116200066157829003601f168201915b5050505050905090565b6040518060400160405280826001600160a01b0316637b0f9a366040518163ffffffff1660e01b815260040160206040518083038186803b158015620006ce57600080fd5b505afa158015620006e3573d6000803e3d6000fd5b505050506040513d601f19601f820116820180604052506200070991908101906200218e565b6001600160a01b03166001600160a01b03168152602001826001600160a01b0316633aaa59206040518163ffffffff1660e01b815260040160206040518083038186803b1580156200075a57600080fd5b505afa1580156200076f573d6000803e3d6000fd5b505050506040513d601f19601f820116820180604052506200079591908101906200218e565b6001600160a01b03169052620007ac813262001e85565b1515600114620007bb57600080fd5b816001600160a01b031663ea8a1af06040518163ffffffff1660e01b8152600401600060405180830381600087803b158015620007f757600080fd5b505af11580156200080c573d6000803e3d6000fd5b505050507f4c0f9a5e735f2b8219dc1fb00b8a79f722c42ba1d7085827fdd8318c907692718260036040516200084492919062002636565b60405180910390a15050565b6001600160a01b03808316600090815260076020526040808220543280845291909220549092859260019290821691166200088a62001f1a565b604051634ab2edf960e01b81526001600160a01b03841690634ab2edf990620008b8908990600401620025d4565b6040805180830381600087803b158015620008d257600080fd5b505af1158015620008e7573d6000803e3d6000fd5b505050506040513d601f19601f820116820180604052506200090d91908101906200231d565b6001600160a01b03166020830152151581526200092962001f1a565b604051634ab2edf960e01b81526001600160a01b03841690634ab2edf99062000957908990600401620025d4565b6040805180830381600087803b1580156200097157600080fd5b505af115801562000986573d6000803e3d6000fd5b505050506040513d601f19601f82011682018060405250620009ac91908101906200231d565b6001600160a01b03166020830152151581528151801562000a5c5750846003811115620009d557fe5b82602001516001600160a01b0316634e69d5606040518163ffffffff1660e01b815260040160206040518083038186803b15801562000a1357600080fd5b505afa15801562000a28573d6000803e3d6000fd5b505050506040513d601f19601f8201168201806040525062000a4e919081019062002373565b600381111562000a5a57fe5b145b8062000b0157508051801562000b01575084600381111562000a7a57fe5b81602001516001600160a01b0316634e69d5606040518163ffffffff1660e01b815260040160206040518083038186803b15801562000ab857600080fd5b505afa15801562000acd573d6000803e3d6000fd5b505050506040513d601f19601f8201168201806040525062000af3919081019062002373565b600381111562000aff57fe5b145b62000b0b57600080fd5b32600090815260066020526040808220546001600160a01b038c811684529190922054918116911662000b3d62001f1a565b604051630ec0a55760e11b81526001600160a01b03841690631d814aae9062000b6b908f90600401620025d4565b6040805180830381600087803b15801562000b8557600080fd5b505af115801562000b9a573d6000803e3d6000fd5b505050506040513d601f19601f8201168201806040525062000bc091908101906200231d565b6001600160a01b03166020830152151580825262000ca457602081015160405163215aee7360e21b81526001600160a01b0385169163856bb9cc9162000c0a9190600401620026c2565b600060405180830381600087803b15801562000c2557600080fd5b505af115801562000c3a573d6000803e3d6000fd5b505050602082015160405163215aee7360e21b81526001600160a01b038516925063856bb9cc9162000c6f91600401620026c2565b600060405180830381600087803b15801562000c8a57600080fd5b505af115801562000c9f573d6000803e3d6000fd5b505050505b80602001516001600160a01b0316634ca334e28c6040518263ffffffff1660e01b815260040162000cd691906200269f565b600060405180830381600087803b15801562000cf157600080fd5b505af115801562000d06573d6000803e3d6000fd5b505050507fd4051b956164a3a4af1ab93acb039acf029149f97597ef38cce8974d7898a3e581602001518c60405162000d4192919062002612565b60405180910390a1505050505050505050505050565b32600081815260076020526040808220546001600160a01b0380861684529190922054849392600292908116911662000d8f62001f1a565b604051634ab2edf960e01b81526001600160a01b03841690634ab2edf99062000dbd908990600401620025d4565b6040805180830381600087803b15801562000dd757600080fd5b505af115801562000dec573d6000803e3d6000fd5b505050506040513d601f19601f8201168201806040525062000e1291908101906200231d565b6001600160a01b031660208301521515815262000e2e62001f1a565b604051634ab2edf960e01b81526001600160a01b03841690634ab2edf99062000e5c908990600401620025d4565b6040805180830381600087803b15801562000e7657600080fd5b505af115801562000e8b573d6000803e3d6000fd5b505050506040513d601f19601f8201168201806040525062000eb191908101906200231d565b6001600160a01b03166020830152151581528151801562000f61575084600381111562000eda57fe5b82602001516001600160a01b0316634e69d5606040518163ffffffff1660e01b815260040160206040518083038186803b15801562000f1857600080fd5b505afa15801562000f2d573d6000803e3d6000fd5b505050506040513d601f19601f8201168201806040525062000f53919081019062002373565b600381111562000f5f57fe5b145b806200100657508051801562001006575084600381111562000f7f57fe5b81602001516001600160a01b0316634e69d5606040518163ffffffff1660e01b815260040160206040518083038186803b15801562000fbd57600080fd5b505afa15801562000fd2573d6000803e3d6000fd5b505050506040513d601f19601f8201168201806040525062000ff8919081019062002373565b60038111156200100457fe5b145b6200101057600080fd5b32600090815260076020526040808220546001600160a01b038b81168452919092205491811691166200104262001f1a565b604051634ab2edf960e01b81526001600160a01b03841690634ab2edf99062001070908e90600401620025d4565b6040805180830381600087803b1580156200108a57600080fd5b505af11580156200109f573d6000803e3d6000fd5b505050506040513d601f19601f82011682018060405250620010c591908101906200231d565b6001600160a01b0316602083015215801580835290620011695750600181602001516001600160a01b0316634e69d5606040518163ffffffff1660e01b815260040160206040518083038186803b1580156200112057600080fd5b505afa15801562001135573d6000803e3d6000fd5b505050506040513d601f19601f820116820180604052506200115b919081019062002373565b60038111156200116757fe5b145b156200117857505050620012f6565b80516200124b576020810151604051632e69ec6d60e11b81526001600160a01b03851691635cd3d8da91620011b19190600401620026c2565b600060405180830381600087803b158015620011cc57600080fd5b505af1158015620011e1573d6000803e3d6000fd5b5050506020820151604051632e69ec6d60e11b81526001600160a01b0385169250635cd3d8da916200121691600401620026c2565b600060405180830381600087803b1580156200123157600080fd5b505af115801562001246573d6000803e3d6000fd5b505050505b80602001516001600160a01b0316632e49d78b60016040518263ffffffff1660e01b81526004016200127e9190620026d2565b600060405180830381600087803b1580156200129957600080fd5b505af1158015620012ae573d6000803e3d6000fd5b505050507f4c0f9a5e735f2b8219dc1fb00b8a79f722c42ba1d7085827fdd8318c9076927181602001516001604051620012ea92919062002636565b60405180910390a15050505b5050505050505050565b32600081815260036020526040902054606091906001600160a01b03168114806200134557506001600160a01b03808216600081815260046020526040902054909116145b6200134f57600080fd5b32600090815260066020526040808220548151636d2934d360e11b815291516001600160a01b0390911692606092849263da5269a692600480840193919291829003018186803b158015620013a357600080fd5b505afa158015620013b8573d6000803e3d6000fd5b505050506040513d6000823e601f3d908101601f19168201604052620013e29190810190620022c3565b935050505090565b326000818152600360205260408120549091906001600160a01b03168114806200142e57506001600160a01b03808216600081815260046020526040902054909116145b6200143857600080fd5b5050326000908152600760205260409020546001600160a01b031690565b32600081815260036020526040902054606091906001600160a01b03168114806200149b57506001600160a01b03808216600081815260046020526040902054909116145b620014a557600080fd5b32600090815260076020526040908190205490516308d78d9160e31b81526001600160a01b039091169081906346bc6c8890620014e890600190600401620026d2565b60006040518083038186803b1580156200150157600080fd5b505afa15801562001516573d6000803e3d6000fd5b505050506040513d6000823e601f3d908101601f191682016040526200154091908101906200228a565b9250505090565b6000546001600160a01b031690565b806001600160a01b0316637b0f9a366040518163ffffffff1660e01b815260040160206040518083038186803b1580156200159057600080fd5b505afa158015620015a5573d6000803e3d6000fd5b505050506040513d601f19601f82011682018060405250620015cb91908101906200218e565b326001600160a01b03821614620015e157600080fd5b816001600160a01b031663ea8a1af06040518163ffffffff1660e01b8152600401600060405180830381600087803b1580156200161d57600080fd5b505af115801562001632573d6000803e3d6000fd5b505050505050565b60055490565b32600081815260076020526040808220546001600160a01b038086168452919092205484939260019290811691166200167862001f1a565b604051634ab2edf960e01b81526001600160a01b03841690634ab2edf990620016a6908990600401620025d4565b6040805180830381600087803b158015620016c057600080fd5b505af1158015620016d5573d6000803e3d6000fd5b505050506040513d601f19601f82011682018060405250620016fb91908101906200231d565b6001600160a01b03166020830152151581526200171762001f1a565b604051634ab2edf960e01b81526001600160a01b03841690634ab2edf99062001745908990600401620025d4565b6040805180830381600087803b1580156200175f57600080fd5b505af115801562001774573d6000803e3d6000fd5b505050506040513d601f19601f820116820180604052506200179a91908101906200231d565b6001600160a01b0316602083015215158152815180156200184a5750846003811115620017c357fe5b82602001516001600160a01b0316634e69d5606040518163ffffffff1660e01b815260040160206040518083038186803b1580156200180157600080fd5b505afa15801562001816573d6000803e3d6000fd5b505050506040513d601f19601f820116820180604052506200183c919081019062002373565b60038111156200184857fe5b145b80620018ef575080518015620018ef57508460038111156200186857fe5b81602001516001600160a01b0316634e69d5606040518163ffffffff1660e01b815260040160206040518083038186803b158015620018a657600080fd5b505afa158015620018bb573d6000803e3d6000fd5b505050506040513d601f19601f82011682018060405250620018e1919081019062002373565b6003811115620018ed57fe5b145b620018f957600080fd5b32600090815260066020526040808220546001600160a01b038b81168452919092205491811691166200192b62001f1a565b604051630ec0a55760e11b81526001600160a01b03841690631d814aae9062001959908e90600401620025d4565b6040805180830381600087803b1580156200197357600080fd5b505af115801562001988573d6000803e3d6000fd5b505050506040513d601f19601f82011682018060405250620019ae91908101906200231d565b6001600160a01b03166020830152151580825262001a9257602081015160405163215aee7360e21b81526001600160a01b0385169163856bb9cc91620019f89190600401620026c2565b600060405180830381600087803b15801562001a1357600080fd5b505af115801562001a28573d6000803e3d6000fd5b505050602082015160405163215aee7360e21b81526001600160a01b038516925063856bb9cc9162001a5d91600401620026c2565b600060405180830381600087803b15801562001a7857600080fd5b505af115801562001a8d573d6000803e3d6000fd5b505050505b80602001516001600160a01b031663f998292a8d6040518263ffffffff1660e01b815260040162001ac49190620026e2565b600060405180830381600087803b15801562001adf57600080fd5b505af115801562001af4573d6000803e3d6000fd5b505050507fee282a0323baa12981fd5ba7a2392b736e8bf63a42d85e260f4708d8b8880c3581602001518d60405162000d4192919062002655565b6000546001600160a01b031632811462001b4857600080fd5b600083833060405162001b5b9062001f3f565b62001b6993929190620025e4565b604051809103906000f08015801562001b86573d6000803e3d6000fd5b506001600160a01b03948516600090815260076020526040902080546001600160a01b0319169190951617909355505050565b326000818152600360205260408120549091906001600160a01b031681148062001bfd57506001600160a01b03808216600081815260046020526040902054909116145b62001c0757600080fd5b5050326000908152600660205260409020546001600160a01b031690565b6000546001600160a01b031632811462001c3e57600080fd5b62001c6882604051806040016040528060068152602001653237b1ba37b960d11b81525062001edf565b1562001cb8576001600160a01b038316600081815260046020526040812080546001600160a01b03191690921790915562001ca590849062000568565b62001cb283600062001b2f565b62001cfb565b6001600160a01b038316600081815260036020526040902080546001600160a01b031916909117905562001cee83600162000568565b62001cfb83600162001b2f565b505060058054600101905550565b600080546001600160a01b031632811462001d2357600080fd5b6001600160a01b0380851660009081526006602052604090819020549051630255720f60e31b815291169081906312ab90789062001d669087906004016200269f565b60206040518083038186803b15801562001d7f57600080fd5b505afa15801562001d94573d6000803e3d6000fd5b505050506040513d601f19601f8201168201806040525062001dba9190810190620022fc565b95945050505050565b326000818152600460205260408120549091906001600160a01b0316811462001deb57600080fd5b600191505090565b32600081815260036020526040902054606091906001600160a01b031681148062001e3857506001600160a01b03808216600081815260046020526040902054909116145b62001e4257600080fd5b32600090815260076020526040908190205490516308d78d9160e31b81526001600160a01b039091169081906346bc6c8890620014e890600290600401620026d2565b6000805b600281101562001ed357826001600160a01b031684826002811062001eaa57fe5b60200201516001600160a01b0316141562001eca57600191505062001ed9565b60010162001e89565b50600090505b92915050565b600062001eed838362001ef4565b9392505050565b60008151835114801562001eed5750508051602091820120825192909101919091201490565b604080518082019091526000808252602082015290565b6121b4806200289c83390190565b610fef8062004a5083390190565b803562001ed98162002852565b805162001ed98162002852565b600082601f83011262001f7957600080fd5b815162001f9062001f8a826200272d565b62002705565b9150818183526020840193506020810190508385602084028201111562001fb657600080fd5b60005b8381101562001fe6578162001fcf888262001f5a565b845250602092830192919091019060010162001fb9565b5050505092915050565b600082601f8301126200200257600080fd5b81516200201362001f8a826200272d565b915081818352602084019350602081019050838560208402820111156200203957600080fd5b60005b8381101562001fe65781620020528882620020e8565b84525060209283019291909101906001016200203c565b600082601f8301126200207b57600080fd5b81356200208c62001f8a826200272d565b81815260209384019390925082018360005b8381101562001fe65781358601620020b788826200210f565b84525060209283019291909101906001016200209e565b805162001ed98162002869565b803562001ed98162002874565b805162001ed98162002874565b803562001ed9816200287f565b805162001ed9816200288d565b600082601f8301126200212157600080fd5b81356200213262001f8a826200274f565b915080825260208301602083018583830111156200214f57600080fd5b6200215c838284620027f0565b50505092915050565b6000602082840312156200217857600080fd5b600062002186848462001f4d565b949350505050565b600060208284031215620021a157600080fd5b600062002186848462001f5a565b60008060408385031215620021c357600080fd5b6000620021d1858562001f4d565b9250506020620021e485828601620020f5565b9150509250929050565b600080604083850312156200220257600080fd5b600062002210858562001f4d565b925050602083013567ffffffffffffffff8111156200222e57600080fd5b620021e4858286016200210f565b600080604083850312156200225057600080fd5b60006200225e858562001f4d565b925050602083013567ffffffffffffffff8111156200227c57600080fd5b620021e48582860162002069565b6000602082840312156200229d57600080fd5b815167ffffffffffffffff811115620022b557600080fd5b620021868482850162001f67565b600060208284031215620022d657600080fd5b815167ffffffffffffffff811115620022ee57600080fd5b620021868482850162001ff0565b6000602082840312156200230f57600080fd5b6000620021868484620020ce565b600080604083850312156200233157600080fd5b60006200233f8585620020ce565b9250506020620021e485828601620020e8565b6000602082840312156200236557600080fd5b6000620021868484620020db565b6000602082840312156200238657600080fd5b600062002186848462002102565b60008060408385031215620023a857600080fd5b823567ffffffffffffffff811115620023c057600080fd5b620023ce858286016200210f565b9250506020620021e48582860162001f4d565b6000620023ef838362002413565b505060200190565b6000620023ef838362002568565b600062001eed838362002589565b6200241e816200278b565b82525050565b600062002431826200277e565b6200243d818562002782565b93506200244a8362002778565b8060005b838110156200247e578151620024658882620023e1565b9750620024728362002778565b9250506001016200244e565b509495945050505050565b600062002496826200277e565b620024a2818562002782565b9350620024af8362002778565b8060005b838110156200247e578151620024ca8882620023f7565b9750620024d78362002778565b925050600101620024b3565b6000620024f0826200277e565b620024fc818562002782565b935083602082028501620025108562002778565b8060005b8581101562002550578484038952815162002530858262002405565b94506200253d8362002778565b60209a909a019992505060010162002514565b5091979650505050505050565b6200241e8162002798565b6200241e816200279d565b6200241e81620027d6565b6200241e81620027e3565b600062002596826200277e565b620025a2818562002782565b9350620025b4818560208601620027fc565b620025bf816200282f565b9093019392505050565b6200241e81620027d3565b6020810162001ed9828462002413565b60608101620025f4828662002413565b62002603602083018562002573565b62002186604083018462002413565b6040810162002622828562002413565b8181036020830152620021868184620024e3565b6040810162002646828562002413565b62001eed60208301846200257e565b6040810162002665828562002413565b818103602083015262002186818462002589565b6020808252810162001eed818462002424565b6020808252810162001eed818462002489565b6020808252810162001eed8184620024e3565b6020810162001ed982846200255d565b6020810162001ed9828462002568565b6020810162001ed982846200257e565b6020808252810162001eed818462002589565b6020810162001ed98284620025c9565b60405181810167ffffffffffffffff811182821017156200272557600080fd5b604052919050565b600067ffffffffffffffff8211156200274557600080fd5b5060209081020190565b600067ffffffffffffffff8211156200276757600080fd5b506020601f91909101601f19160190565b60200190565b5190565b90815260200190565b600062001ed982620027c7565b151590565b600062001ed9826200278b565b80620027b68162002839565b919050565b80620027b68162002847565b6001600160a01b031690565b90565b600062001ed982620027aa565b600062001ed982620027bb565b82818337506000910152565b60005b8381101562002819578181015183820152602001620027ff565b8381111562002829576000848401525b50505050565b601f01601f191690565b600381106200284457fe5b50565b600481106200284457fe5b6200285d816200278b565b81146200284457600080fd5b6200285d8162002798565b6200285d816200279d565b600381106200284457600080fd5b600481106200284457600080fdfe60806040523480156200001157600080fd5b50604051620021b4380380620021b48339810160408190526200003491620000ae565b600080546001600160a01b038084166001600160a01b03199283161790925560028054928616929091169190911780825583919060ff60a01b1916600160a01b83838111156200008057fe5b02179055505050506200013c565b80516200009b8162000114565b92915050565b80516200009b816200012e565b600080600060608486031215620000c457600080fd5b6000620000d286866200008e565b9350506020620000e586828701620000a1565b9250506040620000f8868287016200008e565b9150509250925092565b60006001600160a01b0382166200009b565b6200011f8162000102565b81146200012b57600080fd5b50565b600381106200012b57600080fd5b612068806200014c6000396000f3fe60806040523480156200001157600080fd5b50600436106200005e5760003560e01c806312ab907814620000635780631d814aae1462000092578063856bb9cc14620000b9578063893d20e814620000d2578063da5269a614620000eb575b600080fd5b6200007a620000743660046200096c565b62000104565b60405162000089919062000b2e565b60405180910390f35b620000a9620000a336600462000922565b620002a0565b6040516200008992919062000b3e565b620000d0620000ca366004620009ff565b62000538565b005b620000dc620005f0565b60405162000089919062000acd565b620000f5620005ff565b60405162000089919062000b1b565b6002546000906001600160a01b03163214806200012b57506000546001600160a01b031633145b6200013557600080fd5b600060028054600160a01b900460ff16908111156200015057fe5b14156200029b5760005b60035481101562000295576200027b600382815481106200017757fe5b600091825260209182902001546040805163190e247960e11b815290516001600160a01b039092169263321c48f292600480840193829003018186803b158015620001c157600080fd5b505afa158015620001d6573d6000803e3d6000fd5b505050506040513d601f19601f82011682018060405250620001fc9190810190620009de565b6001600160a01b0316636e81a8a36040518163ffffffff1660e01b815260040160006040518083038186803b1580156200023557600080fd5b505afa1580156200024a573d6000803e3d6000fd5b505050506040513d6000823e601f3d908101601f19168201604052620002749190810190620009a5565b846200067c565b156200028c5760019150506200029b565b6001016200015a565b50600090505b919050565b60025460009081906001600160a01b03163214620002bd57600080fd5b600060028054600160a01b900460ff1690811115620002d857fe5b1415620004315760005b600354811015620003d557836001600160a01b0316600382815481106200030557fe5b6000918252602091829020015460408051633d87cd1b60e11b815290516001600160a01b0390921692637b0f9a3692600480840193829003018186803b1580156200034f57600080fd5b505afa15801562000364573d6000803e3d6000fd5b505050506040513d601f19601f820116820180604052506200038a91908101906200094b565b6001600160a01b03161415620003cc57600160038281548110620003aa57fe5b6000918252602090912001549093506001600160a01b03169150620005339050565b600101620002e2565b5060025460405160009185916001600160a01b0390911690620003f89062000763565b6200040592919062000afc565b604051809103906000f08015801562000422573d6000803e3d6000fd5b50600093509150620005339050565b60005b6003548110156200050557836001600160a01b0316600382815481106200045757fe5b60009182526020918290200154604080516301d552c960e51b815290516001600160a01b0390921692633aaa592092600480840193829003018186803b158015620004a157600080fd5b505afa158015620004b6573d6000803e3d6000fd5b505050506040513d601f19601f82011682018060405250620004dc91908101906200094b565b6001600160a01b03161415620004fc57600160038281548110620003aa57fe5b60010162000434565b506002546040516000916001600160a01b0316908590620005269062000763565b6200040592919062000add565b915091565b6002546001600160a01b03163214806200055c57506000546001600160a01b031633145b6200056657600080fd5b600380546001810182556000919091527fc2575a0e9e593c00f959f8c92f12db2869c3395a3b0502d05e2516446f71f85b0180546001600160a01b0319166001600160a01b03831617905560405130907f1398fb997798573a4f33a35360688747a7eb90249ab5cec65da9e5b1945ecdae90620005e590849062000acd565b60405180910390a250565b6002546001600160a01b031690565b6002546060906001600160a01b031632146200061a57600080fd5b60038054806020026020016040519081016040528092919081815260200182805480156200067257602002820191906000526020600020905b81546001600160a01b0316815260019091019060200180831162000653575b5050505050905090565b6000805b8251811015620006ca57620006aa848483815181106200069c57fe5b6020026020010151620006d6565b15620006b657620006c1565b6000915050620006d0565b60010162000680565b50600190505b92915050565b6000805b83518110156200071e5762000704848281518110620006f557fe5b60200260200101518462000728565b1562000715576001915050620006d0565b600101620006da565b5060009392505050565b60006200073683836200073d565b9392505050565b600081518351148015620007365750508051602091820120825192909101919091201490565b6113a68062000c8083390190565b8035620006d08162000c5a565b8051620006d08162000c5a565b600082601f8301126200079d57600080fd5b8135620007b4620007ae8262000b85565b62000b5d565b81815260209384019390925082018360005b83811015620007f65781358601620007df88826200087f565b8452506020928301929190910190600101620007c6565b5050505092915050565b600082601f8301126200081257600080fd5b815162000823620007ae8262000b85565b81815260209384019390925082018360005b83811015620007f657815186016200084e8882620008d5565b845250602092830192919091019060010162000835565b8051620006d08162000c74565b8035620006d08162000c74565b600082601f8301126200089157600080fd5b8135620008a2620007ae8262000ba7565b91508082526020830160208301858383011115620008bf57600080fd5b620008cc83828462000c1b565b50505092915050565b600082601f830112620008e757600080fd5b8151620008f8620007ae8262000ba7565b915080825260208301602083018583830111156200091557600080fd5b620008cc83828462000c27565b6000602082840312156200093557600080fd5b600062000943848462000771565b949350505050565b6000602082840312156200095e57600080fd5b60006200094384846200077e565b6000602082840312156200097f57600080fd5b813567ffffffffffffffff8111156200099757600080fd5b62000943848285016200078b565b600060208284031215620009b857600080fd5b815167ffffffffffffffff811115620009d057600080fd5b620009438482850162000800565b600060208284031215620009f157600080fd5b600062000943848462000865565b60006020828403121562000a1257600080fd5b600062000943848462000872565b600062000a2e838362000ac2565b505060200190565b62000a418162000c0e565b82525050565b62000a418162000be3565b600062000a5f8262000bd6565b62000a6b818562000bda565b935062000a788362000bd0565b8060005b8381101562000aac57815162000a93888262000a20565b975062000aa08362000bd0565b92505060010162000a7c565b509495945050505050565b62000a418162000bf0565b62000a418162000bf5565b60208101620006d0828462000a47565b6040810162000aed828562000a36565b62000736602083018462000a47565b6040810162000b0c828562000a47565b62000736602083018462000a36565b6020808252810162000736818462000a52565b60208101620006d0828462000ab7565b6040810162000b4e828562000ab7565b62000736602083018462000ac2565b60405181810167ffffffffffffffff8111828210171562000b7d57600080fd5b604052919050565b600067ffffffffffffffff82111562000b9d57600080fd5b5060209081020190565b600067ffffffffffffffff82111562000bbf57600080fd5b506020601f91909101601f19160190565b60200190565b5190565b90815260200190565b6000620006d08262000c02565b151590565b6000620006d08262000be3565b6001600160a01b031690565b6000620006d08262000bf5565b82818337506000910152565b60005b8381101562000c4457818101518382015260200162000c2a565b8381111562000c54576000848401525b50505050565b62000c658162000be3565b811462000c7157600080fd5b50565b62000c658162000bf556fe608060405234801561001057600080fd5b50604051620013a6380380620013a6833981016040819052610031916100ec565b600080546001600160a01b038085166001600160a01b031992831617909255600180549284169290911691909117905560405182908290610071906100cd565b61007c929190610135565b604051809103906000f080158015610098573d6000803e3d6000fd5b50600280546001600160a01b0319166001600160a01b039290921691909117905550506001805460ff60a01b1916905561017f565b6108de8062000ac883390190565b80516100e681610168565b92915050565b600080604083850312156100ff57600080fd5b600061010b85856100db565b925050602061011c858286016100db565b9150509250929050565b61012f81610157565b82525050565b604081016101438285610126565b6101506020830184610126565b9392505050565b60006001600160a01b0382166100e6565b61017181610157565b811461017c57600080fd5b50565b610939806200018f6000396000f3fe608060405234801561001057600080fd5b50600436106100885760003560e01c80637b0f9a361161005b5780637b0f9a36146100ea578063aa43c936146100f2578063ea8a1af014610105578063f998292a1461010d57610088565b8063321c48f21461008d5780633aaa5920146100ab5780634ca334e2146100c05780634e69d560146100d5575b600080fd5b610095610120565b6040516100a291906107ad565b60405180910390f35b6100b361015d565b6040516100a2919061077d565b6100d36100ce3660046105b2565b61019a565b005b6100dd61026f565b6040516100a291906107bb565b6100b36102ad565b6100d36101003660046105ef565b6102ea565b6100d3610390565b6100d361011b36600461060d565b61048c565b600080546001600160a01b031632148061014457506001546001600160a01b031632145b61014d57600080fd5b506002546001600160a01b031690565b600080546001600160a01b031632148061018157506001546001600160a01b031632145b61018a57600080fd5b506001546001600160a01b031690565b6000546001600160a01b031632146101b157600080fd5b6001805460ff60a01b1916600160a11b1790556002546040516326519a7160e11b81526001600160a01b0390911690634ca334e2906101f490849060040161079c565b600060405180830381600087803b15801561020e57600080fd5b505af1158015610222573d6000803e3d6000fd5b50506001546040513093507f7004293283c83e944feedfe102d317947bdd62fdffaa93c44ab95e20b426befd925061026491600160a01b900460ff16906107bb565b60405180910390a250565b600080546001600160a01b031632148061029357506001546001600160a01b031632145b61029c57600080fd5b50600154600160a01b900460ff1690565b600080546001600160a01b03163214806102d157506001546001600160a01b031632145b6102da57600080fd5b506000546001600160a01b031690565b6000546001600160a01b0316321461030157600080fd5b600181600481111561030f57fe5b14806103265750600281600481111561032457fe5b145b1561038d576001805482919060ff60a01b1916600160a01b83600481111561034a57fe5b021790555060015460405130917f7004293283c83e944feedfe102d317947bdd62fdffaa93c44ab95e20b426befd9161026491600160a01b900460ff16906107bb565b50565b6000546001600160a01b031632146103a757600080fd5b6001805460ff60a01b1916600160a21b179055600254604080516000808252602082019092526001600160a01b0390921691634ca334e2916103f9565b60608152602001906001900390816103e45790505b506040518263ffffffff1660e01b8152600401610416919061078b565b600060405180830381600087803b15801561043057600080fd5b505af1158015610444573d6000803e3d6000fd5b50505050306001600160a01b03167f7004293283c83e944feedfe102d317947bdd62fdffaa93c44ab95e20b426befd600460405161048291906107bb565b60405180910390a2565b6001546001600160a01b031632146104a357600080fd5b6001805460ff60a01b1916600360a01b1790556002546040516303f0622760e41b81526001600160a01b0390911690633f062270906101f49084906004016107c9565b600082601f8301126104f757600080fd5b813561050a61050582610801565b6107da565b81815260209384019390925082018360005b8381101561054857813586016105328882610563565b845250602092830192919091019060010161051c565b5050505092915050565b803561055d816108e9565b92915050565b600082601f83011261057457600080fd5b813561058261050582610822565b9150808252602083016020830185838301111561059e57600080fd5b6105a9838284610899565b50505092915050565b6000602082840312156105c457600080fd5b813567ffffffffffffffff8111156105db57600080fd5b6105e7848285016104e6565b949350505050565b60006020828403121561060157600080fd5b60006105e78484610552565b60006020828403121561061f57600080fd5b813567ffffffffffffffff81111561063657600080fd5b6105e784828501610563565b600061064e8383610745565b9392505050565b61065e8161085d565b82525050565b600061066f82610850565b6106798185610854565b93508360208202850161068b8561084a565b8060005b858110156106c557848403895281516106a88582610642565b94506106b38361084a565b60209a909a019992505060010161068f565b5091979650505050505050565b60006106dd82610850565b6106e78185610854565b9350836020820285016106f98561084a565b8060005b858110156106c557848403895281516107168582610642565b94506107218361084a565b60209a909a01999250506001016106fd565b61065e81610883565b61065e8161088e565b600061075082610850565b61075a8185610854565b935061076a8185602086016108a5565b610773816108d5565b9093019392505050565b6020810161055d8284610655565b6020808252810161064e81846106d2565b6020808252810161064e8184610664565b6020810161055d8284610733565b6020810161055d828461073c565b6020808252810161064e8184610745565b60405181810167ffffffffffffffff811182821017156107f957600080fd5b604052919050565b600067ffffffffffffffff82111561081857600080fd5b5060209081020190565b600067ffffffffffffffff82111561083957600080fd5b506020601f91909101601f19160190565b60200190565b5190565b90815260200190565b600061055d82610877565b80610872816108df565b919050565b6001600160a01b031690565b600061055d8261085d565b600061055d82610868565b82818337506000910152565b60005b838110156108c05781810151838201526020016108a8565b838111156108cf576000848401525b50505050565b601f01601f191690565b6005811061038d57fe5b6005811061038d57600080fdfea365627a7a7231582042f40f2b7b22e81e05e5960087739b5a42cece74c6afb941e778c6b030920c116c6578706572696d656e74616cf564736f6c63430005100040608060405234801561001057600080fd5b506040516108de3803806108de83398101604081905261002f91610135565b600080546001600160a01b038085166001600160a01b031992831617835560018054918516919092161790556040805160208101918290528290526100779160039190610089565b50506004805460ff1916905550610197565b828054600181600116156101000203166002900490600052602060002090601f016020900481019282601f106100ca57805160ff19168380011785556100f7565b828001600101855582156100f7579182015b828111156100f75782518255916020019190600101906100dc565b50610103929150610107565b5090565b61012191905b80821115610103576000815560010161010d565b90565b805161012f81610180565b92915050565b6000806040838503121561014857600080fd5b60006101548585610124565b925050602061016585828601610124565b9150509250929050565b60006001600160a01b03821661012f565b6101898161016f565b811461019457600080fd5b50565b610738806101a66000396000f3fe608060405234801561001057600080fd5b506004361061004c5760003560e01c80633f0622701461005157806340a4895c146100665780634ca334e2146100845780636e81a8a314610097575b600080fd5b61006461005f36600461051c565b6100ac565b005b61006e6100da565b60405161007b919061061b565b60405180910390f35b6100646100923660046104df565b61019a565b61009f6101c4565b60405161007b919061060a565b6001546001600160a01b031632146100c357600080fd5b80516100d69060039060208401906102c9565b5050565b6001546060906001600160a01b031632148061010057506000546001600160a01b031632145b61010957600080fd5b6003805460408051602060026001851615610100026000190190941693909304601f8101849004840282018401909252818152929183018282801561018f5780601f106101645761010080835404028352916020019161018f565b820191906000526020600020905b81548152906001019060200180831161017257829003601f168201915b505050505090505b90565b6000546001600160a01b031632146101b157600080fd5b80516100d6906002906020840190610347565b6001546060906001600160a01b03163214806101ea57506000546001600160a01b031632145b6101f357600080fd5b6002805480602002602001604051908101604052809291908181526020016000905b828210156102c05760008481526020908190208301805460408051601f60026000196101006001871615020190941693909304928301859004850281018501909152818152928301828280156102ac5780601f10610281576101008083540402835291602001916102ac565b820191906000526020600020905b81548152906001019060200180831161028f57829003601f168201915b505050505081526020019060010190610215565b50505050905090565b828054600181600116156101000203166002900490600052602060002090601f016020900481019282601f1061030a57805160ff1916838001178555610337565b82800160010185558215610337579182015b8281111561033757825182559160200191906001019061031c565b506103439291506103a0565b5090565b828054828255906000526020600020908101928215610394579160200282015b8281111561039457825180516103849184916020909101906102c9565b5091602001919060010190610367565b506103439291506103ba565b61019791905b8082111561034357600081556001016103a6565b61019791905b808211156103435760006103d482826103dd565b506001016103c0565b50805460018160011615610100020316600290046000825580601f106104035750610421565b601f01602090049060005260206000209081019061042191906103a0565b50565b600082601f83011261043557600080fd5b813561044861044382610653565b61062c565b81815260209384019390925082018360005b8381101561048657813586016104708882610490565b845250602092830192919091019060010161045a565b5050505092915050565b600082601f8301126104a157600080fd5b81356104af61044382610674565b915080825260208301602083018583830111156104cb57600080fd5b6104d68382846106af565b50505092915050565b6000602082840312156104f157600080fd5b813567ffffffffffffffff81111561050857600080fd5b61051484828501610424565b949350505050565b60006020828403121561052e57600080fd5b813567ffffffffffffffff81111561054557600080fd5b61051484828501610490565b600061055d83836105d2565b9392505050565b600061056f826106a2565b61057981856106a6565b93508360208202850161058b8561069c565b8060005b858110156105c557848403895281516105a88582610551565b94506105b38361069c565b60209a909a019992505060010161058f565b5091979650505050505050565b60006105dd826106a2565b6105e781856106a6565b93506105f78185602086016106bb565b610600816106eb565b9093019392505050565b6020808252810161055d8184610564565b6020808252810161055d81846105d2565b60405181810167ffffffffffffffff8111828210171561064b57600080fd5b604052919050565b600067ffffffffffffffff82111561066a57600080fd5b5060209081020190565b600067ffffffffffffffff82111561068b57600080fd5b506020601f91909101601f19160190565b60200190565b5190565b90815260200190565b82818337506000910152565b60005b838110156106d65781810151838201526020016106be565b838111156106e5576000848401525b50505050565b601f01601f19169056fea365627a7a723158207bd452b6a2043386c1d26517bf80cfa3abf6388b5907bc7ec951f8a3245f350a6c6578706572696d656e74616cf564736f6c63430005100040a365627a7a723158207e5eb6354ce1788d786280b84152640b5e499f25f51b949de9f015e26632a9d46c6578706572696d656e74616cf564736f6c634300051000406080604052614e2060025534801561001657600080fd5b50604051610fef380380610fef833981016040819052610035916100aa565b600080546001600160a01b038084166001600160a01b03199283161790925560038054928616929091169190911780825583919060ff60a01b1916600160a01b83600281111561008157fe5b021790555050505061012c565b805161009981610108565b92915050565b80516100998161011f565b6000806000606084860312156100bf57600080fd5b60006100cb868661008e565b93505060206100dc8682870161009f565b92505060406100ed8682870161008e565b9150509250925092565b60006001600160a01b038216610099565b610111816100f7565b811461011c57600080fd5b50565b6003811061011c57600080fd5b610eb48061013b6000396000f3fe608060405234801561001057600080fd5b50600436106100575760003560e01c8063122b2b5a1461005c57806346bc6c881461007a5780634ab2edf91461009a5780635cd3d8da146100bb578063893d20e8146100d0575b600080fd5b6100646100e5565b60405161007191906109f0565b60405180910390f35b61008d61008836600461085e565b61015f565b60405161007191906109df565b6100ad6100a83660046107fc565b61044d565b604051610071929190610a01565b6100ce6100c9366004610840565b6106da565b005b6100d86107a3565b6040516100719190610994565b6003546060906001600160a01b031632146100ff57600080fd5b600480548060200260200160405190810160405280929190818152602001828054801561015557602002820191906000526020600020905b81546001600160a01b03168152600190910190602001808311610137575b5050505050905090565b6003546060906001600160a01b031632148061018557506000546001600160a01b031633145b61018e57600080fd5b60606002546040519080825280602002602001820160405280156101bc578160200160208202803883390190505b5090506000805b600454811015610442578460038111156101d957fe5b600482815481106101e657fe5b60009182526020918290200154604080516302734eab60e51b815290516001600160a01b0390921692634e69d56092600480840193829003018186803b15801561022f57600080fd5b505afa158015610243573d6000803e3d6000fd5b505050506040513d601f19601f82011682018060405250610267919081019061087c565b600381111561027257fe5b141561043a576000600354600160a01b900460ff16600281111561029257fe5b141561035957600481815481106102a557fe5b6000918252602091829020015460408051633d87cd1b60e11b815290516001600160a01b0390921692637b0f9a3692600480840193829003018186803b1580156102ee57600080fd5b505afa158015610302573d6000803e3d6000fd5b505050506040513d601f19601f820116820180604052506103269190810190610822565b83838151811061033257fe5b60200260200101906001600160a01b031690816001600160a01b0316815250506001820191505b6001600354600160a01b900460ff16600281111561037357fe5b141561043a576004818154811061038657fe5b60009182526020918290200154604080516301d552c960e51b815290516001600160a01b0390921692633aaa592092600480840193829003018186803b1580156103cf57600080fd5b505afa1580156103e3573d6000803e3d6000fd5b505050506040513d601f19601f820116820180604052506104079190810190610822565b83838151811061041357fe5b60200260200101906001600160a01b031690816001600160a01b0316815250506001820191505b6001016101c3565b50909150505b919050565b60035460009081906001600160a01b031632148061047557506000546001600160a01b031633145b61047e57600080fd5b6000600354600160a01b900460ff16600281111561049857fe5b14156105de5760005b60045481101561058a57836001600160a01b0316600482815481106104c257fe5b6000918252602091829020015460408051633d87cd1b60e11b815290516001600160a01b0390921692637b0f9a3692600480840193829003018186803b15801561050b57600080fd5b505afa15801561051f573d6000803e3d6000fd5b505050506040513d601f19601f820116820180604052506105439190810190610822565b6001600160a01b031614156105825760016004828154811061056157fe5b6000918252602090912001549093506001600160a01b031691506106d59050565b6001016104a1565b506003546040516000916001600160a01b03169085906105a9906107b2565b6105b49291906109a2565b604051809103906000f0801580156105d0573d6000803e3d6000fd5b506000935091506106d59050565b60005b6004548110156106a957836001600160a01b03166004828154811061060257fe5b60009182526020918290200154604080516301d552c960e51b815290516001600160a01b0390921692633aaa592092600480840193829003018186803b15801561064b57600080fd5b505afa15801561065f573d6000803e3d6000fd5b505050506040513d601f19601f820116820180604052506106839190810190610822565b6001600160a01b031614156106a15760016004828154811061056157fe5b6001016105e1565b5060035460405160009185916001600160a01b03909116906106ca906107b2565b6105b49291906109c4565b915091565b6003546001600160a01b03163214806106fd57506000546001600160a01b031633145b61070657600080fd5b600480546001810182556000919091527f8a35acfbc15ff81a39ae7d344fd709f28e8600b4aa8c65c6b64bfe7fe36bd19b0180546001600160a01b0319166001600160a01b03838116918217909255600354604051919281169130917f8a9208f2779a24d352064589ab804c990968f6b7568525cadfe439d89b47d1d79161079891600160a01b900460ff1690610a1c565b60405180910390a450565b6003546001600160a01b031690565b6103b680610abc83390190565b80356107ca81610a91565b92915050565b80516107ca81610a91565b80356107ca81610aa5565b80356107ca81610aae565b80516107ca81610aae565b60006020828403121561080e57600080fd5b600061081a84846107bf565b949350505050565b60006020828403121561083457600080fd5b600061081a84846107d0565b60006020828403121561085257600080fd5b600061081a84846107db565b60006020828403121561087057600080fd5b600061081a84846107e6565b60006020828403121561088e57600080fd5b600061081a84846107f1565b60006108a683836108c9565b505060200190565b60006108a68383610982565b6108c381610a6e565b82525050565b6108c381610a3d565b60006108dd82610a30565b6108e78185610a34565b93506108f283610a2a565b8060005b8381101561092057815161090a888261089a565b975061091583610a2a565b9250506001016108f6565b509495945050505050565b600061093682610a30565b6109408185610a34565b935061094b83610a2a565b8060005b8381101561092057815161096388826108ae565b975061096e83610a2a565b92505060010161094f565b6108c381610a48565b6108c381610a4d565b6108c381610a79565b602081016107ca82846108c9565b604081016109b082856108ba565b6109bd60208301846108c9565b9392505050565b604081016109d282856108c9565b6109bd60208301846108ba565b602080825281016109bd81846108d2565b602080825281016109bd818461092b565b60408101610a0f8285610979565b6109bd6020830184610982565b602081016107ca828461098b565b60200190565b5190565b90815260200190565b60006107ca82610a62565b151590565b60006107ca82610a3d565b8061044881610a84565b6001600160a01b031690565b60006107ca82610a4d565b60006107ca82610a58565b60038110610a8e57fe5b50565b610a9a81610a3d565b8114610a8e57600080fd5b610a9a81610a4d565b60048110610a8e57600080fdfe608060405234801561001057600080fd5b506040516103b63803806103b683398101604081905261002f91610078565b600080546001600160a01b039384166001600160a01b031991821617909155600180549290931691161760ff60a01b191690556100da565b8051610072816100c3565b92915050565b6000806040838503121561008b57600080fd5b60006100978585610067565b92505060206100a885828601610067565b9150509250929050565b60006001600160a01b038216610072565b6100cc816100b2565b81146100d757600080fd5b50565b6102cd806100e96000396000f3fe608060405234801561001057600080fd5b50600436106100575760003560e01c80632e49d78b1461005c5780633aaa5920146100715780634e69d5601461008f5780637b0f9a36146100a4578063ea8a1af0146100ac575b600080fd5b61006f61006a3660046101e5565b6100b4565b005b610079610107565b6040516100869190610223565b60405180910390f35b610097610144565b6040516100869190610231565b610079610182565b61006f6101bf565b6000546001600160a01b03163214806100d757506001546001600160a01b031632145b6100e057600080fd5b6001805482919060ff60a01b1916600160a01b8360038111156100ff57fe5b021790555050565b600080546001600160a01b031632148061012b57506001546001600160a01b031632145b61013457600080fd5b506000546001600160a01b031690565b600080546001600160a01b031632148061016857506001546001600160a01b031632145b61017157600080fd5b50600154600160a01b900460ff1690565b600080546001600160a01b03163214806101a657506001546001600160a01b031632145b6101af57600080fd5b506001546001600160a01b031690565b6001805460ff60a01b1916600360a01b179055565b80356101df8161027d565b92915050565b6000602082840312156101f757600080fd5b600061020384846101d4565b949350505050565b6102148161023f565b82525050565b61021481610265565b602081016101df828461020b565b602081016101df828461021a565b60006101df82610259565b8061025481610270565b919050565b6001600160a01b031690565b60006101df8261024a565b6004811061027a57fe5b50565b6004811061027a57600080fdfea365627a7a723158207dddea192f36f400f10f2483b3492222c7b8c6e24579c3af0ba4e591792331e76c6578706572696d656e74616cf564736f6c63430005100040a365627a7a72315820de35f0f3e37c7ca74f6eda6d639f1da530067fe08c3d4b5eefa520972ef4c9996c6578706572696d656e74616cf564736f6c63430005100040a365627a7a72315820a4382531849358fc998b8f23d9abe21d24cc68848b7e4b1cb26c45ca6f28eb1f6c6578706572696d656e74616cf564736f6c63430005100040",
  "source": "pragma solidity ^0.5.2;\r\npragma experimental ABIEncoderV2;\r\nimport \"./ConsentFile.sol\";\r\nimport \"./ConnectionFile.sol\";\r\nimport \"./Connection.sol\";\r\n// /* \r\n//  * This is the consent factory contract that handles consents and version of\r\n//  * consents.\r\n//  *\r\n//  * It basically provides an interface to be able to create consents based on\r\n//  * a specific purpouse for a specific user. And always using the latest version\r\n//  * and always puts newly generated consents into a persons consent file.\r\n//  *\r\n//  */\r\n\r\ncontract ConsentManagementSystem {\r\n  \r\n  /* The owner of this contract */\r\n  address payable private owner;  /* Who owns this CMS*/\r\n  address private creator; /* Who created this CMS */\r\n  string  private company;  /* Company that created this CMS */\r\n  \r\n  enum Role {\r\n    doctor,\r\n    patient,\r\n    nominee\r\n  }\r\n\r\n  mapping(address => address) Patients;\r\n  mapping(address => address) Doctors;\r\n  \r\n  uint256 NumUsers = 0;\r\n\r\n  mapping(address => ConsentFile) UserToConsentFile;\r\n  mapping(address => ConnectionFile) UserToConnectionFile;\r\n\r\n  \r\n  /* Events generated when the consent has been created */\r\n  event CMSConnectionStatusEvent(address conn,Connection.Status status);\r\n  // event CMSConnectionStatusChangedEvent(address indexed factory, address indexed owner, address indexed user, Consent consent, Consent.Status status);\r\n  \r\n  event CMSConsentCreatedEvent(address consent,string[] Records);\r\n  event CMSConsentRequestedEvent(address consent,string desc);\r\n  // event CMSConsentStatusChangedEvent(address consent, Consent.Status oldStatus, Consent.Status newStatus);\r\n  \r\n  event CMSFileCreatedEvent(address indexed factory, address indexed owner, address indexed user, address file);\r\n  // event CMSFailedEvent(address indexed factory, address indexed owner, address indexed user, Error error);\r\n  \r\n\r\n  /* A modifier */\r\n  modifier onlyBy(address _account) \r\n  { \r\n    require(tx.origin == _account);\r\n    _;\r\n  }\r\n  \r\n  modifier AccountExists(address _account) {\r\n    require((Patients[_account] == _account) || (Doctors[_account] == _account));\r\n    _;\r\n  }\r\n\r\n  modifier PatientAccountExists(address _account)\r\n  {\r\n    require(Patients[_account] == _account);\r\n    _;\r\n  }\r\n\r\n  modifier DoctorAccountExists(address _account)\r\n  {\r\n    require(Doctors[_account] == _account);\r\n    _;\r\n  }\r\n\r\n  struct ConnDeets {\r\n    bool exists;\r\n    Connection Conn;\r\n  }\r\n\r\n  struct ConsentDeets {\r\n    bool exists;\r\n    Consent _consent;\r\n  }\r\n\r\n  modifier ConnectionStatusExists(address patient,address doctor,Connection.Status state) {\r\n    ConnectionFile DoctorConnectionFile = UserToConnectionFile[doctor];\r\n    ConnectionFile PatientConnectionFile = UserToConnectionFile[patient];\r\n\r\n    ConnDeets memory DocConn;\r\n    (DocConn.exists,DocConn.Conn) = DoctorConnectionFile.getAssociatedConnection(patient);\r\n    \r\n    ConnDeets memory PatConn;\r\n    (PatConn.exists,PatConn.Conn) = PatientConnectionFile.getAssociatedConnection(doctor);\r\n    \r\n    require ( (DocConn.exists && DocConn.Conn.getStatus() == state) || \r\n              (PatConn.exists && PatConn.Conn.getStatus() == state) \r\n            );\r\n    _;\r\n  }\r\n  \r\n  \r\n  /* Constructor for the consent factory */\r\n  constructor (string memory _company) public\r\n  {\r\n    owner = tx.origin;\r\n    creator = msg.sender;\r\n    company = _company;\r\n  }\r\n  \r\n  function memcmp(bytes memory a, bytes memory b) internal pure returns(bool){\r\n    return (a.length == b.length) && (keccak256(a) == keccak256(b));\r\n  }\r\n  function strcmp(string memory a, string memory b) internal pure returns(bool){\r\n    return memcmp(bytes(a), bytes(b));\r\n  }\r\n\r\n  function AddNewUser(address payable _user,string memory role) onlyBy(owner) public {\r\n    if(strcmp(role,\"doctor\")) {\r\n      Doctors[_user] = _user;\r\n      createConsentFile(_user,ConsentFile.Role.doctor);\r\n      createConnectionFile(_user,ConnectionFile.Role.doctor);\r\n    }\r\n    else {\r\n      Patients[_user] = _user;\r\n      createConsentFile(_user,ConsentFile.Role.patient);\r\n      createConnectionFile(_user,ConnectionFile.Role.patient);\r\n    }\r\n    NumUsers += 1;\r\n  }\r\n\r\n  function NumOfUsers() public view returns(uint256) {\r\n    return NumUsers;\r\n  }\r\n\r\n  function DoctorExists() DoctorAccountExists(tx.origin) public view returns(bool){\r\n    return true;\r\n  }\r\n\r\n\r\n  function GetConsentFile() AccountExists(tx.origin) public view returns(ConsentFile) {\r\n    return UserToConsentFile[tx.origin];\r\n  }\r\n\r\n  function GetConnectionFile() AccountExists(tx.origin) public view returns(ConnectionFile) {\r\n    return UserToConnectionFile[tx.origin];\r\n  }\r\n\r\n  /* Create a file that holds a users all consents.\r\n   * \r\n   * This is the file that holds all consents regardless of their state. Should have a modifier for the company.\r\n   */\r\n  function createConsentFile(address payable _user,ConsentFile.Role role) onlyBy(owner) public\r\n  {\r\n    ConsentFile file = new ConsentFile(_user,role,address(this));\r\n    UserToConsentFile[_user] = file;\r\n    // emit CMSFileCreatedEvent(address(this), owner, _user, file);\r\n  }\r\n\r\n  function createConnectionFile(address payable _user,ConnectionFile.Role role) onlyBy(owner) public {\r\n    ConnectionFile file = new ConnectionFile(_user,role,address(this));\r\n    UserToConnectionFile[_user] = file;\r\n  }\r\n\r\n\r\n  \r\n\r\n  /* Create a consent for a specific purpouse of the latest version, language and country.\r\n   *\r\n   * Country and Purpouse must exist otherwise it will fail, if language is not there it will\r\n   * default to countrys default language if it exists otherwise it will fail. It adds\r\n   * the consent to the users file as well. Should have a modifier for the company only.\r\n   */\r\n\r\n  function requestConsent(string memory requestedDesc,address fromPatient) ConnectionStatusExists(fromPatient,tx.origin,Connection.Status.accepted)  public{\r\n    ConsentFile DoctorConsentFile = UserToConsentFile[tx.origin];\r\n    ConsentFile PatientConsentFile = UserToConsentFile[fromPatient];\r\n\r\n    ConsentDeets memory _deets;\r\n    (_deets.exists,_deets._consent) = DoctorConsentFile.getAssociatedConsent(fromPatient);\r\n    \r\n    if(!_deets.exists) {\r\n      DoctorConsentFile.addConsent(_deets._consent);\r\n      PatientConsentFile.addConsent(_deets._consent);\r\n    }\r\n    \r\n    _deets._consent.setRequestStatus(requestedDesc);\r\n    \r\n    emit CMSConsentRequestedEvent(address(_deets._consent),requestedDesc);\r\n  }\r\n\r\n  function GetConsents() AccountExists(tx.origin) public view returns(Consent[] memory) {\r\n    ConsentFile UserConsents = UserToConsentFile[tx.origin];\r\n    Consent[] memory _consents = UserConsents.getListOfConsents();\r\n    return _consents;\r\n  }\r\n\r\n  function createConsent(address _doctor, string[] memory records) ConnectionStatusExists(tx.origin,_doctor,Connection.Status.accepted) public\r\n  {\r\n\r\n    ConsentFile PatientConsentFile = UserToConsentFile[tx.origin];\r\n    ConsentFile DoctorConsentFile = UserToConsentFile[_doctor];\r\n\r\n    ConsentDeets memory _deets;\r\n    (_deets.exists,_deets._consent) = PatientConsentFile.getAssociatedConsent(_doctor);\r\n\r\n    if(!_deets.exists) {\r\n      PatientConsentFile.addConsent(_deets._consent);\r\n      DoctorConsentFile.addConsent(_deets._consent);\r\n    }\r\n\r\n    _deets._consent.setConsentedRecords(records);\r\n\r\n    \r\n    emit CMSConsentCreatedEvent(address(_deets._consent),records);\r\n\r\n  }\r\n\r\n  function ValidateRecordRequest(address doctor, string[] memory records) onlyBy(owner) public view returns(bool){\r\n    ConsentFile doctorConsentFile = UserToConsentFile[doctor];\r\n    return doctorConsentFile.RecordsExists(records);\r\n  }\r\n\r\n  function PatientCreateConnection(address doctor) PatientAccountExists(tx.origin) public {\r\n    ConnectionFile DoctorConnectionFile = UserToConnectionFile[doctor];\r\n    ConnectionFile PatientConnectionFile = UserToConnectionFile[tx.origin];\r\n\r\n    ConnDeets memory _deets;\r\n\r\n    (_deets.exists,_deets.Conn) = PatientConnectionFile.getAssociatedConnection(doctor);\r\n\r\n    if(_deets.exists) {\r\n      return;\r\n    }\r\n    else {\r\n      DoctorConnectionFile.AddConnection(_deets.Conn);\r\n      PatientConnectionFile.AddConnection(_deets.Conn);\r\n\r\n      _deets.Conn.setStatus(Connection.Status.requested);\r\n    }\r\n    emit CMSConnectionStatusEvent(address(_deets.Conn),Connection.Status.requested);\r\n  }\r\n  \r\n  function DoctorAcceptConnection(address patient) ConnectionStatusExists(patient,tx.origin,Connection.Status.requested) public {\r\n    ConnectionFile DoctorConnectionFile = UserToConnectionFile[tx.origin];\r\n    ConnectionFile PatientConnectionFile = UserToConnectionFile[patient];\r\n\r\n    ConnDeets memory _deets;\r\n\r\n    (_deets.exists,_deets.Conn) = DoctorConnectionFile.getAssociatedConnection(patient);\r\n\r\n    if(_deets.exists && _deets.Conn.getStatus() == Connection.Status.accepted) {\r\n      return;\r\n    }\r\n    else {\r\n      if(!_deets.exists) {\r\n        DoctorConnectionFile.AddConnection(_deets.Conn);\r\n        PatientConnectionFile.AddConnection(_deets.Conn);\r\n      }\r\n\r\n      _deets.Conn.setStatus(Connection.Status.accepted);\r\n    }\r\n    \r\n    emit CMSConnectionStatusEvent(address(_deets.Conn),Connection.Status.accepted);\r\n  }\r\n  \r\n  function GetReqestedConnections() AccountExists(tx.origin) public view returns(address[] memory) {\r\n    ConnectionFile file = UserToConnectionFile[tx.origin];\r\n    return file.GetTypeConnections(Connection.Status.requested);\r\n  }\r\n\r\n  function GetAcceptedConnections() AccountExists(tx.origin) public view returns(address[] memory) {\r\n    ConnectionFile file = UserToConnectionFile[tx.origin];\r\n    return file.GetTypeConnections(Connection.Status.accepted);\r\n  }\r\n\r\n  function CheckSubset(address[2] memory array,address addr) private pure returns(bool) {\r\n    for(uint i=0;i<array.length;i++) {\r\n      if(array[i] == addr) {\r\n        return true;\r\n      }\r\n    }\r\n    return false;\r\n  }\r\n  \r\n  modifier MultipleOnlyBy(address[2] memory accounts) {\r\n    require(CheckSubset(accounts,tx.origin) == true);\r\n    _;\r\n  }\r\n\r\n  function RevokeConnection(Connection _conn) MultipleOnlyBy([_conn.getPatient(),_conn.getDoctor()]) public {\r\n    _conn.cancel();\r\n    emit CMSConnectionStatusEvent(address(_conn),Connection.Status.cancelled);\r\n  }\r\n\r\n  // /* Cancel the consent */\r\n  function cancelConsent(Consent _consent) onlyBy(_consent.getPatient()) public\r\n  {\r\n    _consent.cancel();\r\n    // emit ConsentFactoryConsentStatusChangedEvent (address(this), _consent.getOwner(), _consent.getGiver(), _consent, Consent.Status.cancelled);\r\n  }\r\n\r\n  // /* The company who has this factory */\r\n  function getCompany() public view returns (string memory)\r\n  {\r\n    return company;\r\n  }\r\n\r\n  // /* Returns the owner for the factory */\r\n  function getOwner() public view returns (address)\r\n  {\r\n    return owner;\r\n  }\r\n  \r\n  \r\n}\r\n\r\n/*\r\n * END\r\n */",
  "sourcePath": "C:\\dev\\Healthcare-CMS\\ScratchFrontend\\ConsentManagementFrontEnd\\contract-testing\\contracts\\CMS.sol",
  "compiler": {
    "name": "solc",
    "version": "0.5.16+commit.9c3226ce.Emscripten.clang"
  },
  "schemaVersion": "3.4.2",
  "updatedAt": "2022-04-29T13:13:32.432Z",
  "networkType": "ethereum",
  "devdoc": {
    "methods": {}
  },
  "userdoc": {
    "methods": {}
  }
}