{
  "contractName": "ConsentManagementSystem",
  "abi": [
    {
      "inputs": [
        {
          "internalType": "string",
          "name": "_company",
          "type": "string"
        }
      ],
      "stateMutability": "nonpayable",
      "type": "constructor"
    },
    {
      "anonymous": false,
      "inputs": [
        {
          "indexed": false,
          "internalType": "address",
          "name": "conn",
          "type": "address"
        },
        {
          "indexed": false,
          "internalType": "enum Connection.Status",
          "name": "status",
          "type": "uint8"
        }
      ],
      "name": "CMSConnectionStatusEvent",
      "type": "event"
    },
    {
      "anonymous": false,
      "inputs": [
        {
          "indexed": false,
          "internalType": "address",
          "name": "consent",
          "type": "address"
        },
        {
          "indexed": false,
          "internalType": "string[]",
          "name": "Records",
          "type": "string[]"
        }
      ],
      "name": "CMSConsentCreatedEvent",
      "type": "event"
    },
    {
      "anonymous": false,
      "inputs": [
        {
          "indexed": false,
          "internalType": "address",
          "name": "consent",
          "type": "address"
        },
        {
          "indexed": false,
          "internalType": "string",
          "name": "desc",
          "type": "string"
        }
      ],
      "name": "CMSConsentRequestedEvent",
      "type": "event"
    },
    {
      "anonymous": false,
      "inputs": [
        {
          "indexed": true,
          "internalType": "address",
          "name": "factory",
          "type": "address"
        },
        {
          "indexed": true,
          "internalType": "address",
          "name": "owner",
          "type": "address"
        },
        {
          "indexed": true,
          "internalType": "address",
          "name": "user",
          "type": "address"
        },
        {
          "indexed": false,
          "internalType": "address",
          "name": "file",
          "type": "address"
        }
      ],
      "name": "CMSFileCreatedEvent",
      "type": "event"
    },
    {
      "inputs": [
        {
          "internalType": "address payable",
          "name": "_user",
          "type": "address"
        },
        {
          "internalType": "string",
          "name": "role",
          "type": "string"
        }
      ],
      "name": "AddNewUser",
      "outputs": [],
      "stateMutability": "nonpayable",
      "type": "function"
    },
    {
      "inputs": [],
      "name": "NumOfUsers",
      "outputs": [
        {
          "internalType": "uint256",
          "name": "",
          "type": "uint256"
        }
      ],
      "stateMutability": "view",
      "type": "function"
    },
    {
      "inputs": [],
      "name": "DoctorExists",
      "outputs": [
        {
          "internalType": "bool",
          "name": "",
          "type": "bool"
        }
      ],
      "stateMutability": "view",
      "type": "function"
    },
    {
      "inputs": [],
      "name": "GetConsentFile",
      "outputs": [
        {
          "internalType": "contract ConsentFile",
          "name": "",
          "type": "address"
        }
      ],
      "stateMutability": "view",
      "type": "function"
    },
    {
      "inputs": [],
      "name": "GetConnectionFile",
      "outputs": [
        {
          "internalType": "contract ConnectionFile",
          "name": "",
          "type": "address"
        }
      ],
      "stateMutability": "view",
      "type": "function"
    },
    {
      "inputs": [
        {
          "internalType": "address payable",
          "name": "_user",
          "type": "address"
        },
        {
          "internalType": "enum ConsentFile.Role",
          "name": "role",
          "type": "uint8"
        }
      ],
      "name": "createConsentFile",
      "outputs": [],
      "stateMutability": "nonpayable",
      "type": "function"
    },
    {
      "inputs": [
        {
          "internalType": "address payable",
          "name": "_user",
          "type": "address"
        },
        {
          "internalType": "enum ConnectionFile.Role",
          "name": "role",
          "type": "uint8"
        }
      ],
      "name": "createConnectionFile",
      "outputs": [],
      "stateMutability": "nonpayable",
      "type": "function"
    },
    {
      "inputs": [
        {
          "internalType": "string",
          "name": "requestedDesc",
          "type": "string"
        },
        {
          "internalType": "address payable",
          "name": "fromPatient",
          "type": "address"
        }
      ],
      "name": "requestConsent",
      "outputs": [],
      "stateMutability": "nonpayable",
      "type": "function"
    },
    {
      "inputs": [],
      "name": "GetConsents",
      "outputs": [
        {
          "internalType": "address[]",
          "name": "",
          "type": "address[]"
        }
      ],
      "stateMutability": "view",
      "type": "function"
    },
    {
      "inputs": [
        {
          "internalType": "address payable",
          "name": "_doctor",
          "type": "address"
        },
        {
          "internalType": "string[]",
          "name": "records",
          "type": "string[]"
        }
      ],
      "name": "createConsent",
      "outputs": [],
      "stateMutability": "nonpayable",
      "type": "function"
    },
    {
      "inputs": [
        {
          "internalType": "address",
          "name": "doctor",
          "type": "address"
        },
        {
          "internalType": "string[]",
          "name": "records",
          "type": "string[]"
        }
      ],
      "name": "ValidateRecordRequest",
      "outputs": [
        {
          "internalType": "bool",
          "name": "",
          "type": "bool"
        }
      ],
      "stateMutability": "view",
      "type": "function"
    },
    {
      "inputs": [
        {
          "internalType": "address",
          "name": "doctor",
          "type": "address"
        }
      ],
      "name": "PatientCreateConnection",
      "outputs": [],
      "stateMutability": "nonpayable",
      "type": "function"
    },
    {
      "inputs": [
        {
          "internalType": "address",
          "name": "patient",
          "type": "address"
        }
      ],
      "name": "DoctorAcceptConnection",
      "outputs": [],
      "stateMutability": "nonpayable",
      "type": "function"
    },
    {
      "inputs": [
        {
          "internalType": "address",
          "name": "_account",
          "type": "address"
        }
      ],
      "name": "GetReqestedConnections",
      "outputs": [
        {
          "internalType": "address[]",
          "name": "",
          "type": "address[]"
        }
      ],
      "stateMutability": "view",
      "type": "function"
    },
    {
      "inputs": [
        {
          "internalType": "address",
          "name": "_account",
          "type": "address"
        }
      ],
      "name": "GetAcceptedConnections",
      "outputs": [
        {
          "internalType": "address[]",
          "name": "",
          "type": "address[]"
        }
      ],
      "stateMutability": "view",
      "type": "function"
    },
    {
      "inputs": [
        {
          "internalType": "contract Connection",
          "name": "_conn",
          "type": "address"
        }
      ],
      "name": "RevokeConnection",
      "outputs": [],
      "stateMutability": "nonpayable",
      "type": "function"
    },
    {
      "inputs": [
        {
          "internalType": "contract Consent",
          "name": "_consent",
          "type": "address"
        }
      ],
      "name": "cancelConsent",
      "outputs": [],
      "stateMutability": "nonpayable",
      "type": "function"
    },
    {
      "inputs": [],
      "name": "getCompany",
      "outputs": [
        {
          "internalType": "string",
          "name": "",
          "type": "string"
        }
      ],
      "stateMutability": "view",
      "type": "function"
    },
    {
      "inputs": [],
      "name": "getOwner",
      "outputs": [
        {
          "internalType": "address",
          "name": "",
          "type": "address"
        }
      ],
      "stateMutability": "view",
      "type": "function"
    }
  ],
  "bytecode": "0x608060405260006005553480156200001657600080fd5b5060405162005c1038038062005c10833981016040819052620000399162000122565b600080546001600160a01b03199081163217909155600180549091163317905580516200006e90600290602084019062000076565b5050620001e1565b828054600181600116156101000203166002900490600052602060002090601f016020900481019282620000ae5760008555620000f9565b82601f10620000c957805160ff1916838001178555620000f9565b82800160010185558215620000f9579182015b82811115620000f9578251825591602001919060010190620000dc565b50620001079291506200010b565b5090565b5b808211156200010757600081556001016200010c565b6000602080838503121562000135578182fd5b82516001600160401b03808211156200014c578384fd5b818501915085601f83011262000160578384fd5b8151818111156200016d57fe5b604051601f8201601f19168101850183811182821017156200018b57fe5b6040528181528382018501881015620001a2578586fd5b8592505b81831015620001c55783830185015181840186015291840191620001a6565b81831115620001d657858583830101525b979650505050505050565b615a1f80620001f16000396000f3fe60806040523480156200001157600080fd5b5060043610620001065760003560e01c8063063d6d41146200010b5780630f354dd61462000124578063127810bc146200013b5780632197bdfa146200015d57806329ddda2414620001745780633ba34aac146200018b57806340ab301e14620001a2578063654955c714620001bb578063893d20e814620001d45780638985697314620001de5780638aa2fdea14620001f55780638e219fe6146200020c5780638fc046d21462000225578063983f5d7a146200023c578063a3639ac51462000253578063a8f2efd8146200025d578063aae209751462000274578063cd3f35e0146200028b578063f153298314620002b1575b600080fd5b620001226200011c3660046200201d565b620002bb565b005b6200012262000135366004620020ae565b6200051f565b62000145620005a9565b604051620001549190620024a2565b60405180910390f35b620001226200016e3660046200201d565b62000640565b62000122620001853660046200205b565b620007f6565b620001226200019c3660046200201d565b62000d03565b620001ac620012a1565b60405162000154919062002423565b620001c56200138b565b60405162000154919062002356565b620001c5620013f7565b620001ac620001ef3660046200201d565b62001406565b62000122620002063660046200201d565b62001513565b62000216620015f7565b604051620001549190620024b7565b620001226200023636600462002258565b620015fd565b620001226200024d366004620020ae565b62001af2565b620001c562001b7c565b620001226200026e366004620020eb565b62001be8565b620001ac620002853660046200201d565b62001ccc565b620002a26200029c36600462002134565b62001d79565b60405162000154919062002487565b620002a262001e33565b326000818152600360205260409020546001600160a01b03168114620002e057600080fd5b6001600160a01b038083166000908152600760205260408082205432835291205490821691166200031062001ef8565b60405163045ccd2960e21b81526001600160a01b0383169063117334a4906200034090889087906004016200236a565b6040805180830381600087803b1580156200035a57600080fd5b505af11580156200036f573d6000803e3d6000fd5b505050506040513d601f19601f8201168201806040525081019062000395919062002207565b6001600160a01b031660208301521580158252620003b6575050506200051b565b6020810151604051632e69ec6d60e11b81526001600160a01b03851691635cd3d8da91620003e8919060040162002356565b600060405180830381600087803b1580156200040357600080fd5b505af115801562000418573d6000803e3d6000fd5b5050506020820151604051632e69ec6d60e11b81526001600160a01b0385169250635cd3d8da916200044d9160040162002356565b600060405180830381600087803b1580156200046857600080fd5b505af11580156200047d573d6000803e3d6000fd5b5050505080602001516001600160a01b0316632e49d78b60026040518263ffffffff1660e01b8152600401620004b4919062002492565b600060405180830381600087803b158015620004cf57600080fd5b505af1158015620004e4573d6000803e3d6000fd5b50505050600080516020620059ca833981519152816020015160026040516200050f929190620023de565b60405180910390a15050505b5050565b6000546001600160a01b03163281146200053857600080fd5b60008383306040516200054b9062001f0f565b620005599392919062002384565b604051809103906000f08015801562000576573d6000803e3d6000fd5b506001600160a01b03948516600090815260066020526040902080546001600160a01b0319169190951617909355505050565b60028054604080516020601f6000196101006001871615020190941685900493840181900481028201810190925282815260609390929091830182828015620006365780601f106200060a5761010080835404028352916020019162000636565b820191906000526020600020905b8154815290600101906020018083116200061857829003601f168201915b5050505050905090565b6040518060400160405280826001600160a01b0316637b0f9a366040518163ffffffff1660e01b815260040160206040518083038186803b1580156200068557600080fd5b505afa1580156200069a573d6000803e3d6000fd5b505050506040513d601f19601f82011682018060405250810190620006c091906200203c565b6001600160a01b03166001600160a01b03168152602001826001600160a01b0316633aaa59206040518163ffffffff1660e01b815260040160206040518083038186803b1580156200071157600080fd5b505afa15801562000726573d6000803e3d6000fd5b505050506040513d601f19601f820116820180604052508101906200074c91906200203c565b6001600160a01b0316905262000763813262001e63565b15156001146200077257600080fd5b816001600160a01b031663ea8a1af06040518163ffffffff1660e01b8152600401600060405180830381600087803b158015620007ae57600080fd5b505af1158015620007c3573d6000803e3d6000fd5b50505050600080516020620059ca833981519152826003604051620007ea929190620023de565b60405180910390a15050565b6001600160a01b03808316600090815260076020526040808220543280845291909220549092859260019290821691166200083062001ef8565b60405163045ccd2960e21b81526001600160a01b0384169063117334a4906200086090899086906004016200236a565b6040805180830381600087803b1580156200087a57600080fd5b505af11580156200088f573d6000803e3d6000fd5b505050506040513d601f19601f82011682018060405250810190620008b5919062002207565b6001600160a01b0316602083015215158152620008d162001ef8565b60405163045ccd2960e21b81526001600160a01b0384169063117334a4906200090190899088906004016200236a565b6040805180830381600087803b1580156200091b57600080fd5b505af115801562000930573d6000803e3d6000fd5b505050506040513d601f19601f8201168201806040525081019062000956919062002207565b6001600160a01b03166020830152151581528151801562000a0657508460038111156200097f57fe5b82602001516001600160a01b0316634e69d5606040518163ffffffff1660e01b815260040160206040518083038186803b158015620009bd57600080fd5b505afa158015620009d2573d6000803e3d6000fd5b505050506040513d601f19601f82011682018060405250810190620009f8919062002237565b600381111562000a0457fe5b145b8062000aab57508051801562000aab575084600381111562000a2457fe5b81602001516001600160a01b0316634e69d5606040518163ffffffff1660e01b815260040160206040518083038186803b15801562000a6257600080fd5b505afa15801562000a77573d6000803e3d6000fd5b505050506040513d601f19601f8201168201806040525081019062000a9d919062002237565b600381111562000aa957fe5b145b62000ab557600080fd5b32600090815260066020526040808220546001600160a01b038c811684529190922054918116911662000ae762001ef8565b604051635248a62760e11b81526001600160a01b0384169063a4914c4e9062000b17908f9086906004016200236a565b6040805180830381600087803b15801562000b3157600080fd5b505af115801562000b46573d6000803e3d6000fd5b505050506040513d601f19601f8201168201806040525081019062000b6c919062002207565b6001600160a01b03166020830152151580825262000c5057602081015160405163215aee7360e21b81526001600160a01b0385169163856bb9cc9162000bb6919060040162002356565b600060405180830381600087803b15801562000bd157600080fd5b505af115801562000be6573d6000803e3d6000fd5b505050602082015160405163215aee7360e21b81526001600160a01b038516925063856bb9cc9162000c1b9160040162002356565b600060405180830381600087803b15801562000c3657600080fd5b505af115801562000c4b573d6000803e3d6000fd5b505050505b80602001516001600160a01b0316634ca334e28c6040518263ffffffff1660e01b815260040162000c82919062002472565b600060405180830381600087803b15801562000c9d57600080fd5b505af115801562000cb2573d6000803e3d6000fd5b505050507fd4051b956164a3a4af1ab93acb039acf029149f97597ef38cce8974d7898a3e581602001518c60405162000ced929190620023b8565b60405180910390a1505050505050505050505050565b32600081815260076020526040808220546001600160a01b0380861684529190922054849392600292908116911662000d3b62001ef8565b60405163045ccd2960e21b81526001600160a01b0384169063117334a49062000d6b90899086906004016200236a565b6040805180830381600087803b15801562000d8557600080fd5b505af115801562000d9a573d6000803e3d6000fd5b505050506040513d601f19601f8201168201806040525081019062000dc0919062002207565b6001600160a01b031660208301521515815262000ddc62001ef8565b60405163045ccd2960e21b81526001600160a01b0384169063117334a49062000e0c90899088906004016200236a565b6040805180830381600087803b15801562000e2657600080fd5b505af115801562000e3b573d6000803e3d6000fd5b505050506040513d601f19601f8201168201806040525081019062000e61919062002207565b6001600160a01b03166020830152151581528151801562000f11575084600381111562000e8a57fe5b82602001516001600160a01b0316634e69d5606040518163ffffffff1660e01b815260040160206040518083038186803b15801562000ec857600080fd5b505afa15801562000edd573d6000803e3d6000fd5b505050506040513d601f19601f8201168201806040525081019062000f03919062002237565b600381111562000f0f57fe5b145b8062000fb657508051801562000fb6575084600381111562000f2f57fe5b81602001516001600160a01b0316634e69d5606040518163ffffffff1660e01b815260040160206040518083038186803b15801562000f6d57600080fd5b505afa15801562000f82573d6000803e3d6000fd5b505050506040513d601f19601f8201168201806040525081019062000fa8919062002237565b600381111562000fb457fe5b145b62000fc057600080fd5b32600090815260076020526040808220546001600160a01b038b811684529190922054918116911662000ff262001ef8565b60405163045ccd2960e21b81526001600160a01b0384169063117334a49062001022908e9086906004016200236a565b6040805180830381600087803b1580156200103c57600080fd5b505af115801562001051573d6000803e3d6000fd5b505050506040513d601f19601f8201168201806040525081019062001077919062002207565b6001600160a01b03166020830152158015808352906200111b5750600181602001516001600160a01b0316634e69d5606040518163ffffffff1660e01b815260040160206040518083038186803b158015620010d257600080fd5b505afa158015620010e7573d6000803e3d6000fd5b505050506040513d601f19601f820116820180604052508101906200110d919062002237565b60038111156200111957fe5b145b156200112a5750505062001297565b8051620011fd576020810151604051632e69ec6d60e11b81526001600160a01b03851691635cd3d8da9162001163919060040162002356565b600060405180830381600087803b1580156200117e57600080fd5b505af115801562001193573d6000803e3d6000fd5b5050506020820151604051632e69ec6d60e11b81526001600160a01b0385169250635cd3d8da91620011c89160040162002356565b600060405180830381600087803b158015620011e357600080fd5b505af1158015620011f8573d6000803e3d6000fd5b505050505b80602001516001600160a01b0316632e49d78b60016040518263ffffffff1660e01b815260040162001230919062002492565b600060405180830381600087803b1580156200124b57600080fd5b505af115801562001260573d6000803e3d6000fd5b50505050600080516020620059ca833981519152816020015160016040516200128b929190620023de565b60405180910390a15050505b5050505050505050565b32600081815260036020526040902054606091906001600160a01b0316811480620012e657506001600160a01b03808216600081815260046020526040902054909116145b620012f057600080fd5b32600090815260066020526040808220548151636d2934d360e11b815291516001600160a01b0390911692606092849263da5269a692600480840193919291829003018186803b1580156200134457600080fd5b505afa15801562001359573d6000803e3d6000fd5b505050506040513d6000823e601f3d908101601f1916820160405262001383919081019062002147565b935050505090565b326000818152600360205260408120549091906001600160a01b0316811480620013cf57506001600160a01b03808216600081815260046020526040902054909116145b620013d957600080fd5b5050326000908152600760205260409020546001600160a01b031690565b6000546001600160a01b031690565b60005460609032906001600160a01b03168114806200143f57506001600160a01b03808216600081815260036020526040902054909116145b806200146557506001600160a01b03808216600081815260046020526040902054909116145b6200146f57600080fd5b6001600160a01b03808416600090815260076020526040908190205490516308d78d9160e31b815291169081906346bc6c8890620014b39060019060040162002492565b60006040518083038186803b158015620014cc57600080fd5b505afa158015620014e1573d6000803e3d6000fd5b505050506040513d6000823e601f3d908101601f191682016040526200150b919081019062002147565b949350505050565b806001600160a01b0316637b0f9a366040518163ffffffff1660e01b815260040160206040518083038186803b1580156200154d57600080fd5b505afa15801562001562573d6000803e3d6000fd5b505050506040513d601f19601f820116820180604052508101906200158891906200203c565b326001600160a01b038216146200159e57600080fd5b816001600160a01b031663ea8a1af06040518163ffffffff1660e01b8152600401600060405180830381600087803b158015620015da57600080fd5b505af1158015620015ef573d6000803e3d6000fd5b505050505050565b60055490565b32600081815260076020526040808220546001600160a01b038086168452919092205484939260019290811691166200163562001ef8565b60405163045ccd2960e21b81526001600160a01b0384169063117334a4906200166590899086906004016200236a565b6040805180830381600087803b1580156200167f57600080fd5b505af115801562001694573d6000803e3d6000fd5b505050506040513d601f19601f82011682018060405250810190620016ba919062002207565b6001600160a01b0316602083015215158152620016d662001ef8565b60405163045ccd2960e21b81526001600160a01b0384169063117334a4906200170690899088906004016200236a565b6040805180830381600087803b1580156200172057600080fd5b505af115801562001735573d6000803e3d6000fd5b505050506040513d601f19601f820116820180604052508101906200175b919062002207565b6001600160a01b0316602083015215158152815180156200180b57508460038111156200178457fe5b82602001516001600160a01b0316634e69d5606040518163ffffffff1660e01b815260040160206040518083038186803b158015620017c257600080fd5b505afa158015620017d7573d6000803e3d6000fd5b505050506040513d601f19601f82011682018060405250810190620017fd919062002237565b60038111156200180957fe5b145b80620018b0575080518015620018b057508460038111156200182957fe5b81602001516001600160a01b0316634e69d5606040518163ffffffff1660e01b815260040160206040518083038186803b1580156200186757600080fd5b505afa1580156200187c573d6000803e3d6000fd5b505050506040513d601f19601f82011682018060405250810190620018a2919062002237565b6003811115620018ae57fe5b145b620018ba57600080fd5b32600090815260066020526040808220546001600160a01b038b8116845291909220549181169116620018ec62001ef8565b604051635248a62760e11b81526001600160a01b0384169063a4914c4e906200191c908e9086906004016200236a565b6040805180830381600087803b1580156200193657600080fd5b505af11580156200194b573d6000803e3d6000fd5b505050506040513d601f19601f8201168201806040525081019062001971919062002207565b6001600160a01b03166020830152151580825262001a5557602081015160405163215aee7360e21b81526001600160a01b0385169163856bb9cc91620019bb919060040162002356565b600060405180830381600087803b158015620019d657600080fd5b505af1158015620019eb573d6000803e3d6000fd5b505050602082015160405163215aee7360e21b81526001600160a01b038516925063856bb9cc9162001a209160040162002356565b600060405180830381600087803b15801562001a3b57600080fd5b505af115801562001a50573d6000803e3d6000fd5b505050505b80602001516001600160a01b031663f998292a8d6040518263ffffffff1660e01b815260040162001a879190620024a2565b600060405180830381600087803b15801562001aa257600080fd5b505af115801562001ab7573d6000803e3d6000fd5b505050507fee282a0323baa12981fd5ba7a2392b736e8bf63a42d85e260f4708d8b8880c3581602001518d60405162000ced929190620023fd565b6000546001600160a01b031632811462001b0b57600080fd5b600083833060405162001b1e9062001f1d565b62001b2c9392919062002384565b604051809103906000f08015801562001b49573d6000803e3d6000fd5b506001600160a01b03948516600090815260076020526040902080546001600160a01b0319169190951617909355505050565b326000818152600360205260408120549091906001600160a01b031681148062001bc057506001600160a01b03808216600081815260046020526040902054909116145b62001bca57600080fd5b5050326000908152600660205260409020546001600160a01b031690565b6000546001600160a01b031632811462001c0157600080fd5b62001c2b82604051806040016040528060068152602001653237b1ba37b960d11b81525062001ebd565b1562001c7b576001600160a01b038316600081815260046020526040812080546001600160a01b03191690921790915562001c689084906200051f565b62001c7583600062001af2565b62001cbe565b6001600160a01b038316600081815260036020526040902080546001600160a01b031916909117905562001cb18360016200051f565b62001cbe83600162001af2565b505060058054600101905550565b60005460609032906001600160a01b031681148062001d0557506001600160a01b03808216600081815260036020526040902054909116145b8062001d2b57506001600160a01b03808216600081815260046020526040902054909116145b62001d3557600080fd5b6001600160a01b03808416600090815260076020526040908190205490516308d78d9160e31b815291169081906346bc6c8890620014b39060029060040162002492565b600080546001600160a01b031632811462001d9357600080fd5b6001600160a01b0380851660009081526006602052604090819020549051630255720f60e31b815291169081906312ab90789062001dd690879060040162002472565b60206040518083038186803b15801562001def57600080fd5b505afa15801562001e04573d6000803e3d6000fd5b505050506040513d601f19601f8201168201806040525081019062001e2a9190620021ea565b95945050505050565b326000818152600460205260408120549091906001600160a01b0316811462001e5b57600080fd5b600191505090565b6000805b600281101562001eb157826001600160a01b031684826002811062001e8857fe5b60200201516001600160a01b0316141562001ea857600191505062001eb7565b60010162001e67565b50600090505b92915050565b600062001ecb838362001ed2565b9392505050565b60008151835114801562001ecb5750508051602091820120825192909101919091201490565b604080518082019091526000808252602082015290565b611f5f806200253583390190565b611536806200449483390190565b600082601f83011262001f3c578081fd5b813562001f5362001f4d82620024e4565b620024c0565b818152915060208083019084810160005b8481101562001f915762001f7e888484358a010162001fb2565b8452928201929082019060010162001f64565b505050505092915050565b8051801515811462001fad57600080fd5b919050565b600082601f83011262001fc3578081fd5b81356001600160401b0381111562001fd757fe5b62001fec601f8201601f1916602001620024c0565b91508082528360208285010111156200200457600080fd5b8060208401602084013760009082016020015292915050565b6000602082840312156200202f578081fd5b813562001ecb8162002510565b6000602082840312156200204e578081fd5b815162001ecb8162002510565b600080604083850312156200206e578081fd5b82356200207b8162002510565b915060208301356001600160401b0381111562002096578182fd5b620020a48582860162001f2b565b9150509250929050565b60008060408385031215620020c1578182fd5b8235620020ce8162002510565b91506020830135620020e08162002526565b809150509250929050565b60008060408385031215620020fe578182fd5b82356200210b8162002510565b915060208301356001600160401b0381111562002126578182fd5b620020a48582860162001fb2565b600080604083850312156200206e578182fd5b600060208083850312156200215a578182fd5b82516001600160401b0381111562002170578283fd5b8301601f8101851362002181578283fd5b80516200219262001f4d82620024e4565b8181528381019083850185840285018601891015620021af578687fd5b8694505b83851015620021de578051620021c98162002510565b835260019490940193918501918501620021b3565b50979650505050505050565b600060208284031215620021fc578081fd5b62001ecb8262001f9c565b600080604083850312156200221a578182fd5b620022258362001f9c565b91506020830151620020e08162002510565b60006020828403121562002249578081fd5b81516004811062001ecb578182fd5b600080604083850312156200226b578182fd5b82356001600160401b0381111562002281578283fd5b6200228f8582860162001fb2565b9250506020830135620020e08162002510565b6000815180845260208085018081965082840281019150828601855b85811015620022ec578284038952620022d984835162002308565b98850198935090840190600101620022be565b5091979650505050505050565b600481106200230457fe5b9052565b60008151808452815b818110156200232f5760208185018101518683018201520162002311565b81811115620023415782602083870101525b50601f01601f19169290920160200192915050565b6001600160a01b0391909116815260200190565b6001600160a01b0392831681529116602082015260400190565b6001600160a01b0384811682526060820190620023a18562002502565b846020840152808416604084015250949350505050565b6001600160a01b03831681526040602082018190526000906200150b90830184620022a2565b6001600160a01b03831681526040810162001ecb6020830184620022f9565b6001600160a01b03831681526040602082018190526000906200150b9083018462002308565b6020808252825182820181905260009190848201906040850190845b81811015620024665783516001600160a01b0316835292840192918401916001016200243f565b50909695505050505050565b60006020825262001ecb6020830184620022a2565b901515815260200190565b6020810162001eb78284620022f9565b60006020825262001ecb602083018462002308565b90815260200190565b6040518181016001600160401b0381118282101715620024dc57fe5b604052919050565b60006001600160401b03821115620024f857fe5b5060209081020190565b600381106200250d57fe5b50565b6001600160a01b03811681146200250d57600080fd5b600381106200250d57600080fdfe608060405234801561001057600080fd5b50604051611f5f380380611f5f83398101604081905261002f91610088565b600080546001600160a01b038084166001600160a01b03199283161790925560018054928616929091169190911780825583919060ff60a01b1916600160a01b83600281111561007b57fe5b02179055505050506100ef565b60008060006060848603121561009c578283fd5b83516100a7816100d7565b6020850151909350600381106100bb578283fd5b60408501519092506100cc816100d7565b809150509250925092565b6001600160a01b03811681146100ec57600080fd5b50565b611e61806100fe6000396000f3fe608060405234801561001057600080fd5b50600436106100575760003560e01c806312ab90781461005c578063856bb9cc14610085578063893d20e81461009a578063a4914c4e146100af578063da5269a6146100d0575b600080fd5b61006f61006a3660046106f5565b6100e5565b60405161007c9190610937565b60405180910390f35b61009861009336600461088f565b61020e565b005b6100a26102c2565b60405161007c91906108ab565b6100c26100bd3660046106bd565b6102d1565b60405161007c929190610942565b6100d861054d565b60405161007c91906108ea565b6001546000906001600160a01b031632148061010b57506000546001600160a01b031633145b61011457600080fd5b6000600154600160a01b900460ff16600281111561012e57fe5b1415610209576000606060005b600254811015610201576002818154811061015257fe5b600091825260208220015460408051632055980f60e11b815290516001600160a01b03909216926340ab301e92600480840193829003018186803b15801561019957600080fd5b505afa1580156101ad573d6000803e3d6000fd5b505050506040513d6000823e601f3d908101601f191682016040526101d591908101906107bc565b91506101e182866105c7565b85519301928314156101f95760019350505050610209565b60010161013b565b506000925050505b919050565b6001546001600160a01b031632148061023157506000546001600160a01b031633145b61023a57600080fd5b600280546001810182556000919091527f405787fa12a823e0f2b7631cc41b3ba8828b3321ca811111fa75cd3aa3bb5ace0180546001600160a01b0319166001600160a01b03831617905560405130907f1398fb997798573a4f33a35360688747a7eb90249ab5cec65da9e5b1945ecdae906102b79084906108ab565b60405180910390a250565b6001546001600160a01b031690565b60015460009081906001600160a01b031632146102ed57600080fd5b6000600154600160a01b900460ff16600281111561030757fe5b14156104585760005b6002548110156103f957846001600160a01b03166002828154811061033157fe5b6000918252602091829020015460408051633d87cd1b60e11b815290516001600160a01b0390921692637b0f9a3692600480840193829003018186803b15801561037a57600080fd5b505afa15801561038e573d6000803e3d6000fd5b505050506040513d601f19601f820116820180604052508101906103b291906106a1565b6001600160a01b031614156103f1576001600282815481106103d057fe5b6000918252602090912001549093506001600160a01b031691506105469050565b600101610310565b50600084600160009054906101000a90046001600160a01b0316853060405161042190610693565b61042e94939291906108bf565b604051809103906000f08015801561044a573d6000803e3d6000fd5b506000935091506105469050565b60005b60025481101561052357846001600160a01b03166002828154811061047c57fe5b60009182526020918290200154604080516301d552c960e51b815290516001600160a01b0390921692633aaa592092600480840193829003018186803b1580156104c557600080fd5b505afa1580156104d9573d6000803e3d6000fd5b505050506040513d601f19601f820116820180604052508101906104fd91906106a1565b6001600160a01b0316141561051b576001600282815481106103d057fe5b60010161045b565b506001546040516000916001600160a01b03169086903090879061042190610693565b9250929050565b6001546060906001600160a01b0316321461056757600080fd5b60028054806020026020016040519081016040528092919081815260200182805480156105bd57602002820191906000526020600020905b81546001600160a01b0316815260019091019060200180831161059f575b5050505050905090565b600080805b8351811015610606576105f2858583815181106105e557fe5b6020026020010151610610565b156105fe576001820191505b6001016105cc565b5090505b92915050565b6000805b83518110156106515761063a84828151811061062c57fe5b60200260200101518461065b565b1561064957600191505061060a565b600101610614565b5060009392505050565b6000610667838361066e565b9392505050565b6000815183511480156106675750508051602091820120825192909101919091201490565b61145780620009d583390190565b6000602082840312156106b2578081fd5b8151610667816109bc565b600080604083850312156106cf578081fd5b82356106da816109bc565b915060208301356106ea816109bc565b809150509250929050565b60006020808385031215610707578182fd5b82356001600160401b0381111561071c578283fd5b8301601f8101851361072c578283fd5b803561073f61073a8261097e565b61095b565b81815283810190838501865b848110156107ae57813586018a603f820112610765578889fd5b8781013561077561073a8261099b565b81815260408d8184860101111561078a578b8cfd5b828185018c8401375090810189018a9052855250928601929086019060010161074b565b509098975050505050505050565b600060208083850312156107ce578182fd5b82516001600160401b038111156107e3578283fd5b8301601f810185136107f3578283fd5b805161080161073a8261097e565b81815283810190838501865b848110156107ae57815186018a603f820112610827578889fd5b8781015161083761073a8261099b565b81815260408d8184860101111561084c578b8cfd5b8b5b83811015610869578481018201518382018d01528b0161084e565b83811115610879578c8c85850101525b505086525050928601929086019060010161080d565b6000602082840312156108a0578081fd5b8135610667816109bc565b6001600160a01b0391909116815260200190565b6001600160a01b03948516815292841660208401529083166040830152909116606082015260800190565b6020808252825182820181905260009190848201906040850190845b8181101561092b5783516001600160a01b031683529284019291840191600101610906565b50909695505050505050565b901515815260200190565b91151582526001600160a01b0316602082015260400190565b6040518181016001600160401b038111828210171561097657fe5b604052919050565b60006001600160401b0382111561099157fe5b5060209081020190565b60006001600160401b038211156109ae57fe5b50601f01601f191660200190565b6001600160a01b03811681146109d157600080fd5b5056fe608060405234801561001057600080fd5b5060405161145738038061145783398101604081905261002f916100f8565b600280546001600160a01b038087166001600160a01b0319928316179092556003805486841690831617905560008054848416908316179055600180549285169290911691909117905560405184908490309061008b906100eb565b61009793929190610156565b604051809103906000f0801580156100b3573d6000803e3d6000fd5b50600480546001600160a01b0319166001600160a01b039290921691909117905550506003805460ff60a01b19169055506101919050565b61089980610bbe83390190565b6000806000806080858703121561010d578384fd5b845161011881610179565b602086015190945061012981610179565b604086015190935061013a81610179565b606086015190925061014b81610179565b939692955090935050565b6001600160a01b0393841681529183166020830152909116604082015260600190565b6001600160a01b038116811461018e57600080fd5b50565b610a1e806101a06000396000f3fe608060405234801561001057600080fd5b50600436106100995760003560e01c8063321c48f21461009e578063370fcc20146100bc5780633aaa5920146100c457806340ab301e146100cc5780634ca334e2146100e15780634e69d560146100f65780637b0f9a361461010b578063aa43c93614610113578063bc307bb914610126578063ea8a1af01461012e578063f998292a14610136575b600080fd5b6100a6610149565b6040516100b3919061089c565b60405180910390f35b6100a66101b2565b6100a66101c1565b6100d461022a565b6040516100b391906108b0565b6100f46100ef3660046106d4565b610306565b005b6100fe6103c8565b6040516100b39190610910565b6100a6610432565b6100f4610121366004610810565b61049b565b6100a661052f565b6100f461053e565b6100f4610144366004610836565b610628565b6001546000906001600160a01b031633148061016f57506000546001600160a01b031633145b8061018457506002546001600160a01b031632145b8061019957506003546001600160a01b031632145b6101a257600080fd5b506004546001600160a01b031690565b6000546001600160a01b031690565b6001546000906001600160a01b03163314806101e757506000546001600160a01b031633145b806101fc57506002546001600160a01b031632145b8061021157506003546001600160a01b031632145b61021a57600080fd5b506003546001600160a01b031690565b6001546060906001600160a01b031633148061025057506000546001600160a01b031633145b8061026557506002546001600160a01b031632145b8061027a57506003546001600160a01b031632145b61028357600080fd5b6004805460408051636e81a8a360e01b815290516001600160a01b0390921692636e81a8a3928282019260009290829003018186803b1580156102c557600080fd5b505afa1580156102d9573d6000803e3d6000fd5b505050506040513d6000823e601f3d908101601f19168201604052610301919081019061075c565b905090565b6002546001600160a01b0316321461031d57600080fd5b6003805460ff60a01b1916600160a11b179055600480546040516326519a7160e11b81526001600160a01b0390911691634ca334e29161035f918591016108b0565b600060405180830381600087803b15801561037957600080fd5b505af115801561038d573d6000803e3d6000fd5b50506003546040513093506000805160206109c983398151915292506103bd91600160a01b900460ff1690610910565b60405180910390a250565b6001546000906001600160a01b03163314806103ee57506000546001600160a01b031633145b8061040357506002546001600160a01b031632145b8061041857506003546001600160a01b031632145b61042157600080fd5b50600354600160a01b900460ff1690565b6001546000906001600160a01b031633148061045857506000546001600160a01b031633145b8061046d57506002546001600160a01b031632145b8061048257506003546001600160a01b031632145b61048b57600080fd5b506002546001600160a01b031690565b6002546001600160a01b031632146104b257600080fd5b60018160048111156104c057fe5b14806104d7575060028160048111156104d557fe5b145b1561052c576003805482919060ff60a01b1916600160a01b8360048111156104fb57fe5b021790555060035460405130916000805160206109c9833981519152916103bd91600160a01b900460ff1690610910565b50565b6001546001600160a01b031690565b6002546001600160a01b0316321461055557600080fd5b6003805460ff60a01b1916600160a21b179055600454604080516000808252602082019092526001600160a01b0390921691634ca334e2916105a7565b60608152602001906001900390816105925790505b506040518263ffffffff1660e01b81526004016105c491906108b0565b600060405180830381600087803b1580156105de57600080fd5b505af11580156105f2573d6000803e3d6000fd5b50505050306001600160a01b03166000805160206109c9833981519152600460405161061e9190610910565b60405180910390a2565b6003546001600160a01b0316321461063f57600080fd5b6003805460ff60a01b1916600360a01b179055600480546040516303f0622760e41b81526001600160a01b0390911691633f0622709161035f91859101610924565b600082601f830112610691578081fd5b81356106a461069f82610977565b610937565b91508082528360208285010111156106bb57600080fd5b8060208401602084013760009082016020015292915050565b600060208083850312156106e6578182fd5b82356001600160401b038111156106fb578283fd5b8301601f8101851361070b578283fd5b803561071961069f8261095a565b81815283810190838501865b8481101561074e5761073c8a888435890101610681565b84529286019290860190600101610725565b509098975050505050505050565b6000602080838503121561076e578182fd5b82516001600160401b03811115610783578283fd5b8301601f81018513610793578283fd5b80516107a161069f8261095a565b81815283810190838501865b8481101561074e57815186018a603f8201126107c7578889fd5b878101516107d761069f82610977565b81815260408d818486010111156107ec578b8cfd5b6107fb838c8401838701610998565b508652505092860192908601906001016107ad565b600060208284031215610821578081fd5b81356005811061082f578182fd5b9392505050565b600060208284031215610847578081fd5b81356001600160401b0381111561085c578182fd5b61086884828501610681565b949350505050565b60008151808452610888816020860160208601610998565b601f01601f19169290920160200192915050565b6001600160a01b0391909116815260200190565b6000602080830181845280855180835260408601915060408482028701019250838701855b8281101561090357603f198886030184526108f1858351610870565b945092850192908501906001016108d5565b5092979650505050505050565b602081016005831061091e57fe5b91905290565b60006020825261082f6020830184610870565b6040518181016001600160401b038111828210171561095257fe5b604052919050565b60006001600160401b0382111561096d57fe5b5060209081020190565b60006001600160401b0382111561098a57fe5b50601f01601f191660200190565b60005b838110156109b357818101518382015260200161099b565b838111156109c2576000848401525b5050505056fe7004293283c83e944feedfe102d317947bdd62fdffaa93c44ab95e20b426befda2646970667358221220210c6c5a6acd3c975bdefe4a3aad0725031ba4f11b2be5ae8b9c0eda95f0b4aa64736f6c63430007050033608060405234801561001057600080fd5b5060405161089938038061089983398101604081905261002f9161013d565b600180546001600160a01b038086166001600160a01b031992831617909255600280548584169083161790556000805492841692909116919091178155604080516020810191829052829052610088916005919061009c565b50506006805460ff19169055506101a19050565b828054600181600116156101000203166002900490600052602060002090601f0160209004810192826100d25760008555610118565b82601f106100eb57805160ff1916838001178555610118565b82800160010185558215610118579182015b828111156101185782518255916020019190600101906100fd565b50610124929150610128565b5090565b5b808211156101245760008155600101610129565b600080600060608486031215610151578283fd5b835161015c81610189565b602085015190935061016d81610189565b604085015190925061017e81610189565b809150509250925092565b6001600160a01b038116811461019e57600080fd5b50565b6106e9806101b06000396000f3fe608060405234801561001057600080fd5b50600436106100575760003560e01c80630f399a411461005c5780633f0622701461007a57806340a4895c1461008f5780634ca334e2146100a45780636e81a8a3146100b7575b600080fd5b6100646100cc565b6040516100719190610602565b60405180910390f35b61008d61008836600461057d565b6100db565b005b610097610109565b6040516100719190610676565b61008d6100b23660046104e5565b6101dd565b6100bf610207565b6040516100719190610616565b6000546001600160a01b031690565b6002546001600160a01b031632146100f257600080fd5b8051610105906005906020840190610321565b5050565b6000546060906001600160a01b031633148061012f57506002546001600160a01b031632145b8061014457506001546001600160a01b031632145b61014d57600080fd5b6005805460408051602060026001851615610100026000190190941693909304601f810184900484028201840190925281815292918301828280156101d35780601f106101a8576101008083540402835291602001916101d3565b820191906000526020600020905b8154815290600101906020018083116101b657829003601f168201915b5050505050905090565b6001546001600160a01b031632146101f457600080fd5b80516101059060049060208401906103ad565b6000546060906001600160a01b031633148061022d57506002546001600160a01b031632145b8061024257506001546001600160a01b031632145b61024b57600080fd5b6004805480602002602001604051908101604052809291908181526020016000905b828210156103185760008481526020908190208301805460408051601f60026000196101006001871615020190941693909304928301859004850281018501909152818152928301828280156103045780601f106102d957610100808354040283529160200191610304565b820191906000526020600020905b8154815290600101906020018083116102e757829003601f168201915b50505050508152602001906001019061026d565b50505050905090565b828054600181600116156101000203166002900490600052602060002090601f016020900481019282610357576000855561039d565b82601f1061037057805160ff191683800117855561039d565b8280016001018555821561039d579182015b8281111561039d578251825591602001919060010190610382565b506103a9929150610406565b5090565b8280548282559060005260206000209081019282156103fa579160200282015b828111156103fa57825180516103ea918491602090910190610321565b50916020019190600101906103cd565b506103a992915061041b565b5b808211156103a95760008155600101610407565b808211156103a957600061042f8282610438565b5060010161041b565b50805460018160011615610100020316600290046000825580601f1061045e575061047c565b601f01602090049060005260206000209081019061047c9190610406565b50565b600082601f83011261048f578081fd5b81356001600160401b038111156104a257fe5b6104b5601f8201601f1916602001610690565b91508082528360208285010111156104cc57600080fd5b8060208401602084013760009082016020015292915050565b600060208083850312156104f7578182fd5b82356001600160401b038082111561050d578384fd5b818501915085601f830112610520578384fd5b81358181111561052c57fe5b6105398485830201610690565b8181528481019250838501865b8381101561056f5761055d8a88843589010161047f565b85529386019390860190600101610546565b509098975050505050505050565b60006020828403121561058e578081fd5b81356001600160401b038111156105a3578182fd5b6105af8482850161047f565b949350505050565b60008151808452815b818110156105dc576020818501810151868301820152016105c0565b818111156105ed5782602083870101525b50601f01601f19169290920160200192915050565b6001600160a01b0391909116815260200190565b6000602080830181845280855180835260408601915060408482028701019250838701855b8281101561066957603f198886030184526106578583516105b7565b9450928501929085019060010161063b565b5092979650505050505050565b60006020825261068960208301846105b7565b9392505050565b6040518181016001600160401b03811182821017156106ab57fe5b60405291905056fea2646970667358221220facd16c7d49500d48af6b9090044794e27a51455a6b4a577958d0a45da0b279a64736f6c63430007050033a2646970667358221220a9bdc5382d4eb5b6bf5169084cb68a40324688784606cc497b86fb11e5c94a8964736f6c63430007050033608060405260c860025534801561001557600080fd5b506040516115363803806115368339810160408190526100349161008d565b600080546001600160a01b038084166001600160a01b03199283161790925560038054928616929091169190911780825583919060ff60a01b1916600160a01b83600281111561008057fe5b02179055505050506100f4565b6000806000606084860312156100a1578283fd5b83516100ac816100dc565b6020850151909350600381106100c0578283fd5b60408501519092506100d1816100dc565b809150509250925092565b6001600160a01b03811681146100f157600080fd5b50565b611433806101036000396000f3fe608060405234801561001057600080fd5b50600436106100785760003560e01c8063117334a41461007d578063122b2b5a146100a7578063157f4a58146100bc57806346bc6c88146100d15780635385eadf146100e45780635cd3d8da146100f7578063893d20e81461010a578063ef0052fd1461011f575b600080fd5b61009061008b366004610cee565b610134565b60405161009e929190610f9e565b60405180910390f35b6100af6103c5565b60405161009e9190610ed9565b6100cf6100ca366004610d7a565b61043f565b005b6100af6100df366004610d42565b61048b565b6100cf6100f2366004610d7a565b610799565b6100cf610105366004610d26565b6108cc565b61011261098a565b60405161009e9190610e9a565b610127610999565b60405161009e9190610f26565b60035460009081906001600160a01b031632148061015c57506000546001600160a01b031633145b61016557600080fd5b6000600354600160a01b900460ff16600281111561017f57fe5b14156102cb5760005b60045481101561027157846001600160a01b0316600482815481106101a957fe5b6000918252602091829020015460408051633d87cd1b60e11b815290516001600160a01b0390921692637b0f9a3692600480840193829003018186803b1580156101f257600080fd5b505afa158015610206573d6000803e3d6000fd5b505050506040513d601f19601f8201168201806040525081019061022a9190610ccb565b6001600160a01b031614156102695760016004828154811061024857fe5b6000918252602090912001549093506001600160a01b031691506103be9050565b600101610188565b506003546040516000916001600160a01b03169086903090879061029490610c1d565b6102a19493929190610eae565b604051809103906000f0801580156102bd573d6000803e3d6000fd5b506000935091506103be9050565b60005b60045481101561039657846001600160a01b0316600482815481106102ef57fe5b60009182526020918290200154604080516301d552c960e51b815290516001600160a01b0390921692633aaa592092600480840193829003018186803b15801561033857600080fd5b505afa15801561034c573d6000803e3d6000fd5b505050506040513d601f19601f820116820180604052508101906103709190610ccb565b6001600160a01b0316141561038e5760016004828154811061024857fe5b6001016102ce565b50600084600360009054906101000a90046001600160a01b0316853060405161029490610c1d565b9250929050565b6003546060906001600160a01b031632146103df57600080fd5b600480548060200260200160405190810160405280929190818152602001828054801561043557602002820191906000526020600020905b81546001600160a01b03168152600190910190602001808311610417575b5050505050905090565b6003546001600160a01b0316321461045657600080fd5b60006006826040516104689190610e0e565b908152604051908190036020019020805491151560ff1990921691909117905550565b6003546060906001600160a01b03163214806104b157506000546001600160a01b031633145b6104ba57600080fd5b60006104c583610b1f565b90506060816001600160401b03811180156104df57600080fd5b50604051908082528060200260200182016040528015610509578160200160208202803683370190505b5090506000805b60045481101561078f5785600381111561052657fe5b6004828154811061053357fe5b60009182526020918290200154604080516302734eab60e51b815290516001600160a01b0390921692634e69d56092600480840193829003018186803b15801561057c57600080fd5b505afa158015610590573d6000803e3d6000fd5b505050506040513d601f19601f820116820180604052508101906105b49190610d5e565b60038111156105bf57fe5b1415610787576000600354600160a01b900460ff1660028111156105df57fe5b14156106a657600481815481106105f257fe5b6000918252602091829020015460408051633d87cd1b60e11b815290516001600160a01b0390921692637b0f9a3692600480840193829003018186803b15801561063b57600080fd5b505afa15801561064f573d6000803e3d6000fd5b505050506040513d601f19601f820116820180604052508101906106739190610ccb565b83838151811061067f57fe5b60200260200101906001600160a01b031690816001600160a01b0316815250506001820191505b6001600354600160a01b900460ff1660028111156106c057fe5b141561078757600481815481106106d357fe5b60009182526020918290200154604080516301d552c960e51b815290516001600160a01b0390921692633aaa592092600480840193829003018186803b15801561071c57600080fd5b505afa158015610730573d6000803e3d6000fd5b505050506040513d601f19601f820116820180604052508101906107549190610ccb565b83838151811061076057fe5b60200260200101906001600160a01b031690816001600160a01b0316815250506001820191505b600101610510565b5090949350505050565b6003546001600160a01b03163214806107bc57506000546001600160a01b031633145b6107c557600080fd5b6006816040516107d59190610e0e565b9081526040519081900360200190205460ff166108c95760058054600181018255600091909152815161082f917f036b6384b5eca791c62761152d0c79bb0604c104a5fb6f4eb0703f3154bb3db001906020840190610c2a565b5060016006826040516108429190610e0e565b908152604051908190036020018120805492151560ff199093169290921790915561086e908290610e0e565b60405190819003812060035490916001600160a01b0382169130917f3609af973f59129c43785d1daadeb45a8b22326d40d21c9445d0f9d03e489fb8916108c091600160a01b90910460ff1690610fb7565b60405180910390a45b50565b6003546001600160a01b03163214806108ef57506000546001600160a01b031633145b6108f857600080fd5b600480546001810182556000919091527f8a35acfbc15ff81a39ae7d344fd709f28e8600b4aa8c65c6b64bfe7fe36bd19b0180546001600160a01b0319166001600160a01b03838116918217909255600354604051919281169130917f8a9208f2779a24d352064589ab804c990968f6b7568525cadfe439d89b47d1d7916108c091600160a01b900460ff1690610fb7565b6003546001600160a01b031690565b6003546060906001600160a01b031632146109b357600080fd5b6005546060906001600160401b03811180156109ce57600080fd5b50604051908082528060200260200182016040528015610a0257816020015b60608152602001906001900390816109ed5790505b5090506000805b600554811015610b1757600660058281548110610a2257fe5b90600052602060002001604051610a399190610e2a565b9081526040519081900360200190205460ff1615610b0f5760058181548110610a5e57fe5b600091825260209182902001805460408051601f6002600019610100600187161502019094169390930492830185900485028101850190915281815292830182828015610aec5780601f10610ac157610100808354040283529160200191610aec565b820191906000526020600020905b815481529060010190602001808311610acf57829003601f168201915b5050505050838381518110610afd57fe5b60209081029190910101526001909101905b600101610a09565b509091505090565b6003546000906001600160a01b0316321480610b4557506000546001600160a01b031633145b610b4e57600080fd5b6000805b600454811015610c1657836003811115610b6857fe5b60048281548110610b7557fe5b60009182526020918290200154604080516302734eab60e51b815290516001600160a01b0390921692634e69d56092600480840193829003018186803b158015610bbe57600080fd5b505afa158015610bd2573d6000803e3d6000fd5b505050506040513d601f19601f82011682018060405250810190610bf69190610d5e565b6003811115610c0157fe5b1415610c0e576001820191505b600101610b52565b5092915050565b6103e08061101e83390190565b828054600181600116156101000203166002900490600052602060002090601f016020900481019282610c605760008555610ca6565b82601f10610c7957805160ff1916838001178555610ca6565b82800160010185558215610ca6579182015b82811115610ca6578251825591602001919060010190610c8b565b50610cb2929150610cb6565b5090565b5b80821115610cb25760008155600101610cb7565b600060208284031215610cdc578081fd5b8151610ce781610ffb565b9392505050565b60008060408385031215610d00578081fd5b8235610d0b81610ffb565b91506020830135610d1b81610ffb565b809150509250929050565b600060208284031215610d37578081fd5b8135610ce781610ffb565b600060208284031215610d53578081fd5b8135610ce781611010565b600060208284031215610d6f578081fd5b8151610ce781611010565b60006020808385031215610d8c578182fd5b82356001600160401b0380821115610da2578384fd5b818501915085601f830112610db5578384fd5b813581811115610dc157fe5b604051601f8201601f1916810185018381118282101715610dde57fe5b6040528181528382018501881015610df4578586fd5b818585018683013790810190930193909352509392505050565b60008251610e20818460208701610fcb565b9190910192915050565b6000808354600180821660008114610e495760018114610e6057610e8f565b60ff198316865260028304607f1686019350610e8f565b600283048786526020808720875b83811015610e875781548a820152908501908201610e6e565b505050860193505b509195945050505050565b6001600160a01b0391909116815260200190565b6001600160a01b03948516815292841660208401529083166040830152909116606082015260800190565b6020808252825182820181905260009190848201906040850190845b81811015610f1a5783516001600160a01b031683529284019291840191600101610ef5565b50909695505050505050565b6000602080830181845280855180835260408601915060408482028701019250838701855b82811015610f9157878503603f1901845281518051808752610f72818989018a8501610fcb565b601f01601f191695909501860194509285019290850190600101610f4b565b5092979650505050505050565b91151582526001600160a01b0316602082015260400190565b6020810160038310610fc557fe5b91905290565b60005b83811015610fe6578181015183820152602001610fce565b83811115610ff5576000848401525b50505050565b6001600160a01b03811681146108c957600080fd5b600481106108c957600080fdfe608060405234801561001057600080fd5b506040516103e03803806103e083398101604081905261002f916100a3565b600080546001600160a01b03199081166001600160a01b039687161790915560018054821694861694909417909355600280548416928516929092179091556003805460ff60a01b19931691909316171690556100f6565b80516001600160a01b038116811461009e57600080fd5b919050565b600080600080608085870312156100b8578384fd5b6100c185610087565b93506100cf60208601610087565b92506100dd60408601610087565b91506100eb60608601610087565b905092959194509250565b6102db806101056000396000f3fe608060405234801561001057600080fd5b50600436106100575760003560e01c80632e49d78b1461005c5780633aaa5920146100715780634e69d5601461008f5780637b0f9a36146100a4578063ea8a1af0146100ac575b600080fd5b61006f61006a366004610257565b6100b4565b005b610079610106565b604051610086919061027d565b60405180910390f35b61009761016f565b6040516100869190610291565b6100796101d9565b61006f610242565b6000546001600160a01b03163214806100d757506001546001600160a01b031632145b6100e057600080fd5b6003805482919060ff60a01b1916600160a01b83838111156100fe57fe5b021790555050565b6002546000906001600160a01b031633148061012c57506003546001600160a01b031633145b8061014157506000546001600160a01b031632145b8061015657506001546001600160a01b031632145b61015f57600080fd5b506000546001600160a01b031690565b6002546000906001600160a01b031633148061019557506003546001600160a01b031633145b806101aa57506000546001600160a01b031632145b806101bf57506001546001600160a01b031632145b6101c857600080fd5b50600354600160a01b900460ff1690565b6002546000906001600160a01b03163314806101ff57506003546001600160a01b031633145b8061021457506000546001600160a01b031632145b8061022957506001546001600160a01b031632145b61023257600080fd5b506001546001600160a01b031690565b6003805460ff60a01b1916600360a01b179055565b600060208284031215610268578081fd5b813560048110610276578182fd5b9392505050565b6001600160a01b0391909116815260200190565b602081016004831061029f57fe5b9190529056fea2646970667358221220eeb61d2446bed2d769c6fbc0b41f14fa54500ca711b2a88cd08f41c46dc5ff3064736f6c63430007050033a264697066735822122094c49ef97e593670e532217a931dab610e9eaeef7fe86e85cbb22a008b6aaf8e64736f6c634300070500334c0f9a5e735f2b8219dc1fb00b8a79f722c42ba1d7085827fdd8318c90769271a26469706673582212204664ee6e1a4825426a509906849fc605eacb30b73f75d7041b30c5348c4b86c364736f6c63430007050033",
  "immutableReferences": {},
  "source": "  pragma solidity ^0.7.5;\r\n  pragma experimental ABIEncoderV2;\r\n  import \"./ConsentFile.sol\";\r\n  import \"./ConnectionFile.sol\";\r\n  import \"./Connection.sol\";\r\n  \r\n  // /* \r\n  //  * This is the consent factory contract that handles consents and version of\r\n  //  * consents.\r\n  //  *\r\n  //  * It basically provides an interface to be able to create consents based on\r\n  //  * a specific purpouse for a specific user. And always using the latest version\r\n  //  * and always puts newly generated consents into a persons consent file.\r\n  //  *\r\n  //  */\r\n\r\n  contract ConsentManagementSystem {\r\n    \r\n    /* The owner of this contract */\r\n    address payable private owner;  /* Who owns this CMS*/\r\n    address private creator; /* Who created this CMS */\r\n    string  private company;  /* Company that created this CMS */\r\n    \r\n    enum Role {\r\n      doctor,\r\n      patient,\r\n      nominee\r\n    }\r\n\r\n    mapping(address => address) Patients;\r\n    mapping(address => address) Doctors;\r\n    \r\n    uint256 NumUsers = 0;\r\n\r\n    mapping(address => ConsentFile) UserToConsentFile;\r\n    mapping(address => ConnectionFile) UserToConnectionFile;\r\n\r\n    \r\n    /* Events generated when the consent has been created */\r\n    event CMSConnectionStatusEvent(address conn,Connection.Status status);\r\n    // event CMSConnectionStatusChangedEvent(address indexed factory, address indexed owner, address indexed user, Consent consent, Consent.Status status);\r\n    \r\n    event CMSConsentCreatedEvent(address consent,string[] Records);\r\n    event CMSConsentRequestedEvent(address consent,string desc);\r\n    // event CMSConsentStatusChangedEvent(address consent, Consent.Status oldStatus, Consent.Status newStatus);\r\n    \r\n    event CMSFileCreatedEvent(address indexed factory, address indexed owner, address indexed user, address file);\r\n    // event CMSFailedEvent(address indexed factory, address indexed owner, address indexed user, Error error);\r\n    \r\n\r\n    /* A modifier */\r\n    modifier onlyBy(address _account) \r\n    { \r\n      require(tx.origin == _account);\r\n      _;\r\n    }\r\n    \r\n    modifier AccountExists(address _account) {\r\n      require((Patients[_account] == _account) || (Doctors[_account] == _account));\r\n      _;\r\n    }\r\n\r\n    modifier PatientAccountExists(address _account)\r\n    {\r\n      require(Patients[_account] == _account);\r\n      _;\r\n    }\r\n\r\n    modifier DoctorAccountExists(address _account)\r\n    {\r\n      require(Doctors[_account] == _account);\r\n      _;\r\n    }\r\n\r\n    struct ConnDeets {\r\n      bool exists;\r\n      Connection Conn;\r\n    }\r\n\r\n    struct ConsentDeets {\r\n      bool exists;\r\n      Consent _consent;\r\n    }\r\n\r\n    modifier ConnectionStatusExists(address patient,address doctor,Connection.Status state) {\r\n      ConnectionFile DoctorConnectionFile = UserToConnectionFile[doctor];\r\n      ConnectionFile PatientConnectionFile = UserToConnectionFile[patient];\r\n\r\n      ConnDeets memory DocConn;\r\n      (DocConn.exists,DocConn.Conn) = DoctorConnectionFile.getAssociatedConnection(patient,PatientConnectionFile);\r\n      \r\n      ConnDeets memory PatConn;\r\n      (PatConn.exists,PatConn.Conn) = PatientConnectionFile.getAssociatedConnection(doctor,DoctorConnectionFile);\r\n      \r\n      require ( (DocConn.exists && DocConn.Conn.getStatus() == state) || \r\n                (PatConn.exists && PatConn.Conn.getStatus() == state) \r\n              );\r\n      _;\r\n    }\r\n    \r\n    \r\n    /* Constructor for the consent factory */\r\n    constructor (string memory _company) public\r\n    {\r\n      owner = tx.origin;\r\n      creator = msg.sender;\r\n      company = _company;\r\n    }\r\n    \r\n    function memcmp(bytes memory a, bytes memory b) internal pure returns(bool){\r\n      return (a.length == b.length) && (keccak256(a) == keccak256(b));\r\n    }\r\n    function strcmp(string memory a, string memory b) internal pure returns(bool){\r\n      return memcmp(bytes(a), bytes(b));\r\n    }\r\n\r\n    function AddNewUser(address payable _user,string memory role) onlyBy(owner) public {\r\n      if(strcmp(role,\"doctor\")) {\r\n        Doctors[_user] = _user;\r\n        createConsentFile(_user,ConsentFile.Role.doctor);\r\n        createConnectionFile(_user,ConnectionFile.Role.doctor);\r\n      }\r\n      else {\r\n        Patients[_user] = _user;\r\n        createConsentFile(_user,ConsentFile.Role.patient);\r\n        createConnectionFile(_user,ConnectionFile.Role.patient);\r\n      }\r\n      NumUsers += 1;\r\n    }\r\n\r\n    function NumOfUsers() public view returns(uint256) {\r\n      return NumUsers;\r\n    }\r\n\r\n    function DoctorExists() DoctorAccountExists(tx.origin) public view returns(bool){\r\n      return true;\r\n    }\r\n\r\n    function GetConsentFile() AccountExists(tx.origin) public view returns(ConsentFile) {\r\n      return UserToConsentFile[tx.origin];\r\n    }\r\n\r\n    function GetConnectionFile() AccountExists(tx.origin) public view returns(ConnectionFile) {\r\n      return UserToConnectionFile[tx.origin];\r\n    }\r\n\r\n    /* Create a file that holds a users all consents.\r\n    * \r\n    * This is the file that holds all consents regardless of their state. Should have a modifier for the company.\r\n    */\r\n    function createConsentFile(address payable _user,ConsentFile.Role role) onlyBy(owner) public\r\n    {\r\n      ConsentFile file = new ConsentFile(_user,role,address(this));\r\n      UserToConsentFile[_user] = file;\r\n      // emit CMSFileCreatedEvent(address(this), owner, _user, file);\r\n    }\r\n\r\n    function createConnectionFile(address payable _user,ConnectionFile.Role role) onlyBy(owner) public {\r\n      ConnectionFile file = new ConnectionFile(_user,role,address(this));\r\n      UserToConnectionFile[_user] = file;\r\n    }\r\n\r\n    /*\r\n    Adding Connected Hospitals for a User into Connection File\r\n    */\r\n\r\n    \r\n\r\n    /* Create a consent for a specific purpouse of the latest version, language and country.\r\n    *\r\n    * Country and Purpouse must exist otherwise it will fail, if language is not there it will\r\n    * default to countrys default language if it exists otherwise it will fail. It adds\r\n    * the consent to the users file as well. Should have a modifier for the company only.\r\n    */\r\n\r\n    // \r\n    function requestConsent(string memory requestedDesc,address payable fromPatient) ConnectionStatusExists(fromPatient,tx.origin,Connection.Status.accepted) public{\r\n      ConsentFile DoctorConsentFile = UserToConsentFile[tx.origin];\r\n      ConsentFile PatientConsentFile = UserToConsentFile[fromPatient];\r\n\r\n      ConsentDeets memory _deets;\r\n      (_deets.exists,_deets._consent) = DoctorConsentFile.getAssociatedConsent(fromPatient,PatientConsentFile);\r\n      \r\n      if(!_deets.exists) {\r\n        DoctorConsentFile.addConsent(_deets._consent);\r\n        PatientConsentFile.addConsent(_deets._consent);\r\n      }\r\n      \r\n      _deets._consent.setRequestStatus(requestedDesc);\r\n      \r\n      emit CMSConsentRequestedEvent(address(_deets._consent),requestedDesc);\r\n    }\r\n\r\n    function GetConsents() AccountExists(tx.origin) public view returns(address[] memory) {\r\n      ConsentFile UserConsents = UserToConsentFile[tx.origin];\r\n      address[] memory _consents = UserConsents.getListOfConsents();\r\n      return _consents;\r\n    }\r\n\r\n    function createConsent(address payable _doctor, string[] memory records) ConnectionStatusExists(tx.origin,_doctor,Connection.Status.accepted) public\r\n    {\r\n\r\n      ConsentFile PatientConsentFile = UserToConsentFile[tx.origin];\r\n      ConsentFile DoctorConsentFile = UserToConsentFile[_doctor];\r\n\r\n      ConsentDeets memory _deets;\r\n      (_deets.exists,_deets._consent) = PatientConsentFile.getAssociatedConsent(_doctor,DoctorConsentFile);\r\n\r\n      if(!_deets.exists) {\r\n        PatientConsentFile.addConsent(_deets._consent);\r\n        DoctorConsentFile.addConsent(_deets._consent);\r\n      }\r\n\r\n      _deets._consent.setConsentedRecords(records);\r\n\r\n      \r\n      emit CMSConsentCreatedEvent(address(_deets._consent),records);\r\n\r\n    }\r\n\r\n    function ValidateRecordRequest(address doctor, string[] memory records) onlyBy(owner) public view returns(bool){\r\n      ConsentFile doctorConsentFile = UserToConsentFile[doctor];\r\n      return doctorConsentFile.RecordsExists(records);\r\n    }\r\n\r\n    function PatientCreateConnection(address doctor) PatientAccountExists(tx.origin) public {\r\n      ConnectionFile DoctorConnectionFile = UserToConnectionFile[doctor];\r\n      ConnectionFile PatientConnectionFile = UserToConnectionFile[tx.origin];\r\n\r\n      ConnDeets memory _deets;\r\n\r\n      (_deets.exists,_deets.Conn) = PatientConnectionFile.getAssociatedConnection(doctor,DoctorConnectionFile);\r\n\r\n      if(_deets.exists) {\r\n        return;\r\n      }\r\n      else {\r\n        DoctorConnectionFile.AddConnection(_deets.Conn);\r\n        PatientConnectionFile.AddConnection(_deets.Conn);\r\n\r\n        _deets.Conn.setStatus(Connection.Status.requested);\r\n      }\r\n      emit CMSConnectionStatusEvent(address(_deets.Conn),Connection.Status.requested);\r\n    }\r\n    \r\n    // function UserCreateHospitalConnection(string memory hospital) AccountExists(tx.origin) public {\r\n    //   ConnectionFile UserConnectionFile = UserToConnectionFile[tx.origin];\r\n    //   UserConnectionFile.AddHospitalConnection(hospital);\r\n    // }\r\n\r\n    function DoctorAcceptConnection(address patient) ConnectionStatusExists(patient,tx.origin,Connection.Status.requested) public {\r\n      ConnectionFile DoctorConnectionFile = UserToConnectionFile[tx.origin];\r\n      ConnectionFile PatientConnectionFile = UserToConnectionFile[patient];\r\n\r\n      ConnDeets memory _deets;\r\n\r\n      (_deets.exists,_deets.Conn) = DoctorConnectionFile.getAssociatedConnection(patient,PatientConnectionFile);\r\n\r\n      if(_deets.exists && _deets.Conn.getStatus() == Connection.Status.accepted) {\r\n        return;\r\n      }\r\n      else {\r\n        if(!_deets.exists) {\r\n          DoctorConnectionFile.AddConnection(_deets.Conn);\r\n          PatientConnectionFile.AddConnection(_deets.Conn);\r\n        }\r\n\r\n        _deets.Conn.setStatus(Connection.Status.accepted);\r\n      }\r\n      \r\n      emit CMSConnectionStatusEvent(address(_deets.Conn),Connection.Status.accepted);\r\n    }\r\n    \r\n    \r\n    modifier AccountExistsOrValidator(address _account) \r\n    {\r\n      require((tx.origin == owner) || (Patients[_account] == _account) || (Doctors[_account] == _account));\r\n      _;\r\n    }\r\n\r\n    function GetReqestedConnections(address _account) AccountExistsOrValidator(tx.origin) public view returns(address[] memory) {\r\n      ConnectionFile file = UserToConnectionFile[_account];\r\n      return file.GetTypeConnections(Connection.Status.requested);\r\n    }\r\n\r\n    function GetAcceptedConnections(address _account) AccountExistsOrValidator(tx.origin) public view returns(address[] memory) {\r\n      ConnectionFile file = UserToConnectionFile[_account];\r\n      return file.GetTypeConnections(Connection.Status.accepted);\r\n    }\r\n\r\n    function CheckSubset(address[2] memory array,address addr) private pure returns(bool) {\r\n      for(uint i=0;i<array.length;i++) {\r\n        if(array[i] == addr) {\r\n          return true;\r\n        }\r\n      }\r\n      return false;\r\n    }\r\n    \r\n    modifier MultipleOnlyBy(address[2] memory accounts) {\r\n      require(CheckSubset(accounts,tx.origin) == true);\r\n      _;\r\n    }\r\n\r\n    function RevokeConnection(Connection _conn) MultipleOnlyBy([_conn.getPatient(),_conn.getDoctor()]) public {\r\n      _conn.cancel();\r\n      emit CMSConnectionStatusEvent(address(_conn),Connection.Status.cancelled);\r\n    }\r\n\r\n    // /* Cancel the consent */\r\n    function cancelConsent(Consent _consent) onlyBy(_consent.getPatient()) public\r\n    {\r\n      _consent.cancel();\r\n      // emit ConsentFactoryConsentStatusChangedEvent (address(this), _consent.getOwner(), _consent.getGiver(), _consent, Consent.Status.cancelled);\r\n    }\r\n\r\n    // /* The company who has this factory */\r\n    function getCompany() public view returns (string memory)\r\n    {\r\n      return company;\r\n    }\r\n\r\n    // /* Returns the owner for the factory */\r\n    function getOwner() public view returns (address)\r\n    {\r\n      return owner;\r\n    }\r\n    \r\n    \r\n  }\r\n\r\n  /*\r\n  * END\r\n  */",
  "sourcePath": "C:\\dev\\Healthcare-CMS\\Healthcare-ConsentManagementSystem\\Frontend\\contract-testing\\contracts\\CMS.sol",
  "compiler": {
    "name": "solc",
    "version": "0.7.5+commit.eb77ed08.Emscripten.clang"
  },
  "schemaVersion": "3.4.7",
  "updatedAt": "2023-05-07T17:08:48.138Z",
  "devdoc": {
    "kind": "dev",
    "methods": {},
    "version": 1
  },
  "userdoc": {
    "kind": "user",
    "methods": {},
    "version": 1
  }
}