{
  "contractName": "ConsentManagementSystem",
  "abi": [
    {
      "inputs": [
        {
          "internalType": "string",
          "name": "_company",
          "type": "string"
        }
      ],
      "payable": false,
      "stateMutability": "nonpayable",
      "type": "constructor"
    },
    {
      "anonymous": false,
      "inputs": [
        {
          "indexed": false,
          "internalType": "address",
          "name": "conn",
          "type": "address"
        },
        {
          "indexed": false,
          "internalType": "enum Connection.Status",
          "name": "status",
          "type": "uint8"
        }
      ],
      "name": "CMSConnectionStatusEvent",
      "type": "event"
    },
    {
      "anonymous": false,
      "inputs": [
        {
          "indexed": false,
          "internalType": "address",
          "name": "consent",
          "type": "address"
        },
        {
          "indexed": false,
          "internalType": "string[]",
          "name": "Records",
          "type": "string[]"
        }
      ],
      "name": "CMSConsentCreatedEvent",
      "type": "event"
    },
    {
      "anonymous": false,
      "inputs": [
        {
          "indexed": false,
          "internalType": "address",
          "name": "consent",
          "type": "address"
        },
        {
          "indexed": false,
          "internalType": "string",
          "name": "desc",
          "type": "string"
        }
      ],
      "name": "CMSConsentRequestedEvent",
      "type": "event"
    },
    {
      "anonymous": false,
      "inputs": [
        {
          "indexed": true,
          "internalType": "address",
          "name": "factory",
          "type": "address"
        },
        {
          "indexed": true,
          "internalType": "address",
          "name": "owner",
          "type": "address"
        },
        {
          "indexed": true,
          "internalType": "address",
          "name": "user",
          "type": "address"
        },
        {
          "indexed": false,
          "internalType": "address",
          "name": "file",
          "type": "address"
        }
      ],
      "name": "CMSFileCreatedEvent",
      "type": "event"
    },
    {
      "constant": false,
      "inputs": [
        {
          "internalType": "address payable",
          "name": "_user",
          "type": "address"
        },
        {
          "internalType": "string",
          "name": "role",
          "type": "string"
        }
      ],
      "name": "AddNewUser",
      "outputs": [],
      "payable": false,
      "stateMutability": "nonpayable",
      "type": "function"
    },
    {
      "constant": true,
      "inputs": [],
      "name": "NumOfUsers",
      "outputs": [
        {
          "internalType": "uint256",
          "name": "",
          "type": "uint256"
        }
      ],
      "payable": false,
      "stateMutability": "view",
      "type": "function"
    },
    {
      "constant": true,
      "inputs": [],
      "name": "DoctorExists",
      "outputs": [
        {
          "internalType": "bool",
          "name": "",
          "type": "bool"
        }
      ],
      "payable": false,
      "stateMutability": "view",
      "type": "function"
    },
    {
      "constant": true,
      "inputs": [],
      "name": "GetConsentFile",
      "outputs": [
        {
          "internalType": "contract ConsentFile",
          "name": "",
          "type": "address"
        }
      ],
      "payable": false,
      "stateMutability": "view",
      "type": "function"
    },
    {
      "constant": true,
      "inputs": [],
      "name": "GetConnectionFile",
      "outputs": [
        {
          "internalType": "contract ConnectionFile",
          "name": "",
          "type": "address"
        }
      ],
      "payable": false,
      "stateMutability": "view",
      "type": "function"
    },
    {
      "constant": false,
      "inputs": [
        {
          "internalType": "address payable",
          "name": "_user",
          "type": "address"
        },
        {
          "internalType": "enum ConsentFile.Role",
          "name": "role",
          "type": "uint8"
        }
      ],
      "name": "createConsentFile",
      "outputs": [],
      "payable": false,
      "stateMutability": "nonpayable",
      "type": "function"
    },
    {
      "constant": false,
      "inputs": [
        {
          "internalType": "address payable",
          "name": "_user",
          "type": "address"
        },
        {
          "internalType": "enum ConnectionFile.Role",
          "name": "role",
          "type": "uint8"
        }
      ],
      "name": "createConnectionFile",
      "outputs": [],
      "payable": false,
      "stateMutability": "nonpayable",
      "type": "function"
    },
    {
      "constant": false,
      "inputs": [
        {
          "internalType": "string",
          "name": "requestedDesc",
          "type": "string"
        },
        {
          "internalType": "address payable",
          "name": "fromPatient",
          "type": "address"
        }
      ],
      "name": "requestConsent",
      "outputs": [],
      "payable": false,
      "stateMutability": "nonpayable",
      "type": "function"
    },
    {
      "constant": true,
      "inputs": [],
      "name": "GetConsents",
      "outputs": [
        {
          "internalType": "address[]",
          "name": "",
          "type": "address[]"
        }
      ],
      "payable": false,
      "stateMutability": "view",
      "type": "function"
    },
    {
      "constant": false,
      "inputs": [
        {
          "internalType": "address payable",
          "name": "_doctor",
          "type": "address"
        },
        {
          "internalType": "string[]",
          "name": "records",
          "type": "string[]"
        }
      ],
      "name": "createConsent",
      "outputs": [],
      "payable": false,
      "stateMutability": "nonpayable",
      "type": "function"
    },
    {
      "constant": true,
      "inputs": [
        {
          "internalType": "address",
          "name": "doctor",
          "type": "address"
        },
        {
          "internalType": "string[]",
          "name": "records",
          "type": "string[]"
        }
      ],
      "name": "ValidateRecordRequest",
      "outputs": [
        {
          "internalType": "bool",
          "name": "",
          "type": "bool"
        }
      ],
      "payable": false,
      "stateMutability": "view",
      "type": "function"
    },
    {
      "constant": false,
      "inputs": [
        {
          "internalType": "address",
          "name": "doctor",
          "type": "address"
        }
      ],
      "name": "PatientCreateConnection",
      "outputs": [],
      "payable": false,
      "stateMutability": "nonpayable",
      "type": "function"
    },
    {
      "constant": false,
      "inputs": [
        {
          "internalType": "address",
          "name": "patient",
          "type": "address"
        }
      ],
      "name": "DoctorAcceptConnection",
      "outputs": [],
      "payable": false,
      "stateMutability": "nonpayable",
      "type": "function"
    },
    {
      "constant": true,
      "inputs": [
        {
          "internalType": "address",
          "name": "_account",
          "type": "address"
        }
      ],
      "name": "GetReqestedConnections",
      "outputs": [
        {
          "internalType": "address[]",
          "name": "",
          "type": "address[]"
        }
      ],
      "payable": false,
      "stateMutability": "view",
      "type": "function"
    },
    {
      "constant": true,
      "inputs": [
        {
          "internalType": "address",
          "name": "_account",
          "type": "address"
        }
      ],
      "name": "GetAcceptedConnections",
      "outputs": [
        {
          "internalType": "address[]",
          "name": "",
          "type": "address[]"
        }
      ],
      "payable": false,
      "stateMutability": "view",
      "type": "function"
    },
    {
      "constant": false,
      "inputs": [
        {
          "internalType": "contract Connection",
          "name": "_conn",
          "type": "address"
        }
      ],
      "name": "RevokeConnection",
      "outputs": [],
      "payable": false,
      "stateMutability": "nonpayable",
      "type": "function"
    },
    {
      "constant": false,
      "inputs": [
        {
          "internalType": "contract Consent",
          "name": "_consent",
          "type": "address"
        }
      ],
      "name": "cancelConsent",
      "outputs": [],
      "payable": false,
      "stateMutability": "nonpayable",
      "type": "function"
    },
    {
      "constant": true,
      "inputs": [],
      "name": "getCompany",
      "outputs": [
        {
          "internalType": "string",
          "name": "",
          "type": "string"
        }
      ],
      "payable": false,
      "stateMutability": "view",
      "type": "function"
    },
    {
      "constant": true,
      "inputs": [],
      "name": "getOwner",
      "outputs": [
        {
          "internalType": "address",
          "name": "",
          "type": "address"
        }
      ],
      "payable": false,
      "stateMutability": "view",
      "type": "function"
    }
  ],
  "bytecode": "0x608060405260006005553480156200001657600080fd5b50604051620061e6380380620061e6833981016040819052620000399162000177565b600080546001600160a01b03199081163217909155600180549091163317905580516200006e90600290602084019062000076565b505062000239565b828054600181600116156101000203166002900490600052602060002090601f016020900481019282601f10620000b957805160ff1916838001178555620000e9565b82800160010185558215620000e9579182015b82811115620000e9578251825591602001919060010190620000cc565b50620000f7929150620000fb565b5090565b6200011891905b80821115620000f7576000815560010162000102565b90565b600082601f8301126200012d57600080fd5b8151620001446200013e82620001de565b620001b7565b915080825260208301602083018583830111156200016157600080fd5b6200016e83828462000206565b50505092915050565b6000602082840312156200018a57600080fd5b81516001600160401b03811115620001a157600080fd5b620001af848285016200011b565b949350505050565b6040518181016001600160401b0381118282101715620001d657600080fd5b604052919050565b60006001600160401b03821115620001f557600080fd5b506020601f91909101601f19160190565b60005b838110156200022357818101518382015260200162000209565b8381111562000233576000848401525b50505050565b615f9d80620002496000396000f3fe60806040523480156200001157600080fd5b5060043610620001065760003560e01c8063063d6d41146200010b5780630f354dd61462000124578063127810bc146200013b5780632197bdfa146200015d57806329ddda2414620001745780633ba34aac146200018b57806340ab301e14620001a2578063654955c714620001bb578063893d20e814620001d45780638985697314620001ed5780638aa2fdea14620002045780638e219fe6146200021b5780638fc046d21462000234578063983f5d7a146200024b578063a3639ac51462000262578063a8f2efd8146200026c578063aae209751462000283578063cd3f35e0146200029a578063f153298314620002c0575b600080fd5b620001226200011c366004620020d9565b620002ca565b005b620001226200013536600462002172565b6200052e565b62000145620005b8565b604051620001549190620025b5565b60405180910390f35b620001226200016e36600462002282565b6200064f565b62000122620001853660046200211b565b62000805565b620001226200019c366004620020d9565b62000d12565b620001ac620012b0565b6040516200015491906200255f565b620001c56200139a565b60405162000154919062002595565b620001de62001406565b6040516200015491906200249b565b620001ac620001fe366004620020d9565b62001415565b620001226200021536600462002282565b62001522565b6200022562001606565b604051620001549190620025c8565b6200012262000245366004620022c4565b6200160c565b620001226200025c36600462002172565b62001b01565b620001c562001b8b565b620001226200027d366004620021a7565b62001bf7565b620001ac62000294366004620020d9565b62001cdb565b620002b1620002ab3660046200211b565b62001d88565b60405162000154919062002585565b620002b162001e42565b326000818152600360205260409020546001600160a01b03168114620002ef57600080fd5b6001600160a01b038083166000908152600760205260408082205432835291205490821691166200031f62001f07565b60405163045ccd2960e21b81526001600160a01b0383169063117334a4906200034f9088908790600401620024ab565b6040805180830381600087803b1580156200036957600080fd5b505af11580156200037e573d6000803e3d6000fd5b505050506040513d601f19601f82011682018060405250620003a491908101906200224d565b6001600160a01b031660208301521580158252620003c5575050506200052a565b6020810151604051632e69ec6d60e11b81526001600160a01b03851691635cd3d8da91620003f7919060040162002595565b600060405180830381600087803b1580156200041257600080fd5b505af115801562000427573d6000803e3d6000fd5b5050506020820151604051632e69ec6d60e11b81526001600160a01b0385169250635cd3d8da916200045c9160040162002595565b600060405180830381600087803b1580156200047757600080fd5b505af11580156200048c573d6000803e3d6000fd5b5050505080602001516001600160a01b0316632e49d78b60026040518263ffffffff1660e01b8152600401620004c39190620025a5565b600060405180830381600087803b158015620004de57600080fd5b505af1158015620004f3573d6000803e3d6000fd5b5050505060008051602062005f3b833981519152816020015160026040516200051e9291906200251c565b60405180910390a15050505b5050565b6000546001600160a01b03163281146200054757600080fd5b60008383306040516200055a9062001f1e565b6200056893929190620024ca565b604051809103906000f08015801562000585573d6000803e3d6000fd5b506001600160a01b03948516600090815260066020526040902080546001600160a01b0319169190951617909355505050565b60028054604080516020601f6000196101006001871615020190941685900493840181900481028201810190925282815260609390929091830182828015620006455780601f10620006195761010080835404028352916020019162000645565b820191906000526020600020905b8154815290600101906020018083116200062757829003601f168201915b5050505050905090565b6040518060400160405280826001600160a01b0316637b0f9a366040518163ffffffff1660e01b815260040160206040518083038186803b1580156200069457600080fd5b505afa158015620006a9573d6000803e3d6000fd5b505050506040513d601f19601f82011682018060405250620006cf9190810190620020fa565b6001600160a01b03166001600160a01b03168152602001826001600160a01b0316633aaa59206040518163ffffffff1660e01b815260040160206040518083038186803b1580156200072057600080fd5b505afa15801562000735573d6000803e3d6000fd5b505050506040513d601f19601f820116820180604052506200075b9190810190620020fa565b6001600160a01b0316905262000772813262001e72565b15156001146200078157600080fd5b816001600160a01b031663ea8a1af06040518163ffffffff1660e01b8152600401600060405180830381600087803b158015620007bd57600080fd5b505af1158015620007d2573d6000803e3d6000fd5b5050505060008051602062005f3b833981519152826003604051620007f99291906200251c565b60405180910390a15050565b6001600160a01b03808316600090815260076020526040808220543280845291909220549092859260019290821691166200083f62001f07565b60405163045ccd2960e21b81526001600160a01b0384169063117334a4906200086f9089908690600401620024ab565b6040805180830381600087803b1580156200088957600080fd5b505af11580156200089e573d6000803e3d6000fd5b505050506040513d601f19601f82011682018060405250620008c491908101906200224d565b6001600160a01b0316602083015215158152620008e062001f07565b60405163045ccd2960e21b81526001600160a01b0384169063117334a490620009109089908890600401620024ab565b6040805180830381600087803b1580156200092a57600080fd5b505af11580156200093f573d6000803e3d6000fd5b505050506040513d601f19601f820116820180604052506200096591908101906200224d565b6001600160a01b03166020830152151581528151801562000a1557508460038111156200098e57fe5b82602001516001600160a01b0316634e69d5606040518163ffffffff1660e01b815260040160206040518083038186803b158015620009cc57600080fd5b505afa158015620009e1573d6000803e3d6000fd5b505050506040513d601f19601f8201168201806040525062000a079190810190620022a3565b600381111562000a1357fe5b145b8062000aba57508051801562000aba575084600381111562000a3357fe5b81602001516001600160a01b0316634e69d5606040518163ffffffff1660e01b815260040160206040518083038186803b15801562000a7157600080fd5b505afa15801562000a86573d6000803e3d6000fd5b505050506040513d601f19601f8201168201806040525062000aac9190810190620022a3565b600381111562000ab857fe5b145b62000ac457600080fd5b32600090815260066020526040808220546001600160a01b038c811684529190922054918116911662000af662001f07565b604051635248a62760e11b81526001600160a01b0384169063a4914c4e9062000b26908f908690600401620024ab565b6040805180830381600087803b15801562000b4057600080fd5b505af115801562000b55573d6000803e3d6000fd5b505050506040513d601f19601f8201168201806040525062000b7b91908101906200224d565b6001600160a01b03166020830152151580825262000c5f57602081015160405163215aee7360e21b81526001600160a01b0385169163856bb9cc9162000bc5919060040162002595565b600060405180830381600087803b15801562000be057600080fd5b505af115801562000bf5573d6000803e3d6000fd5b505050602082015160405163215aee7360e21b81526001600160a01b038516925063856bb9cc9162000c2a9160040162002595565b600060405180830381600087803b15801562000c4557600080fd5b505af115801562000c5a573d6000803e3d6000fd5b505050505b80602001516001600160a01b0316634ca334e28c6040518263ffffffff1660e01b815260040162000c91919062002572565b600060405180830381600087803b15801562000cac57600080fd5b505af115801562000cc1573d6000803e3d6000fd5b505050507fd4051b956164a3a4af1ab93acb039acf029149f97597ef38cce8974d7898a3e581602001518c60405162000cfc929190620024f8565b60405180910390a1505050505050505050505050565b32600081815260076020526040808220546001600160a01b0380861684529190922054849392600292908116911662000d4a62001f07565b60405163045ccd2960e21b81526001600160a01b0384169063117334a49062000d7a9089908690600401620024ab565b6040805180830381600087803b15801562000d9457600080fd5b505af115801562000da9573d6000803e3d6000fd5b505050506040513d601f19601f8201168201806040525062000dcf91908101906200224d565b6001600160a01b031660208301521515815262000deb62001f07565b60405163045ccd2960e21b81526001600160a01b0384169063117334a49062000e1b9089908890600401620024ab565b6040805180830381600087803b15801562000e3557600080fd5b505af115801562000e4a573d6000803e3d6000fd5b505050506040513d601f19601f8201168201806040525062000e7091908101906200224d565b6001600160a01b03166020830152151581528151801562000f20575084600381111562000e9957fe5b82602001516001600160a01b0316634e69d5606040518163ffffffff1660e01b815260040160206040518083038186803b15801562000ed757600080fd5b505afa15801562000eec573d6000803e3d6000fd5b505050506040513d601f19601f8201168201806040525062000f129190810190620022a3565b600381111562000f1e57fe5b145b8062000fc557508051801562000fc5575084600381111562000f3e57fe5b81602001516001600160a01b0316634e69d5606040518163ffffffff1660e01b815260040160206040518083038186803b15801562000f7c57600080fd5b505afa15801562000f91573d6000803e3d6000fd5b505050506040513d601f19601f8201168201806040525062000fb79190810190620022a3565b600381111562000fc357fe5b145b62000fcf57600080fd5b32600090815260076020526040808220546001600160a01b038b81168452919092205491811691166200100162001f07565b60405163045ccd2960e21b81526001600160a01b0384169063117334a49062001031908e908690600401620024ab565b6040805180830381600087803b1580156200104b57600080fd5b505af115801562001060573d6000803e3d6000fd5b505050506040513d601f19601f820116820180604052506200108691908101906200224d565b6001600160a01b03166020830152158015808352906200112a5750600181602001516001600160a01b0316634e69d5606040518163ffffffff1660e01b815260040160206040518083038186803b158015620010e157600080fd5b505afa158015620010f6573d6000803e3d6000fd5b505050506040513d601f19601f820116820180604052506200111c9190810190620022a3565b60038111156200112857fe5b145b156200113957505050620012a6565b80516200120c576020810151604051632e69ec6d60e11b81526001600160a01b03851691635cd3d8da9162001172919060040162002595565b600060405180830381600087803b1580156200118d57600080fd5b505af1158015620011a2573d6000803e3d6000fd5b5050506020820151604051632e69ec6d60e11b81526001600160a01b0385169250635cd3d8da91620011d79160040162002595565b600060405180830381600087803b158015620011f257600080fd5b505af115801562001207573d6000803e3d6000fd5b505050505b80602001516001600160a01b0316632e49d78b60016040518263ffffffff1660e01b81526004016200123f9190620025a5565b600060405180830381600087803b1580156200125a57600080fd5b505af11580156200126f573d6000803e3d6000fd5b5050505060008051602062005f3b833981519152816020015160016040516200129a9291906200251c565b60405180910390a15050505b5050505050505050565b32600081815260036020526040902054606091906001600160a01b0316811480620012f557506001600160a01b03808216600081815260046020526040902054909116145b620012ff57600080fd5b32600090815260066020526040808220548151636d2934d360e11b815291516001600160a01b0390911692606092849263da5269a692600480840193919291829003018186803b1580156200135357600080fd5b505afa15801562001368573d6000803e3d6000fd5b505050506040513d6000823e601f3d908101601f19168201604052620013929190810190620021f4565b935050505090565b326000818152600360205260408120549091906001600160a01b0316811480620013de57506001600160a01b03808216600081815260046020526040902054909116145b620013e857600080fd5b5050326000908152600760205260409020546001600160a01b031690565b6000546001600160a01b031690565b60005460609032906001600160a01b03168114806200144e57506001600160a01b03808216600081815260036020526040902054909116145b806200147457506001600160a01b03808216600081815260046020526040902054909116145b6200147e57600080fd5b6001600160a01b03808416600090815260076020526040908190205490516308d78d9160e31b815291169081906346bc6c8890620014c290600190600401620025a5565b60006040518083038186803b158015620014db57600080fd5b505afa158015620014f0573d6000803e3d6000fd5b505050506040513d6000823e601f3d908101601f191682016040526200151a9190810190620021f4565b949350505050565b806001600160a01b0316637b0f9a366040518163ffffffff1660e01b815260040160206040518083038186803b1580156200155c57600080fd5b505afa15801562001571573d6000803e3d6000fd5b505050506040513d601f19601f82011682018060405250620015979190810190620020fa565b326001600160a01b03821614620015ad57600080fd5b816001600160a01b031663ea8a1af06040518163ffffffff1660e01b8152600401600060405180830381600087803b158015620015e957600080fd5b505af1158015620015fe573d6000803e3d6000fd5b505050505050565b60055490565b32600081815260076020526040808220546001600160a01b038086168452919092205484939260019290811691166200164462001f07565b60405163045ccd2960e21b81526001600160a01b0384169063117334a490620016749089908690600401620024ab565b6040805180830381600087803b1580156200168e57600080fd5b505af1158015620016a3573d6000803e3d6000fd5b505050506040513d601f19601f82011682018060405250620016c991908101906200224d565b6001600160a01b0316602083015215158152620016e562001f07565b60405163045ccd2960e21b81526001600160a01b0384169063117334a490620017159089908890600401620024ab565b6040805180830381600087803b1580156200172f57600080fd5b505af115801562001744573d6000803e3d6000fd5b505050506040513d601f19601f820116820180604052506200176a91908101906200224d565b6001600160a01b0316602083015215158152815180156200181a57508460038111156200179357fe5b82602001516001600160a01b0316634e69d5606040518163ffffffff1660e01b815260040160206040518083038186803b158015620017d157600080fd5b505afa158015620017e6573d6000803e3d6000fd5b505050506040513d601f19601f820116820180604052506200180c9190810190620022a3565b60038111156200181857fe5b145b80620018bf575080518015620018bf57508460038111156200183857fe5b81602001516001600160a01b0316634e69d5606040518163ffffffff1660e01b815260040160206040518083038186803b1580156200187657600080fd5b505afa1580156200188b573d6000803e3d6000fd5b505050506040513d601f19601f82011682018060405250620018b19190810190620022a3565b6003811115620018bd57fe5b145b620018c957600080fd5b32600090815260066020526040808220546001600160a01b038b8116845291909220549181169116620018fb62001f07565b604051635248a62760e11b81526001600160a01b0384169063a4914c4e906200192b908e908690600401620024ab565b6040805180830381600087803b1580156200194557600080fd5b505af11580156200195a573d6000803e3d6000fd5b505050506040513d601f19601f820116820180604052506200198091908101906200224d565b6001600160a01b03166020830152151580825262001a6457602081015160405163215aee7360e21b81526001600160a01b0385169163856bb9cc91620019ca919060040162002595565b600060405180830381600087803b158015620019e557600080fd5b505af1158015620019fa573d6000803e3d6000fd5b505050602082015160405163215aee7360e21b81526001600160a01b038516925063856bb9cc9162001a2f9160040162002595565b600060405180830381600087803b15801562001a4a57600080fd5b505af115801562001a5f573d6000803e3d6000fd5b505050505b80602001516001600160a01b031663f998292a8d6040518263ffffffff1660e01b815260040162001a969190620025b5565b600060405180830381600087803b15801562001ab157600080fd5b505af115801562001ac6573d6000803e3d6000fd5b505050507fee282a0323baa12981fd5ba7a2392b736e8bf63a42d85e260f4708d8b8880c3581602001518d60405162000cfc9291906200253b565b6000546001600160a01b031632811462001b1a57600080fd5b600083833060405162001b2d9062001f2c565b62001b3b93929190620024ca565b604051809103906000f08015801562001b58573d6000803e3d6000fd5b506001600160a01b03948516600090815260076020526040902080546001600160a01b0319169190951617909355505050565b326000818152600360205260408120549091906001600160a01b031681148062001bcf57506001600160a01b03808216600081815260046020526040902054909116145b62001bd957600080fd5b5050326000908152600660205260409020546001600160a01b031690565b6000546001600160a01b031632811462001c1057600080fd5b62001c3a82604051806040016040528060068152602001653237b1ba37b960d11b81525062001ecc565b1562001c8a576001600160a01b038316600081815260046020526040812080546001600160a01b03191690921790915562001c779084906200052e565b62001c8483600062001b01565b62001ccd565b6001600160a01b038316600081815260036020526040902080546001600160a01b031916909117905562001cc08360016200052e565b62001ccd83600162001b01565b505060058054600101905550565b60005460609032906001600160a01b031681148062001d1457506001600160a01b03808216600081815260036020526040902054909116145b8062001d3a57506001600160a01b03808216600081815260046020526040902054909116145b62001d4457600080fd5b6001600160a01b03808416600090815260076020526040908190205490516308d78d9160e31b815291169081906346bc6c8890620014c290600290600401620025a5565b600080546001600160a01b031632811462001da257600080fd5b6001600160a01b0380851660009081526006602052604090819020549051630255720f60e31b815291169081906312ab90789062001de590879060040162002572565b60206040518083038186803b15801562001dfe57600080fd5b505afa15801562001e13573d6000803e3d6000fd5b505050506040513d601f19601f8201168201806040525062001e3991908101906200222c565b95945050505050565b326000818152600460205260408120549091906001600160a01b0316811462001e6a57600080fd5b600191505090565b6000805b600281101562001ec057826001600160a01b031684826002811062001e9757fe5b60200201516001600160a01b0316141562001eb757600191505062001ec6565b60010162001e76565b50600090505b92915050565b600062001eda838362001ee1565b9392505050565b60008151835114801562001eda5750508051602091820120825192909101919091201490565b604080518082019091526000808252602082015290565b6124c8806200276c83390190565b6113078062004c3483390190565b803562001ec68162002722565b805162001ec68162002722565b600082601f83011262001f6657600080fd5b815162001f7d62001f7782620025ff565b620025d8565b9150818183526020840193506020810190508385602084028201111562001fa357600080fd5b60005b8381101562001fd3578162001fbc888262001f47565b845250602092830192919091019060010162001fa6565b5050505092915050565b600082601f83011262001fef57600080fd5b81356200200062001f7782620025ff565b81815260209384019390925082018360005b8381101562001fd357813586016200202b888262002083565b845250602092830192919091019060010162002012565b805162001ec68162002739565b803562001ec68162002744565b805162001ec68162002744565b803562001ec6816200274f565b805162001ec6816200275d565b600082601f8301126200209557600080fd5b8135620020a662001f778262002620565b91508082526020830160208301858383011115620020c357600080fd5b620020d0838284620026c0565b50505092915050565b600060208284031215620020ec57600080fd5b60006200151a848462001f3a565b6000602082840312156200210d57600080fd5b60006200151a848462001f47565b600080604083850312156200212f57600080fd5b60006200213d858562001f3a565b92505060208301356001600160401b038111156200215a57600080fd5b620021688582860162001fdd565b9150509250929050565b600080604083850312156200218657600080fd5b600062002194858562001f3a565b9250506020620021688582860162002069565b60008060408385031215620021bb57600080fd5b6000620021c9858562001f3a565b92505060208301356001600160401b03811115620021e657600080fd5b620021688582860162002083565b6000602082840312156200220757600080fd5b81516001600160401b038111156200221e57600080fd5b6200151a8482850162001f54565b6000602082840312156200223f57600080fd5b60006200151a848462002042565b600080604083850312156200226157600080fd5b60006200226f858562002042565b925050602062002168858286016200205c565b6000602082840312156200229557600080fd5b60006200151a84846200204f565b600060208284031215620022b657600080fd5b60006200151a848462002076565b60008060408385031215620022d857600080fd5b82356001600160401b03811115620022ef57600080fd5b620022fd8582860162002083565b9250506020620021688582860162001f3a565b60006200231e838362002334565b505060200190565b600062001eda838362002450565b6200233f816200265b565b82525050565b600062002352826200264e565b6200235e818562002652565b93506200236b8362002648565b8060005b838110156200239f57815162002386888262002310565b9750620023938362002648565b9250506001016200236f565b509495945050505050565b6000620023b7826200264e565b620023c3818562002652565b935083602082028501620023d78562002648565b8060005b85811015620024175784840389528151620023f7858262002326565b9450620024048362002648565b60209a909a0199925050600101620023db565b5091979650505050505050565b6200233f8162002668565b6200233f816200266d565b6200233f81620026a6565b6200233f81620026b3565b60006200245d826200264e565b62002469818562002652565b93506200247b818560208601620026cc565b6200248681620026ff565b9093019392505050565b6200233f81620026a3565b6020810162001ec6828462002334565b60408101620024bb828562002334565b62001eda60208301846200242f565b60608101620024da828662002334565b620024e960208301856200243a565b6200151a604083018462002334565b6040810162002508828562002334565b81810360208301526200151a8184620023aa565b604081016200252c828562002334565b62001eda602083018462002445565b604081016200254b828562002334565b81810360208301526200151a818462002450565b6020808252810162001eda818462002345565b6020808252810162001eda8184620023aa565b6020810162001ec6828462002424565b6020810162001ec682846200242f565b6020810162001ec6828462002445565b6020808252810162001eda818462002450565b6020810162001ec6828462002490565b6040518181016001600160401b0381118282101715620025f757600080fd5b604052919050565b60006001600160401b038211156200261657600080fd5b5060209081020190565b60006001600160401b038211156200263757600080fd5b506020601f91909101601f19160190565b60200190565b5190565b90815260200190565b600062001ec68262002697565b151590565b600062001ec6826200265b565b80620026868162002709565b919050565b80620026868162002717565b6001600160a01b031690565b90565b600062001ec6826200267a565b600062001ec6826200268b565b82818337506000910152565b60005b83811015620026e9578181015183820152602001620026cf565b83811115620026f9576000848401525b50505050565b601f01601f191690565b600381106200271457fe5b50565b600481106200271457fe5b6200272d816200265b565b81146200271457600080fd5b6200272d8162002668565b6200272d816200266d565b600381106200271457600080fd5b600481106200271457600080fdfe60806040523480156200001157600080fd5b50604051620024c8380380620024c88339810160408190526200003491620000af565b600080546001600160a01b038084166001600160a01b03199283161790925560018054928616929091169190911780825583919060ff60a01b1916600160a01b8360028111156200008157fe5b02179055505050506200013d565b80516200009c8162000115565b92915050565b80516200009c816200012f565b600080600060608486031215620000c557600080fd5b6000620000d386866200008f565b9350506020620000e686828701620000a2565b9250506040620000f9868287016200008f565b9150509250925092565b60006001600160a01b0382166200009c565b620001208162000103565b81146200012c57600080fd5b50565b600381106200012c57600080fd5b61237b806200014d6000396000f3fe60806040523480156200001157600080fd5b50600436106200005e5760003560e01c806312ab90781462000063578063856bb9cc1462000092578063893d20e814620000ab578063a4914c4e14620000c4578063da5269a614620000eb575b600080fd5b6200007a620000743660046200090f565b62000104565b60405162000089919062000ab6565b60405180910390f35b620000a9620000a33660046200097f565b6200023b565b005b620000b5620002f3565b60405162000089919062000a4d565b620000db620000d5366004620008d0565b62000302565b6040516200008992919062000ac6565b620000f56200059c565b60405162000089919062000aa3565b6001546000906001600160a01b03163214806200012b57506000546001600160a01b031633145b6200013557600080fd5b6000600154600160a01b900460ff1660028111156200015057fe5b1415620002365760006060815b6002548110156200022e57600281815481106200017657fe5b600091825260208220015460408051632055980f60e11b815290516001600160a01b03909216926340ab301e92600480840193829003018186803b158015620001be57600080fd5b505afa158015620001d3573d6000803e3d6000fd5b505050506040513d6000823e601f3d908101601f19168201604052620001fd919081019062000947565b91506200020b828662000619565b855193019283141562000225576001935050505062000236565b6001016200015d565b506000925050505b919050565b6001546001600160a01b03163214806200025f57506000546001600160a01b031633145b6200026957600080fd5b600280546001810182556000919091527f405787fa12a823e0f2b7631cc41b3ba8828b3321ca811111fa75cd3aa3bb5ace0180546001600160a01b0319166001600160a01b03831617905560405130907f1398fb997798573a4f33a35360688747a7eb90249ab5cec65da9e5b1945ecdae90620002e890849062000a4d565b60405180910390a250565b6001546001600160a01b031690565b60015460009081906001600160a01b031632146200031f57600080fd5b6000600154600160a01b900460ff1660028111156200033a57fe5b14156200049c5760005b6002548110156200043757846001600160a01b0316600282815481106200036757fe5b6000918252602091829020015460408051633d87cd1b60e11b815290516001600160a01b0390921692637b0f9a3692600480840193829003018186803b158015620003b157600080fd5b505afa158015620003c6573d6000803e3d6000fd5b505050506040513d601f19601f82011682018060405250620003ec9190810190620008a7565b6001600160a01b031614156200042e576001600282815481106200040c57fe5b6000918252602090912001549093506001600160a01b03169150620005959050565b60010162000344565b50600084600160009054906101000a90046001600160a01b031685306040516200046190620006f5565b62000470949392919062000a5d565b604051809103906000f0801580156200048d573d6000803e3d6000fd5b50600093509150620005959050565b60005b6002548110156200057057846001600160a01b031660028281548110620004c257fe5b60009182526020918290200154604080516301d552c960e51b815290516001600160a01b0390921692633aaa592092600480840193829003018186803b1580156200050c57600080fd5b505afa15801562000521573d6000803e3d6000fd5b505050506040513d601f19601f82011682018060405250620005479190810190620008a7565b6001600160a01b0316141562000567576001600282815481106200040c57fe5b6001016200049f565b506001546040516000916001600160a01b0316908690309087906200046190620006f5565b9250929050565b6001546060906001600160a01b03163214620005b757600080fd5b60028054806020026020016040519081016040528092919081815260200182805480156200060f57602002820191906000526020600020905b81546001600160a01b03168152600190910190602001808311620005f0575b5050505050905090565b600080805b83518110156200065e5762000648858583815181106200063a57fe5b602002602001015162000668565b1562000655576001820191505b6001016200061e565b5090505b92915050565b6000805b8351811015620006b057620006968482815181106200068757fe5b602002602001015184620006ba565b15620006a757600191505062000662565b6001016200066c565b5060009392505050565b6000620006c88383620006cf565b9392505050565b600081518351148015620006c85750508051602091820120825192909101919091201490565b6117348062000c0583390190565b8051620006628162000bdf565b8035620006628162000bdf565b600082601f8301126200072f57600080fd5b813562000746620007408262000b0c565b62000ae5565b81815260209384019390925082018360005b8381101562000788578135860162000771888262000804565b845250602092830192919091019060010162000758565b5050505092915050565b600082601f830112620007a457600080fd5b8151620007b5620007408262000b0c565b81815260209384019390925082018360005b83811015620007885781518601620007e088826200085a565b8452506020928301929190910190600101620007c7565b8035620006628162000bf9565b600082601f8301126200081657600080fd5b813562000827620007408262000b2d565b915080825260208301602083018583830111156200084457600080fd5b6200085183828462000ba0565b50505092915050565b600082601f8301126200086c57600080fd5b81516200087d620007408262000b2d565b915080825260208301602083018583830111156200089a57600080fd5b6200085183828462000bac565b600060208284031215620008ba57600080fd5b6000620008c8848462000703565b949350505050565b60008060408385031215620008e457600080fd5b6000620008f2858562000710565b92505060206200090585828601620007f7565b9150509250929050565b6000602082840312156200092257600080fd5b81356001600160401b038111156200093957600080fd5b620008c8848285016200071d565b6000602082840312156200095a57600080fd5b81516001600160401b038111156200097157600080fd5b620008c88482850162000792565b6000602082840312156200099257600080fd5b6000620008c88484620007f7565b6000620009ae8383620009c7565b505060200190565b620009c18162000b93565b82525050565b620009c18162000b68565b6000620009df8262000b5b565b620009eb818562000b5f565b9350620009f88362000b55565b8060005b8381101562000a2c57815162000a138882620009a0565b975062000a208362000b55565b925050600101620009fc565b509495945050505050565b620009c18162000b75565b620009c18162000b7a565b60208101620006628284620009c7565b6080810162000a6d8287620009b6565b62000a7c6020830186620009c7565b62000a8b6040830185620009c7565b62000a9a6060830184620009c7565b95945050505050565b60208082528101620006c88184620009d2565b6020810162000662828462000a37565b6040810162000ad6828562000a37565b620006c8602083018462000a42565b6040518181016001600160401b038111828210171562000b0457600080fd5b604052919050565b60006001600160401b0382111562000b2357600080fd5b5060209081020190565b60006001600160401b0382111562000b4457600080fd5b506020601f91909101601f19160190565b60200190565b5190565b90815260200190565b6000620006628262000b87565b151590565b6000620006628262000b68565b6001600160a01b031690565b6000620006628262000b7a565b82818337506000910152565b60005b8381101562000bc957818101518382015260200162000baf565b8381111562000bd9576000848401525b50505050565b62000bea8162000b68565b811462000bf657600080fd5b50565b62000bea8162000b7a56fe60806040523480156200001157600080fd5b506040516200173438038062001734833981016040819052620000349162000117565b600280546001600160a01b038087166001600160a01b031992831617909255600380548684169083161790556000805484841690831617905560018054928516929091169190911790556040518490849030906200009290620000f6565b620000a09392919062000192565b604051809103906000f080158015620000bd573d6000803e3d6000fd5b50600480546001600160a01b0319166001600160a01b039290921691909117905550506003805460ff60a01b1916905550620001f49050565b61098c8062000da883390190565b80516200011181620001da565b92915050565b600080600080608085870312156200012e57600080fd5b60006200013c878762000104565b94505060206200014f8782880162000104565b9350506040620001628782880162000104565b9250506060620001758782880162000104565b91505092959194509250565b6200018c81620001c8565b82525050565b60608101620001a2828662000181565b620001b1602083018562000181565b620001c0604083018462000181565b949350505050565b60006001600160a01b03821662000111565b620001e581620001c8565b8114620001f157600080fd5b50565b610ba480620002046000396000f3fe608060405234801561001057600080fd5b50600436106100995760003560e01c8063321c48f21461009e578063370fcc20146100bc5780633aaa5920146100c457806340ab301e146100cc5780634ca334e2146100e15780634e69d560146100f65780637b0f9a361461010b578063aa43c93614610113578063bc307bb914610126578063ea8a1af01461012e578063f998292a14610136575b600080fd5b6100a6610149565b6040516100b391906109e4565b60405180910390f35b6100a66101b2565b6100a66101c1565b6100d461022a565b6040516100b39190610a03565b6100f46100ef3660046107f0565b610306565b005b6100fe6103c8565b6040516100b39190610a14565b6100a6610432565b6100f4610121366004610860565b61049b565b6100a661052f565b6100f461053e565b6100f461014436600461087e565b610628565b6001546000906001600160a01b031633148061016f57506000546001600160a01b031633145b8061018457506002546001600160a01b031632145b8061019957506003546001600160a01b031632145b6101a257600080fd5b506004546001600160a01b031690565b6000546001600160a01b031690565b6001546000906001600160a01b03163314806101e757506000546001600160a01b031633145b806101fc57506002546001600160a01b031632145b8061021157506003546001600160a01b031632145b61021a57600080fd5b506003546001600160a01b031690565b6001546060906001600160a01b031633148061025057506000546001600160a01b031633145b8061026557506002546001600160a01b031632145b8061027a57506003546001600160a01b031632145b61028357600080fd5b6004805460408051636e81a8a360e01b815290516001600160a01b0390921692636e81a8a3928282019260009290829003018186803b1580156102c557600080fd5b505afa1580156102d9573d6000803e3d6000fd5b505050506040513d6000823e601f3d908101601f19168201604052610301919081019061082c565b905090565b6002546001600160a01b0316321461031d57600080fd5b6003805460ff60a01b1916600160a11b179055600480546040516326519a7160e11b81526001600160a01b0390911691634ca334e29161035f91859101610a03565b600060405180830381600087803b15801561037957600080fd5b505af115801561038d573d6000803e3d6000fd5b5050600354604051309350600080516020610b4283398151915292506103bd91600160a01b900460ff1690610a14565b60405180910390a250565b6001546000906001600160a01b03163314806103ee57506000546001600160a01b031633145b8061040357506002546001600160a01b031632145b8061041857506003546001600160a01b031632145b61042157600080fd5b50600354600160a01b900460ff1690565b6001546000906001600160a01b031633148061045857506000546001600160a01b031633145b8061046d57506002546001600160a01b031632145b8061048257506003546001600160a01b031632145b61048b57600080fd5b506002546001600160a01b031690565b6002546001600160a01b031632146104b257600080fd5b60018160048111156104c057fe5b14806104d7575060028160048111156104d557fe5b145b1561052c576003805482919060ff60a01b1916600160a01b8360048111156104fb57fe5b02179055506003546040513091600080516020610b42833981519152916103bd91600160a01b900460ff1690610a14565b50565b6001546001600160a01b031690565b6002546001600160a01b0316321461055557600080fd5b6003805460ff60a01b1916600160a21b179055600454604080516000808252602082019092526001600160a01b0390921691634ca334e2916105a7565b60608152602001906001900390816105925790505b506040518263ffffffff1660e01b81526004016105c491906109f2565b600060405180830381600087803b1580156105de57600080fd5b505af11580156105f2573d6000803e3d6000fd5b50505050306001600160a01b0316600080516020610b42833981519152600460405161061e9190610a14565b60405180910390a2565b6003546001600160a01b0316321461063f57600080fd5b6003805460ff60a01b1916600360a01b179055600480546040516303f0622760e41b81526001600160a01b0390911691633f0622709161035f91859101610a22565b600082601f83011261069257600080fd5b81356106a56106a082610a59565b610a33565b81815260209384019390925082018360005b838110156106e357813586016106cd888261075b565b84525060209283019291909101906001016106b7565b5050505092915050565b600082601f8301126106fe57600080fd5b815161070c6106a082610a59565b81815260209384019390925082018360005b838110156106e3578151860161073488826107aa565b845250602092830192919091019060010161071e565b803561075581610b34565b92915050565b600082601f83011261076c57600080fd5b813561077a6106a082610a79565b9150808252602083016020830185838301111561079657600080fd5b6107a1838284610ae4565b50505092915050565b600082601f8301126107bb57600080fd5b81516107c96106a082610a79565b915080825260208301602083018583830111156107e557600080fd5b6107a1838284610af0565b60006020828403121561080257600080fd5b81356001600160401b0381111561081857600080fd5b61082484828501610681565b949350505050565b60006020828403121561083e57600080fd5b81516001600160401b0381111561085457600080fd5b610824848285016106ed565b60006020828403121561087257600080fd5b6000610824848461074a565b60006020828403121561089057600080fd5b81356001600160401b038111156108a657600080fd5b6108248482850161075b565b60006108be83836109ac565b9392505050565b6108ce81610ab3565b82525050565b60006108df82610aa6565b6108e98185610aaa565b9350836020820285016108fb85610aa0565b8060005b85811015610935578484038952815161091885826108b2565b945061092383610aa0565b60209a909a01999250506001016108ff565b5091979650505050505050565b600061094d82610aa6565b6109578185610aaa565b93508360208202850161096985610aa0565b8060005b85811015610935578484038952815161098685826108b2565b945061099183610aa0565b60209a909a019992505060010161096d565b6108ce81610ad9565b60006109b782610aa6565b6109c18185610aaa565b93506109d1818560208601610af0565b6109da81610b20565b9093019392505050565b6020810161075582846108c5565b602080825281016108be8184610942565b602080825281016108be81846108d4565b6020810161075582846109a3565b602080825281016108be81846109ac565b6040518181016001600160401b0381118282101715610a5157600080fd5b604052919050565b60006001600160401b03821115610a6f57600080fd5b5060209081020190565b60006001600160401b03821115610a8f57600080fd5b506020601f91909101601f19160190565b60200190565b5190565b90815260200190565b600061075582610acd565b80610ac881610b2a565b919050565b6001600160a01b031690565b600061075582610abe565b82818337506000910152565b60005b83811015610b0b578181015183820152602001610af3565b83811115610b1a576000848401525b50505050565b601f01601f191690565b6005811061052c57fe5b6005811061052c57600080fdfe7004293283c83e944feedfe102d317947bdd62fdffaa93c44ab95e20b426befda365627a7a72315820f6ba455c707ee49ee73d2006fc8224a4a6e2f0e504c2f5d123e7e2e774428bb96c6578706572696d656e74616cf564736f6c63430005110040608060405234801561001057600080fd5b5060405161098c38038061098c83398101604081905261002f91610148565b600180546001600160a01b038086166001600160a01b031992831617909255600280548584169083161790556000805492841692909116919091178155604080516020810191829052829052610088916005919061009c565b50506006805460ff19169055506101bd9050565b828054600181600116156101000203166002900490600052602060002090601f016020900481019282601f106100dd57805160ff191683800117855561010a565b8280016001018555821561010a579182015b8281111561010a5782518255916020019190600101906100ef565b5061011692915061011a565b5090565b61013491905b808211156101165760008155600101610120565b90565b8051610142816101a6565b92915050565b60008060006060848603121561015d57600080fd5b60006101698686610137565b935050602061017a86828701610137565b925050604061018b86828701610137565b9150509250925092565b60006001600160a01b038216610142565b6101af81610195565b81146101ba57600080fd5b50565b6107c0806101cc6000396000f3fe608060405234801561001057600080fd5b50600436106100575760003560e01c80630f399a411461005c5780633f0622701461007a57806340a4895c1461008f5780634ca334e2146100a45780636e81a8a3146100b7575b600080fd5b6100646100cc565b6040516100719190610670565b60405180910390f35b61008d610088366004610574565b6100dc565b005b61009761010a565b6040516100719190610695565b61008d6100b2366004610538565b6101de565b6100bf610208565b6040516100719190610684565b6000546001600160a01b03165b90565b6002546001600160a01b031632146100f357600080fd5b8051610106906005906020840190610322565b5050565b6000546060906001600160a01b031633148061013057506002546001600160a01b031632145b8061014557506001546001600160a01b031632145b61014e57600080fd5b6005805460408051602060026001851615610100026000190190941693909304601f810184900484028201840190925281815292918301828280156101d45780601f106101a9576101008083540402835291602001916101d4565b820191906000526020600020905b8154815290600101906020018083116101b757829003601f168201915b5050505050905090565b6001546001600160a01b031632146101f557600080fd5b80516101069060049060208401906103a0565b6000546060906001600160a01b031633148061022e57506002546001600160a01b031632145b8061024357506001546001600160a01b031632145b61024c57600080fd5b6004805480602002602001604051908101604052809291908181526020016000905b828210156103195760008481526020908190208301805460408051601f60026000196101006001871615020190941693909304928301859004850281018501909152818152928301828280156103055780601f106102da57610100808354040283529160200191610305565b820191906000526020600020905b8154815290600101906020018083116102e857829003601f168201915b50505050508152602001906001019061026e565b50505050905090565b828054600181600116156101000203166002900490600052602060002090601f016020900481019282601f1061036357805160ff1916838001178555610390565b82800160010185558215610390579182015b82811115610390578251825591602001919060010190610375565b5061039c9291506103f9565b5090565b8280548282559060005260206000209081019282156103ed579160200282015b828111156103ed57825180516103dd918491602090910190610322565b50916020019190600101906103c0565b5061039c929150610413565b6100d991905b8082111561039c57600081556001016103ff565b6100d991905b8082111561039c57600061042d8282610436565b50600101610419565b50805460018160011615610100020316600290046000825580601f1061045c575061047a565b601f01602090049060005260206000209081019061047a91906103f9565b50565b600082601f83011261048e57600080fd5b81356104a161049c826106cc565b6106a6565b81815260209384019390925082018360005b838110156104df57813586016104c988826104e9565b84525060209283019291909101906001016104b3565b5050505092915050565b600082601f8301126104fa57600080fd5b813561050861049c826106ec565b9150808252602083016020830185838301111561052457600080fd5b61052f838284610737565b50505092915050565b60006020828403121561054a57600080fd5b81356001600160401b0381111561056057600080fd5b61056c8482850161047d565b949350505050565b60006020828403121561058657600080fd5b81356001600160401b0381111561059c57600080fd5b61056c848285016104e9565b60006105b48383610638565b9392505050565b6105c481610726565b82525050565b60006105d582610719565b6105df818561071d565b9350836020820285016105f185610713565b8060005b8581101561062b578484038952815161060e85826105a8565b945061061983610713565b60209a909a01999250506001016105f5565b5091979650505050505050565b600061064382610719565b61064d818561071d565b935061065d818560208601610743565b61066681610773565b9093019392505050565b6020810161067e82846105bb565b92915050565b602080825281016105b481846105ca565b602080825281016105b48184610638565b6040518181016001600160401b03811182821017156106c457600080fd5b604052919050565b60006001600160401b038211156106e257600080fd5b5060209081020190565b60006001600160401b0382111561070257600080fd5b506020601f91909101601f19160190565b60200190565b5190565b90815260200190565b60006001600160a01b03821661067e565b82818337506000910152565b60005b8381101561075e578181015183820152602001610746565b8381111561076d576000848401525b50505050565b601f01601f19169056fea365627a7a72315820c94371dfeb79c83199e4ed734211d281f3f80ab7af0a5224cabd9d17b9bb431e6c6578706572696d656e74616cf564736f6c63430005110040a365627a7a7231582044787be73a5b4f983ee46e81cdc4d341d830887d979b0462d931ea303c9f08fd6c6578706572696d656e74616cf564736f6c63430005110040608060405260c86002553480156200001657600080fd5b5060405162001307380380620013078339810160408190526200003991620000b4565b600080546001600160a01b038084166001600160a01b03199283161790925560038054928616929091169190911780825583919060ff60a01b1916600160a01b8360028111156200008657fe5b021790555050505062000142565b8051620000a1816200011a565b92915050565b8051620000a18162000134565b600080600060608486031215620000ca57600080fd5b6000620000d8868662000094565b9350506020620000eb86828701620000a7565b9250506040620000fe8682870162000094565b9150509250925092565b60006001600160a01b038216620000a1565b620001258162000108565b81146200013157600080fd5b50565b600381106200013157600080fd5b6111b580620001526000396000f3fe60806040523480156200001157600080fd5b50600436106200005e5760003560e01c8063117334a41462000063578063122b2b5a146200009357806346bc6c8814620000ac5780635cd3d8da14620000d2578063893d20e814620000eb575b600080fd5b6200007a62000074366004620009bd565b62000104565b6040516200008a92919062000c21565b60405180910390f35b6200009d620003c3565b6040516200008a919062000c0e565b620000c3620000bd36600462000a1d565b62000440565b6040516200008a919062000bf4565b620000e9620000e3366004620009fc565b62000759565b005b620000f562000826565b6040516200008a919062000b7f565b60035460009081906001600160a01b03163214806200012d57506000546001600160a01b031633145b6200013757600080fd5b6000600354600160a01b900460ff1660028111156200015257fe5b1415620002af5760005b6004548110156200024f57846001600160a01b0316600482815481106200017f57fe5b6000918252602091829020015460408051633d87cd1b60e11b815290516001600160a01b0390921692637b0f9a3692600480840193829003018186803b158015620001c957600080fd5b505afa158015620001de573d6000803e3d6000fd5b505050506040513d601f19601f8201168201806040525062000204919081019062000994565b6001600160a01b0316141562000246576001600482815481106200022457fe5b6000918252602090912001549093506001600160a01b03169150620003bc9050565b6001016200015c565b506003546040516000916001600160a01b03169086903090879062000274906200093f565b62000283949392919062000b8f565b604051809103906000f080158015620002a0573d6000803e3d6000fd5b50600093509150620003bc9050565b60005b6004548110156200038357846001600160a01b031660048281548110620002d557fe5b60009182526020918290200154604080516301d552c960e51b815290516001600160a01b0390921692633aaa592092600480840193829003018186803b1580156200031f57600080fd5b505afa15801562000334573d6000803e3d6000fd5b505050506040513d601f19601f820116820180604052506200035a919081019062000994565b6001600160a01b031614156200037a576001600482815481106200022457fe5b600101620002b2565b50600084600360009054906101000a90046001600160a01b03168530604051620003ad906200093f565b62000283949392919062000bd5565b9250929050565b6003546060906001600160a01b03163214620003de57600080fd5b60048054806020026020016040519081016040528092919081815260200182805480156200043657602002820191906000526020600020905b81546001600160a01b0316815260019091019060200180831162000417575b5050505050905090565b6003546060906001600160a01b03163214806200046757506000546001600160a01b031633145b6200047157600080fd5b60006200047e8362000835565b9050606081604051908082528060200260200182016040528015620004ad578160200160208202803883390190505b5090506000805b6004548110156200074d57856003811115620004cc57fe5b60048281548110620004da57fe5b60009182526020918290200154604080516302734eab60e51b815290516001600160a01b0390921692634e69d56092600480840193829003018186803b1580156200052457600080fd5b505afa15801562000539573d6000803e3d6000fd5b505050506040513d601f19601f820116820180604052506200055f919081019062000a3e565b60038111156200056b57fe5b141562000744576000600354600160a01b900460ff1660028111156200058d57fe5b14156200065b5760048181548110620005a257fe5b6000918252602091829020015460408051633d87cd1b60e11b815290516001600160a01b0390921692637b0f9a3692600480840193829003018186803b158015620005ec57600080fd5b505afa15801562000601573d6000803e3d6000fd5b505050506040513d601f19601f8201168201806040525062000627919081019062000994565b8383815181106200063457fe5b60200260200101906001600160a01b031690816001600160a01b0316815250506001820191505b6001600354600160a01b900460ff1660028111156200067657fe5b14156200074457600481815481106200068b57fe5b60009182526020918290200154604080516301d552c960e51b815290516001600160a01b0390921692633aaa592092600480840193829003018186803b158015620006d557600080fd5b505afa158015620006ea573d6000803e3d6000fd5b505050506040513d601f19601f8201168201806040525062000710919081019062000994565b8383815181106200071d57fe5b60200260200101906001600160a01b031690816001600160a01b0316815250506001820191505b600101620004b4565b5090925050505b919050565b6003546001600160a01b03163214806200077d57506000546001600160a01b031633145b6200078757600080fd5b600480546001810182556000919091527f8a35acfbc15ff81a39ae7d344fd709f28e8600b4aa8c65c6b64bfe7fe36bd19b0180546001600160a01b0319166001600160a01b03838116918217909255600354604051919281169130917f8a9208f2779a24d352064589ab804c990968f6b7568525cadfe439d89b47d1d7916200081b91600160a01b900460ff169062000c40565b60405180910390a450565b6003546001600160a01b031690565b6003546000906001600160a01b03163214806200085c57506000546001600160a01b031633145b6200086657600080fd5b6000805b60045481101562000938578360038111156200088257fe5b600482815481106200089057fe5b60009182526020918290200154604080516302734eab60e51b815290516001600160a01b0390921692634e69d56092600480840193829003018186803b158015620008da57600080fd5b505afa158015620008ef573d6000803e3d6000fd5b505050506040513d601f19601f8201168201806040525062000915919081019062000a3e565b60038111156200092157fe5b14156200092f576001820191505b6001016200086a565b5092915050565b6104808062000cf383390190565b80356200095a8162000cc2565b92915050565b80516200095a8162000cc2565b80356200095a8162000cd9565b80356200095a8162000ce4565b80516200095a8162000ce4565b600060208284031215620009a757600080fd5b6000620009b5848462000960565b949350505050565b60008060408385031215620009d157600080fd5b6000620009df85856200094d565b9250506020620009f2858286016200096d565b9150509250929050565b60006020828403121562000a0f57600080fd5b6000620009b584846200096d565b60006020828403121562000a3057600080fd5b6000620009b584846200097a565b60006020828403121562000a5157600080fd5b6000620009b5848462000987565b600062000a6d838362000a94565b505060200190565b600062000a6d838362000b69565b62000a8e8162000c9a565b82525050565b62000a8e8162000c63565b600062000aac8262000c56565b62000ab8818562000c5a565b935062000ac58362000c50565b8060005b8381101562000af957815162000ae0888262000a5f565b975062000aed8362000c50565b92505060010162000ac9565b509495945050505050565b600062000b118262000c56565b62000b1d818562000c5a565b935062000b2a8362000c50565b8060005b8381101562000af957815162000b45888262000a75565b975062000b528362000c50565b92505060010162000b2e565b62000a8e8162000c70565b62000a8e8162000c75565b62000a8e8162000ca7565b602081016200095a828462000a94565b6080810162000b9f828762000a83565b62000bae602083018662000a94565b62000bbd604083018562000a94565b62000bcc606083018462000a94565b95945050505050565b6080810162000be5828762000a94565b62000bae602083018662000a83565b6020808252810162000c07818462000a9f565b9392505050565b6020808252810162000c07818462000b04565b6040810162000c31828562000b5e565b62000c07602083018462000b69565b602081016200095a828462000b74565b60200190565b5190565b90815260200190565b60006200095a8262000c8e565b151590565b60006200095a8262000c63565b80620007548162000cb4565b6001600160a01b031690565b60006200095a8262000c75565b60006200095a8262000c82565b6003811062000cbf57fe5b50565b62000ccd8162000c63565b811462000cbf57600080fd5b62000ccd8162000c75565b6004811062000cbf57600080fdfe608060405234801561001057600080fd5b5060405161048038038061048083398101604081905261002f91610098565b600080546001600160a01b03199081166001600160a01b039687161790915560018054821694861694909417909355600280548416928516929092179091556003805460ff60a01b1993169190931617169055610121565b80516100928161010a565b92915050565b600080600080608085870312156100ae57600080fd5b60006100ba8787610087565b94505060206100cb87828801610087565b93505060406100dc87828801610087565b92505060606100ed87828801610087565b91505092959194509250565b60006001600160a01b038216610092565b610113816100f9565b811461011e57600080fd5b50565b610350806101306000396000f3fe608060405234801561001057600080fd5b50600436106100575760003560e01c80632e49d78b1461005c5780633aaa5920146100715780634e69d5601461008f5780637b0f9a36146100a4578063ea8a1af0146100ac575b600080fd5b61006f61006a366004610268565b6100b4565b005b610079610106565b60405161008691906102a6565b60405180910390f35b61009761016f565b60405161008691906102b4565b6100796101d9565b61006f610242565b6000546001600160a01b03163214806100d757506001546001600160a01b031632145b6100e057600080fd5b6003805482919060ff60a01b1916600160a01b83838111156100fe57fe5b021790555050565b6002546000906001600160a01b031633148061012c57506003546001600160a01b031633145b8061014157506000546001600160a01b031632145b8061015657506001546001600160a01b031632145b61015f57600080fd5b506000546001600160a01b031690565b6002546000906001600160a01b031633148061019557506003546001600160a01b031633145b806101aa57506000546001600160a01b031632145b806101bf57506001546001600160a01b031632145b6101c857600080fd5b50600354600160a01b900460ff1690565b6002546000906001600160a01b03163314806101ff57506003546001600160a01b031633145b8061021457506000546001600160a01b031632145b8061022957506001546001600160a01b031632145b61023257600080fd5b506001546001600160a01b031690565b6003805460ff60a01b1916600360a01b179055565b803561026281610300565b92915050565b60006020828403121561027a57600080fd5b60006102868484610257565b949350505050565b610297816102c2565b82525050565b610297816102e8565b60208101610262828461028e565b60208101610262828461029d565b6000610262826102dc565b806102d7816102f3565b919050565b6001600160a01b031690565b6000610262826102cd565b600481106102fd57fe5b50565b600481106102fd57600080fdfea365627a7a7231582037cb36c0ff0206e598d3bb174a2f8bba9023b6432aad19b2861b9df35e3f6cad6c6578706572696d656e74616cf564736f6c63430005110040a365627a7a72315820944b6ebba003251b6d79204fdd8f0244ab2b7d09ae2928c212758485af2ba50f6c6578706572696d656e74616cf564736f6c634300051100404c0f9a5e735f2b8219dc1fb00b8a79f722c42ba1d7085827fdd8318c90769271a365627a7a72315820e00213f84152f3213e10267483762b51e406f3e953a50616d32477ce8e1a67276c6578706572696d656e74616cf564736f6c63430005110040",
  "source": "  pragma solidity ^0.5.2;\r\n  pragma experimental ABIEncoderV2;\r\n  import \"./ConsentFile.sol\";\r\n  import \"./ConnectionFile.sol\";\r\n  import \"./Connection.sol\";\r\n  // /* \r\n  //  * This is the consent factory contract that handles consents and version of\r\n  //  * consents.\r\n  //  *\r\n  //  * It basically provides an interface to be able to create consents based on\r\n  //  * a specific purpouse for a specific user. And always using the latest version\r\n  //  * and always puts newly generated consents into a persons consent file.\r\n  //  *\r\n  //  */\r\n\r\n  contract ConsentManagementSystem {\r\n    \r\n    /* The owner of this contract */\r\n    address payable private owner;  /* Who owns this CMS*/\r\n    address private creator; /* Who created this CMS */\r\n    string  private company;  /* Company that created this CMS */\r\n    \r\n    enum Role {\r\n      doctor,\r\n      patient,\r\n      nominee\r\n    }\r\n\r\n    mapping(address => address) Patients;\r\n    mapping(address => address) Doctors;\r\n    \r\n    uint256 NumUsers = 0;\r\n\r\n    mapping(address => ConsentFile) UserToConsentFile;\r\n    mapping(address => ConnectionFile) UserToConnectionFile;\r\n\r\n    \r\n    /* Events generated when the consent has been created */\r\n    event CMSConnectionStatusEvent(address conn,Connection.Status status);\r\n    // event CMSConnectionStatusChangedEvent(address indexed factory, address indexed owner, address indexed user, Consent consent, Consent.Status status);\r\n    \r\n    event CMSConsentCreatedEvent(address consent,string[] Records);\r\n    event CMSConsentRequestedEvent(address consent,string desc);\r\n    // event CMSConsentStatusChangedEvent(address consent, Consent.Status oldStatus, Consent.Status newStatus);\r\n    \r\n    event CMSFileCreatedEvent(address indexed factory, address indexed owner, address indexed user, address file);\r\n    // event CMSFailedEvent(address indexed factory, address indexed owner, address indexed user, Error error);\r\n    \r\n\r\n    /* A modifier */\r\n    modifier onlyBy(address _account) \r\n    { \r\n      require(tx.origin == _account);\r\n      _;\r\n    }\r\n    \r\n    modifier AccountExists(address _account) {\r\n      require((Patients[_account] == _account) || (Doctors[_account] == _account));\r\n      _;\r\n    }\r\n\r\n    modifier PatientAccountExists(address _account)\r\n    {\r\n      require(Patients[_account] == _account);\r\n      _;\r\n    }\r\n\r\n    modifier DoctorAccountExists(address _account)\r\n    {\r\n      require(Doctors[_account] == _account);\r\n      _;\r\n    }\r\n\r\n    struct ConnDeets {\r\n      bool exists;\r\n      Connection Conn;\r\n    }\r\n\r\n    struct ConsentDeets {\r\n      bool exists;\r\n      Consent _consent;\r\n    }\r\n\r\n    modifier ConnectionStatusExists(address patient,address doctor,Connection.Status state) {\r\n      ConnectionFile DoctorConnectionFile = UserToConnectionFile[doctor];\r\n      ConnectionFile PatientConnectionFile = UserToConnectionFile[patient];\r\n\r\n      ConnDeets memory DocConn;\r\n      (DocConn.exists,DocConn.Conn) = DoctorConnectionFile.getAssociatedConnection(patient,PatientConnectionFile);\r\n      \r\n      ConnDeets memory PatConn;\r\n      (PatConn.exists,PatConn.Conn) = PatientConnectionFile.getAssociatedConnection(doctor,DoctorConnectionFile);\r\n      \r\n      require ( (DocConn.exists && DocConn.Conn.getStatus() == state) || \r\n                (PatConn.exists && PatConn.Conn.getStatus() == state) \r\n              );\r\n      _;\r\n    }\r\n    \r\n    \r\n    /* Constructor for the consent factory */\r\n    constructor (string memory _company) public\r\n    {\r\n      owner = tx.origin;\r\n      creator = msg.sender;\r\n      company = _company;\r\n    }\r\n    \r\n    function memcmp(bytes memory a, bytes memory b) internal pure returns(bool){\r\n      return (a.length == b.length) && (keccak256(a) == keccak256(b));\r\n    }\r\n    function strcmp(string memory a, string memory b) internal pure returns(bool){\r\n      return memcmp(bytes(a), bytes(b));\r\n    }\r\n\r\n    function AddNewUser(address payable _user,string memory role) onlyBy(owner) public {\r\n      if(strcmp(role,\"doctor\")) {\r\n        Doctors[_user] = _user;\r\n        createConsentFile(_user,ConsentFile.Role.doctor);\r\n        createConnectionFile(_user,ConnectionFile.Role.doctor);\r\n      }\r\n      else {\r\n        Patients[_user] = _user;\r\n        createConsentFile(_user,ConsentFile.Role.patient);\r\n        createConnectionFile(_user,ConnectionFile.Role.patient);\r\n      }\r\n      NumUsers += 1;\r\n    }\r\n\r\n    function NumOfUsers() public view returns(uint256) {\r\n      return NumUsers;\r\n    }\r\n\r\n    function DoctorExists() DoctorAccountExists(tx.origin) public view returns(bool){\r\n      return true;\r\n    }\r\n\r\n    function GetConsentFile() AccountExists(tx.origin) public view returns(ConsentFile) {\r\n      return UserToConsentFile[tx.origin];\r\n    }\r\n\r\n    function GetConnectionFile() AccountExists(tx.origin) public view returns(ConnectionFile) {\r\n      return UserToConnectionFile[tx.origin];\r\n    }\r\n\r\n    /* Create a file that holds a users all consents.\r\n    * \r\n    * This is the file that holds all consents regardless of their state. Should have a modifier for the company.\r\n    */\r\n    function createConsentFile(address payable _user,ConsentFile.Role role) onlyBy(owner) public\r\n    {\r\n      ConsentFile file = new ConsentFile(_user,role,address(this));\r\n      UserToConsentFile[_user] = file;\r\n      // emit CMSFileCreatedEvent(address(this), owner, _user, file);\r\n    }\r\n\r\n    function createConnectionFile(address payable _user,ConnectionFile.Role role) onlyBy(owner) public {\r\n      ConnectionFile file = new ConnectionFile(_user,role,address(this));\r\n      UserToConnectionFile[_user] = file;\r\n    }\r\n\r\n\r\n    \r\n\r\n    /* Create a consent for a specific purpouse of the latest version, language and country.\r\n    *\r\n    * Country and Purpouse must exist otherwise it will fail, if language is not there it will\r\n    * default to countrys default language if it exists otherwise it will fail. It adds\r\n    * the consent to the users file as well. Should have a modifier for the company only.\r\n    */\r\n\r\n    // \r\n    function requestConsent(string memory requestedDesc,address payable fromPatient) ConnectionStatusExists(fromPatient,tx.origin,Connection.Status.accepted) public{\r\n      ConsentFile DoctorConsentFile = UserToConsentFile[tx.origin];\r\n      ConsentFile PatientConsentFile = UserToConsentFile[fromPatient];\r\n\r\n      ConsentDeets memory _deets;\r\n      (_deets.exists,_deets._consent) = DoctorConsentFile.getAssociatedConsent(fromPatient,PatientConsentFile);\r\n      \r\n      if(!_deets.exists) {\r\n        DoctorConsentFile.addConsent(_deets._consent);\r\n        PatientConsentFile.addConsent(_deets._consent);\r\n      }\r\n      \r\n      _deets._consent.setRequestStatus(requestedDesc);\r\n      \r\n      emit CMSConsentRequestedEvent(address(_deets._consent),requestedDesc);\r\n    }\r\n\r\n    function GetConsents() AccountExists(tx.origin) public view returns(address[] memory) {\r\n      ConsentFile UserConsents = UserToConsentFile[tx.origin];\r\n      address[] memory _consents = UserConsents.getListOfConsents();\r\n      return _consents;\r\n    }\r\n\r\n    function createConsent(address payable _doctor, string[] memory records) ConnectionStatusExists(tx.origin,_doctor,Connection.Status.accepted) public\r\n    {\r\n\r\n      ConsentFile PatientConsentFile = UserToConsentFile[tx.origin];\r\n      ConsentFile DoctorConsentFile = UserToConsentFile[_doctor];\r\n\r\n      ConsentDeets memory _deets;\r\n      (_deets.exists,_deets._consent) = PatientConsentFile.getAssociatedConsent(_doctor,DoctorConsentFile);\r\n\r\n      if(!_deets.exists) {\r\n        PatientConsentFile.addConsent(_deets._consent);\r\n        DoctorConsentFile.addConsent(_deets._consent);\r\n      }\r\n\r\n      _deets._consent.setConsentedRecords(records);\r\n\r\n      \r\n      emit CMSConsentCreatedEvent(address(_deets._consent),records);\r\n\r\n    }\r\n\r\n    function ValidateRecordRequest(address doctor, string[] memory records) onlyBy(owner) public view returns(bool){\r\n      ConsentFile doctorConsentFile = UserToConsentFile[doctor];\r\n      return doctorConsentFile.RecordsExists(records);\r\n    }\r\n\r\n    function PatientCreateConnection(address doctor) PatientAccountExists(tx.origin) public {\r\n      ConnectionFile DoctorConnectionFile = UserToConnectionFile[doctor];\r\n      ConnectionFile PatientConnectionFile = UserToConnectionFile[tx.origin];\r\n\r\n      ConnDeets memory _deets;\r\n\r\n      (_deets.exists,_deets.Conn) = PatientConnectionFile.getAssociatedConnection(doctor,DoctorConnectionFile);\r\n\r\n      if(_deets.exists) {\r\n        return;\r\n      }\r\n      else {\r\n        DoctorConnectionFile.AddConnection(_deets.Conn);\r\n        PatientConnectionFile.AddConnection(_deets.Conn);\r\n\r\n        _deets.Conn.setStatus(Connection.Status.requested);\r\n      }\r\n      emit CMSConnectionStatusEvent(address(_deets.Conn),Connection.Status.requested);\r\n    }\r\n    \r\n    function DoctorAcceptConnection(address patient) ConnectionStatusExists(patient,tx.origin,Connection.Status.requested) public {\r\n      ConnectionFile DoctorConnectionFile = UserToConnectionFile[tx.origin];\r\n      ConnectionFile PatientConnectionFile = UserToConnectionFile[patient];\r\n\r\n      ConnDeets memory _deets;\r\n\r\n      (_deets.exists,_deets.Conn) = DoctorConnectionFile.getAssociatedConnection(patient,PatientConnectionFile);\r\n\r\n      if(_deets.exists && _deets.Conn.getStatus() == Connection.Status.accepted) {\r\n        return;\r\n      }\r\n      else {\r\n        if(!_deets.exists) {\r\n          DoctorConnectionFile.AddConnection(_deets.Conn);\r\n          PatientConnectionFile.AddConnection(_deets.Conn);\r\n        }\r\n\r\n        _deets.Conn.setStatus(Connection.Status.accepted);\r\n      }\r\n      \r\n      emit CMSConnectionStatusEvent(address(_deets.Conn),Connection.Status.accepted);\r\n    }\r\n    \r\n    \r\n    modifier AccountExistsOrValidator(address _account) \r\n    {\r\n      require((tx.origin == owner) || (Patients[_account] == _account) || (Doctors[_account] == _account));\r\n      _;\r\n    }\r\n\r\n    function GetReqestedConnections(address _account) AccountExistsOrValidator(tx.origin) public view returns(address[] memory) {\r\n      ConnectionFile file = UserToConnectionFile[_account];\r\n      return file.GetTypeConnections(Connection.Status.requested);\r\n    }\r\n\r\n    function GetAcceptedConnections(address _account) AccountExistsOrValidator(tx.origin) public view returns(address[] memory) {\r\n      ConnectionFile file = UserToConnectionFile[_account];\r\n      return file.GetTypeConnections(Connection.Status.accepted);\r\n    }\r\n\r\n    function CheckSubset(address[2] memory array,address addr) private pure returns(bool) {\r\n      for(uint i=0;i<array.length;i++) {\r\n        if(array[i] == addr) {\r\n          return true;\r\n        }\r\n      }\r\n      return false;\r\n    }\r\n    \r\n    modifier MultipleOnlyBy(address[2] memory accounts) {\r\n      require(CheckSubset(accounts,tx.origin) == true);\r\n      _;\r\n    }\r\n\r\n    function RevokeConnection(Connection _conn) MultipleOnlyBy([_conn.getPatient(),_conn.getDoctor()]) public {\r\n      _conn.cancel();\r\n      emit CMSConnectionStatusEvent(address(_conn),Connection.Status.cancelled);\r\n    }\r\n\r\n    // /* Cancel the consent */\r\n    function cancelConsent(Consent _consent) onlyBy(_consent.getPatient()) public\r\n    {\r\n      _consent.cancel();\r\n      // emit ConsentFactoryConsentStatusChangedEvent (address(this), _consent.getOwner(), _consent.getGiver(), _consent, Consent.Status.cancelled);\r\n    }\r\n\r\n    // /* The company who has this factory */\r\n    function getCompany() public view returns (string memory)\r\n    {\r\n      return company;\r\n    }\r\n\r\n    // /* Returns the owner for the factory */\r\n    function getOwner() public view returns (address)\r\n    {\r\n      return owner;\r\n    }\r\n    \r\n    \r\n  }\r\n\r\n  /*\r\n  * END\r\n  */",
  "sourcePath": "C:\\dev\\Healthcare-CMS\\ScratchFrontend\\ConsentManagementFrontEnd\\contract-testing\\contracts\\CMS.sol",
  "compiler": {
    "name": "solc",
    "version": "0.5.17+commit.d19bba13.Emscripten.clang"
  },
  "schemaVersion": "3.4.7",
  "updatedAt": "2022-04-30T15:53:09.923Z",
  "networkType": "ethereum",
  "devdoc": {
    "methods": {}
  },
  "userdoc": {
    "methods": {}
  }
}