{
  "contractName": "ConsentTemplate",
  "abi": [
    {
      "inputs": [
        {
          "internalType": "address",
          "name": "_patient",
          "type": "address"
        },
        {
          "internalType": "address payable",
          "name": "_doctor",
          "type": "address"
        },
        {
          "internalType": "address",
          "name": "_consent",
          "type": "address"
        }
      ],
      "stateMutability": "nonpayable",
      "type": "constructor"
    },
    {
      "inputs": [
        {
          "internalType": "string",
          "name": "desc",
          "type": "string"
        }
      ],
      "name": "SettingRequestedDesc",
      "outputs": [],
      "stateMutability": "nonpayable",
      "type": "function"
    },
    {
      "inputs": [
        {
          "internalType": "string[]",
          "name": "_recordIds",
          "type": "string[]"
        }
      ],
      "name": "setConsentedRecords",
      "outputs": [],
      "stateMutability": "nonpayable",
      "type": "function"
    },
    {
      "inputs": [],
      "name": "GetConsentedRecords",
      "outputs": [
        {
          "internalType": "string[]",
          "name": "",
          "type": "string[]"
        }
      ],
      "stateMutability": "view",
      "type": "function"
    },
    {
      "inputs": [],
      "name": "GetRequestedDesc",
      "outputs": [
        {
          "internalType": "string",
          "name": "",
          "type": "string"
        }
      ],
      "stateMutability": "view",
      "type": "function"
    },
    {
      "inputs": [],
      "name": "GetAssociatedConsent",
      "outputs": [
        {
          "internalType": "address",
          "name": "",
          "type": "address"
        }
      ],
      "stateMutability": "view",
      "type": "function"
    }
  ],
  "bytecode": "0x608060405234801561001057600080fd5b5060405161089938038061089983398101604081905261002f9161013d565b600180546001600160a01b038086166001600160a01b031992831617909255600280548584169083161790556000805492841692909116919091178155604080516020810191829052829052610088916005919061009c565b50506006805460ff19169055506101a19050565b828054600181600116156101000203166002900490600052602060002090601f0160209004810192826100d25760008555610118565b82601f106100eb57805160ff1916838001178555610118565b82800160010185558215610118579182015b828111156101185782518255916020019190600101906100fd565b50610124929150610128565b5090565b5b808211156101245760008155600101610129565b600080600060608486031215610151578283fd5b835161015c81610189565b602085015190935061016d81610189565b604085015190925061017e81610189565b809150509250925092565b6001600160a01b038116811461019e57600080fd5b50565b6106e9806101b06000396000f3fe608060405234801561001057600080fd5b50600436106100575760003560e01c80630f399a411461005c5780633f0622701461007a57806340a4895c1461008f5780634ca334e2146100a45780636e81a8a3146100b7575b600080fd5b6100646100cc565b6040516100719190610602565b60405180910390f35b61008d61008836600461057d565b6100db565b005b610097610109565b6040516100719190610676565b61008d6100b23660046104e5565b6101dd565b6100bf610207565b6040516100719190610616565b6000546001600160a01b031690565b6002546001600160a01b031632146100f257600080fd5b8051610105906005906020840190610321565b5050565b6000546060906001600160a01b031633148061012f57506002546001600160a01b031632145b8061014457506001546001600160a01b031632145b61014d57600080fd5b6005805460408051602060026001851615610100026000190190941693909304601f810184900484028201840190925281815292918301828280156101d35780601f106101a8576101008083540402835291602001916101d3565b820191906000526020600020905b8154815290600101906020018083116101b657829003601f168201915b5050505050905090565b6001546001600160a01b031632146101f457600080fd5b80516101059060049060208401906103ad565b6000546060906001600160a01b031633148061022d57506002546001600160a01b031632145b8061024257506001546001600160a01b031632145b61024b57600080fd5b6004805480602002602001604051908101604052809291908181526020016000905b828210156103185760008481526020908190208301805460408051601f60026000196101006001871615020190941693909304928301859004850281018501909152818152928301828280156103045780601f106102d957610100808354040283529160200191610304565b820191906000526020600020905b8154815290600101906020018083116102e757829003601f168201915b50505050508152602001906001019061026d565b50505050905090565b828054600181600116156101000203166002900490600052602060002090601f016020900481019282610357576000855561039d565b82601f1061037057805160ff191683800117855561039d565b8280016001018555821561039d579182015b8281111561039d578251825591602001919060010190610382565b506103a9929150610406565b5090565b8280548282559060005260206000209081019282156103fa579160200282015b828111156103fa57825180516103ea918491602090910190610321565b50916020019190600101906103cd565b506103a992915061041b565b5b808211156103a95760008155600101610407565b808211156103a957600061042f8282610438565b5060010161041b565b50805460018160011615610100020316600290046000825580601f1061045e575061047c565b601f01602090049060005260206000209081019061047c9190610406565b50565b600082601f83011261048f578081fd5b81356001600160401b038111156104a257fe5b6104b5601f8201601f1916602001610690565b91508082528360208285010111156104cc57600080fd5b8060208401602084013760009082016020015292915050565b600060208083850312156104f7578182fd5b82356001600160401b038082111561050d578384fd5b818501915085601f830112610520578384fd5b81358181111561052c57fe5b6105398485830201610690565b8181528481019250838501865b8381101561056f5761055d8a88843589010161047f565b85529386019390860190600101610546565b509098975050505050505050565b60006020828403121561058e578081fd5b81356001600160401b038111156105a3578182fd5b6105af8482850161047f565b949350505050565b60008151808452815b818110156105dc576020818501810151868301820152016105c0565b818111156105ed5782602083870101525b50601f01601f19169290920160200192915050565b6001600160a01b0391909116815260200190565b6000602080830181845280855180835260408601915060408482028701019250838701855b8281101561066957603f198886030184526106578583516105b7565b9450928501929085019060010161063b565b5092979650505050505050565b60006020825261068960208301846105b7565b9392505050565b6040518181016001600160401b03811182821017156106ab57fe5b60405291905056fea2646970667358221220facd16c7d49500d48af6b9090044794e27a51455a6b4a577958d0a45da0b279a64736f6c63430007050033",
  "immutableReferences": {},
  "source": "pragma solidity ^0.7.5;\r\npragma experimental ABIEncoderV2;\r\n\r\ncontract ConsentTemplate {\r\n\r\n  address private consent;\r\n\r\n  address private patient;      /* Creator of this template */\r\n  address private doctor;      /* Creator of this template */  \r\n  address private validator;\r\n  string[]  private recordIds;     /* What purpouse the template is for */\r\n  string  private requestedRecordDesc;        /* The title of the consent */\r\n  uint8 version;\r\n\r\n  /* Creates the contract and set the values of the contract. */\r\n  constructor (address _patient, address payable _doctor, address _consent) public \r\n  {\r\n    patient = _patient;\r\n    doctor = _doctor;\r\n    consent = _consent;\r\n\r\n    // recordIds = [];\r\n    requestedRecordDesc = \"\";\r\n    version = 0;\r\n  }\r\n\r\n  /* A modifier */\r\n  modifier onlyByDoctor()\r\n  {\r\n    require(tx.origin == doctor);\r\n    _;\r\n  }\r\n\r\n   modifier onlyByBoth()\r\n    {\r\n      require((doctor == tx.origin) || (patient == tx.origin));\r\n      _;\r\n    }\r\n    \r\n    modifier ConsentOrBoth()\r\n    {\r\n      require((msg.sender == consent) || (doctor == tx.origin) || (patient == tx.origin));\r\n      _;\r\n    }\r\n\r\n  modifier onlyByPatient()\r\n  {\r\n    require(tx.origin == patient);\r\n    _;\r\n  }\r\n\r\n  function SettingRequestedDesc(string memory desc) onlyByDoctor() public{\r\n    requestedRecordDesc = desc;\r\n  }\r\n\r\n  function setConsentedRecords(string[] memory _recordIds) onlyByPatient() public {\r\n    recordIds = _recordIds;\r\n  }\r\n\r\n  /* Set of getters for the contract */\r\n  function GetConsentedRecords()  ConsentOrBoth()  public view returns(string[] memory)\r\n  {\r\n    return recordIds;\r\n  }\r\n\r\n  function GetRequestedDesc() ConsentOrBoth() public view returns  (string memory)\r\n  {\r\n    return requestedRecordDesc;\r\n  }\r\n  \r\n  function GetAssociatedConsent() public view returns(address) {\r\n    return consent;\r\n  }\r\n}\r\n",
  "sourcePath": "C:\\dev\\Healthcare-CMS\\Healthcare-ConsentManagementSystem\\Frontend\\contract-testing\\contracts\\ConsentTemplate.sol",
  "compiler": {
    "name": "solc",
    "version": "0.7.5+commit.eb77ed08.Emscripten.clang"
  },
  "schemaVersion": "3.4.7",
  "updatedAt": "2023-05-04T11:32:10.255Z",
  "devdoc": {
    "kind": "dev",
    "methods": {},
    "version": 1
  },
  "userdoc": {
    "kind": "user",
    "methods": {},
    "version": 1
  }
}