{
  "contractName": "Consent",
  "abi": [
    {
      "inputs": [
        {
          "internalType": "address",
          "name": "_patient",
          "type": "address"
        },
        {
          "internalType": "address",
          "name": "_doctor",
          "type": "address"
        }
      ],
      "payable": false,
      "stateMutability": "nonpayable",
      "type": "constructor"
    },
    {
      "anonymous": false,
      "inputs": [
        {
          "indexed": true,
          "internalType": "address",
          "name": "consent",
          "type": "address"
        },
        {
          "indexed": true,
          "internalType": "address",
          "name": "patient",
          "type": "address"
        },
        {
          "indexed": true,
          "internalType": "address",
          "name": "doctor",
          "type": "address"
        },
        {
          "indexed": false,
          "internalType": "enum Consent.Status",
          "name": "status",
          "type": "uint8"
        }
      ],
      "name": "ConsentStatusChanged",
      "type": "event"
    },
    {
      "constant": false,
      "inputs": [
        {
          "internalType": "string",
          "name": "requestdesc",
          "type": "string"
        }
      ],
      "name": "setRequestStatus",
      "outputs": [],
      "payable": false,
      "stateMutability": "nonpayable",
      "type": "function"
    },
    {
      "constant": false,
      "inputs": [
        {
          "internalType": "enum Consent.Status",
          "name": "_status",
          "type": "uint8"
        }
      ],
      "name": "setPatientSideStatus",
      "outputs": [],
      "payable": false,
      "stateMutability": "nonpayable",
      "type": "function"
    },
    {
      "constant": false,
      "inputs": [
        {
          "internalType": "string[]",
          "name": "consentedRecords",
          "type": "string[]"
        }
      ],
      "name": "setConsentedRecords",
      "outputs": [],
      "payable": false,
      "stateMutability": "nonpayable",
      "type": "function"
    },
    {
      "constant": false,
      "inputs": [],
      "name": "cancel",
      "outputs": [],
      "payable": false,
      "stateMutability": "nonpayable",
      "type": "function"
    },
    {
      "constant": true,
      "inputs": [],
      "name": "getStatus",
      "outputs": [
        {
          "internalType": "enum Consent.Status",
          "name": "",
          "type": "uint8"
        }
      ],
      "payable": false,
      "stateMutability": "view",
      "type": "function"
    },
    {
      "constant": true,
      "inputs": [],
      "name": "getTemplate",
      "outputs": [
        {
          "internalType": "contract ConsentTemplate",
          "name": "",
          "type": "address"
        }
      ],
      "payable": false,
      "stateMutability": "view",
      "type": "function"
    },
    {
      "constant": true,
      "inputs": [],
      "name": "getPatient",
      "outputs": [
        {
          "internalType": "address",
          "name": "",
          "type": "address"
        }
      ],
      "payable": false,
      "stateMutability": "view",
      "type": "function"
    },
    {
      "constant": true,
      "inputs": [],
      "name": "getDoctor",
      "outputs": [
        {
          "internalType": "address",
          "name": "",
          "type": "address"
        }
      ],
      "payable": false,
      "stateMutability": "view",
      "type": "function"
    }
  ],
  "bytecode": "0x60806040523480156200001157600080fd5b50604051620013f4380380620013f48339810160408190526200003491620000f7565b600080546001600160a01b038085166001600160a01b0319928316179092556001805492841692909116919091179055604051829082906200007690620000d6565b6200008392919062000147565b604051809103906000f080158015620000a0573d6000803e3d6000fd5b50600280546001600160a01b0319166001600160a01b039290921691909117905550506001805460ff60a01b1916905562000199565b6108de8062000b1683390190565b8051620000f1816200017f565b92915050565b600080604083850312156200010b57600080fd5b6000620001198585620000e4565b92505060206200012c85828601620000e4565b9150509250929050565b62000141816200016d565b82525050565b6040810162000157828562000136565b62000166602083018462000136565b9392505050565b60006001600160a01b038216620000f1565b6200018a816200016d565b81146200019657600080fd5b50565b61096d80620001a96000396000f3fe608060405234801561001057600080fd5b50600436106100885760003560e01c80637b0f9a361161005b5780637b0f9a36146100ea578063aa43c936146100f2578063ea8a1af014610105578063f998292a1461010d57610088565b8063321c48f21461008d5780633aaa5920146100ab5780634ca334e2146100c05780634e69d560146100d5575b600080fd5b610095610120565b6040516100a291906107e1565b60405180910390f35b6100b361015d565b6040516100a291906107b1565b6100d36100ce3660046105e6565b61019a565b005b6100dd610282565b6040516100a291906107ef565b6100b36102c0565b6100d3610100366004610623565b6102fd565b6100d36103b6565b6100d361011b366004610641565b6104c0565b600080546001600160a01b031632148061014457506001546001600160a01b031632145b61014d57600080fd5b506002546001600160a01b031690565b600080546001600160a01b031632148061018157506001546001600160a01b031632145b61018a57600080fd5b506001546001600160a01b031690565b6000546001600160a01b031632146101b157600080fd5b6001805460ff60a01b1916600160a11b1790556002546040516326519a7160e11b81526001600160a01b0390911690634ca334e2906101f49084906004016107d0565b600060405180830381600087803b15801561020e57600080fd5b505af1158015610222573d6000803e3d6000fd5b50506001546000546040516001600160a01b038084169550909116925030917fa5feef4ed63437e1e1e8021dca355750ed6da3e7f81a31e679ae236fd63bc4449161027791600160a01b900460ff16906107ef565b60405180910390a450565b600080546001600160a01b03163214806102a657506001546001600160a01b031632145b6102af57600080fd5b50600154600160a01b900460ff1690565b600080546001600160a01b03163214806102e457506001546001600160a01b031632145b6102ed57600080fd5b506000546001600160a01b031690565b6000546001600160a01b0316321461031457600080fd5b600181600481111561032257fe5b14806103395750600281600481111561033757fe5b145b156103b3576001805482919060ff60a01b1916600160a01b83600481111561035d57fe5b02179055506001546000546040516001600160a01b038084169392169130917fa5feef4ed63437e1e1e8021dca355750ed6da3e7f81a31e679ae236fd63bc4449161027791600160a01b90910460ff16906107ef565b50565b6000546001600160a01b031632146103cd57600080fd5b6001805460ff60a01b1916600160a21b179055600254604080516000808252602082019092526001600160a01b0390921691634ca334e29161041f565b606081526020019060019003908161040a5790505b506040518263ffffffff1660e01b815260040161043c91906107bf565b600060405180830381600087803b15801561045657600080fd5b505af115801561046a573d6000803e3d6000fd5b50506001546000546040516001600160a01b0392831694509116915030907fa5feef4ed63437e1e1e8021dca355750ed6da3e7f81a31e679ae236fd63bc444906104b6906004906107ef565b60405180910390a4565b6001546001600160a01b031632146104d757600080fd5b6001805460ff60a01b1916600360a01b1790556002546040516303f0622760e41b81526001600160a01b0390911690633f062270906101f49084906004016107fd565b600082601f83011261052b57600080fd5b813561053e61053982610835565b61080e565b81815260209384019390925082018360005b8381101561057c57813586016105668882610597565b8452506020928301929190910190600101610550565b5050505092915050565b80356105918161091d565b92915050565b600082601f8301126105a857600080fd5b81356105b661053982610856565b915080825260208301602083018583830111156105d257600080fd5b6105dd8382846108cd565b50505092915050565b6000602082840312156105f857600080fd5b813567ffffffffffffffff81111561060f57600080fd5b61061b8482850161051a565b949350505050565b60006020828403121561063557600080fd5b600061061b8484610586565b60006020828403121561065357600080fd5b813567ffffffffffffffff81111561066a57600080fd5b61061b84828501610597565b60006106828383610779565b9392505050565b61069281610891565b82525050565b60006106a382610884565b6106ad8185610888565b9350836020820285016106bf8561087e565b8060005b858110156106f957848403895281516106dc8582610676565b94506106e78361087e565b60209a909a01999250506001016106c3565b5091979650505050505050565b600061071182610884565b61071b8185610888565b93508360208202850161072d8561087e565b8060005b858110156106f9578484038952815161074a8582610676565b94506107558361087e565b60209a909a0199925050600101610731565b610692816108b7565b610692816108c2565b600061078482610884565b61078e8185610888565b935061079e8185602086016108d9565b6107a781610909565b9093019392505050565b602081016105918284610689565b602080825281016106828184610706565b602080825281016106828184610698565b602081016105918284610767565b602081016105918284610770565b602080825281016106828184610779565b60405181810167ffffffffffffffff8111828210171561082d57600080fd5b604052919050565b600067ffffffffffffffff82111561084c57600080fd5b5060209081020190565b600067ffffffffffffffff82111561086d57600080fd5b506020601f91909101601f19160190565b60200190565b5190565b90815260200190565b6000610591826108ab565b806108a681610913565b919050565b6001600160a01b031690565b600061059182610891565b60006105918261089c565b82818337506000910152565b60005b838110156108f45781810151838201526020016108dc565b83811115610903576000848401525b50505050565b601f01601f191690565b600581106103b357fe5b600581106103b357600080fdfea365627a7a72315820fda750ebe8acda00f9763ffe4a4f82757e19cc29c7dbe448cbb159437e2f88fe6c6578706572696d656e74616cf564736f6c63430005100040608060405234801561001057600080fd5b506040516108de3803806108de83398101604081905261002f91610135565b600080546001600160a01b038085166001600160a01b031992831617835560018054918516919092161790556040805160208101918290528290526100779160039190610089565b50506004805460ff1916905550610197565b828054600181600116156101000203166002900490600052602060002090601f016020900481019282601f106100ca57805160ff19168380011785556100f7565b828001600101855582156100f7579182015b828111156100f75782518255916020019190600101906100dc565b50610103929150610107565b5090565b61012191905b80821115610103576000815560010161010d565b90565b805161012f81610180565b92915050565b6000806040838503121561014857600080fd5b60006101548585610124565b925050602061016585828601610124565b9150509250929050565b60006001600160a01b03821661012f565b6101898161016f565b811461019457600080fd5b50565b610738806101a66000396000f3fe608060405234801561001057600080fd5b506004361061004c5760003560e01c80633f0622701461005157806340a4895c146100665780634ca334e2146100845780636e81a8a314610097575b600080fd5b61006461005f36600461051c565b6100ac565b005b61006e6100da565b60405161007b919061061b565b60405180910390f35b6100646100923660046104df565b61019a565b61009f6101c4565b60405161007b919061060a565b6001546001600160a01b031632146100c357600080fd5b80516100d69060039060208401906102c9565b5050565b6001546060906001600160a01b031632148061010057506000546001600160a01b031632145b61010957600080fd5b6003805460408051602060026001851615610100026000190190941693909304601f8101849004840282018401909252818152929183018282801561018f5780601f106101645761010080835404028352916020019161018f565b820191906000526020600020905b81548152906001019060200180831161017257829003601f168201915b505050505090505b90565b6000546001600160a01b031632146101b157600080fd5b80516100d6906002906020840190610347565b6001546060906001600160a01b03163214806101ea57506000546001600160a01b031632145b6101f357600080fd5b6002805480602002602001604051908101604052809291908181526020016000905b828210156102c05760008481526020908190208301805460408051601f60026000196101006001871615020190941693909304928301859004850281018501909152818152928301828280156102ac5780601f10610281576101008083540402835291602001916102ac565b820191906000526020600020905b81548152906001019060200180831161028f57829003601f168201915b505050505081526020019060010190610215565b50505050905090565b828054600181600116156101000203166002900490600052602060002090601f016020900481019282601f1061030a57805160ff1916838001178555610337565b82800160010185558215610337579182015b8281111561033757825182559160200191906001019061031c565b506103439291506103a0565b5090565b828054828255906000526020600020908101928215610394579160200282015b8281111561039457825180516103849184916020909101906102c9565b5091602001919060010190610367565b506103439291506103ba565b61019791905b8082111561034357600081556001016103a6565b61019791905b808211156103435760006103d482826103dd565b506001016103c0565b50805460018160011615610100020316600290046000825580601f106104035750610421565b601f01602090049060005260206000209081019061042191906103a0565b50565b600082601f83011261043557600080fd5b813561044861044382610653565b61062c565b81815260209384019390925082018360005b8381101561048657813586016104708882610490565b845250602092830192919091019060010161045a565b5050505092915050565b600082601f8301126104a157600080fd5b81356104af61044382610674565b915080825260208301602083018583830111156104cb57600080fd5b6104d68382846106af565b50505092915050565b6000602082840312156104f157600080fd5b813567ffffffffffffffff81111561050857600080fd5b61051484828501610424565b949350505050565b60006020828403121561052e57600080fd5b813567ffffffffffffffff81111561054557600080fd5b61051484828501610490565b600061055d83836105d2565b9392505050565b600061056f826106a2565b61057981856106a6565b93508360208202850161058b8561069c565b8060005b858110156105c557848403895281516105a88582610551565b94506105b38361069c565b60209a909a019992505060010161058f565b5091979650505050505050565b60006105dd826106a2565b6105e781856106a6565b93506105f78185602086016106bb565b610600816106eb565b9093019392505050565b6020808252810161055d8184610564565b6020808252810161055d81846105d2565b60405181810167ffffffffffffffff8111828210171561064b57600080fd5b604052919050565b600067ffffffffffffffff82111561066a57600080fd5b5060209081020190565b600067ffffffffffffffff82111561068b57600080fd5b506020601f91909101601f19160190565b60200190565b5190565b90815260200190565b82818337506000910152565b60005b838110156106d65781810151838201526020016106be565b838111156106e5576000848401525b50505050565b601f01601f19169056fea365627a7a723158207bd452b6a2043386c1d26517bf80cfa3abf6388b5907bc7ec951f8a3245f350a6c6578706572696d656e74616cf564736f6c63430005100040",
  "source": "pragma solidity ^0.5.2;\r\npragma experimental ABIEncoderV2;\r\nimport \"./ConsentTemplate.sol\";\r\n/*\r\n * This is the contract that handles consents for a specific purpouse given by a\r\n * user (giver) to another user (owner).\r\n *\r\n * It basically provides a textual description  that is either accepted or denied by a user.\r\n *\r\n */\r\ncontract Consent {\r\n\r\n    /* Enumeration for the state of the consent */\r\n  enum Status {created,\r\n          denied,    /* The giver has denied the consent */\r\n\t       accepted,  /* The giver has accepted the consent */ \r\n\t       requested, /* The company has requested a consent, user has not yet responded */\r\n\t       cancelled  /* The company has cancelled the consent because he no longer needs it */\r\n  }\r\n    \r\n  /* State variables for the contract */\r\n  // address payable private owner;  /* Who issues to consent form */\r\n  address private patient; /* Who created this object */\r\n  address private doctor;  /* Who gives the consent, address to the account. */\r\n  Status  private status; /* The status of the consent */\r\n  ConsentTemplate consentTemplate; /* The template this consent is based on */\r\n  \r\n  /* Event to signal that the status has changed */\r\n  event ConsentStatusChanged (address indexed consent, address indexed patient, address indexed doctor, Status status);\r\n\r\n  /* A modifier */\r\n  modifier onlyByPatient()\r\n  {\r\n    require(tx.origin == patient);\r\n    _;\r\n  }\r\n\r\n  modifier onlyByDoctor()\r\n  {\r\n    require(tx.origin == doctor);\r\n    _;\r\n  }\r\n  \r\n  modifier onlyByBoth()\r\n  {\r\n    require ((tx.origin == patient) || (tx.origin == doctor));\r\n    _;\r\n  }\r\n\r\n  /* This function is executed at initialization and sets the owner and the giver of the consent */\r\n  /* as well as what it contains */\r\n  constructor (address _patient,address _doctor) public\r\n  {\r\n    patient = _patient;\r\n    doctor = _doctor;\r\n    consentTemplate = new ConsentTemplate(_patient,_doctor);\r\n    status = Status.created;\r\n  }\r\n\r\n  function setRequestStatus(string memory requestdesc) onlyByDoctor() public {\r\n    status = Status.requested;\r\n    consentTemplate.SettingRequestedDesc(requestdesc);\r\n    emit ConsentStatusChanged(address(this),patient,doctor,status);\r\n  }\r\n  /* Sets the status of the consent, this can only be done by the giver. */\r\n  function setPatientSideStatus(Status _status) onlyByPatient () public\r\n  {\r\n    if (_status == Status.denied || _status == Status.accepted) {\r\n      status = _status;\r\n      emit ConsentStatusChanged (address(this), patient, doctor, status);\r\n    }\r\n  }\r\n\r\n  function setConsentedRecords(string[] memory consentedRecords) onlyByPatient () public {\r\n    status = Status.accepted;\r\n    consentTemplate.setConsentedRecords(consentedRecords);\r\n    emit ConsentStatusChanged(address(this),patient,doctor,status);\r\n  }\r\n\r\n  /* Cancels a consent, this can only be done by the company who created the consent. */\r\n  function cancel () onlyByPatient() public\r\n  {\r\n    status = Status.cancelled;\r\n    consentTemplate.setConsentedRecords(new string[](0));\r\n    emit ConsentStatusChanged (address(this), patient,doctor, Status.cancelled);\r\n  }\r\n  \r\n  /* Returns the status of the consent */    \r\n  function getStatus() onlyByBoth() public view returns (Status)\r\n  {\r\n    return status;\r\n  }\r\n\r\n  /* Returns the consent template that this consent is based on */\r\n  function getTemplate() onlyByBoth()  public view returns (ConsentTemplate)\r\n  {\r\n    return consentTemplate;\r\n  }\r\n\r\n  /* Returns with the giver */\r\n  function getPatient() onlyByBoth() public view returns (address)\r\n  {\r\n    return patient;\r\n  }\r\n  \r\n  /* Returns with teh giver */\r\n  function getDoctor() onlyByBoth() public view returns (address)\r\n  {\r\n    return doctor;\r\n  }\r\n  \r\n  /* Function to recover the funds on the contract */\r\n  // function kill() public { if (tx.origin == owner) selfdestruct(owner); }\r\n}\r\n",
  "sourcePath": "C:\\dev\\Healthcare-CMS\\ScratchFrontend\\ConsentManagementFrontEnd\\contract-testing\\contracts\\Consent.sol",
  "compiler": {
    "name": "solc",
    "version": "0.5.16+commit.9c3226ce.Emscripten.clang"
  },
  "schemaVersion": "3.4.2",
  "updatedAt": "2022-04-13T17:59:47.670Z",
  "devdoc": {
    "methods": {}
  },
  "userdoc": {
    "methods": {}
  }
}