{
  "contractName": "ConsentFile",
  "abi": [
    {
      "inputs": [
        {
          "internalType": "address payable",
          "name": "_user",
          "type": "address"
        },
        {
          "internalType": "enum ConsentFile.Role",
          "name": "_role",
          "type": "uint8"
        },
        {
          "internalType": "address",
          "name": "_CMS",
          "type": "address"
        }
      ],
      "payable": false,
      "stateMutability": "nonpayable",
      "type": "constructor"
    },
    {
      "anonymous": false,
      "inputs": [
        {
          "indexed": true,
          "internalType": "address",
          "name": "file",
          "type": "address"
        },
        {
          "indexed": false,
          "internalType": "address",
          "name": "consent",
          "type": "address"
        }
      ],
      "name": "ConsentFileConsentAdded",
      "type": "event"
    },
    {
      "constant": true,
      "inputs": [
        {
          "internalType": "string[]",
          "name": "records",
          "type": "string[]"
        }
      ],
      "name": "RecordsExists",
      "outputs": [
        {
          "internalType": "bool",
          "name": "",
          "type": "bool"
        }
      ],
      "payable": false,
      "stateMutability": "view",
      "type": "function"
    },
    {
      "constant": false,
      "inputs": [
        {
          "internalType": "address",
          "name": "_otherUser",
          "type": "address"
        }
      ],
      "name": "getAssociatedConsent",
      "outputs": [
        {
          "internalType": "bool",
          "name": "",
          "type": "bool"
        },
        {
          "internalType": "contract Consent",
          "name": "",
          "type": "address"
        }
      ],
      "payable": false,
      "stateMutability": "nonpayable",
      "type": "function"
    },
    {
      "constant": false,
      "inputs": [
        {
          "internalType": "contract Consent",
          "name": "_consent",
          "type": "address"
        }
      ],
      "name": "addConsent",
      "outputs": [],
      "payable": false,
      "stateMutability": "nonpayable",
      "type": "function"
    },
    {
      "constant": true,
      "inputs": [],
      "name": "getListOfConsents",
      "outputs": [
        {
          "internalType": "contract Consent[]",
          "name": "",
          "type": "address[]"
        }
      ],
      "payable": false,
      "stateMutability": "view",
      "type": "function"
    },
    {
      "constant": true,
      "inputs": [],
      "name": "getOwner",
      "outputs": [
        {
          "internalType": "address",
          "name": "",
          "type": "address"
        }
      ],
      "payable": false,
      "stateMutability": "view",
      "type": "function"
    }
  ],
  "bytecode": "0x60806040523480156200001157600080fd5b50604051620021b4380380620021b48339810160408190526200003491620000ae565b600080546001600160a01b038084166001600160a01b03199283161790925560028054928616929091169190911780825583919060ff60a01b1916600160a01b83838111156200008057fe5b02179055505050506200013c565b80516200009b8162000114565b92915050565b80516200009b816200012e565b600080600060608486031215620000c457600080fd5b6000620000d286866200008e565b9350506020620000e586828701620000a1565b9250506040620000f8868287016200008e565b9150509250925092565b60006001600160a01b0382166200009b565b6200011f8162000102565b81146200012b57600080fd5b50565b600381106200012b57600080fd5b612068806200014c6000396000f3fe60806040523480156200001157600080fd5b50600436106200005e5760003560e01c806312ab907814620000635780631d814aae1462000092578063856bb9cc14620000b9578063893d20e814620000d2578063da5269a614620000eb575b600080fd5b6200007a620000743660046200096c565b62000104565b60405162000089919062000b2e565b60405180910390f35b620000a9620000a336600462000922565b620002a0565b6040516200008992919062000b3e565b620000d0620000ca366004620009ff565b62000538565b005b620000dc620005f0565b60405162000089919062000acd565b620000f5620005ff565b60405162000089919062000b1b565b6002546000906001600160a01b03163214806200012b57506000546001600160a01b031633145b6200013557600080fd5b600060028054600160a01b900460ff16908111156200015057fe5b14156200029b5760005b60035481101562000295576200027b600382815481106200017757fe5b600091825260209182902001546040805163190e247960e11b815290516001600160a01b039092169263321c48f292600480840193829003018186803b158015620001c157600080fd5b505afa158015620001d6573d6000803e3d6000fd5b505050506040513d601f19601f82011682018060405250620001fc9190810190620009de565b6001600160a01b0316636e81a8a36040518163ffffffff1660e01b815260040160006040518083038186803b1580156200023557600080fd5b505afa1580156200024a573d6000803e3d6000fd5b505050506040513d6000823e601f3d908101601f19168201604052620002749190810190620009a5565b846200067c565b156200028c5760019150506200029b565b6001016200015a565b50600090505b919050565b60025460009081906001600160a01b03163214620002bd57600080fd5b600060028054600160a01b900460ff1690811115620002d857fe5b1415620004315760005b600354811015620003d557836001600160a01b0316600382815481106200030557fe5b6000918252602091829020015460408051633d87cd1b60e11b815290516001600160a01b0390921692637b0f9a3692600480840193829003018186803b1580156200034f57600080fd5b505afa15801562000364573d6000803e3d6000fd5b505050506040513d601f19601f820116820180604052506200038a91908101906200094b565b6001600160a01b03161415620003cc57600160038281548110620003aa57fe5b6000918252602090912001549093506001600160a01b03169150620005339050565b600101620002e2565b5060025460405160009185916001600160a01b0390911690620003f89062000763565b6200040592919062000afc565b604051809103906000f08015801562000422573d6000803e3d6000fd5b50600093509150620005339050565b60005b6003548110156200050557836001600160a01b0316600382815481106200045757fe5b60009182526020918290200154604080516301d552c960e51b815290516001600160a01b0390921692633aaa592092600480840193829003018186803b158015620004a157600080fd5b505afa158015620004b6573d6000803e3d6000fd5b505050506040513d601f19601f82011682018060405250620004dc91908101906200094b565b6001600160a01b03161415620004fc57600160038281548110620003aa57fe5b60010162000434565b506002546040516000916001600160a01b0316908590620005269062000763565b6200040592919062000add565b915091565b6002546001600160a01b03163214806200055c57506000546001600160a01b031633145b6200056657600080fd5b600380546001810182556000919091527fc2575a0e9e593c00f959f8c92f12db2869c3395a3b0502d05e2516446f71f85b0180546001600160a01b0319166001600160a01b03831617905560405130907f1398fb997798573a4f33a35360688747a7eb90249ab5cec65da9e5b1945ecdae90620005e590849062000acd565b60405180910390a250565b6002546001600160a01b031690565b6002546060906001600160a01b031632146200061a57600080fd5b60038054806020026020016040519081016040528092919081815260200182805480156200067257602002820191906000526020600020905b81546001600160a01b0316815260019091019060200180831162000653575b5050505050905090565b6000805b8251811015620006ca57620006aa848483815181106200069c57fe5b6020026020010151620006d6565b15620006b657620006c1565b6000915050620006d0565b60010162000680565b50600190505b92915050565b6000805b83518110156200071e5762000704848281518110620006f557fe5b60200260200101518462000728565b1562000715576001915050620006d0565b600101620006da565b5060009392505050565b60006200073683836200073d565b9392505050565b600081518351148015620007365750508051602091820120825192909101919091201490565b6113a68062000c8083390190565b8035620006d08162000c5a565b8051620006d08162000c5a565b600082601f8301126200079d57600080fd5b8135620007b4620007ae8262000b85565b62000b5d565b81815260209384019390925082018360005b83811015620007f65781358601620007df88826200087f565b8452506020928301929190910190600101620007c6565b5050505092915050565b600082601f8301126200081257600080fd5b815162000823620007ae8262000b85565b81815260209384019390925082018360005b83811015620007f657815186016200084e8882620008d5565b845250602092830192919091019060010162000835565b8051620006d08162000c74565b8035620006d08162000c74565b600082601f8301126200089157600080fd5b8135620008a2620007ae8262000ba7565b91508082526020830160208301858383011115620008bf57600080fd5b620008cc83828462000c1b565b50505092915050565b600082601f830112620008e757600080fd5b8151620008f8620007ae8262000ba7565b915080825260208301602083018583830111156200091557600080fd5b620008cc83828462000c27565b6000602082840312156200093557600080fd5b600062000943848462000771565b949350505050565b6000602082840312156200095e57600080fd5b60006200094384846200077e565b6000602082840312156200097f57600080fd5b813567ffffffffffffffff8111156200099757600080fd5b62000943848285016200078b565b600060208284031215620009b857600080fd5b815167ffffffffffffffff811115620009d057600080fd5b620009438482850162000800565b600060208284031215620009f157600080fd5b600062000943848462000865565b60006020828403121562000a1257600080fd5b600062000943848462000872565b600062000a2e838362000ac2565b505060200190565b62000a418162000c0e565b82525050565b62000a418162000be3565b600062000a5f8262000bd6565b62000a6b818562000bda565b935062000a788362000bd0565b8060005b8381101562000aac57815162000a93888262000a20565b975062000aa08362000bd0565b92505060010162000a7c565b509495945050505050565b62000a418162000bf0565b62000a418162000bf5565b60208101620006d0828462000a47565b6040810162000aed828562000a36565b62000736602083018462000a47565b6040810162000b0c828562000a47565b62000736602083018462000a36565b6020808252810162000736818462000a52565b60208101620006d0828462000ab7565b6040810162000b4e828562000ab7565b62000736602083018462000ac2565b60405181810167ffffffffffffffff8111828210171562000b7d57600080fd5b604052919050565b600067ffffffffffffffff82111562000b9d57600080fd5b5060209081020190565b600067ffffffffffffffff82111562000bbf57600080fd5b506020601f91909101601f19160190565b60200190565b5190565b90815260200190565b6000620006d08262000c02565b151590565b6000620006d08262000be3565b6001600160a01b031690565b6000620006d08262000bf5565b82818337506000910152565b60005b8381101562000c4457818101518382015260200162000c2a565b8381111562000c54576000848401525b50505050565b62000c658162000be3565b811462000c7157600080fd5b50565b62000c658162000bf556fe608060405234801561001057600080fd5b50604051620013a6380380620013a6833981016040819052610031916100ec565b600080546001600160a01b038085166001600160a01b031992831617909255600180549284169290911691909117905560405182908290610071906100cd565b61007c929190610135565b604051809103906000f080158015610098573d6000803e3d6000fd5b50600280546001600160a01b0319166001600160a01b039290921691909117905550506001805460ff60a01b1916905561017f565b6108de8062000ac883390190565b80516100e681610168565b92915050565b600080604083850312156100ff57600080fd5b600061010b85856100db565b925050602061011c858286016100db565b9150509250929050565b61012f81610157565b82525050565b604081016101438285610126565b6101506020830184610126565b9392505050565b60006001600160a01b0382166100e6565b61017181610157565b811461017c57600080fd5b50565b610939806200018f6000396000f3fe608060405234801561001057600080fd5b50600436106100885760003560e01c80637b0f9a361161005b5780637b0f9a36146100ea578063aa43c936146100f2578063ea8a1af014610105578063f998292a1461010d57610088565b8063321c48f21461008d5780633aaa5920146100ab5780634ca334e2146100c05780634e69d560146100d5575b600080fd5b610095610120565b6040516100a291906107ad565b60405180910390f35b6100b361015d565b6040516100a2919061077d565b6100d36100ce3660046105b2565b61019a565b005b6100dd61026f565b6040516100a291906107bb565b6100b36102ad565b6100d36101003660046105ef565b6102ea565b6100d3610390565b6100d361011b36600461060d565b61048c565b600080546001600160a01b031632148061014457506001546001600160a01b031632145b61014d57600080fd5b506002546001600160a01b031690565b600080546001600160a01b031632148061018157506001546001600160a01b031632145b61018a57600080fd5b506001546001600160a01b031690565b6000546001600160a01b031632146101b157600080fd5b6001805460ff60a01b1916600160a11b1790556002546040516326519a7160e11b81526001600160a01b0390911690634ca334e2906101f490849060040161079c565b600060405180830381600087803b15801561020e57600080fd5b505af1158015610222573d6000803e3d6000fd5b50506001546040513093507f7004293283c83e944feedfe102d317947bdd62fdffaa93c44ab95e20b426befd925061026491600160a01b900460ff16906107bb565b60405180910390a250565b600080546001600160a01b031632148061029357506001546001600160a01b031632145b61029c57600080fd5b50600154600160a01b900460ff1690565b600080546001600160a01b03163214806102d157506001546001600160a01b031632145b6102da57600080fd5b506000546001600160a01b031690565b6000546001600160a01b0316321461030157600080fd5b600181600481111561030f57fe5b14806103265750600281600481111561032457fe5b145b1561038d576001805482919060ff60a01b1916600160a01b83600481111561034a57fe5b021790555060015460405130917f7004293283c83e944feedfe102d317947bdd62fdffaa93c44ab95e20b426befd9161026491600160a01b900460ff16906107bb565b50565b6000546001600160a01b031632146103a757600080fd5b6001805460ff60a01b1916600160a21b179055600254604080516000808252602082019092526001600160a01b0390921691634ca334e2916103f9565b60608152602001906001900390816103e45790505b506040518263ffffffff1660e01b8152600401610416919061078b565b600060405180830381600087803b15801561043057600080fd5b505af1158015610444573d6000803e3d6000fd5b50505050306001600160a01b03167f7004293283c83e944feedfe102d317947bdd62fdffaa93c44ab95e20b426befd600460405161048291906107bb565b60405180910390a2565b6001546001600160a01b031632146104a357600080fd5b6001805460ff60a01b1916600360a01b1790556002546040516303f0622760e41b81526001600160a01b0390911690633f062270906101f49084906004016107c9565b600082601f8301126104f757600080fd5b813561050a61050582610801565b6107da565b81815260209384019390925082018360005b8381101561054857813586016105328882610563565b845250602092830192919091019060010161051c565b5050505092915050565b803561055d816108e9565b92915050565b600082601f83011261057457600080fd5b813561058261050582610822565b9150808252602083016020830185838301111561059e57600080fd5b6105a9838284610899565b50505092915050565b6000602082840312156105c457600080fd5b813567ffffffffffffffff8111156105db57600080fd5b6105e7848285016104e6565b949350505050565b60006020828403121561060157600080fd5b60006105e78484610552565b60006020828403121561061f57600080fd5b813567ffffffffffffffff81111561063657600080fd5b6105e784828501610563565b600061064e8383610745565b9392505050565b61065e8161085d565b82525050565b600061066f82610850565b6106798185610854565b93508360208202850161068b8561084a565b8060005b858110156106c557848403895281516106a88582610642565b94506106b38361084a565b60209a909a019992505060010161068f565b5091979650505050505050565b60006106dd82610850565b6106e78185610854565b9350836020820285016106f98561084a565b8060005b858110156106c557848403895281516107168582610642565b94506107218361084a565b60209a909a01999250506001016106fd565b61065e81610883565b61065e8161088e565b600061075082610850565b61075a8185610854565b935061076a8185602086016108a5565b610773816108d5565b9093019392505050565b6020810161055d8284610655565b6020808252810161064e81846106d2565b6020808252810161064e8184610664565b6020810161055d8284610733565b6020810161055d828461073c565b6020808252810161064e8184610745565b60405181810167ffffffffffffffff811182821017156107f957600080fd5b604052919050565b600067ffffffffffffffff82111561081857600080fd5b5060209081020190565b600067ffffffffffffffff82111561083957600080fd5b506020601f91909101601f19160190565b60200190565b5190565b90815260200190565b600061055d82610877565b80610872816108df565b919050565b6001600160a01b031690565b600061055d8261085d565b600061055d82610868565b82818337506000910152565b60005b838110156108c05781810151838201526020016108a8565b838111156108cf576000848401525b50505050565b601f01601f191690565b6005811061038d57fe5b6005811061038d57600080fdfea365627a7a7231582042f40f2b7b22e81e05e5960087739b5a42cece74c6afb941e778c6b030920c116c6578706572696d656e74616cf564736f6c63430005100040608060405234801561001057600080fd5b506040516108de3803806108de83398101604081905261002f91610135565b600080546001600160a01b038085166001600160a01b031992831617835560018054918516919092161790556040805160208101918290528290526100779160039190610089565b50506004805460ff1916905550610197565b828054600181600116156101000203166002900490600052602060002090601f016020900481019282601f106100ca57805160ff19168380011785556100f7565b828001600101855582156100f7579182015b828111156100f75782518255916020019190600101906100dc565b50610103929150610107565b5090565b61012191905b80821115610103576000815560010161010d565b90565b805161012f81610180565b92915050565b6000806040838503121561014857600080fd5b60006101548585610124565b925050602061016585828601610124565b9150509250929050565b60006001600160a01b03821661012f565b6101898161016f565b811461019457600080fd5b50565b610738806101a66000396000f3fe608060405234801561001057600080fd5b506004361061004c5760003560e01c80633f0622701461005157806340a4895c146100665780634ca334e2146100845780636e81a8a314610097575b600080fd5b61006461005f36600461051c565b6100ac565b005b61006e6100da565b60405161007b919061061b565b60405180910390f35b6100646100923660046104df565b61019a565b61009f6101c4565b60405161007b919061060a565b6001546001600160a01b031632146100c357600080fd5b80516100d69060039060208401906102c9565b5050565b6001546060906001600160a01b031632148061010057506000546001600160a01b031632145b61010957600080fd5b6003805460408051602060026001851615610100026000190190941693909304601f8101849004840282018401909252818152929183018282801561018f5780601f106101645761010080835404028352916020019161018f565b820191906000526020600020905b81548152906001019060200180831161017257829003601f168201915b505050505090505b90565b6000546001600160a01b031632146101b157600080fd5b80516100d6906002906020840190610347565b6001546060906001600160a01b03163214806101ea57506000546001600160a01b031632145b6101f357600080fd5b6002805480602002602001604051908101604052809291908181526020016000905b828210156102c05760008481526020908190208301805460408051601f60026000196101006001871615020190941693909304928301859004850281018501909152818152928301828280156102ac5780601f10610281576101008083540402835291602001916102ac565b820191906000526020600020905b81548152906001019060200180831161028f57829003601f168201915b505050505081526020019060010190610215565b50505050905090565b828054600181600116156101000203166002900490600052602060002090601f016020900481019282601f1061030a57805160ff1916838001178555610337565b82800160010185558215610337579182015b8281111561033757825182559160200191906001019061031c565b506103439291506103a0565b5090565b828054828255906000526020600020908101928215610394579160200282015b8281111561039457825180516103849184916020909101906102c9565b5091602001919060010190610367565b506103439291506103ba565b61019791905b8082111561034357600081556001016103a6565b61019791905b808211156103435760006103d482826103dd565b506001016103c0565b50805460018160011615610100020316600290046000825580601f106104035750610421565b601f01602090049060005260206000209081019061042191906103a0565b50565b600082601f83011261043557600080fd5b813561044861044382610653565b61062c565b81815260209384019390925082018360005b8381101561048657813586016104708882610490565b845250602092830192919091019060010161045a565b5050505092915050565b600082601f8301126104a157600080fd5b81356104af61044382610674565b915080825260208301602083018583830111156104cb57600080fd5b6104d68382846106af565b50505092915050565b6000602082840312156104f157600080fd5b813567ffffffffffffffff81111561050857600080fd5b61051484828501610424565b949350505050565b60006020828403121561052e57600080fd5b813567ffffffffffffffff81111561054557600080fd5b61051484828501610490565b600061055d83836105d2565b9392505050565b600061056f826106a2565b61057981856106a6565b93508360208202850161058b8561069c565b8060005b858110156105c557848403895281516105a88582610551565b94506105b38361069c565b60209a909a019992505060010161058f565b5091979650505050505050565b60006105dd826106a2565b6105e781856106a6565b93506105f78185602086016106bb565b610600816106eb565b9093019392505050565b6020808252810161055d8184610564565b6020808252810161055d81846105d2565b60405181810167ffffffffffffffff8111828210171561064b57600080fd5b604052919050565b600067ffffffffffffffff82111561066a57600080fd5b5060209081020190565b600067ffffffffffffffff82111561068b57600080fd5b506020601f91909101601f19160190565b60200190565b5190565b90815260200190565b82818337506000910152565b60005b838110156106d65781810151838201526020016106be565b838111156106e5576000848401525b50505050565b601f01601f19169056fea365627a7a723158207bd452b6a2043386c1d26517bf80cfa3abf6388b5907bc7ec951f8a3245f350a6c6578706572696d656e74616cf564736f6c63430005100040a365627a7a723158207e5eb6354ce1788d786280b84152640b5e499f25f51b949de9f015e26632a9d46c6578706572696d656e74616cf564736f6c63430005100040",
  "source": "pragma solidity ^0.5.2;\r\npragma experimental ABIEncoderV2;\r\nimport \"./Consent.sol\";\r\n\r\ncontract ConsentFile {\r\n\r\n  address CMS;\r\n  \r\n  address validator;\r\n\r\n  /* The owner of the file */\r\n  address payable user;\r\n  \r\n  enum Role {\r\n    doctor,\r\n    patient,\r\n    nominee\r\n  }\r\n  \r\n\r\n  Role private role;\r\n\r\n  /* The list of all consents */\r\n  Consent[] private listOfConsents;\r\n\r\n  /* Events that are sent when things happen */\r\n  event ConsentFileConsentAdded(address indexed file, address consent);\r\n\r\n  /* A modifier */\r\n  modifier onlyByUser()\r\n  {\r\n    require(tx.origin == user);\r\n    _;\r\n  }\r\n  \r\n  modifier CMSorUser()\r\n  {\r\n    require ((tx.origin == user) || (msg.sender == CMS));\r\n    _;\r\n  }\r\n\r\n  /* The constructor of the file. Also attaches it to an owner */\r\n  constructor (address payable _user,Role _role,address _CMS) public\r\n  {\r\n    CMS = _CMS;\r\n    user = _user;\r\n    role = _role;\r\n  }\r\n\r\n  function memcmp(bytes memory a, bytes memory b) internal pure returns(bool){\r\n    return (a.length == b.length) && (keccak256(a) == keccak256(b));\r\n  }\r\n  function strcmp(string memory a, string memory b) internal pure returns(bool){\r\n    return memcmp(bytes(a), bytes(b));\r\n  }\r\n\r\n  function CheckElementExist(string [] memory root, string memory elem) private view returns(bool) {\r\n    for(uint i=0;i<root.length;i++) {\r\n      if(strcmp(root[i],elem)) {\r\n        return true;\r\n      }\r\n    }\r\n    return false;\r\n  }\r\n\r\n  function CheckSubset(string[] memory root,string[] memory check) private view returns(bool) {\r\n    for(uint i=0;i<check.length;i++) {\r\n      if(CheckElementExist(root,check[i])) {\r\n        continue;\r\n      }\r\n      else {\r\n        return false;\r\n      }\r\n    }\r\n    return true;\r\n  }\r\n  \r\n  function RecordsExists(string[] memory records) CMSorUser() public view returns(bool) {\r\n    if(role == Role.doctor) {\r\n      for(uint i=0;i < listOfConsents.length;i++) {\r\n        if(CheckSubset(listOfConsents[i].getTemplate().GetConsentedRecords(),records)) {\r\n          return true;\r\n        }\r\n      }\r\n      return false;\r\n    }\r\n  }\r\n\r\n  function getAssociatedConsent(address _otherUser) onlyByUser() public returns(bool,Consent ) {\r\n    if(role == Role.doctor) {\r\n      for(uint i=0;i < listOfConsents.length;i++) {\r\n        if(listOfConsents[i].getPatient() == _otherUser) {\r\n          return (true,listOfConsents[i]);\r\n        }\r\n      }\r\n      Consent nc = new Consent(_otherUser,user);\r\n      return (false,nc);\r\n    }\r\n    else {\r\n      for(uint i=0;i < listOfConsents.length;i++) {\r\n        if(listOfConsents[i].getDoctor() == _otherUser) {\r\n          return (true,listOfConsents[i]);\r\n        }\r\n      }\r\n      Consent nc = new Consent(user,_otherUser);\r\n      return (false,nc);\r\n    }\r\n  }\r\n    \r\n\r\n  /* Adds a new consent to the file */\r\n  function addConsent(Consent _consent) CMSorUser() public \r\n  {\r\n    listOfConsents.push(_consent);\r\n    emit ConsentFileConsentAdded(address(this), address(_consent));\r\n  }\r\n\r\n  /* Retrieve a list of all consents in the file */\r\n  function getListOfConsents () onlyByUser() public view returns (Consent[] memory)\r\n  {\r\n    return listOfConsents;\r\n  }\r\n\r\n  /* Retrieves the owner */\r\n  function getOwner () public view returns (address)\r\n  {\r\n    return user;\r\n  }\r\n  \r\n}\r\n",
  "sourcePath": "C:\\dev\\Healthcare-CMS\\ScratchFrontend\\ConsentManagementFrontEnd\\contract-testing\\contracts\\ConsentFile.sol",
  "compiler": {
    "name": "solc",
    "version": "0.5.16+commit.9c3226ce.Emscripten.clang"
  },
  "schemaVersion": "3.4.2",
  "updatedAt": "2022-04-29T16:01:47.231Z",
  "devdoc": {
    "methods": {}
  },
  "userdoc": {
    "methods": {}
  }
}