{
  "contractName": "Consent",
  "abi": [
    {
      "inputs": [
        {
          "internalType": "address",
          "name": "_patient",
          "type": "address"
        },
        {
          "internalType": "address",
          "name": "_doctor",
          "type": "address"
        }
      ],
      "payable": false,
      "stateMutability": "nonpayable",
      "type": "constructor"
    },
    {
      "anonymous": false,
      "inputs": [
        {
          "indexed": true,
          "internalType": "address",
          "name": "consent",
          "type": "address"
        },
        {
          "indexed": true,
          "internalType": "address",
          "name": "patient",
          "type": "address"
        },
        {
          "indexed": true,
          "internalType": "address",
          "name": "doctor",
          "type": "address"
        },
        {
          "indexed": false,
          "internalType": "enum Consent.Status",
          "name": "status",
          "type": "uint8"
        }
      ],
      "name": "ConsentStatusChanged",
      "type": "event"
    },
    {
      "constant": false,
      "inputs": [
        {
          "internalType": "string",
          "name": "requestdesc",
          "type": "string"
        }
      ],
      "name": "setRequestStatus",
      "outputs": [],
      "payable": false,
      "stateMutability": "nonpayable",
      "type": "function"
    },
    {
      "constant": false,
      "inputs": [
        {
          "internalType": "enum Consent.Status",
          "name": "_status",
          "type": "uint8"
        }
      ],
      "name": "setPatientSideStatus",
      "outputs": [],
      "payable": false,
      "stateMutability": "nonpayable",
      "type": "function"
    },
    {
      "constant": false,
      "inputs": [
        {
          "internalType": "string[]",
          "name": "consentedRecords",
          "type": "string[]"
        }
      ],
      "name": "setConsentedRecords",
      "outputs": [],
      "payable": false,
      "stateMutability": "nonpayable",
      "type": "function"
    },
    {
      "constant": false,
      "inputs": [],
      "name": "cancel",
      "outputs": [],
      "payable": false,
      "stateMutability": "nonpayable",
      "type": "function"
    },
    {
      "constant": true,
      "inputs": [],
      "name": "getStatus",
      "outputs": [
        {
          "internalType": "enum Consent.Status",
          "name": "",
          "type": "uint8"
        }
      ],
      "payable": false,
      "stateMutability": "view",
      "type": "function"
    },
    {
      "constant": true,
      "inputs": [],
      "name": "getTemplate",
      "outputs": [
        {
          "internalType": "contract ConsentTemplate",
          "name": "",
          "type": "address"
        }
      ],
      "payable": false,
      "stateMutability": "view",
      "type": "function"
    },
    {
      "constant": true,
      "inputs": [],
      "name": "getPatient",
      "outputs": [
        {
          "internalType": "address",
          "name": "",
          "type": "address"
        }
      ],
      "payable": false,
      "stateMutability": "view",
      "type": "function"
    },
    {
      "constant": true,
      "inputs": [],
      "name": "getDoctor",
      "outputs": [
        {
          "internalType": "address",
          "name": "",
          "type": "address"
        }
      ],
      "payable": false,
      "stateMutability": "view",
      "type": "function"
    }
  ],
  "bytecode": "0x60806040523480156200001157600080fd5b506040516200229338038062002293833981810160405262000037919081019062000185565b816000806101000a81548173ffffffffffffffffffffffffffffffffffffffff021916908373ffffffffffffffffffffffffffffffffffffffff16021790555080600160006101000a81548173ffffffffffffffffffffffffffffffffffffffff021916908373ffffffffffffffffffffffffffffffffffffffff1602179055508181604051620000c89062000160565b620000d5929190620001d7565b604051809103906000f080158015620000f2573d6000803e3d6000fd5b50600260006101000a81548173ffffffffffffffffffffffffffffffffffffffff021916908373ffffffffffffffffffffffffffffffffffffffff1602179055506000600160146101000a81548160ff021916908360048111156200015357fe5b0217905550505062000252565b610d8c806200150783390190565b6000815190506200017f8162000238565b92915050565b600080604083850312156200019957600080fd5b6000620001a9858286016200016e565b9250506020620001bc858286016200016e565b9150509250929050565b620001d18162000204565b82525050565b6000604082019050620001ee6000830185620001c6565b620001fd6020830184620001c6565b9392505050565b6000620002118262000218565b9050919050565b600073ffffffffffffffffffffffffffffffffffffffff82169050919050565b620002438162000204565b81146200024f57600080fd5b50565b6112a580620002626000396000f3fe608060405234801561001057600080fd5b50600436106100885760003560e01c80637b0f9a361161005b5780637b0f9a3614610103578063aa43c93614610121578063ea8a1af01461013d578063f998292a1461014757610088565b8063321c48f21461008d5780633aaa5920146100ab5780634ca334e2146100c95780634e69d560146100e5575b600080fd5b610095610163565b6040516100a29190610fd9565b60405180910390f35b6100b361023e565b6040516100c09190610f7a565b60405180910390f35b6100e360048036036100de9190810190610d32565b610319565b005b6100ed6104f4565b6040516100fa9190610ff4565b60405180910390f35b61010b6105bc565b6040516101189190610f7a565b60405180910390f35b61013b60048036036101369190810190610d73565b610696565b005b610145610824565b005b610161600480360361015c9190810190610d9c565b610a25565b005b60008060009054906101000a900473ffffffffffffffffffffffffffffffffffffffff1673ffffffffffffffffffffffffffffffffffffffff163273ffffffffffffffffffffffffffffffffffffffff16148061020d5750600160009054906101000a900473ffffffffffffffffffffffffffffffffffffffff1673ffffffffffffffffffffffffffffffffffffffff163273ffffffffffffffffffffffffffffffffffffffff16145b61021657600080fd5b600260009054906101000a900473ffffffffffffffffffffffffffffffffffffffff16905090565b60008060009054906101000a900473ffffffffffffffffffffffffffffffffffffffff1673ffffffffffffffffffffffffffffffffffffffff163273ffffffffffffffffffffffffffffffffffffffff1614806102e85750600160009054906101000a900473ffffffffffffffffffffffffffffffffffffffff1673ffffffffffffffffffffffffffffffffffffffff163273ffffffffffffffffffffffffffffffffffffffff16145b6102f157600080fd5b600160009054906101000a900473ffffffffffffffffffffffffffffffffffffffff16905090565b6000809054906101000a900473ffffffffffffffffffffffffffffffffffffffff1673ffffffffffffffffffffffffffffffffffffffff163273ffffffffffffffffffffffffffffffffffffffff161461037257600080fd5b6002600160146101000a81548160ff0219169083600481111561039157fe5b0217905550600260009054906101000a900473ffffffffffffffffffffffffffffffffffffffff1673ffffffffffffffffffffffffffffffffffffffff16634ca334e2826040518263ffffffff1660e01b81526004016103f19190610fb7565b600060405180830381600087803b15801561040b57600080fd5b505af115801561041f573d6000803e3d6000fd5b50505050600160009054906101000a900473ffffffffffffffffffffffffffffffffffffffff1673ffffffffffffffffffffffffffffffffffffffff166000809054906101000a900473ffffffffffffffffffffffffffffffffffffffff1673ffffffffffffffffffffffffffffffffffffffff163073ffffffffffffffffffffffffffffffffffffffff167fa5feef4ed63437e1e1e8021dca355750ed6da3e7f81a31e679ae236fd63bc444600160149054906101000a900460ff166040516104e99190610ff4565b60405180910390a450565b60008060009054906101000a900473ffffffffffffffffffffffffffffffffffffffff1673ffffffffffffffffffffffffffffffffffffffff163273ffffffffffffffffffffffffffffffffffffffff16148061059e5750600160009054906101000a900473ffffffffffffffffffffffffffffffffffffffff1673ffffffffffffffffffffffffffffffffffffffff163273ffffffffffffffffffffffffffffffffffffffff16145b6105a757600080fd5b600160149054906101000a900460ff16905090565b60008060009054906101000a900473ffffffffffffffffffffffffffffffffffffffff1673ffffffffffffffffffffffffffffffffffffffff163273ffffffffffffffffffffffffffffffffffffffff1614806106665750600160009054906101000a900473ffffffffffffffffffffffffffffffffffffffff1673ffffffffffffffffffffffffffffffffffffffff163273ffffffffffffffffffffffffffffffffffffffff16145b61066f57600080fd5b6000809054906101000a900473ffffffffffffffffffffffffffffffffffffffff16905090565b6000809054906101000a900473ffffffffffffffffffffffffffffffffffffffff1673ffffffffffffffffffffffffffffffffffffffff163273ffffffffffffffffffffffffffffffffffffffff16146106ef57600080fd5b600160048111156106fc57fe5b81600481111561070857fe5b148061072a57506002600481111561071c57fe5b81600481111561072857fe5b145b156108215780600160146101000a81548160ff0219169083600481111561074d57fe5b0217905550600160009054906101000a900473ffffffffffffffffffffffffffffffffffffffff1673ffffffffffffffffffffffffffffffffffffffff166000809054906101000a900473ffffffffffffffffffffffffffffffffffffffff1673ffffffffffffffffffffffffffffffffffffffff163073ffffffffffffffffffffffffffffffffffffffff167fa5feef4ed63437e1e1e8021dca355750ed6da3e7f81a31e679ae236fd63bc444600160149054906101000a900460ff166040516108189190610ff4565b60405180910390a45b50565b6000809054906101000a900473ffffffffffffffffffffffffffffffffffffffff1673ffffffffffffffffffffffffffffffffffffffff163273ffffffffffffffffffffffffffffffffffffffff161461087d57600080fd5b6004600160146101000a81548160ff0219169083600481111561089c57fe5b0217905550600260009054906101000a900473ffffffffffffffffffffffffffffffffffffffff1673ffffffffffffffffffffffffffffffffffffffff16634ca334e2600060405190808252806020026020018201604052801561091457816020015b60608152602001906001900390816108ff5790505b506040518263ffffffff1660e01b81526004016109319190610f95565b600060405180830381600087803b15801561094b57600080fd5b505af115801561095f573d6000803e3d6000fd5b50505050600160009054906101000a900473ffffffffffffffffffffffffffffffffffffffff1673ffffffffffffffffffffffffffffffffffffffff166000809054906101000a900473ffffffffffffffffffffffffffffffffffffffff1673ffffffffffffffffffffffffffffffffffffffff163073ffffffffffffffffffffffffffffffffffffffff167fa5feef4ed63437e1e1e8021dca355750ed6da3e7f81a31e679ae236fd63bc4446004604051610a1b9190610ff4565b60405180910390a4565b600160009054906101000a900473ffffffffffffffffffffffffffffffffffffffff1673ffffffffffffffffffffffffffffffffffffffff163273ffffffffffffffffffffffffffffffffffffffff1614610a7f57600080fd5b6003600160146101000a81548160ff02191690836004811115610a9e57fe5b0217905550600260009054906101000a900473ffffffffffffffffffffffffffffffffffffffff1673ffffffffffffffffffffffffffffffffffffffff16633f062270826040518263ffffffff1660e01b8152600401610afe919061100f565b600060405180830381600087803b158015610b1857600080fd5b505af1158015610b2c573d6000803e3d6000fd5b50505050600160009054906101000a900473ffffffffffffffffffffffffffffffffffffffff1673ffffffffffffffffffffffffffffffffffffffff166000809054906101000a900473ffffffffffffffffffffffffffffffffffffffff1673ffffffffffffffffffffffffffffffffffffffff163073ffffffffffffffffffffffffffffffffffffffff167fa5feef4ed63437e1e1e8021dca355750ed6da3e7f81a31e679ae236fd63bc444600160149054906101000a900460ff16604051610bf69190610ff4565b60405180910390a450565b600082601f830112610c1257600080fd5b8135610c25610c208261105e565b611031565b9150818183526020840193506020810190508360005b83811015610c6b5781358601610c518882610c8a565b845260208401935060208301925050600181019050610c3b565b5050505092915050565b600081359050610c8481611252565b92915050565b600082601f830112610c9b57600080fd5b8135610cae610ca982611086565b611031565b91508082526020830160208301858383011115610cca57600080fd5b610cd58382846111f2565b50505092915050565b600082601f830112610cef57600080fd5b8135610d02610cfd826110b2565b611031565b91508082526020830160208301858383011115610d1e57600080fd5b610d298382846111f2565b50505092915050565b600060208284031215610d4457600080fd5b600082013567ffffffffffffffff811115610d5e57600080fd5b610d6a84828501610c01565b91505092915050565b600060208284031215610d8557600080fd5b6000610d9384828501610c75565b91505092915050565b600060208284031215610dae57600080fd5b600082013567ffffffffffffffff811115610dc857600080fd5b610dd484828501610cde565b91505092915050565b6000610de98383610f41565b905092915050565b610dfa81611177565b82525050565b6000610e0b82611109565b610e158185611144565b935083602082028501610e27856110ee565b8060005b85811015610e635784840389528151610e448582610ddd565b9450610e4f83611137565b925060208a01995050600181019050610e2b565b50829750879550505050505092915050565b6000610e80826110fe565b610e8a8185611144565b935083602082028501610e9c856110de565b8060005b85811015610ed85784840389528151610eb98582610ddd565b9450610ec48361112a565b925060208a01995050600181019050610ea0565b50829750879550505050505092915050565b610ef3816111bc565b82525050565b610f02816111e0565b82525050565b6000610f138261111f565b610f1d8185611166565b9350610f2d818560208601611201565b610f3681611234565b840191505092915050565b6000610f4c82611114565b610f568185611155565b9350610f66818560208601611201565b610f6f81611234565b840191505092915050565b6000602082019050610f8f6000830184610df1565b92915050565b60006020820190508181036000830152610faf8184610e75565b905092915050565b60006020820190508181036000830152610fd18184610e00565b905092915050565b6000602082019050610fee6000830184610eea565b92915050565b60006020820190506110096000830184610ef9565b92915050565b600060208201905081810360008301526110298184610f08565b905092915050565b6000604051905081810181811067ffffffffffffffff8211171561105457600080fd5b8060405250919050565b600067ffffffffffffffff82111561107557600080fd5b602082029050602081019050919050565b600067ffffffffffffffff82111561109d57600080fd5b601f19601f8301169050602081019050919050565b600067ffffffffffffffff8211156110c957600080fd5b601f19601f8301169050602081019050919050565b6000819050602082019050919050565b6000819050602082019050919050565b600081519050919050565b600081519050919050565b600081519050919050565b600081519050919050565b6000602082019050919050565b6000602082019050919050565b600082825260208201905092915050565b600082825260208201905092915050565b600082825260208201905092915050565b60006111828261119c565b9050919050565b600081905061119782611245565b919050565b600073ffffffffffffffffffffffffffffffffffffffff82169050919050565b60006111c7826111ce565b9050919050565b60006111d98261119c565b9050919050565b60006111eb82611189565b9050919050565b82818337600083830152505050565b60005b8381101561121f578082015181840152602081019050611204565b8381111561122e576000848401525b50505050565b6000601f19601f8301169050919050565b6005811061124f57fe5b50565b6005811061125f57600080fd5b5056fea365627a7a7231582029bd5d683060de47b8dc3c55884dfc2cdaec960fc7595e2ffd52930247c4917e6c6578706572696d656e74616cf564736f6c6343000510004060806040523480156200001157600080fd5b5060405162000d8c38038062000d8c8339818101604052620000379190810190620001ca565b816000806101000a81548173ffffffffffffffffffffffffffffffffffffffff021916908373ffffffffffffffffffffffffffffffffffffffff16021790555080600160006101000a81548173ffffffffffffffffffffffffffffffffffffffff021916908373ffffffffffffffffffffffffffffffffffffffff1602179055506040518060200160405280600081525060039080519060200190620000df92919062000104565b506000600460006101000a81548160ff021916908360ff160217905550505062000259565b828054600181600116156101000203166002900490600052602060002090601f016020900481019282601f106200014757805160ff191683800117855562000178565b8280016001018555821562000178579182015b82811115620001775782518255916020019190600101906200015a565b5b5090506200018791906200018b565b5090565b620001b091905b80821115620001ac57600081600090555060010162000192565b5090565b90565b600081519050620001c4816200023f565b92915050565b60008060408385031215620001de57600080fd5b6000620001ee85828601620001b3565b92505060206200020185828601620001b3565b9150509250929050565b600062000218826200021f565b9050919050565b600073ffffffffffffffffffffffffffffffffffffffff82169050919050565b6200024a816200020b565b81146200025657600080fd5b50565b610b2380620002696000396000f3fe608060405234801561001057600080fd5b506004361061004c5760003560e01c80633f0622701461005157806340a4895c1461006d5780634ca334e21461008b5780636e81a8a3146100a7575b600080fd5b61006b600480360361006691908101906107ef565b6100c5565b005b610075610139565b604051610082919061094d565b60405180910390f35b6100a560048036036100a091908101906107ae565b61028c565b005b6100af6102ff565b6040516100bc919061092b565b60405180910390f35b600160009054906101000a900473ffffffffffffffffffffffffffffffffffffffff1673ffffffffffffffffffffffffffffffffffffffff163273ffffffffffffffffffffffffffffffffffffffff161461011f57600080fd5b8060039080519060200190610135929190610499565b5050565b60603273ffffffffffffffffffffffffffffffffffffffff16600160009054906101000a900473ffffffffffffffffffffffffffffffffffffffff1673ffffffffffffffffffffffffffffffffffffffff1614806101e357503273ffffffffffffffffffffffffffffffffffffffff166000809054906101000a900473ffffffffffffffffffffffffffffffffffffffff1673ffffffffffffffffffffffffffffffffffffffff16145b6101ec57600080fd5b60038054600181600116156101000203166002900480601f0160208091040260200160405190810160405280929190818152602001828054600181600116156101000203166002900480156102825780601f1061025757610100808354040283529160200191610282565b820191906000526020600020905b81548152906001019060200180831161026557829003601f168201915b5050505050905090565b6000809054906101000a900473ffffffffffffffffffffffffffffffffffffffff1673ffffffffffffffffffffffffffffffffffffffff163273ffffffffffffffffffffffffffffffffffffffff16146102e557600080fd5b80600290805190602001906102fb929190610519565b5050565b60603273ffffffffffffffffffffffffffffffffffffffff16600160009054906101000a900473ffffffffffffffffffffffffffffffffffffffff1673ffffffffffffffffffffffffffffffffffffffff1614806103a957503273ffffffffffffffffffffffffffffffffffffffff166000809054906101000a900473ffffffffffffffffffffffffffffffffffffffff1673ffffffffffffffffffffffffffffffffffffffff16145b6103b257600080fd5b6002805480602002602001604051908101604052809291908181526020016000905b82821015610490578382906000526020600020018054600181600116156101000203166002900480601f01602080910402602001604051908101604052809291908181526020018280546001816001161561010002031660029004801561047c5780601f106104515761010080835404028352916020019161047c565b820191906000526020600020905b81548152906001019060200180831161045f57829003601f168201915b5050505050815260200190600101906103d4565b50505050905090565b828054600181600116156101000203166002900490600052602060002090601f016020900481019282601f106104da57805160ff1916838001178555610508565b82800160010185558215610508579182015b828111156105075782518255916020019190600101906104ec565b5b5090506105159190610579565b5090565b828054828255906000526020600020908101928215610568579160200282015b8281111561056757825182908051906020019061055792919061059e565b5091602001919060010190610539565b5b509050610575919061061e565b5090565b61059b91905b8082111561059757600081600090555060010161057f565b5090565b90565b828054600181600116156101000203166002900490600052602060002090601f016020900481019282601f106105df57805160ff191683800117855561060d565b8280016001018555821561060d579182015b8281111561060c5782518255916020019190600101906105f1565b5b50905061061a9190610579565b5090565b61064791905b80821115610643576000818161063a919061064a565b50600101610624565b5090565b90565b50805460018160011615610100020316600290046000825580601f10610670575061068f565b601f01602090049060005260206000209081019061068e9190610579565b5b50565b600082601f8301126106a357600080fd5b81356106b66106b18261099c565b61096f565b9150818183526020840193506020810190508360005b838110156106fc57813586016106e28882610706565b8452602084019350602083019250506001810190506106cc565b5050505092915050565b600082601f83011261071757600080fd5b813561072a610725826109c4565b61096f565b9150808252602083016020830185838301111561074657600080fd5b610751838284610a8d565b50505092915050565b600082601f83011261076b57600080fd5b813561077e610779826109f0565b61096f565b9150808252602083016020830185838301111561079a57600080fd5b6107a5838284610a8d565b50505092915050565b6000602082840312156107c057600080fd5b600082013567ffffffffffffffff8111156107da57600080fd5b6107e684828501610692565b91505092915050565b60006020828403121561080157600080fd5b600082013567ffffffffffffffff81111561081b57600080fd5b6108278482850161075a565b91505092915050565b600061083c83836108f2565b905092915050565b600061084f82610a2c565b6108598185610a5a565b93508360208202850161086b85610a1c565b8060005b858110156108a757848403895281516108888582610830565b945061089383610a4d565b925060208a0199505060018101905061086f565b50829750879550505050505092915050565b60006108c482610a42565b6108ce8185610a7c565b93506108de818560208601610a9c565b6108e781610acf565b840191505092915050565b60006108fd82610a37565b6109078185610a6b565b9350610917818560208601610a9c565b61092081610acf565b840191505092915050565b600060208201905081810360008301526109458184610844565b905092915050565b6000602082019050818103600083015261096781846108b9565b905092915050565b6000604051905081810181811067ffffffffffffffff8211171561099257600080fd5b8060405250919050565b600067ffffffffffffffff8211156109b357600080fd5b602082029050602081019050919050565b600067ffffffffffffffff8211156109db57600080fd5b601f19601f8301169050602081019050919050565b600067ffffffffffffffff821115610a0757600080fd5b601f19601f8301169050602081019050919050565b6000819050602082019050919050565b600081519050919050565b600081519050919050565b600081519050919050565b6000602082019050919050565b600082825260208201905092915050565b600082825260208201905092915050565b600082825260208201905092915050565b82818337600083830152505050565b60005b83811015610aba578082015181840152602081019050610a9f565b83811115610ac9576000848401525b50505050565b6000601f19601f830116905091905056fea365627a7a723158207798c3655be201cfa223b53b904c8fb405f5398a2b67f43fbfad9f4992cceced6c6578706572696d656e74616cf564736f6c63430005100040",
  "source": "pragma solidity ^0.5.2;\npragma experimental ABIEncoderV2;\nimport \"./ConsentTemplate.sol\";\n/*\n * This is the contract that handles consents for a specific purpouse given by a\n * user (giver) to another user (owner).\n *\n * It basically provides a textual description  that is either accepted or denied by a user.\n *\n */\ncontract Consent {\n\n    /* Enumeration for the state of the consent */\n  enum Status {created,\n          denied,    /* The giver has denied the consent */\n\t       accepted,  /* The giver has accepted the consent */ \n\t       requested, /* The company has requested a consent, user has not yet responded */\n\t       cancelled  /* The company has cancelled the consent because he no longer needs it */\n  }\n    \n  /* State variables for the contract */\n  // address payable private owner;  /* Who issues to consent form */\n  address private patient; /* Who created this object */\n  address private doctor;  /* Who gives the consent, address to the account. */\n  Status  private status; /* The status of the consent */\n  ConsentTemplate consentTemplate; /* The template this consent is based on */\n  \n  /* Event to signal that the status has changed */\n  event ConsentStatusChanged (address indexed consent, address indexed patient, address indexed doctor, Status status);\n\n  /* A modifier */\n  modifier onlyByPatient()\n  {\n    require(tx.origin == patient);\n    _;\n  }\n\n  modifier onlyByDoctor()\n  {\n    require(tx.origin == doctor);\n    _;\n  }\n  \n  modifier onlyByBoth()\n  {\n    require ((tx.origin == patient) || (tx.origin == doctor));\n    _;\n  }\n\n  /* This function is executed at initialization and sets the owner and the giver of the consent */\n  /* as well as what it contains */\n  constructor (address _patient,address _doctor) public\n  {\n    patient = _patient;\n    doctor = _doctor;\n    consentTemplate = new ConsentTemplate(_patient,_doctor);\n    status = Status.created;\n  }\n\n  function setRequestStatus(string memory requestdesc) onlyByDoctor() public {\n    status = Status.requested;\n    consentTemplate.SettingRequestedDesc(requestdesc);\n    emit ConsentStatusChanged(address(this),patient,doctor,status);\n  }\n  /* Sets the status of the consent, this can only be done by the giver. */\n  function setPatientSideStatus(Status _status) onlyByPatient () public\n  {\n    if (_status == Status.denied || _status == Status.accepted) {\n      status = _status;\n      emit ConsentStatusChanged (address(this), patient, doctor, status);\n    }\n  }\n\n  function setConsentedRecords(string[] memory consentedRecords) onlyByPatient () public {\n    status = Status.accepted;\n    consentTemplate.setConsentedRecords(consentedRecords);\n    emit ConsentStatusChanged(address(this),patient,doctor,status);\n  }\n\n  /* Cancels a consent, this can only be done by the company who created the consent. */\n  function cancel () onlyByPatient() public\n  {\n    status = Status.cancelled;\n    consentTemplate.setConsentedRecords(new string[](0));\n    emit ConsentStatusChanged (address(this), patient,doctor, Status.cancelled);\n  }\n  \n  /* Returns the status of the consent */    \n  function getStatus() onlyByBoth() public view returns (Status)\n  {\n    return status;\n  }\n\n  /* Returns the consent template that this consent is based on */\n  function getTemplate() onlyByBoth()  public view returns (ConsentTemplate)\n  {\n    return consentTemplate;\n  }\n\n  /* Returns with the giver */\n  function getPatient() onlyByBoth() public view returns (address)\n  {\n    return patient;\n  }\n  \n  /* Returns with teh giver */\n  function getDoctor() onlyByBoth() public view returns (address)\n  {\n    return doctor;\n  }\n  \n  /* Function to recover the funds on the contract */\n  // function kill() public { if (tx.origin == owner) selfdestruct(owner); }\n}\n",
  "sourcePath": "/home/mudit/Study/Healthcare/ConsentManagementFrontEnd/contract-testing/contracts/Consent.sol",
  "compiler": {
    "name": "solc",
    "version": "0.5.16+commit.9c3226ce.Emscripten.clang"
  },
  "schemaVersion": "3.4.6",
  "updatedAt": "2022-04-08T12:36:30.007Z",
  "devdoc": {
    "methods": {}
  },
  "userdoc": {
    "methods": {}
  }
}