{
  "contractName": "ConsentTemplate",
  "abi": [
    {
      "inputs": [
        {
          "internalType": "address",
          "name": "_patient",
          "type": "address"
        },
        {
          "internalType": "address",
          "name": "_doctor",
          "type": "address"
        }
      ],
      "payable": false,
      "stateMutability": "nonpayable",
      "type": "constructor"
    },
    {
      "constant": false,
      "inputs": [
        {
          "internalType": "string",
          "name": "desc",
          "type": "string"
        }
      ],
      "name": "SettingRequestedDesc",
      "outputs": [],
      "payable": false,
      "stateMutability": "nonpayable",
      "type": "function"
    },
    {
      "constant": false,
      "inputs": [
        {
          "internalType": "string[]",
          "name": "_recordIds",
          "type": "string[]"
        }
      ],
      "name": "setConsentedRecords",
      "outputs": [],
      "payable": false,
      "stateMutability": "nonpayable",
      "type": "function"
    },
    {
      "constant": true,
      "inputs": [],
      "name": "GetConsentedRecords",
      "outputs": [
        {
          "internalType": "string[]",
          "name": "",
          "type": "string[]"
        }
      ],
      "payable": false,
      "stateMutability": "view",
      "type": "function"
    },
    {
      "constant": true,
      "inputs": [],
      "name": "GetRequestedDesc",
      "outputs": [
        {
          "internalType": "string",
          "name": "",
          "type": "string"
        }
      ],
      "payable": false,
      "stateMutability": "view",
      "type": "function"
    }
  ],
  "bytecode": "0x60806040523480156200001157600080fd5b5060405162000d8c38038062000d8c8339818101604052620000379190810190620001ca565b816000806101000a81548173ffffffffffffffffffffffffffffffffffffffff021916908373ffffffffffffffffffffffffffffffffffffffff16021790555080600160006101000a81548173ffffffffffffffffffffffffffffffffffffffff021916908373ffffffffffffffffffffffffffffffffffffffff1602179055506040518060200160405280600081525060039080519060200190620000df92919062000104565b506000600460006101000a81548160ff021916908360ff160217905550505062000259565b828054600181600116156101000203166002900490600052602060002090601f016020900481019282601f106200014757805160ff191683800117855562000178565b8280016001018555821562000178579182015b82811115620001775782518255916020019190600101906200015a565b5b5090506200018791906200018b565b5090565b620001b091905b80821115620001ac57600081600090555060010162000192565b5090565b90565b600081519050620001c4816200023f565b92915050565b60008060408385031215620001de57600080fd5b6000620001ee85828601620001b3565b92505060206200020185828601620001b3565b9150509250929050565b600062000218826200021f565b9050919050565b600073ffffffffffffffffffffffffffffffffffffffff82169050919050565b6200024a816200020b565b81146200025657600080fd5b50565b610b2380620002696000396000f3fe608060405234801561001057600080fd5b506004361061004c5760003560e01c80633f0622701461005157806340a4895c1461006d5780634ca334e21461008b5780636e81a8a3146100a7575b600080fd5b61006b600480360361006691908101906107ef565b6100c5565b005b610075610139565b604051610082919061094d565b60405180910390f35b6100a560048036036100a091908101906107ae565b61028c565b005b6100af6102ff565b6040516100bc919061092b565b60405180910390f35b600160009054906101000a900473ffffffffffffffffffffffffffffffffffffffff1673ffffffffffffffffffffffffffffffffffffffff163273ffffffffffffffffffffffffffffffffffffffff161461011f57600080fd5b8060039080519060200190610135929190610499565b5050565b60603273ffffffffffffffffffffffffffffffffffffffff16600160009054906101000a900473ffffffffffffffffffffffffffffffffffffffff1673ffffffffffffffffffffffffffffffffffffffff1614806101e357503273ffffffffffffffffffffffffffffffffffffffff166000809054906101000a900473ffffffffffffffffffffffffffffffffffffffff1673ffffffffffffffffffffffffffffffffffffffff16145b6101ec57600080fd5b60038054600181600116156101000203166002900480601f0160208091040260200160405190810160405280929190818152602001828054600181600116156101000203166002900480156102825780601f1061025757610100808354040283529160200191610282565b820191906000526020600020905b81548152906001019060200180831161026557829003601f168201915b5050505050905090565b6000809054906101000a900473ffffffffffffffffffffffffffffffffffffffff1673ffffffffffffffffffffffffffffffffffffffff163273ffffffffffffffffffffffffffffffffffffffff16146102e557600080fd5b80600290805190602001906102fb929190610519565b5050565b60603273ffffffffffffffffffffffffffffffffffffffff16600160009054906101000a900473ffffffffffffffffffffffffffffffffffffffff1673ffffffffffffffffffffffffffffffffffffffff1614806103a957503273ffffffffffffffffffffffffffffffffffffffff166000809054906101000a900473ffffffffffffffffffffffffffffffffffffffff1673ffffffffffffffffffffffffffffffffffffffff16145b6103b257600080fd5b6002805480602002602001604051908101604052809291908181526020016000905b82821015610490578382906000526020600020018054600181600116156101000203166002900480601f01602080910402602001604051908101604052809291908181526020018280546001816001161561010002031660029004801561047c5780601f106104515761010080835404028352916020019161047c565b820191906000526020600020905b81548152906001019060200180831161045f57829003601f168201915b5050505050815260200190600101906103d4565b50505050905090565b828054600181600116156101000203166002900490600052602060002090601f016020900481019282601f106104da57805160ff1916838001178555610508565b82800160010185558215610508579182015b828111156105075782518255916020019190600101906104ec565b5b5090506105159190610579565b5090565b828054828255906000526020600020908101928215610568579160200282015b8281111561056757825182908051906020019061055792919061059e565b5091602001919060010190610539565b5b509050610575919061061e565b5090565b61059b91905b8082111561059757600081600090555060010161057f565b5090565b90565b828054600181600116156101000203166002900490600052602060002090601f016020900481019282601f106105df57805160ff191683800117855561060d565b8280016001018555821561060d579182015b8281111561060c5782518255916020019190600101906105f1565b5b50905061061a9190610579565b5090565b61064791905b80821115610643576000818161063a919061064a565b50600101610624565b5090565b90565b50805460018160011615610100020316600290046000825580601f10610670575061068f565b601f01602090049060005260206000209081019061068e9190610579565b5b50565b600082601f8301126106a357600080fd5b81356106b66106b18261099c565b61096f565b9150818183526020840193506020810190508360005b838110156106fc57813586016106e28882610706565b8452602084019350602083019250506001810190506106cc565b5050505092915050565b600082601f83011261071757600080fd5b813561072a610725826109c4565b61096f565b9150808252602083016020830185838301111561074657600080fd5b610751838284610a8d565b50505092915050565b600082601f83011261076b57600080fd5b813561077e610779826109f0565b61096f565b9150808252602083016020830185838301111561079a57600080fd5b6107a5838284610a8d565b50505092915050565b6000602082840312156107c057600080fd5b600082013567ffffffffffffffff8111156107da57600080fd5b6107e684828501610692565b91505092915050565b60006020828403121561080157600080fd5b600082013567ffffffffffffffff81111561081b57600080fd5b6108278482850161075a565b91505092915050565b600061083c83836108f2565b905092915050565b600061084f82610a2c565b6108598185610a5a565b93508360208202850161086b85610a1c565b8060005b858110156108a757848403895281516108888582610830565b945061089383610a4d565b925060208a0199505060018101905061086f565b50829750879550505050505092915050565b60006108c482610a42565b6108ce8185610a7c565b93506108de818560208601610a9c565b6108e781610acf565b840191505092915050565b60006108fd82610a37565b6109078185610a6b565b9350610917818560208601610a9c565b61092081610acf565b840191505092915050565b600060208201905081810360008301526109458184610844565b905092915050565b6000602082019050818103600083015261096781846108b9565b905092915050565b6000604051905081810181811067ffffffffffffffff8211171561099257600080fd5b8060405250919050565b600067ffffffffffffffff8211156109b357600080fd5b602082029050602081019050919050565b600067ffffffffffffffff8211156109db57600080fd5b601f19601f8301169050602081019050919050565b600067ffffffffffffffff821115610a0757600080fd5b601f19601f8301169050602081019050919050565b6000819050602082019050919050565b600081519050919050565b600081519050919050565b600081519050919050565b6000602082019050919050565b600082825260208201905092915050565b600082825260208201905092915050565b600082825260208201905092915050565b82818337600083830152505050565b60005b83811015610aba578082015181840152602081019050610a9f565b83811115610ac9576000848401525b50505050565b6000601f19601f830116905091905056fea365627a7a723158207798c3655be201cfa223b53b904c8fb405f5398a2b67f43fbfad9f4992cceced6c6578706572696d656e74616cf564736f6c63430005100040",
  "source": "pragma solidity ^0.5.2;\npragma experimental ABIEncoderV2;\n\ncontract ConsentTemplate {\n\n  address private patient;      /* Creator of this template */\n  address private doctor;      /* Creator of this template */  \n  string[]  private recordIds;     /* What purpouse the template is for */\n  string  private requestedRecordDesc;        /* The title of the consent */\n  uint8 version;\n\n  /* Creates the contract and set the values of the contract. */\n  constructor (address _patient, address _doctor) public \n  {\n    patient = _patient;\n    doctor = _doctor;\n    // recordIds = [];\n    requestedRecordDesc = \"\";\n    version = 0;\n  }\n\n  /* A modifier */\n  modifier onlyByDoctor()\n  {\n    require(tx.origin == doctor);\n    _;\n  }\n\n   modifier onlyByBoth()\n    {\n      require((doctor == tx.origin) || (patient == tx.origin));\n      _;\n    }\n\n  modifier onlyByPatient()\n  {\n    require(tx.origin == patient);\n    _;\n  }\n\n  function SettingRequestedDesc(string memory desc) onlyByDoctor() public{\n    requestedRecordDesc = desc;\n  }\n\n  function setConsentedRecords(string[] memory _recordIds) onlyByPatient() public {\n    recordIds = _recordIds;\n  }\n\n  /* Set of getters for the contract */\n  function GetConsentedRecords()  onlyByBoth()  public view returns(string[] memory)\n  {\n    return recordIds;\n  }\n\n  function GetRequestedDesc() onlyByBoth() public view returns  (string memory)\n  {\n    return requestedRecordDesc;\n  }\n  \n}\n",
  "sourcePath": "/home/mudit/Study/Healthcare/ConsentManagementFrontEnd/contract-testing/contracts/ConsentTemplate.sol",
  "compiler": {
    "name": "solc",
    "version": "0.5.16+commit.9c3226ce.Emscripten.clang"
  },
  "schemaVersion": "3.4.6",
  "updatedAt": "2022-04-08T12:36:30.010Z",
  "devdoc": {
    "methods": {}
  },
  "userdoc": {
    "methods": {}
  }
}