{
  "contractName": "ConsentFile",
  "abi": [
    {
      "inputs": [
        {
          "internalType": "address",
          "name": "_user",
          "type": "address"
        },
        {
          "internalType": "enum ConsentFile.Role",
          "name": "_role",
          "type": "uint8"
        },
        {
          "internalType": "address",
          "name": "_CMS",
          "type": "address"
        }
      ],
      "payable": false,
      "stateMutability": "nonpayable",
      "type": "constructor"
    },
    {
      "anonymous": false,
      "inputs": [
        {
          "indexed": true,
          "internalType": "address",
          "name": "file",
          "type": "address"
        },
        {
          "indexed": true,
          "internalType": "address",
          "name": "user",
          "type": "address"
        },
        {
          "indexed": true,
          "internalType": "enum ConsentFile.Role",
          "name": "role",
          "type": "uint8"
        },
        {
          "indexed": false,
          "internalType": "address",
          "name": "consent",
          "type": "address"
        }
      ],
      "name": "ConsentFileConsentAdded",
      "type": "event"
    },
    {
      "constant": false,
      "inputs": [
        {
          "internalType": "contract Consent",
          "name": "_consent",
          "type": "address"
        }
      ],
      "name": "addConsent",
      "outputs": [],
      "payable": false,
      "stateMutability": "nonpayable",
      "type": "function"
    },
    {
      "constant": true,
      "inputs": [],
      "name": "getListOfConsents",
      "outputs": [
        {
          "internalType": "contract Consent[]",
          "name": "",
          "type": "address[]"
        }
      ],
      "payable": false,
      "stateMutability": "view",
      "type": "function"
    },
    {
      "constant": true,
      "inputs": [],
      "name": "getOwner",
      "outputs": [
        {
          "internalType": "address",
          "name": "",
          "type": "address"
        }
      ],
      "payable": false,
      "stateMutability": "view",
      "type": "function"
    }
  ],
  "bytecode": "0x608060405234801561001057600080fd5b5060405161073538038061073583398181016040526100329190810190610108565b806000806101000a81548173ffffffffffffffffffffffffffffffffffffffff021916908373ffffffffffffffffffffffffffffffffffffffff16021790555082600160006101000a81548173ffffffffffffffffffffffffffffffffffffffff021916908373ffffffffffffffffffffffffffffffffffffffff16021790555081600160146101000a81548160ff021916908360028111156100d157fe5b02179055505050506101b0565b6000815190506100ed81610189565b92915050565b600081519050610102816101a0565b92915050565b60008060006060848603121561011d57600080fd5b600061012b868287016100de565b935050602061013c868287016100f3565b925050604061014d868287016100de565b9150509250925092565b600061016282610169565b9050919050565b600073ffffffffffffffffffffffffffffffffffffffff82169050919050565b61019281610157565b811461019d57600080fd5b50565b600381106101ad57600080fd5b50565b610576806101bf6000396000f3fe608060405234801561001057600080fd5b50600436106100415760003560e01c8063856bb9cc14610046578063893d20e814610062578063da5269a614610080575b600080fd5b610060600480360361005b9190810190610381565b61009e565b005b61006a61025a565b604051610077919061043e565b60405180910390f35b610088610284565b6040516100959190610459565b60405180910390f35b600160009054906101000a900473ffffffffffffffffffffffffffffffffffffffff1673ffffffffffffffffffffffffffffffffffffffff163273ffffffffffffffffffffffffffffffffffffffff16148061014657506000809054906101000a900473ffffffffffffffffffffffffffffffffffffffff1673ffffffffffffffffffffffffffffffffffffffff163373ffffffffffffffffffffffffffffffffffffffff16145b61014f57600080fd5b60028190806001815401808255809150509060018203906000526020600020016000909192909190916101000a81548173ffffffffffffffffffffffffffffffffffffffff021916908373ffffffffffffffffffffffffffffffffffffffff16021790555050600160149054906101000a900460ff1660028111156101d057fe5b600160009054906101000a900473ffffffffffffffffffffffffffffffffffffffff1673ffffffffffffffffffffffffffffffffffffffff163073ffffffffffffffffffffffffffffffffffffffff167f0294aab5f2dfa94bfca8af7741616afbb94a905dba65a66717ddb351e7209e2e8460405161024f919061043e565b60405180910390a450565b6000600160009054906101000a900473ffffffffffffffffffffffffffffffffffffffff16905090565b6060600160009054906101000a900473ffffffffffffffffffffffffffffffffffffffff1673ffffffffffffffffffffffffffffffffffffffff163273ffffffffffffffffffffffffffffffffffffffff16146102e057600080fd5b600280548060200260200160405190810160405280929190818152602001828054801561036257602002820191906000526020600020905b8160009054906101000a900473ffffffffffffffffffffffffffffffffffffffff1673ffffffffffffffffffffffffffffffffffffffff1681526020019060010190808311610318575b5050505050905090565b60008135905061037b8161051c565b92915050565b60006020828403121561039357600080fd5b60006103a18482850161036c565b91505092915050565b60006103b6838361042f565b60208301905092915050565b6103cb816104b4565b82525050565b60006103dc8261048b565b6103e681856104a3565b93506103f18361047b565b8060005b8381101561042257815161040988826103aa565b975061041483610496565b9250506001810190506103f5565b5085935050505092915050565b610438816104f8565b82525050565b600060208201905061045360008301846103c2565b92915050565b6000602082019050818103600083015261047381846103d1565b905092915050565b6000819050602082019050919050565b600081519050919050565b6000602082019050919050565b600082825260208201905092915050565b60006104bf826104d8565b9050919050565b60006104d1826104b4565b9050919050565b600073ffffffffffffffffffffffffffffffffffffffff82169050919050565b60006105038261050a565b9050919050565b6000610515826104d8565b9050919050565b610525816104c6565b811461053057600080fd5b5056fea365627a7a7231582068811aa5613fed9e0f8e7eb63c8f7adec1dc57e73c94fe037e911022784798c66c6578706572696d656e74616cf564736f6c63430005100040",
  "source": "pragma solidity ^0.5.2;\npragma experimental ABIEncoderV2;\nimport \"./Consent.sol\";\n\ncontract ConsentFile {\n\n  address CMS;\n\n  /* The owner of the file */\n  address private user;\n  \n  enum Role {\n    doctor,\n    patient,\n    nominee\n  }\n  \n\n  Role private role;\n\n  /* The list of all consents */\n  Consent[] private listOfConsents;\n\n  /* Events that are sent when things happen */\n  event ConsentFileConsentAdded(address indexed file, address indexed user, Role indexed role, address consent);\n\n  /* A modifier */\n  modifier onlyByUser()\n  {\n    require(tx.origin == user);\n    _;\n  }\n  \n  modifier CMSorUser()\n  {\n    require ((tx.origin == user) || (msg.sender == CMS));\n    _;\n  }\n\n  /* The constructor of the file. Also attaches it to an owner */\n  constructor (address _user,Role _role,address _CMS) public\n  {\n    CMS = _CMS;\n    user = _user;\n    role = _role;\n  }\n\n  /* Adds a new consent to the file */\n  function addConsent(Consent _consent) CMSorUser() public \n  {\n    listOfConsents.push(_consent);\n    emit ConsentFileConsentAdded(address(this), user, role, address(_consent));\n  }\n\n  /* Retrieve a list of all consents in the file */\n  function getListOfConsents () onlyByUser() public view returns (Consent[] memory)\n  {\n    return listOfConsents;\n  }\n\n  /* Retrieves the owner */\n  function getOwner () public view returns (address)\n  {\n    return user;\n  }\n  \n}\n",
  "sourcePath": "/home/mudit/Study/Healthcare/ConsentManagementFrontEnd/contract-testing/contracts/ConsentFile.sol",
  "compiler": {
    "name": "solc",
    "version": "0.5.16+commit.9c3226ce.Emscripten.clang"
  },
  "schemaVersion": "3.4.6",
  "updatedAt": "2022-04-08T12:36:30.009Z",
  "devdoc": {
    "methods": {}
  },
  "userdoc": {
    "methods": {}
  }
}