{
  "contractName": "ConsentManagementSystem",
  "abi": [
    {
      "inputs": [
        {
          "internalType": "string",
          "name": "_company",
          "type": "string"
        },
        {
          "internalType": "address payable",
          "name": "_owner",
          "type": "address"
        }
      ],
      "payable": false,
      "stateMutability": "nonpayable",
      "type": "constructor"
    },
    {
      "anonymous": false,
      "inputs": [
        {
          "indexed": true,
          "internalType": "address",
          "name": "factory",
          "type": "address"
        },
        {
          "indexed": true,
          "internalType": "address",
          "name": "owner",
          "type": "address"
        },
        {
          "indexed": true,
          "internalType": "address",
          "name": "user",
          "type": "address"
        },
        {
          "indexed": false,
          "internalType": "address",
          "name": "file",
          "type": "address"
        },
        {
          "indexed": false,
          "internalType": "address",
          "name": "consent",
          "type": "address"
        }
      ],
      "name": "CMSConsentCreatedEvent",
      "type": "event"
    },
    {
      "anonymous": false,
      "inputs": [
        {
          "indexed": true,
          "internalType": "address",
          "name": "factory",
          "type": "address"
        },
        {
          "indexed": true,
          "internalType": "address",
          "name": "owner",
          "type": "address"
        },
        {
          "indexed": true,
          "internalType": "address",
          "name": "user",
          "type": "address"
        },
        {
          "indexed": false,
          "internalType": "contract Consent",
          "name": "consent",
          "type": "address"
        },
        {
          "indexed": false,
          "internalType": "enum Consent.Status",
          "name": "status",
          "type": "uint8"
        }
      ],
      "name": "CMSConsentStatusChangedEvent",
      "type": "event"
    },
    {
      "anonymous": false,
      "inputs": [
        {
          "indexed": true,
          "internalType": "address",
          "name": "factory",
          "type": "address"
        },
        {
          "indexed": true,
          "internalType": "address",
          "name": "owner",
          "type": "address"
        },
        {
          "indexed": true,
          "internalType": "address",
          "name": "user",
          "type": "address"
        },
        {
          "indexed": false,
          "internalType": "address",
          "name": "file",
          "type": "address"
        }
      ],
      "name": "CMSFileCreatedEvent",
      "type": "event"
    },
    {
      "constant": false,
      "inputs": [
        {
          "internalType": "address payable",
          "name": "_user",
          "type": "address"
        },
        {
          "internalType": "string",
          "name": "role",
          "type": "string"
        }
      ],
      "name": "AddNewUser",
      "outputs": [],
      "payable": false,
      "stateMutability": "nonpayable",
      "type": "function"
    },
    {
      "constant": true,
      "inputs": [],
      "name": "DoctorExists",
      "outputs": [
        {
          "internalType": "bool",
          "name": "",
          "type": "bool"
        }
      ],
      "payable": false,
      "stateMutability": "view",
      "type": "function"
    },
    {
      "constant": true,
      "inputs": [],
      "name": "ConsentFileExists",
      "outputs": [
        {
          "internalType": "contract ConsentFile",
          "name": "",
          "type": "address"
        }
      ],
      "payable": false,
      "stateMutability": "view",
      "type": "function"
    },
    {
      "constant": false,
      "inputs": [
        {
          "internalType": "address payable",
          "name": "_user",
          "type": "address"
        },
        {
          "internalType": "enum ConsentFile.Role",
          "name": "role",
          "type": "uint8"
        }
      ],
      "name": "createConsentFile",
      "outputs": [],
      "payable": false,
      "stateMutability": "nonpayable",
      "type": "function"
    },
    {
      "constant": false,
      "inputs": [
        {
          "internalType": "string",
          "name": "requestedDesc",
          "type": "string"
        },
        {
          "internalType": "address",
          "name": "fromPatient",
          "type": "address"
        }
      ],
      "name": "requestConsent",
      "outputs": [],
      "payable": false,
      "stateMutability": "nonpayable",
      "type": "function"
    },
    {
      "constant": true,
      "inputs": [],
      "name": "GetConsents",
      "outputs": [
        {
          "internalType": "contract Consent[]",
          "name": "",
          "type": "address[]"
        }
      ],
      "payable": false,
      "stateMutability": "view",
      "type": "function"
    }
  ],
  "bytecode": "0x60806040523480156200001157600080fd5b5060405162003d9e38038062003d9e8339818101604052620000379190810190620001fb565b806000806101000a81548173ffffffffffffffffffffffffffffffffffffffff021916908373ffffffffffffffffffffffffffffffffffffffff16021790555033600160006101000a81548173ffffffffffffffffffffffffffffffffffffffff021916908373ffffffffffffffffffffffffffffffffffffffff1602179055508160029080519060200190620000d0929190620000d9565b50505062000334565b828054600181600116156101000203166002900490600052602060002090601f016020900481019282601f106200011c57805160ff19168380011785556200014d565b828001600101855582156200014d579182015b828111156200014c5782518255916020019190600101906200012f565b5b5090506200015c919062000160565b5090565b6200018591905b808211156200018157600081600090555060010162000167565b5090565b90565b60008151905062000199816200031a565b92915050565b600082601f830112620001b157600080fd5b8151620001c8620001c28262000283565b62000255565b91508082526020830160208301858383011115620001e557600080fd5b620001f2838284620002e4565b50505092915050565b600080604083850312156200020f57600080fd5b600083015167ffffffffffffffff8111156200022a57600080fd5b62000238858286016200019f565b92505060206200024b8582860162000188565b9150509250929050565b6000604051905081810181811067ffffffffffffffff821117156200027957600080fd5b8060405250919050565b600067ffffffffffffffff8211156200029b57600080fd5b601f19601f8301169050602081019050919050565b6000620002bd82620002c4565b9050919050565b600073ffffffffffffffffffffffffffffffffffffffff82169050919050565b60005b8381101562000304578082015181840152602081019050620002e7565b8381111562000314576000848401525b50505050565b6200032581620002b0565b81146200033157600080fd5b50565b613a5a80620003446000396000f3fe60806040523480156200001157600080fd5b50600436106200006a5760003560e01c80630f354dd6146200006f57806340ab301e146200008f57806345db1c7514620000b15780638fc046d214620000d3578063a8f2efd814620000f3578063f15329831462000113575b600080fd5b6200008d600480360362000087919081019062000a17565b62000135565b005b6200009962000255565b604051620000a8919062000cf7565b60405180910390f35b620000bb6200034e565b604051620000ca919062000d38565b60405180910390f35b620000f16004803603620000eb919081019062000af7565b620003b5565b005b6200011160048036036200010b919081019062000a58565b62000610565b005b6200011d620007d4565b6040516200012c919062000d1b565b60405180910390f35b6000809054906101000a900473ffffffffffffffffffffffffffffffffffffffff168073ffffffffffffffffffffffffffffffffffffffff163273ffffffffffffffffffffffffffffffffffffffff16146200019057600080fd5b6000838330604051620001a390620008b6565b620001b19392919062000c8d565b604051809103906000f080158015620001ce573d6000803e3d6000fd5b50905080600760008673ffffffffffffffffffffffffffffffffffffffff1673ffffffffffffffffffffffffffffffffffffffff16815260200190815260200160002060006101000a81548173ffffffffffffffffffffffffffffffffffffffff021916908373ffffffffffffffffffffffffffffffffffffffff16021790555050505050565b60606000600760003273ffffffffffffffffffffffffffffffffffffffff1673ffffffffffffffffffffffffffffffffffffffff16815260200190815260200160002060009054906101000a900473ffffffffffffffffffffffffffffffffffffffff16905060608173ffffffffffffffffffffffffffffffffffffffff1663da5269a66040518163ffffffff1660e01b815260040160006040518083038186803b1580156200030457600080fd5b505afa15801562000319573d6000803e3d6000fd5b505050506040513d6000823e3d601f19601f8201168201806040525062000344919081019062000ab2565b9050809250505090565b6000600760003273ffffffffffffffffffffffffffffffffffffffff1673ffffffffffffffffffffffffffffffffffffffff16815260200190815260200160002060009054906101000a900473ffffffffffffffffffffffffffffffffffffffff16905090565b6000600760003273ffffffffffffffffffffffffffffffffffffffff1673ffffffffffffffffffffffffffffffffffffffff16815260200190815260200160002060009054906101000a900473ffffffffffffffffffffffffffffffffffffffff1690506000600760008473ffffffffffffffffffffffffffffffffffffffff1673ffffffffffffffffffffffffffffffffffffffff16815260200190815260200160002060009054906101000a900473ffffffffffffffffffffffffffffffffffffffff169050600083326040516200048f90620008c4565b6200049c92919062000cca565b604051809103906000f080158015620004b9573d6000803e3d6000fd5b5090508073ffffffffffffffffffffffffffffffffffffffff1663f998292a866040518263ffffffff1660e01b8152600401620004f7919062000d72565b600060405180830381600087803b1580156200051257600080fd5b505af115801562000527573d6000803e3d6000fd5b505050508273ffffffffffffffffffffffffffffffffffffffff1663856bb9cc826040518263ffffffff1660e01b815260040162000566919062000d55565b600060405180830381600087803b1580156200058157600080fd5b505af115801562000596573d6000803e3d6000fd5b505050508173ffffffffffffffffffffffffffffffffffffffff1663856bb9cc826040518263ffffffff1660e01b8152600401620005d5919062000d55565b600060405180830381600087803b158015620005f057600080fd5b505af115801562000605573d6000803e3d6000fd5b505050505050505050565b6000809054906101000a900473ffffffffffffffffffffffffffffffffffffffff168073ffffffffffffffffffffffffffffffffffffffff163273ffffffffffffffffffffffffffffffffffffffff16146200066b57600080fd5b620006ac826040518060400160405280600681526020017f646f63746f72000000000000000000000000000000000000000000000000000081525062000877565b15620007435782600460008573ffffffffffffffffffffffffffffffffffffffff1673ffffffffffffffffffffffffffffffffffffffff16815260200190815260200160002060006101000a81548173ffffffffffffffffffffffffffffffffffffffff021916908373ffffffffffffffffffffffffffffffffffffffff1602179055506200073d83600062000135565b620007cf565b82600360008573ffffffffffffffffffffffffffffffffffffffff1673ffffffffffffffffffffffffffffffffffffffff16815260200190815260200160002060006101000a81548173ffffffffffffffffffffffffffffffffffffffff021916908373ffffffffffffffffffffffffffffffffffffffff160217905550620007ce83600162000135565b5b505050565b6000328073ffffffffffffffffffffffffffffffffffffffff16600460008373ffffffffffffffffffffffffffffffffffffffff1673ffffffffffffffffffffffffffffffffffffffff16815260200190815260200160002060009054906101000a900473ffffffffffffffffffffffffffffffffffffffff1673ffffffffffffffffffffffffffffffffffffffff16146200086f57600080fd5b600191505090565b60006200088583836200088d565b905092915050565b600081518351148015620008ae575081805190602001208380519060200120145b905092915050565b610735806200105083390190565b612293806200178583390190565b600081359050620008e38162000ff0565b92915050565b600081359050620008fa816200100a565b92915050565b600082601f8301126200091257600080fd5b815162000929620009238262000dc4565b62000d96565b915081818352602084019350602081019050838560208402820111156200094f57600080fd5b60005b838110156200098357816200096888826200098d565b84526020840193506020830192505060018101905062000952565b5050505092915050565b6000815190506200099e8162001024565b92915050565b600081359050620009b5816200103e565b92915050565b600082601f830112620009cd57600080fd5b8135620009e4620009de8262000ded565b62000d96565b9150808252602083016020830185838301111562000a0157600080fd5b62000a0e83828462000f8c565b50505092915050565b6000806040838503121562000a2b57600080fd5b600062000a3b85828601620008e9565b925050602062000a4e85828601620009a4565b9150509250929050565b6000806040838503121562000a6c57600080fd5b600062000a7c85828601620008e9565b925050602083013567ffffffffffffffff81111562000a9a57600080fd5b62000aa885828601620009bb565b9150509250929050565b60006020828403121562000ac557600080fd5b600082015167ffffffffffffffff81111562000ae057600080fd5b62000aee8482850162000900565b91505092915050565b6000806040838503121562000b0b57600080fd5b600083013567ffffffffffffffff81111562000b2657600080fd5b62000b3485828601620009bb565b925050602062000b4785828601620008d2565b9150509250929050565b600062000b5f838362000c19565b60208301905092915050565b62000b768162000eec565b82525050565b62000b878162000e6f565b82525050565b600062000b9a8262000e2a565b62000ba6818562000e4d565b935062000bb38362000e1a565b8060005b8381101562000bea57815162000bce888262000b51565b975062000bdb8362000e40565b92505060018101905062000bb7565b5085935050505092915050565b62000c028162000e97565b82525050565b62000c138162000f00565b82525050565b62000c248162000f28565b82525050565b62000c358162000f28565b82525050565b62000c468162000f50565b82525050565b600062000c598262000e35565b62000c65818562000e5e565b935062000c7781856020860162000f9b565b62000c828162000fd1565b840191505092915050565b600060608201905062000ca4600083018662000b6b565b62000cb3602083018562000c3b565b62000cc2604083018462000b7c565b949350505050565b600060408201905062000ce1600083018562000b7c565b62000cf0602083018462000b6b565b9392505050565b6000602082019050818103600083015262000d13818462000b8d565b905092915050565b600060208201905062000d32600083018462000bf7565b92915050565b600060208201905062000d4f600083018462000c08565b92915050565b600060208201905062000d6c600083018462000c2a565b92915050565b6000602082019050818103600083015262000d8e818462000c4c565b905092915050565b6000604051905081810181811067ffffffffffffffff8211171562000dba57600080fd5b8060405250919050565b600067ffffffffffffffff82111562000ddc57600080fd5b602082029050602081019050919050565b600067ffffffffffffffff82111562000e0557600080fd5b601f19601f8301169050602081019050919050565b6000819050602082019050919050565b600081519050919050565b600081519050919050565b6000602082019050919050565b600082825260208201905092915050565b600082825260208201905092915050565b600062000e7c8262000ecc565b9050919050565b600062000e908262000ecc565b9050919050565b60008115159050919050565b600062000eb08262000e6f565b9050919050565b600081905062000ec78262000fe2565b919050565b600073ffffffffffffffffffffffffffffffffffffffff82169050919050565b600062000ef98262000f64565b9050919050565b600062000f0d8262000f14565b9050919050565b600062000f218262000ecc565b9050919050565b600062000f358262000f3c565b9050919050565b600062000f498262000ecc565b9050919050565b600062000f5d8262000eb7565b9050919050565b600062000f718262000f78565b9050919050565b600062000f858262000ecc565b9050919050565b82818337600083830152505050565b60005b8381101562000fbb57808201518184015260208101905062000f9e565b8381111562000fcb576000848401525b50505050565b6000601f19601f8301169050919050565b6003811062000fed57fe5b50565b62000ffb8162000e6f565b81146200100757600080fd5b50565b620010158162000e83565b81146200102157600080fd5b50565b6200102f8162000ea3565b81146200103b57600080fd5b50565b600381106200104c57600080fd5b5056fe608060405234801561001057600080fd5b5060405161073538038061073583398181016040526100329190810190610108565b806000806101000a81548173ffffffffffffffffffffffffffffffffffffffff021916908373ffffffffffffffffffffffffffffffffffffffff16021790555082600160006101000a81548173ffffffffffffffffffffffffffffffffffffffff021916908373ffffffffffffffffffffffffffffffffffffffff16021790555081600160146101000a81548160ff021916908360028111156100d157fe5b02179055505050506101b0565b6000815190506100ed81610189565b92915050565b600081519050610102816101a0565b92915050565b60008060006060848603121561011d57600080fd5b600061012b868287016100de565b935050602061013c868287016100f3565b925050604061014d868287016100de565b9150509250925092565b600061016282610169565b9050919050565b600073ffffffffffffffffffffffffffffffffffffffff82169050919050565b61019281610157565b811461019d57600080fd5b50565b600381106101ad57600080fd5b50565b610576806101bf6000396000f3fe608060405234801561001057600080fd5b50600436106100415760003560e01c8063856bb9cc14610046578063893d20e814610062578063da5269a614610080575b600080fd5b610060600480360361005b9190810190610381565b61009e565b005b61006a61025a565b604051610077919061043e565b60405180910390f35b610088610284565b6040516100959190610459565b60405180910390f35b600160009054906101000a900473ffffffffffffffffffffffffffffffffffffffff1673ffffffffffffffffffffffffffffffffffffffff163273ffffffffffffffffffffffffffffffffffffffff16148061014657506000809054906101000a900473ffffffffffffffffffffffffffffffffffffffff1673ffffffffffffffffffffffffffffffffffffffff163373ffffffffffffffffffffffffffffffffffffffff16145b61014f57600080fd5b60028190806001815401808255809150509060018203906000526020600020016000909192909190916101000a81548173ffffffffffffffffffffffffffffffffffffffff021916908373ffffffffffffffffffffffffffffffffffffffff16021790555050600160149054906101000a900460ff1660028111156101d057fe5b600160009054906101000a900473ffffffffffffffffffffffffffffffffffffffff1673ffffffffffffffffffffffffffffffffffffffff163073ffffffffffffffffffffffffffffffffffffffff167f0294aab5f2dfa94bfca8af7741616afbb94a905dba65a66717ddb351e7209e2e8460405161024f919061043e565b60405180910390a450565b6000600160009054906101000a900473ffffffffffffffffffffffffffffffffffffffff16905090565b6060600160009054906101000a900473ffffffffffffffffffffffffffffffffffffffff1673ffffffffffffffffffffffffffffffffffffffff163273ffffffffffffffffffffffffffffffffffffffff16146102e057600080fd5b600280548060200260200160405190810160405280929190818152602001828054801561036257602002820191906000526020600020905b8160009054906101000a900473ffffffffffffffffffffffffffffffffffffffff1673ffffffffffffffffffffffffffffffffffffffff1681526020019060010190808311610318575b5050505050905090565b60008135905061037b8161051c565b92915050565b60006020828403121561039357600080fd5b60006103a18482850161036c565b91505092915050565b60006103b6838361042f565b60208301905092915050565b6103cb816104b4565b82525050565b60006103dc8261048b565b6103e681856104a3565b93506103f18361047b565b8060005b8381101561042257815161040988826103aa565b975061041483610496565b9250506001810190506103f5565b5085935050505092915050565b610438816104f8565b82525050565b600060208201905061045360008301846103c2565b92915050565b6000602082019050818103600083015261047381846103d1565b905092915050565b6000819050602082019050919050565b600081519050919050565b6000602082019050919050565b600082825260208201905092915050565b60006104bf826104d8565b9050919050565b60006104d1826104b4565b9050919050565b600073ffffffffffffffffffffffffffffffffffffffff82169050919050565b60006105038261050a565b9050919050565b6000610515826104d8565b9050919050565b610525816104c6565b811461053057600080fd5b5056fea365627a7a7231582068811aa5613fed9e0f8e7eb63c8f7adec1dc57e73c94fe037e911022784798c66c6578706572696d656e74616cf564736f6c6343000510004060806040523480156200001157600080fd5b506040516200229338038062002293833981810160405262000037919081019062000185565b816000806101000a81548173ffffffffffffffffffffffffffffffffffffffff021916908373ffffffffffffffffffffffffffffffffffffffff16021790555080600160006101000a81548173ffffffffffffffffffffffffffffffffffffffff021916908373ffffffffffffffffffffffffffffffffffffffff1602179055508181604051620000c89062000160565b620000d5929190620001d7565b604051809103906000f080158015620000f2573d6000803e3d6000fd5b50600260006101000a81548173ffffffffffffffffffffffffffffffffffffffff021916908373ffffffffffffffffffffffffffffffffffffffff1602179055506000600160146101000a81548160ff021916908360048111156200015357fe5b0217905550505062000252565b610d8c806200150783390190565b6000815190506200017f8162000238565b92915050565b600080604083850312156200019957600080fd5b6000620001a9858286016200016e565b9250506020620001bc858286016200016e565b9150509250929050565b620001d18162000204565b82525050565b6000604082019050620001ee6000830185620001c6565b620001fd6020830184620001c6565b9392505050565b6000620002118262000218565b9050919050565b600073ffffffffffffffffffffffffffffffffffffffff82169050919050565b620002438162000204565b81146200024f57600080fd5b50565b6112a580620002626000396000f3fe608060405234801561001057600080fd5b50600436106100885760003560e01c80637b0f9a361161005b5780637b0f9a3614610103578063aa43c93614610121578063ea8a1af01461013d578063f998292a1461014757610088565b8063321c48f21461008d5780633aaa5920146100ab5780634ca334e2146100c95780634e69d560146100e5575b600080fd5b610095610163565b6040516100a29190610fd9565b60405180910390f35b6100b361023e565b6040516100c09190610f7a565b60405180910390f35b6100e360048036036100de9190810190610d32565b610319565b005b6100ed6104f4565b6040516100fa9190610ff4565b60405180910390f35b61010b6105bc565b6040516101189190610f7a565b60405180910390f35b61013b60048036036101369190810190610d73565b610696565b005b610145610824565b005b610161600480360361015c9190810190610d9c565b610a25565b005b60008060009054906101000a900473ffffffffffffffffffffffffffffffffffffffff1673ffffffffffffffffffffffffffffffffffffffff163273ffffffffffffffffffffffffffffffffffffffff16148061020d5750600160009054906101000a900473ffffffffffffffffffffffffffffffffffffffff1673ffffffffffffffffffffffffffffffffffffffff163273ffffffffffffffffffffffffffffffffffffffff16145b61021657600080fd5b600260009054906101000a900473ffffffffffffffffffffffffffffffffffffffff16905090565b60008060009054906101000a900473ffffffffffffffffffffffffffffffffffffffff1673ffffffffffffffffffffffffffffffffffffffff163273ffffffffffffffffffffffffffffffffffffffff1614806102e85750600160009054906101000a900473ffffffffffffffffffffffffffffffffffffffff1673ffffffffffffffffffffffffffffffffffffffff163273ffffffffffffffffffffffffffffffffffffffff16145b6102f157600080fd5b600160009054906101000a900473ffffffffffffffffffffffffffffffffffffffff16905090565b6000809054906101000a900473ffffffffffffffffffffffffffffffffffffffff1673ffffffffffffffffffffffffffffffffffffffff163273ffffffffffffffffffffffffffffffffffffffff161461037257600080fd5b6002600160146101000a81548160ff0219169083600481111561039157fe5b0217905550600260009054906101000a900473ffffffffffffffffffffffffffffffffffffffff1673ffffffffffffffffffffffffffffffffffffffff16634ca334e2826040518263ffffffff1660e01b81526004016103f19190610fb7565b600060405180830381600087803b15801561040b57600080fd5b505af115801561041f573d6000803e3d6000fd5b50505050600160009054906101000a900473ffffffffffffffffffffffffffffffffffffffff1673ffffffffffffffffffffffffffffffffffffffff166000809054906101000a900473ffffffffffffffffffffffffffffffffffffffff1673ffffffffffffffffffffffffffffffffffffffff163073ffffffffffffffffffffffffffffffffffffffff167fa5feef4ed63437e1e1e8021dca355750ed6da3e7f81a31e679ae236fd63bc444600160149054906101000a900460ff166040516104e99190610ff4565b60405180910390a450565b60008060009054906101000a900473ffffffffffffffffffffffffffffffffffffffff1673ffffffffffffffffffffffffffffffffffffffff163273ffffffffffffffffffffffffffffffffffffffff16148061059e5750600160009054906101000a900473ffffffffffffffffffffffffffffffffffffffff1673ffffffffffffffffffffffffffffffffffffffff163273ffffffffffffffffffffffffffffffffffffffff16145b6105a757600080fd5b600160149054906101000a900460ff16905090565b60008060009054906101000a900473ffffffffffffffffffffffffffffffffffffffff1673ffffffffffffffffffffffffffffffffffffffff163273ffffffffffffffffffffffffffffffffffffffff1614806106665750600160009054906101000a900473ffffffffffffffffffffffffffffffffffffffff1673ffffffffffffffffffffffffffffffffffffffff163273ffffffffffffffffffffffffffffffffffffffff16145b61066f57600080fd5b6000809054906101000a900473ffffffffffffffffffffffffffffffffffffffff16905090565b6000809054906101000a900473ffffffffffffffffffffffffffffffffffffffff1673ffffffffffffffffffffffffffffffffffffffff163273ffffffffffffffffffffffffffffffffffffffff16146106ef57600080fd5b600160048111156106fc57fe5b81600481111561070857fe5b148061072a57506002600481111561071c57fe5b81600481111561072857fe5b145b156108215780600160146101000a81548160ff0219169083600481111561074d57fe5b0217905550600160009054906101000a900473ffffffffffffffffffffffffffffffffffffffff1673ffffffffffffffffffffffffffffffffffffffff166000809054906101000a900473ffffffffffffffffffffffffffffffffffffffff1673ffffffffffffffffffffffffffffffffffffffff163073ffffffffffffffffffffffffffffffffffffffff167fa5feef4ed63437e1e1e8021dca355750ed6da3e7f81a31e679ae236fd63bc444600160149054906101000a900460ff166040516108189190610ff4565b60405180910390a45b50565b6000809054906101000a900473ffffffffffffffffffffffffffffffffffffffff1673ffffffffffffffffffffffffffffffffffffffff163273ffffffffffffffffffffffffffffffffffffffff161461087d57600080fd5b6004600160146101000a81548160ff0219169083600481111561089c57fe5b0217905550600260009054906101000a900473ffffffffffffffffffffffffffffffffffffffff1673ffffffffffffffffffffffffffffffffffffffff16634ca334e2600060405190808252806020026020018201604052801561091457816020015b60608152602001906001900390816108ff5790505b506040518263ffffffff1660e01b81526004016109319190610f95565b600060405180830381600087803b15801561094b57600080fd5b505af115801561095f573d6000803e3d6000fd5b50505050600160009054906101000a900473ffffffffffffffffffffffffffffffffffffffff1673ffffffffffffffffffffffffffffffffffffffff166000809054906101000a900473ffffffffffffffffffffffffffffffffffffffff1673ffffffffffffffffffffffffffffffffffffffff163073ffffffffffffffffffffffffffffffffffffffff167fa5feef4ed63437e1e1e8021dca355750ed6da3e7f81a31e679ae236fd63bc4446004604051610a1b9190610ff4565b60405180910390a4565b600160009054906101000a900473ffffffffffffffffffffffffffffffffffffffff1673ffffffffffffffffffffffffffffffffffffffff163273ffffffffffffffffffffffffffffffffffffffff1614610a7f57600080fd5b6003600160146101000a81548160ff02191690836004811115610a9e57fe5b0217905550600260009054906101000a900473ffffffffffffffffffffffffffffffffffffffff1673ffffffffffffffffffffffffffffffffffffffff16633f062270826040518263ffffffff1660e01b8152600401610afe919061100f565b600060405180830381600087803b158015610b1857600080fd5b505af1158015610b2c573d6000803e3d6000fd5b50505050600160009054906101000a900473ffffffffffffffffffffffffffffffffffffffff1673ffffffffffffffffffffffffffffffffffffffff166000809054906101000a900473ffffffffffffffffffffffffffffffffffffffff1673ffffffffffffffffffffffffffffffffffffffff163073ffffffffffffffffffffffffffffffffffffffff167fa5feef4ed63437e1e1e8021dca355750ed6da3e7f81a31e679ae236fd63bc444600160149054906101000a900460ff16604051610bf69190610ff4565b60405180910390a450565b600082601f830112610c1257600080fd5b8135610c25610c208261105e565b611031565b9150818183526020840193506020810190508360005b83811015610c6b5781358601610c518882610c8a565b845260208401935060208301925050600181019050610c3b565b5050505092915050565b600081359050610c8481611252565b92915050565b600082601f830112610c9b57600080fd5b8135610cae610ca982611086565b611031565b91508082526020830160208301858383011115610cca57600080fd5b610cd58382846111f2565b50505092915050565b600082601f830112610cef57600080fd5b8135610d02610cfd826110b2565b611031565b91508082526020830160208301858383011115610d1e57600080fd5b610d298382846111f2565b50505092915050565b600060208284031215610d4457600080fd5b600082013567ffffffffffffffff811115610d5e57600080fd5b610d6a84828501610c01565b91505092915050565b600060208284031215610d8557600080fd5b6000610d9384828501610c75565b91505092915050565b600060208284031215610dae57600080fd5b600082013567ffffffffffffffff811115610dc857600080fd5b610dd484828501610cde565b91505092915050565b6000610de98383610f41565b905092915050565b610dfa81611177565b82525050565b6000610e0b82611109565b610e158185611144565b935083602082028501610e27856110ee565b8060005b85811015610e635784840389528151610e448582610ddd565b9450610e4f83611137565b925060208a01995050600181019050610e2b565b50829750879550505050505092915050565b6000610e80826110fe565b610e8a8185611144565b935083602082028501610e9c856110de565b8060005b85811015610ed85784840389528151610eb98582610ddd565b9450610ec48361112a565b925060208a01995050600181019050610ea0565b50829750879550505050505092915050565b610ef3816111bc565b82525050565b610f02816111e0565b82525050565b6000610f138261111f565b610f1d8185611166565b9350610f2d818560208601611201565b610f3681611234565b840191505092915050565b6000610f4c82611114565b610f568185611155565b9350610f66818560208601611201565b610f6f81611234565b840191505092915050565b6000602082019050610f8f6000830184610df1565b92915050565b60006020820190508181036000830152610faf8184610e75565b905092915050565b60006020820190508181036000830152610fd18184610e00565b905092915050565b6000602082019050610fee6000830184610eea565b92915050565b60006020820190506110096000830184610ef9565b92915050565b600060208201905081810360008301526110298184610f08565b905092915050565b6000604051905081810181811067ffffffffffffffff8211171561105457600080fd5b8060405250919050565b600067ffffffffffffffff82111561107557600080fd5b602082029050602081019050919050565b600067ffffffffffffffff82111561109d57600080fd5b601f19601f8301169050602081019050919050565b600067ffffffffffffffff8211156110c957600080fd5b601f19601f8301169050602081019050919050565b6000819050602082019050919050565b6000819050602082019050919050565b600081519050919050565b600081519050919050565b600081519050919050565b600081519050919050565b6000602082019050919050565b6000602082019050919050565b600082825260208201905092915050565b600082825260208201905092915050565b600082825260208201905092915050565b60006111828261119c565b9050919050565b600081905061119782611245565b919050565b600073ffffffffffffffffffffffffffffffffffffffff82169050919050565b60006111c7826111ce565b9050919050565b60006111d98261119c565b9050919050565b60006111eb82611189565b9050919050565b82818337600083830152505050565b60005b8381101561121f578082015181840152602081019050611204565b8381111561122e576000848401525b50505050565b6000601f19601f8301169050919050565b6005811061124f57fe5b50565b6005811061125f57600080fd5b5056fea365627a7a7231582029bd5d683060de47b8dc3c55884dfc2cdaec960fc7595e2ffd52930247c4917e6c6578706572696d656e74616cf564736f6c6343000510004060806040523480156200001157600080fd5b5060405162000d8c38038062000d8c8339818101604052620000379190810190620001ca565b816000806101000a81548173ffffffffffffffffffffffffffffffffffffffff021916908373ffffffffffffffffffffffffffffffffffffffff16021790555080600160006101000a81548173ffffffffffffffffffffffffffffffffffffffff021916908373ffffffffffffffffffffffffffffffffffffffff1602179055506040518060200160405280600081525060039080519060200190620000df92919062000104565b506000600460006101000a81548160ff021916908360ff160217905550505062000259565b828054600181600116156101000203166002900490600052602060002090601f016020900481019282601f106200014757805160ff191683800117855562000178565b8280016001018555821562000178579182015b82811115620001775782518255916020019190600101906200015a565b5b5090506200018791906200018b565b5090565b620001b091905b80821115620001ac57600081600090555060010162000192565b5090565b90565b600081519050620001c4816200023f565b92915050565b60008060408385031215620001de57600080fd5b6000620001ee85828601620001b3565b92505060206200020185828601620001b3565b9150509250929050565b600062000218826200021f565b9050919050565b600073ffffffffffffffffffffffffffffffffffffffff82169050919050565b6200024a816200020b565b81146200025657600080fd5b50565b610b2380620002696000396000f3fe608060405234801561001057600080fd5b506004361061004c5760003560e01c80633f0622701461005157806340a4895c1461006d5780634ca334e21461008b5780636e81a8a3146100a7575b600080fd5b61006b600480360361006691908101906107ef565b6100c5565b005b610075610139565b604051610082919061094d565b60405180910390f35b6100a560048036036100a091908101906107ae565b61028c565b005b6100af6102ff565b6040516100bc919061092b565b60405180910390f35b600160009054906101000a900473ffffffffffffffffffffffffffffffffffffffff1673ffffffffffffffffffffffffffffffffffffffff163273ffffffffffffffffffffffffffffffffffffffff161461011f57600080fd5b8060039080519060200190610135929190610499565b5050565b60603273ffffffffffffffffffffffffffffffffffffffff16600160009054906101000a900473ffffffffffffffffffffffffffffffffffffffff1673ffffffffffffffffffffffffffffffffffffffff1614806101e357503273ffffffffffffffffffffffffffffffffffffffff166000809054906101000a900473ffffffffffffffffffffffffffffffffffffffff1673ffffffffffffffffffffffffffffffffffffffff16145b6101ec57600080fd5b60038054600181600116156101000203166002900480601f0160208091040260200160405190810160405280929190818152602001828054600181600116156101000203166002900480156102825780601f1061025757610100808354040283529160200191610282565b820191906000526020600020905b81548152906001019060200180831161026557829003601f168201915b5050505050905090565b6000809054906101000a900473ffffffffffffffffffffffffffffffffffffffff1673ffffffffffffffffffffffffffffffffffffffff163273ffffffffffffffffffffffffffffffffffffffff16146102e557600080fd5b80600290805190602001906102fb929190610519565b5050565b60603273ffffffffffffffffffffffffffffffffffffffff16600160009054906101000a900473ffffffffffffffffffffffffffffffffffffffff1673ffffffffffffffffffffffffffffffffffffffff1614806103a957503273ffffffffffffffffffffffffffffffffffffffff166000809054906101000a900473ffffffffffffffffffffffffffffffffffffffff1673ffffffffffffffffffffffffffffffffffffffff16145b6103b257600080fd5b6002805480602002602001604051908101604052809291908181526020016000905b82821015610490578382906000526020600020018054600181600116156101000203166002900480601f01602080910402602001604051908101604052809291908181526020018280546001816001161561010002031660029004801561047c5780601f106104515761010080835404028352916020019161047c565b820191906000526020600020905b81548152906001019060200180831161045f57829003601f168201915b5050505050815260200190600101906103d4565b50505050905090565b828054600181600116156101000203166002900490600052602060002090601f016020900481019282601f106104da57805160ff1916838001178555610508565b82800160010185558215610508579182015b828111156105075782518255916020019190600101906104ec565b5b5090506105159190610579565b5090565b828054828255906000526020600020908101928215610568579160200282015b8281111561056757825182908051906020019061055792919061059e565b5091602001919060010190610539565b5b509050610575919061061e565b5090565b61059b91905b8082111561059757600081600090555060010161057f565b5090565b90565b828054600181600116156101000203166002900490600052602060002090601f016020900481019282601f106105df57805160ff191683800117855561060d565b8280016001018555821561060d579182015b8281111561060c5782518255916020019190600101906105f1565b5b50905061061a9190610579565b5090565b61064791905b80821115610643576000818161063a919061064a565b50600101610624565b5090565b90565b50805460018160011615610100020316600290046000825580601f10610670575061068f565b601f01602090049060005260206000209081019061068e9190610579565b5b50565b600082601f8301126106a357600080fd5b81356106b66106b18261099c565b61096f565b9150818183526020840193506020810190508360005b838110156106fc57813586016106e28882610706565b8452602084019350602083019250506001810190506106cc565b5050505092915050565b600082601f83011261071757600080fd5b813561072a610725826109c4565b61096f565b9150808252602083016020830185838301111561074657600080fd5b610751838284610a8d565b50505092915050565b600082601f83011261076b57600080fd5b813561077e610779826109f0565b61096f565b9150808252602083016020830185838301111561079a57600080fd5b6107a5838284610a8d565b50505092915050565b6000602082840312156107c057600080fd5b600082013567ffffffffffffffff8111156107da57600080fd5b6107e684828501610692565b91505092915050565b60006020828403121561080157600080fd5b600082013567ffffffffffffffff81111561081b57600080fd5b6108278482850161075a565b91505092915050565b600061083c83836108f2565b905092915050565b600061084f82610a2c565b6108598185610a5a565b93508360208202850161086b85610a1c565b8060005b858110156108a757848403895281516108888582610830565b945061089383610a4d565b925060208a0199505060018101905061086f565b50829750879550505050505092915050565b60006108c482610a42565b6108ce8185610a7c565b93506108de818560208601610a9c565b6108e781610acf565b840191505092915050565b60006108fd82610a37565b6109078185610a6b565b9350610917818560208601610a9c565b61092081610acf565b840191505092915050565b600060208201905081810360008301526109458184610844565b905092915050565b6000602082019050818103600083015261096781846108b9565b905092915050565b6000604051905081810181811067ffffffffffffffff8211171561099257600080fd5b8060405250919050565b600067ffffffffffffffff8211156109b357600080fd5b602082029050602081019050919050565b600067ffffffffffffffff8211156109db57600080fd5b601f19601f8301169050602081019050919050565b600067ffffffffffffffff821115610a0757600080fd5b601f19601f8301169050602081019050919050565b6000819050602082019050919050565b600081519050919050565b600081519050919050565b600081519050919050565b6000602082019050919050565b600082825260208201905092915050565b600082825260208201905092915050565b600082825260208201905092915050565b82818337600083830152505050565b60005b83811015610aba578082015181840152602081019050610a9f565b83811115610ac9576000848401525b50505050565b6000601f19601f830116905091905056fea365627a7a723158207798c3655be201cfa223b53b904c8fb405f5398a2b67f43fbfad9f4992cceced6c6578706572696d656e74616cf564736f6c63430005100040a365627a7a723158206de6639635f8e7b81fb8300e980d301ab34a19d743989c97ab02376dcd0e11846c6578706572696d656e74616cf564736f6c63430005100040",
  "source": "pragma solidity ^0.5.2;\npragma experimental ABIEncoderV2;\nimport \"./ConsentFile.sol\";\n\n// /* \n//  * This is the consent factory contract that handles consents and version of\n//  * consents.\n//  *\n//  * It basically provides an interface to be able to create consents based on\n//  * a specific purpouse for a specific user. And always using the latest version\n//  * and always puts newly generated consents into a persons consent file.\n//  *\n//  */\n\ncontract ConsentManagementSystem {\n\n  \n  /* The owner of this contract */\n  address payable private owner;  /* Who owns this CMS*/\n  address private creator; /* Who created this CMS */\n  string  private company;  /* Company that created this CMS */\n  \n  enum Role {\n    doctor,\n    patient,\n    nominee\n  }\n\n  mapping(address => address) Patients;\n  mapping(address => address) Doctors;\n  \n  mapping(address => mapping(address => uint)) private ConnectionDoctorPatient;\n  mapping(address => mapping(address => uint)) private ConnectionDoctorPatientInv;\n  // mapping(address => mapping(address => Consent)) private ConsentDoctorPatient;\n  // mapping(address => mapping(address => Consent)) private ConsentDoctorPatientInv;\n\n  mapping(address => ConsentFile) UserToConsentFile;\n  // mapping(address =>mapping(address => address)) PatientDoctorToConsentFile;\n  \n  \n  /* Events generated when the consent has been created */\n  event CMSConsentCreatedEvent(address indexed factory, address indexed owner, address indexed user, address file, address consent);\n  event CMSFileCreatedEvent(address indexed factory, address indexed owner, address indexed user, address file);\n  // event CMSFailedEvent(address indexed factory, address indexed owner, address indexed user, Error error);\n  event CMSConsentStatusChangedEvent (address indexed factory, address indexed owner, address indexed user, Consent consent, Consent.Status status);\n  \n  /* A modifier */\n  modifier onlyBy(address _account) \n  { \n    require(tx.origin == _account);\n    _;\n  }\n  \n  modifier PatientAccountExists(address _account)\n  {\n    require(Patients[_account] == _account);\n    _;\n  }\n\n  modifier DoctorAccountExists(address _account)\n  {\n    require(Doctors[_account] == _account);\n    _;\n  }\n\n  /* Constructor for the consent factory */\n  constructor (string memory _company, address payable _owner) public\n  {\n    owner = _owner;\n    creator = msg.sender;\n    company = _company;\n  }\n  function memcmp(bytes memory a, bytes memory b) internal pure returns(bool){\n    return (a.length == b.length) && (keccak256(a) == keccak256(b));\n  }\n  function strcmp(string memory a, string memory b) internal pure returns(bool){\n    return memcmp(bytes(a), bytes(b));\n  }\n\n  function AddNewUser(address payable _user,string memory role) onlyBy(owner) public {\n    if(strcmp(role,\"doctor\")) {\n      Doctors[_user] = _user;\n      createConsentFile(_user,ConsentFile.Role.doctor);\n    }\n    else {\n      Patients[_user] = _user;\n      createConsentFile(_user,ConsentFile.Role.patient);\n    }\n  }\n\n  function DoctorExists() DoctorAccountExists(tx.origin) public view returns(bool){\n    return true;\n  }\n\n  function ConsentFileExists() public view returns(ConsentFile) {\n    return UserToConsentFile[tx.origin];\n  }\n  /* Create a file that holds a users all consents.\n   * \n   * This is the file that holds all consents regardless of their state. Should have a modifier for the company.\n   */\n  function createConsentFile(address payable _user,ConsentFile.Role role) onlyBy(owner) public\n  {\n    ConsentFile file = new ConsentFile(_user,role,address(this));\n    UserToConsentFile[_user] = file;\n    // emit CMSFileCreatedEvent(address(this), owner, _user, file);\n  }\n\n  modifier ConnectionExists(address patient,address doctor) {\n    require ((ConnectionDoctorPatient[patient][doctor] == 1) || (ConnectionDoctorPatientInv[patient][doctor] == 1));\n    _;\n  }\n  \n  /* Create a consent for a specific purpouse of the latest version, language and country.\n   *\n   * Country and Purpouse must exist otherwise it will fail, if language is not there it will\n   * default to countrys default language if it exists otherwise it will fail. It adds\n   * the consent to the users file as well. Should have a modifier for the company only.\n   */\n\n  function requestConsent(string memory requestedDesc,address fromPatient)  public{\n    ConsentFile DoctorConsentFile = UserToConsentFile[tx.origin];\n    ConsentFile PatientConsentFile = UserToConsentFile[fromPatient];\n\n    Consent consent = new Consent(fromPatient,tx.origin);\n    consent.setRequestStatus(requestedDesc);\n\n    DoctorConsentFile.addConsent(consent);\n    PatientConsentFile.addConsent(consent);\n\n  }\n\n  function GetConsents() public view returns(Consent[] memory) {\n    ConsentFile UserConsents = UserToConsentFile[tx.origin];\n    Consent[] memory _consents = UserConsents.getListOfConsents();\n    return _consents;\n  }\n\n  // function createConsent (address _file, string memory _purpouse, string memory _languageCountry) PatientAccountExists(msg.sender) public\n  // {\n  //   ConsentFile cf = ConsentFile (_file);\n  //   ConsentTemplate ct = getTemplate (_purpouse, _languageCountry);\n  //   if (address(ct) != address(0)) {\n\n  //     /* We got a template so generate the consent and put it into the consent file */\n  //     Consent consent = new Consent (cf.getGiver(), address(ct));\n  //     ConsentFile(_file).addConsent (address(consent));\n  //     // emit ConsentFactoryConsentCreatedEvent(address(this), owner, cf.getGiver(), _file, address(consent));\n\n  //   } else {\n      \n  //     // emit ConsentFactoryFailedEvent(address(this), owner, cf.getGiver(), Error.no_such_template);\n      \n  //   }\n  // }\n  \n  /* This function tests wether a consent for a specific purpouse exists or not */\n  // function getTemplate (string memory _purpouse, string memory _languageCountry) view internal returns (ConsentTemplate)\n  // {\n  //   /* Get the consents for a specific purpouse and language, country*/\n  //   uint ix = consentTemplates[_purpouse][_languageCountry];\n  //   if (ix == 0) {\n      \n  //     /* Fallback here is to only go for the default language of the country */\n  //     /* So we need to strip the language from the country */\n  //     bytes memory b = bytes (_languageCountry);\n  //     if (b.length==5) {\n\t// if (uint8(b[2]) == 45) {\n  //   \t  bytes memory c = new bytes(2);\n\t  \n\t//   /* Get the country */\n  //   \t  c[0] = b[3];\n  //   \t  c[1] = b[4];\n  //   \t  ix = consentTemplates[_purpouse][string(c)];\n  //   \t}\n  //     }\n  //   }\n\n  //   /* Return the consent template if we found any */\n  //   if (ix>0)\n  //     return ConsentTemplate(listOfActiveConsentTemplates[ix-1]);\n  //   else\n  //     return ConsentTemplate(address(0));\n  // }\n\n  // /* Change the status of the consent */\n  // function setConsentStatus(Consent _consent, Consent.Status _status) onlyBy (_consent.getGiver()) public\n  // {\n  //   if(_status == Consent.Status.accepted || _status == Consent.Status.denied) {\n  //     _consent.setStatus (_status);\n  //     emit ConsentFactoryConsentStatusChangedEvent (address(this), _consent.getOwner(), _consent.getGiver(), _consent, _status);\n  //   } else {\n  //     emit ConsentFactoryFailedEvent (address(this), _consent.getOwner(), _consent.getGiver(), Error.only_accepted_or_denied);\n  //   }\n  // }\n  \n  // /* Cancel the consent */\n  // function cancelConsent(Consent _consent) onlyBy (_consent.getOwner()) public\n  // {\n  //   _consent.cancel();\n  //   emit ConsentFactoryConsentStatusChangedEvent (address(this), _consent.getOwner(), _consent.getGiver(), _consent, Consent.Status.cancelled);\n  // }\n\n  // /* The company who has this factory */\n  // function getCompany() public view returns (string memory)\n  // {\n  //   return company;\n  // }\n\n  // /* Returns the owner for the factory */\n  // function getOwner() public view returns (address)\n  // {\n  //   return owner;\n  // }\n  \n  // /* Function to recover the funds on the contract */\n  // function kill() public { if (msg.sender == owner) selfdestruct(owner); }\n}\n\n/*\n * END\n */",
  "sourcePath": "/home/mudit/Study/Healthcare/ConsentManagementFrontEnd/contract-testing/contracts/CMS.sol",
  "compiler": {
    "name": "solc",
    "version": "0.5.16+commit.9c3226ce.Emscripten.clang"
  },
  "schemaVersion": "3.4.6",
  "updatedAt": "2022-04-08T12:36:30.003Z",
  "devdoc": {
    "methods": {}
  },
  "userdoc": {
    "methods": {}
  }
}